:041C5900EF120889F5
:101C5D00E4FF7E01EE600F30B4024207D2B5C2B58B
:061C6D00EE25E0FE80EE12
:011C7300224E
:041C3C0012084AFF41
:101C40007E01EE60135F7004C2B48002D2B4D2B5DC
:081C5000C2B5EE25E0FE80EABA
:011C58002269
:101A6700D2977FBF121C40121C5D900005121C59B3
:101A7700900004121C59900003121C599000021286
:101A87001C59900001121C59900006121C59EF12A4
:101A97000877C297E92405F9E43AFA120831547F26
:031AA700020877BB
:101AAA00D2977FBE121C40900005121C3C90000485
:101ABA00121C3C900003121C3C900002121C3C9029
:101ACA000001121C3C900006121C3C120831FF1245
:0A1ADA001C40E4FF121C40C29722DA
:101D1100D297EF25E04481FF121C40121C5DC2974F
:011D2100229F
:101CEC00D297EF25E04480FF121C40AF05121C4038
:031CFC00C297226A
:101B1A00750817750905750A09750B12750C55E4D0
:101B2A00F50D750E02C2B5C297FF121D11EF30E70F
:101B3A0010E4FD7F07121CEC7B007A007908121A68
:011B4A00AAF0
:011B4B002277
:10126E00200000000000183033986FEC5834111035
:10127E003118311831D8101018300FE007C01C701B
:10128E0000000000010041042008139007C00FE089
:10129E00DFF61FF00FE007C0139020084104010095
:1012AE0000000000078003C001E001F000F800F824
:1012BE0000F800F800F801F003F007E00FC01F007F
:1012CE00000000007FFE6006600660066006600695
:1012DE0060067FFE7FFE601E6C1E6C1E6C1E601E06
:1012EE007FFE000000000000008001C00360063099
:1012FE00041004100C18180C3FFE01400080000072
:10130E000000000000000000308019C00F600630A1
:10131E00073005900CD8186C3FFE0158008C000663
:10132E000000A1A0A1A0A1A0A1A0A1A0A1A0A1A0E8
:02133E00A1A06C
:101CFF00C290D291D295E5805480FFC29570F5C203
:011D0F00953E
:011D100022B0
:091C8E00FF121C97E50B4480FFD6
:101C9700AE07121CFFC290C291D2958E80C29522C8
:061CC00014F9120831FFC7
:101CC600AE07121CFFD290C291D2958E80C2952289
:101C1E007F30121C977F0C121C977F01121C977B32
:0E1C2E00FF7A12796E751001E4FDFF021BFCB7
:101BFC008B0D8A0E890F121BD1AB0D050FE50FAAA9
:101C0C000E7002050E121CC01510E510D394005076
:021C1C00E822BC
:0A19D0008F138D148B158A168917EA
:1019DA00AF181518EFD394004038AD14AF13121B8B
:1019EA00D10513E513D394074005E4F5130514ABA9
:1019FA0015AA16A917120900FDACF0ECFF121CC6B5
:101A0A00AF05121CC674022517F517E43516F5162C
:021A1A0080BE8C
:011A1C0022A7
:021BD100AE075D
:101BD300E4FFED14601014601314601624037016F0
:101BE300EE2480FF8010EE2490FF800AEE2488FF0D
:091BF3008004EE2498FF021C9707
:050003007F0F021C97B5
:051D4D007F0C021C9751
:101CA7007F30121C977F01121C977BFF7A12796E87
:091CB700751001E4FDFF021BFCA5
:06165B008B478A48894913
:101661007F34121C977F34121C97E4FCEC4480FFFA
:10167100121C977F80121C97E4FDAB470549E54991
:10168100AA4870020548121CC0AB470549E549AAA2
:101691004870020548121CC00DBD08DE0CBC20CCF0
:1016A100E4FCEC4480FF121C977F88121C97E4FD38
:1016B100AB470549E549AA4870020548121CC0AB71
:1016C100470549E549AA4870020548121CC00DBDED
:1016D10008DE0CBC20CC7F36121C977F30021C9791
:08153D008F0B8B0C8A0D890E47
:101545007F34121C977F34121C97EDC394025030E0
:10155500E4FCEDC454F044804C121C8EAB0C050E1B
:10156500E50EAA0D7002050D121CC0AB0C050EE5AB
:101575000EAA0D7002050D121CC00CBC10D48037CC
:10158500E4FCEDC454F044804CFF121C97E50B4479
:1015950088FF121C97AB0C050EE50EAA0D7002050F
:1015A5000D121CC0AB0C050EE50EAA0D7002050D43
:1015B500121CC00CBC10CBEDC454F04480121C8E20
:0A15C5007F36121C977F30021C973E
:101978007F34121C977F34121C97E4FCEC4480FFE0
:10198800121C977F80121C97E4FDE4FF121CC6E42A
:10199800FF121CC60DBD08F20CBC20E0E4FCEC44B0
:1019A80080FF121C977F88121C97E4FDE4FF121C2D
:1019B800C6E4FF121CC60DBD08F20CBC20E07F3641
:0819C800121C977F30021C97EE
:0217DA00AB075B
:1017DC007F34121C977F34121C97EDC39402502453
:1017EC00E4FCEDC454F044804CFF121C97EB448095
:1017FC00FF121C97E4FF121CC6E4FF121CC60CBCA3
:10180C0010E08022E4FCEDC454F044804CFF121C28
:10181C0097EB4488FF121C97E4FF121CC6E4FF12DE
:10182C001CC60CBC10E0EDC454F04480FF121C9795
:10183C00EB4480FF121C977F36121C977F30021CE2
:01184C009704
:0F1D32007BFF7A137930C374089FF5180219D01C
:09175F00014C00C105024A000022
:101AE400D2AF121B1A121C1E1219787F01121BA5E9
:101AF400E54C701D30010DC201120BD330061212D9
:101B04001919800DE54CB40108300205C202121601
:061B1400E112119880DAD5
:10191900200541200058E53EC4540F75F00AA4FF84
:10192900E53E540F7C002FFFEC35F0FEE5226F7089
:1019390001EE703AE53FC4540F75F00AA4FFE53F84
:10194900540F2FFFEC35F0FEE523B50721ECB50662
:101959001DD20022C200054BE54B7002054AC39413
:0E1969002CE54A94014007E4F54AF54BC2050F
:01197700224D
:101A1D00011F021C031F041E051F061E071F081FA2
:101A2D00091E0A1F0B1E0C1F00000000D6DCD2BBC6
:101A3D00D6DCB6FED6DCC8FDD6DCCBC4D6DCCEE516
:101A4D00D6DCC1F9D6DCC8D5CEC2B6C8A3BACAAAEF
:0A1A5D00B6C8A3BAC4D6D6D3A3BA04
:101768000124AA0125AA0126AA01220001230001B9
:041778002100C10685
:101CD600E4F51EE51E04FDE4FF121D32051EE51E99
:051CE600C3940340EE71
:011CEB0022D6
:100BD300E526B4AA1730060E7BFF7A127970E4FD7E
:100BE300FF12153D8006E4FDFF1217DA7B007A0041
:100BF300793B121A67E52465407003020CA985400E
:100C030024E53EC4540F24B0783BF2E434A318F235
:100C1300E53E540F24B0783DF2E434A318F2783E55
:100C230074A1F20874C3F2E53FC4540F24B07841B1
:100C3300F2E434A318F2E53F540F24B07843F2E40E
:100C430034A318F2784474A1F20874C3F2E540C4E3
:100C5300540F24B07847F2E434A318F2E540540F5C
:100C630024B07849F2E434A318F27BFE7A00793A8F
:100C73007518087D03E4FF1219D0E526653E60264A
:100C8300853E26E53EC39408400FE53ED3941850B5
:100C9300087BFF7A12799080067BFF7A1279B0E4A1
:100CA300FD7F0512153DE525653D7003020D568553
:100CB3003D25784A7420F208F2087432F208743041
:100CC300F2E53BC4540F243008F2E53B540F2430C3
:100CD30008F2087420F208F2E53CC4540F243008EB
:100CE300F2E53C540F243008F2087420F208F2E5D0
:100CF3003DC4540F243008F2E53D540F243008F26C
:100D0300785A74A1F20874A4F27BFE7A00794A75CA
:100D1300100E7D01E4FF121BFC7BFE7A00795A75ED
:100D230018017D017F031219D07BFE7A00795A7571
:100D330018017D017F051219D0E54175F004A42443
:100D430035F9741A35F0FA7BFF7518027D027F03BB
:030D53001219D0A2
:010D5600227A
:1016E10075160075170075180B7B007A00790C12BE
:1016F10014A3E50B75F00A8424B0F50EE434A3F5C8
:101701000DE50B75F00A84E5F024B0F510E434A37F
:10171100F50F7511A17512E67B007A00790D751828
:10172100037D017F031219D0E50C75F00A8424B002
:10173100F50EE434A3F50DE50C75F00A84E5F0240B
:10174100B0F510E434A3F50F7511A37512A57B0054
:0E1751007A00790D7518037D027F030219D00E
:100ED300121CA77BFF7A1A79557518037D01E4FF6D
:100EE3001219D07BFF7A1A795B7518037D02E4FF30
:100EF3001219D07BFF7A1A79617518037D03E4FF19
:100F03001219D0300658E52275F00A8424B0783BD4
:100F1300F2E434A318F2E52275F00A84E5F024B074
:100F2300783DF2E434A318F2783E74A1F20874C356
:100F3300F2E52375F00A8424B07841F2E434A3186F
:100F4300F2E52375F00A84E5F024B07843F2E43443
:100F5300A318F27BFE7A00793A7518058022783A55
:100F630074CEF20874B4F20874BFF20874AAF208DB
:100F730074C6F20874F4F27BFE7A00793A751803AA
:100F83007D037F031219D01216E1E53BC4540F759C
:100F9300F00AA4FFE53B540F2FFF784AF2E53CC467
:100FA300540F75F00AA4FEE53C540F2E08F2FDE53C
:100FB3003DC4540F75F00AA4FEE53D540F2EFE7890
:100FC30049F2FB750EFE750F0075103A120D577836
:100FD30048EFF27BFE7A00793AF518E4FD7F0102CF
:020FE30019D023
:1018B700E521B40800504E9018C5F828287302187F
:1018C700DD0218E10218E70218ED0218F30218F911
:1018D7000218FF0219057D0180087D017F0680221D
:1018E7007D027F04801C7D037F0180167D037F04BA
:1018F70080107D037F07800AE4FD7F0580047D015A
:101907007F02121BD10521E521D394074003E4F59B
:0219170021228B
:101B7900E52114600D146010240270137D027F06A4
:101B8900800AE4FD7F0480047D027F03121BD105D6
:0C1B990021E521D394024003E4F5212251
:100FE500E53BC454F0FFE52775F00A844FF53BC493
:100FF50054F0FFE52775F00A84E5F04FF53BE53C35
:10100500C454F0FFE52875F00A844FF53CC454F04C
:10101500FFE52875F00A84E5F04FF53CE53DC4543D
:10102500F0FFE52975F00A844FF53DC454F0FFE55E
:101035002975F00A84E5F04FF53DE541C454F0FF0C
:10104500E52D75F00A844FF541C454F0FFE52D7583
:10105500F00A84E5F04FF541E53EC454F0FFE52A7A
:1010650075F00A844FF53EC454F0FFE52A75F00A81
:1010750084E5F04FF53EE53FC454F0FFE52B75F0F0
:101085000A844FF53FC454F0FFE52B75F00A84E55B
:10109500F04FF53FE540C454F0FFE52C75F00A84A8
:1010A5004FF540C454F0FFE52C75F00A84E5F04F88
:0B10B500F5407B007A00793B021AAA8C
:10035D00E54C64026003020527E521C394075014A0
:10036D00E4FD7F05121D327BFF7A1279D0E4FD7F0B
:10037D000512153DE521B4080040030205C69003A2
:10038D0092F82828730203AA0203D8020406020475
:10039D003402045502048E0204C7020500E52775D8
:1003AD00F00A842430783AF2E52775F00A84E5F0F6
:1003BD00243008F27BFE7A00793A7510027D017FB8
:1003CD0002121BFC7D017F020205ADE52875F00AC6
:1003DD00842430783AF2E52875F00A84E5F024306B
:1003ED0008F27BFE7A00793A7510027D017F0412C6
:1003FD001BFC7D017F040205ADE52975F00A8424FF
:10040D0030783AF2E52975F00A84E5F0243008F2E7
:10041D007BFE7A00793A7510027D017F06121BFC76
:10042D007D017F060205ADE52D75F004A42435F997
:10043D00741A35F0FA7BFF7518027D027F031219CD
:10044D00D07D027F040205ADE52A75F00A8424B043
:10045D00783DF2E434A318F2E52A75F00A84E5F04C
:10046D0024B0783FF2E434A318F27BFE7A00793C95
:10047D007518027D03E4FF1219D07D037F0102057B
:10048D00ADE52B75F00A8424B0783DF2E434A31861
:10049D00F2E52B75F00A84E5F024B0783FF2E434F0
:1004AD00A318F27BFE7A00793C7518027D037F0359
:1004BD001219D07D037F040205ADE52C75F00A8479
:1004CD0024B0783DF2E434A318F2E52C75F00A84DB
:1004DD00E5F024B0783FF2E434A318F27BFE7A0005
:1004ED00793C7518027D037F061219D07D037F07B5
:1004FD000205AD783C74A1F20874CCF2E4FD7F05E1
:10050D001217DA7BFE7A00793C751801E4FD7F0540
:10051D001219D0E4FD7F050205ADE54C64036003BF
:10052D000205C6E5211460421460782402600302BE
:10053D0005C6E52275F00A8424B0783DF2E434A3B3
:10054D0018F2E52275F00A84E5F024B0783FF2E464
:10055D0034A318F27BFE7A00793C7518027D027F78
:10056D00021219D07D027F038036E52375F00A84CF
:10057D0024B0783DF2E434A318F2E52375F00A8433
:10058D00E5F024B0783FF2E434A318F27BFE7A0054
:10059D00793C7518027D027F051219D07D027F0608
:1005AD00021BD17BFF3006067A1279F080047A1394
:0905BD007910E4FD7F0412153DE4
:0105C6002212
:10134000E521B4080040030213F4901351F8282853
:101350007302136902137A0213880213B90213C7C6
:101360000213D50213E30213F10527E527D3946393
:1013700050030213F4E4F527807A0528E528D39476
:101380000C4071752801806C0529E5275403700E07
:10139000E528B40209E529D3941D40588016E528B4
:1013A00025E0241CF582E4341AF583E493FFE52953
:1013B000D39F4040752901803B052DE52DD394072F
:1013C0004032752D01802D052AE52AD3941740243B
:1013D000E4F52A801F052BE52BD3943B4016E4F55A
:1013E0002B8011052CE52CD3943B4008E4F52C8090
:0713F00003120FE502035D8B
:101B4C00E5211460151460202402701E0522E52284
:101B5C00D394174015E4F52280100523E523D39484
:0D1B6C003B4007E4F5238002B20602035D52
:10184D00E53BC4540F75F00AA4FFE53B540F2FF58B
:10185D0027E53CC4540F75F00AA4FFE53C540F2F47
:10186D00F528E53DC4540F75F00AA4FFE53D540F6E
:10187D002FF52985412DE53EC4540F75F00AA4FFBF
:10188D00E53E540F2FF52AE53FC4540F75F00AA419
:10189D00FFE53F540F2FF52BE540C4540F75F00AAB
:0A18AD00A4FFE540540F2FF52C2294
:100A0B008F0A300004D205C200E50A640D600302B0
:020A1B000B537B
:100A1D00E54C64026003020AE4754C03121CA778CE
:100A2D003074C4F20874D6F20874A1F20814F208F6
:100A3D0074D6F20874D3F20874A3F20874BAF27B78
:100A4D00FE7A007930751804E4FDFF1219D0E4FD2B
:100A5D007F051217DAE4FDFF1217DA7BFF30060669
:100A6D007A1279F080047A137910E4FD7F0412155F
:100A7D003DE52275F00A8424B07831F2E434A318F0
:100A8D00F2E52275F00A84E5F024B07833F2E4340F
:100A9D00A318F2783474A1F20874C3F2E52375F04B
:100AAD000A8424B07837F2E434A318F2E52375F004
:100ABD000A84E5F024B07839F2E434A318F27BFE11
:100ACD007A0079307518057D027F021219D0E4F590
:100ADD00217D027F038069754C02121CA77830744A
:100AED00D0F20874A3F20874A1F20814F20874CAC3
:100AFD00F20874B1F20874A3F20874BAF27BFE7AAC
:100B0D00007930751804E4FDFF1219D0E4FD7F055E
:100B1D001217DAE4FD7F041217DAE4FDFF1217DA7B
:100B2D007BFF7A1279D0E4FD7F0512153D7524AA5D
:100B3D007525AA120BD312184DE4F5217D017F0204
:060B4D00121BD10200039F
:100B5300E50A641B7028F54C121CA7121D4DE4FD19
:100B63007F041217DAE4FD7F051217DAE4FDFF12A2
:100B730017DA7524AA7526AA7525AA020BD3E50AE6
:100B8300B42611E54CB40203021340E54C64037030
:100B93003E021B4CE50A64277035E54CC3940250B2
:100BA3001E054C534C01E54C700D121CA77524AA6D
:100BB3007525AA7526AA22E54CB40113020ED3E5C6
:100BC3004CB402030218B7E54CB40303121B792299
:1005C700004D4AB8000D4A4C000DA5410025AAB6BA
:1005D70000056A49007AADBD00025D5200092D474A
:1005E700005C95BA000A954E000B4A43004B5537FD
:1005F700000AD54A00955ABF0004BA53000A5B485F
:1006070000652BBC00052B50000A934500474AB9EB
:100617000006AA4C000AD5410024DAB60004B64AFF
:100627000069573D000A4E51000D2646005E933A79
:10063700000D534D0005AA430036B53700096D4B31
:1006470000B4AEBF0004AD53000A4D48006D25BC91
:10065700000D254F000D5244005DAA38000B5A4C7F
:1006670000056D410024ADB600049B4A007A4BBEDD
:10067700000A4B51000AA546005B52BA0006D24E4B
:10068700000ADA4200355B370009374B008497C10F
:100697000004975300064B480066A53C000EA54F83
:1006A7000006B244004AB638000AAE4C00092E4292
:1006B700003C9735000C9649007D4ABD000D4A5114
:1006C700000DA5450055AABA00056A4E000A6D43FC
:1006D70000452EB700052D4B008A95BF000A95539C
:1006E700000B4A47006B553B000AD54F00055A459A
:1006F700004A5D38000A5B4C00052B42003A93B66E
:1007070000069349007729BD0006AA51000AD5467D
:100717000054DABA0004B64E000A5743004527389A
:10072700000D264A008E933E000D5252000DAA4737
:100737000066B53B00056D4F0004AE45004A4EB953
:10074700000A4D4C000D1541002D92B50000000028
:100757000000001F0000003B0000005A0000007866
:1007670000000097000000B5000000D4000000F36F
:1007770000000111000001300000014E00000000E0
:10078700B3F5D2BBB3F5B6FEB3F5C8FDB3F5CBC42D
:10079700B3F5CEE5B3F5C1F9B3F5C6DFB3F5B0CB25
:1007A700B3F5BEC5B3F5CAAECAAED2BBCAAEB6FEC6
:1007B700CAAEC8FDCAAECBC4CAAECEE5CAAEC1F991
:1007C700CAAEC6DFCAAEB0CBCAAEBEC5B6FECAAEEB
:1007D700D8A5D2BBD8A5B6FED8A5C8FDD8A5CBC489
:1007E700D8A5CEE5D8A5C1F9D8A5C6DFD8A5B0CB81
:1007F700D8A5BEC5C8FDCAAE0000D5FDB6FEC8FD6A
:10080700CBC4CEE5C1F9C6DFB0CBBEC5CAAEB6AC68
:10081700C0B0CAF3C5A3BBA2CDC3C1FAC9DFC2ED3D
:0A082700D1F2BAEFBCA6B9B7D6EDC6
:06000E008F128D138B140C
:1000140075F004EFA424C3F582E5F03405F58312EA
:1000240009DFEF5460FFE4FEFDFC78051209B8E433
:100034007B01FAF9F8C31209A775F0047020E512E0
:10004400A424C3F582E5F03405F5831209DFEF54E7
:100054001FFFEF24FFF516E434FFF515801DE512AC
:10006400A424C3F582E5F03405F5831209DFEF54C7
:100074001FFFEF241EF516E433F515E51325E025DF
:10008400E0244FF582E43407F5831209DF7C00EFA6
:100094002514FFEC3ECF24FFF518EF34FFF517E5E8
:1000A400125403700FE513D3940240080518E518A1
:1000B40070020517C3E5189516E517951550030248
:1000C40001C1D207E5189516F518E5179515F5172A
:1000D400751301751901E4F51AFFFE7D08FCE51995
:1000E40014F9F81209CB75F004E512A424C3F582BF
:1000F400E5F03405F5831209EFEB5FFFEA5EFEE9F4
:100104005DFDE85CFCE4FBFAF9F8C31209A770038F
:100114000201B00201B6AF1B7E00C3E5189FE517CC
:100124009E50030201BCE5189FF518E5179EF517CC
:10013400051975F004E512A424C3F582E5F034052D
:10014400F5831209DFE4FFFEED54F0FDE4FC7814BE
:100154001209B8A804A905AA06AB07AF13E4FCFD6D
:10016400FEC31209A7700B631AFFE51A7006051384
:1001740080020513E4FFFE7D08FCE51914F9F8126A
:1001840009CB75F004E512A424C3F582E5F0340527
:10019400F5831209EFEB5FFFEA5EFEE95DFDE85CC3
:1001A400FCE4FBFAF9F8C31209A77006751B1D02DB
:1001B400011A751B1E02011AE5180202ECC207C3DC
:1001C400E5169518F516E5159517F5151512751319
:1001D4000C75F004E512A424C3F582E5F03405F5AA
:1001E400831209DFE4FFFEED54F0FDE4FC78141201
:1001F40009B8E4FBFAF9F8C31209A7700575190CDC
:10020400800375190DE4F51AFFFE7D08FCE5191449
:10021400F9F81209CB75F004E512A424C3F582E5BC
:10022400F03405F5831209EFEB5FFFEA5EFEE95D4A
:10023400FDE85CFCE4FBFAF9F8C31209A7700302B9
:1002440002DB0202E1AF1B7E00D3E5169FE5159E9B
:1002540050030202E7E5169FF516E5159EF5151500
:1002640019E51A7002151375F004E512A424C3F5F8
:1002740082E5F03405F5831209DFE4FFFEED54F066
:10028400FDE4FC78141209B8A804A905AA06AB0772
:10029400AF13E4FCFDFEC31209A77003631AFFE465
:1002A400FFFE7D08FCE51914F9F81209CB75F0047A
:1002B400E512A424C3F582E5F03405F5831209EFB1
:1002C400EB5FFFEA5EFEE95DFDE85CFCE4FBFAF946
:1002D400F8C31209A77006751B1D020249751B1E7F
:1002E400020249C3E51B951604F514E5464514F5C9
:1002F40046E545F545E544F544E543F543E5137521
:10030400F040A4FFAEF0EE3395E0FDFCE5464FF57A
:1003140046E5454EF545E5444DF544E5434CF54386
:1003240075F004E512A424C3F582E5F03405F583E1
:100334001209DFE4FFFEED54F0FDE4FC7814120929
:10034400B8A804A905AA06AB07AF13E4FCFDFEC3D5
:080354001209A77002D322C3B5
:01035C00227E
:020D57008F0B00
:100D5900E4F51112000E5048AB0EAA0FA910AF11FD
:100D6900051175F002EFA4F58285F08374C875F05A
:100D7900F212092BE54654C0FFE5455403FEE4FD94
:100D8900FC78061209B89007FF75F002EF1209FF07
:100D9900EE25E02583F583E493FE740193FF80300B
:100DA900E54654C0FFE5455403FEE4FDFC78061210
:100DB90009B89007FF75F002EF1209FFEE25E0254B
:100DC90083F583E493FE740193FFAB0EAA0FA91078
:100DD900AD11051175F002EDA4F58285F083EE8F52
:100DE900F012092BAB0EAA0FA910AF11051175F05E
:100DF90002EFA4F58285F08374D475F0C212092B31
:100E0900E546543FFF90078375F004EF1209FFE4AC
:100E190025E025E02583F583E493FE740193FFAD76
:100E290011051175F002EDA4F58285F083EE8FF0BE
:100E390012092BE546543FFF90078575F004EF1220
:100E490009FFE425E025E02583F583E493FE740199
:100E590093FFAD11051175F002EDA4F58285F083BC
:100E6900EE8FF012092BAF11051175F002EFA4F501
:100E79008285F08374A175F0A012092BE50B246417
:100E8900FFE433FE7C007D0C1208ABAF053007028E
:100E99008008EF70047F0B80011FEF25E02419F50E
:100EA90082E43408F583E493FE740193FFAB0EAA40
:100EB9000FA910AD11051175F002EDA4F58285F0A9
:090EC90083EE8FF012092BAF112A
:010ED20022FD
:03177C00011F004A
:0C1D41000000EF1F70011E144E70F52210
:101C7400C2B27FD07E07121D41D2B27F047E001211
:091C84001D41A2B29204A204B3B6
:011C8D002234
:0614A3008B138A14891569
:1014A900C2AF121C749203200303A20322E4F51FA6
:1014B90020B20AAF1F051FEFC3941440F3E51FC301
:1014C9009414400280227F087E00121D41E4FDE44D
:1014D900FCE4F51F20B20AAF1F051FEFC3941440A7
:1014E900F3E51FC394144005D2B2D2AF227F037E25
:1014F90000121D4174192DF8C000E625E0D000F650
:1015090030B20F74192DF8E64401F67F037E0012FC
:101519001D410CBC08BB0DBD05B5AB13AA14A9151B
:10152900E519120877AB16AA17A918E51B1208774F
:03153900D2AFD35B
:01153C00228C
:101D2200313233263435362537383928301B0D27E2
:10177F00C101C102C100013900013A0090200101ED
:10178F000101010101010101010101010101012F0C
:10179F000090000F0F0F0F0F0F0F0F0F0F0F0F0FE7
:1017AF000F0F0F9010010101010101010101010152
:1017BF00010101010102300000023203E80134008F
:0A17CF00013500013600023700006A
:1010C000E52F14601014601314601624037016D2F8
:1010D000A0C2A38010D2A3C2A2800AD2A2C2A180C1
:1010E00004D2A1C2A0E52F25E025E02400F8E225E6
:1010F000E0FFA2A4E4334FFFE52F25E025E0240024
:10110000F8EFF2E52F25E025E02401F8E225E0FFE5
:10111000A2A5E4334FFFE52F25E025E02401F8EFF9
:10112000F2E52F25E025E02402F8E225E0FFA2A663
:10113000E4334FFFE52F25E025E02402F8EFF2E548
:101140002F25E025E02403F8E225E0FFA2A7E43301
:101150004FFFE52F25E025E02403F8EFF2E4FFE55B
:101160002F25E025E024002FF8E2540FFEBE0F0FDC
:10117000E52F25E025E024202FF87401F2800FEE02
:10118000700CE52F25E025E024202FF8E4F20FBFB6
:0711900004CD052F532F03CE
:011197002235
:10119800E4F508E4F509E50825E025E02422F582D0
:1011A800E4341DF583E5822509F582E43583F5836A
:1011B800E4936426703CE50825E025E02410250921
:1011C800F8E270230531E53170020530D39533E537
:1011D800309532401D7F26120A0B74642533F5338F
:1011E800E43532F532800BE4F530F53175320375AC
:1011F80033E8E50825E025E024202509F8E2FFE5A5
:101208000825E025E024102509F8E2FE6F603EEE8F
:10121800B40120E50825E025E02422F582E4341D08
:10122800F583E5822509F582E43583F583E493FFA8
:10123800120A0BE50825E025E024202509F8E2FF3D
:10124800E50825E025E024102509F8EFF20509E571
:1012580009C39404500302119E0508E508C39404C9
:05126800500302119B80
:01126D00225E
:101BA500E4FCFDFE7B997A03F9F8120958C3741217
:101BB5009FFFE49EF539EF540FF53A5389F04389B9
:0B1BC5000185398C853A8AD28CD2A9A8
:011BD00022F2
:03000B000213F7E6
:1013F700C0E0C083C082C0D075D000C000C006C0A6
:0114070007DD
:1014080085398C853A8A0534E534C394C840127509
:101418003400D2010535E53594054005753500D20F
:1014280002300065E536B40800505E90143AF8289A
:10143800287302145202145F02145202145F021439
:101448005202145F02146A021487B296E534C394F8
:10145800C7403605368032E534C394C7402B05367D
:101468008027B2960538E53870020537C394F4E54D
:1014780037940140147537007538000536800AE541
:0C14880034C394C740037536001210C036
:0F149400D007D006D000D0D0D082D083D0E032A5
:030000000215CF17
:0C15CF00787FE4F6D8FD75814C021616FA
:10083100BB010689828A83E0225002E722BBFE02C5
:09084100E32289828A83E49322F8
:10084A00BB010CE58229F582E5833AF583E0225063
:10085A0006E92582F8E622BBFE06E92582F8E222AD
:0D086A00E58229F582E5833AF583E49322C7
:10087700BB010689828A83F0225002F722BBFE0160
:02088700F3225A
:10088900F8BB010DE58229F582E5833AF583E8F0A5
:10089900225006E92582C8F622BBFE05E92582C851
:0208A900F22239
:1008AB00BC000BBE0029EF8DF084FFADF022E4CC31
:1008BB00F875F008EF2FFFEE33FEEC33FCEE9DECFA
:1008CB00984005FCEE9DFE0FD5F0E9E4CEFD22ED40
:1008DB00F8F5F0EE8420D21CFEADF075F008EF2F8A
:1008EB00FFED33FD4007985006D5F0F222C398FD7B
:0508FB000FD5F0EA2218
:10090000BB010A89828A83E0F5F0A3E022500687C2
:10091000F009E71922BBFE07E3F5F009E319228984
:0B092000828A83E493F5F074019322B7
:10092B00F8BB0111E58229F582E5833AF583E8F0FE
:10093B00E5F0A3F0225009E92582C8F608A6F022BB
:0D094B00BBFE09E92582C8F2E5F008F222A2
:10095800E88FF0A4CC8BF0A42CFCE98EF0A42CFC3E
:100968008AF0EDA42CFCEA8EF0A4CDA8F08BF0A4BC
:100978002DCC3825F0FDE98FF0A42CCD35F0FCEB1B
:100988008EF0A4FEA9F0EB8FF0A4CFC5F02ECD39E0
:0F099800FEE43CFCEAA42DCE35F0FDE43CFC224D
:1009A700EB9FF5F0EA9E42F0E99D42F0E89C45F0A6
:0109B700221D
:1009B800E8600FECC313FCED13FDEE13FEEF13FF1D
:0309C800D8F12241
:1009CB00E86010ECA2E713FCED13FDEE13FEEF1342
:0409DB00FFD8F0222F
:1009DF00E493FC740193FD740293FE740393FF225E
:1009EF00E493F8740193F9740293FA740393FB225E
:0C09FF00A42582F582E5F03583F5832203
:1015DB00021AE4E493A3F8E493A34003F68001F228
:1015EB0008DFF48029E493A3F85407240CC8C33311
:1015FB00C4540F4420C8834004F456800146F6DFE0
:10160B00E4800B010204081020408090175FE47EF9
:10161B00019360BCA3FF543F30E509541FFEE493D4
:10162B00A360010ECF54C025E060A840B8E493A39B
:10163B00FAE493A3F8E493A3C8C582C8CAC583CAC6
:10164B00F0A3C8C582C8CAC583CADFE9DEE780BE7E
:0117D900000F
:00000001FF
