:04135200EF12061F71
:10135600E4FF7E01EE600F30B4024207D2B5C2B59B
:06136600EE25E0FE80EE22
:01136C00225E
:041335001205E0FFBE
:101339007E01EE60135F7004C2B48002D2B4D2B5EC
:08134900C2B5EE25E0FE80EACA
:011351002279
:10116600D2977FBF121339121356900005121352ED
:1011760090000412135290000312135290000212B0
:101186001352900001121352900006121352EF12DE
:10119600060DC297E92405F9E43AFA1205C7547F09
:0311A60002060D31
:1011A900D2977FBE121339900005121335900004AF
:1011B9001213359000031213359000021213359063
:1011C90000011213359000061213351205C7FF12DC
:0A11D9001339E4FF121339C2972204
:10140A00D297EF25E04481FF121339121356C2977F
:01141A0022AF
:1013E500D297EF25E04480FF121339AF0512133968
:0313F500C297227A
:10121800750817750905750A09750B12750C55E4DB
:10122800F50D750E02C2B5C297FF12140AEF30E72A
:1012380010E4FD7F071213E57B007A00790812118C
:01124800A9FC
:011249002282
:100FAA0020003C1C7C1EFFFFFFFFFE3FF98F798E5D
:100FBA00718671F671F6780E380E3E3C1FFC1FFCE6
:100FCA001C1C0000010041042008139007C00FE018
:100FDA00DFF61FF00FE007C013902008410401005C
:100FEA0000000000078003C001E001F000F800F8EB
:100FFA0000F800F800F801F003F007E00FC01F0046
:10100A000000A1A0A1A0A1A0A1A0A1A0A1A0A1A00F
:02101A00A1A093
:1013F800C290D291D295E5805480FFC29570F5C213
:01140800954E
:0114090022C0
:09138700FF121390E5084480FFF9
:10139000AE071213F8C290C291D2958E80C29522E8
:0613B90014F91205C7FF44
:1013BF00AE071213F8D290C291D2958E80C29522A9
:101317007F301213907F0C1213907F011213907B72
:0E132700FF7A0F79AA750F01E4FDFF0212D3C1
:1012D3008B0C8A0D890E1212A8AB0C050EE50EAA13
:1012E3000D7002050D1213B9150FE50FD3940050BD
:0212F300E822EF
:0A10CF008F128D138B148A158916F9
:1010D900AF171517EFD394004038AD13AF121212A2
:1010E900A80512E512D394074005E4F5120513ABE0
:1010F90014AA15A916120696FDACF0ECFF1213BF3F
:10110900AF051213BF74022516F516E43515F5154A
:0211190080BE96
:01111B0022B1
:0212A800AE078F
:1012AA00E4FFED1460101460131460162403701622
:1012BA00EE2480FF8010EE2490FF800AEE2488FF3F
:0912CA008004EE2498FF02139049
:050003007F0F021390C5
:05144F007F0C02139068
:1013A0007F301213907F011213907BFF7A0F79AA7E
:0913B000750F01E4FDFF0212D3E8
:060DC0008B1D8A1E891F35
:100DC6007F341213907F34121390E4FCEC4480FFBE
:100DD6001213907F80121390E4FDAB1D051FE51FD3
:100DE600AA1E7002051E1213B9AB1D051FE51FAA28
:100DF6001E7002051E1213B90DBD08DE0CBC20CCF8
:100E0600E4FCEC4480FF1213907F88121390E4FDFB
:100E1600AB1D051FE51FAA1E7002051E1213B9ABF6
:100E26001D051FE51FAA1E7002051E1213B90DBD72
:100E360008DE0CBC20CC7F361213907F3002139054
:080C10008F088B098A0A890B89
:100C18007F341213907F34121390EDC39402503036
:100C2800E4FCEDC454F044804C121387AB09050B67
:100C3800E50BAA0A7002050A1213B9AB09050BE500
:100C48000BAA0A7002050A1213B90CBC10D480371B
:100C5800E4FCEDC454F044804CFF121390E50844C2
:100C680088FF121390AB09050BE50BAA0A70020561
:100C78000A1213B9AB09050BE50BAA0A7002050A9B
:100C88001213B90CBC10CBEDC454F0448012138776
:0A0C98007F361213907F3002139094
:101077007F341213907F34121390E4FCEC4480FF0A
:101087001213907F80121390E4FDE4FF1213BFE464
:10109700FF1213BF0DBD08F20CBC20E0E4FCEC44CA
:1010A70080FF1213907F88121390E4FDE4FF121360
:1010B700BFE4FF1213BF0DBD08F20CBC20E07F3662
:0810C7001213907F3002139018
:020EC400AB077A
:100EC6007F341213907F34121390EDC39402502492
:100ED600E4FCEDC454F044804CFF121390EB4480C4
:100EE600FF121390E4FF1213BFE4FF1213BF0CBCF2
:100EF60010E08022E4FCEDC454F044804CFF121351
:100F060090EB4488FF121390E4FF1213BFE4FF1224
:100F160013BF0CBC10E0EDC454F04480FF121390D4
:100F2600EB4480FF1213907F361213907F3002132A
:010F3600902A
:0F142B007BFF7A10790CC374089FF5170210CF5E
:03101C000136009A
:1011E300D2AF1212181213171210777F0112127C4A
:1011F300121446E5367008300005C200120930E5C6
:1012030036B4010C300209C202C2AF120E46D2AF8D
:05121300120F3780DE20
:10124A0000000000D6DCD2BBD6DCB6FED6DCC8FD78
:10125A00D6DCCBC4D6DCCEE5D6DCC1F9D6DCC8D523
:10126A00CEC2B6C8A3BACAAAB6C8A3BAC4D6D6D377
:02127A00A3BA15
:09101F000133AA0134AA0135AA2B
:1013CF00E4F537E53704FDE4FF12142B0537E53755
:0513DF00C3940340EE81
:0113E40022E6
:100930007B007A007921121166E533652670030287
:1009400009E4852633E524C4540F24B07831F2E459
:1009500034A318F2E524540F24B07833F2E434A31E
:1009600018F2783474A1F20874C3F2E525C4540F68
:1009700024B07837F2E434A318F2E525540F24B0FC
:100980007839F2E434A318F2783A74A1F20874C307
:10099000F2E526C4540F24B0783DF2E434A318F2F3
:1009A000E526540F24B0783FF2E434A318F27BFE1E
:1009B0007A0079307517087D03E4FF1210CFE53512
:1009C00065246020852435E524C394084009E52486
:1009D000D39418500280007BFF7A0F79CCE4FD7F1E
:1009E00005120C10E53465237003020A9185233447
:1009F00078407420F208F2087432F2087430F2E59C
:100A000021C4540F243008F2E521540F243008F299
:100A1000087420F208F2E522C4540F243008F2E5ED
:100A200022540F243008F2087420F208F2E523C49F
:100A3000540F243008F2E523540F243008F2785084
:100A400074A1F20874A4F27BFE7A007940750F0E4F
:100A50007D01E4FF1212D37BFE7A007950751701F5
:100A60007D017F031210CF7BFE7A0079507517014C
:100A70007D017F051210CFE52775F004A4244AF903
:100A8000741235F0FA7BFF7517027D027F03121096
:010A9000CF96
:010A91002242
:100E460075150075160075170A7B007A00790B1266
:100E56000B6AE50A75F00A8424B0F50DE434A3F5AF
:100E66000CE50A75F00A84E5F024B0F50FE434A326
:100E7600F50E7510A17511E67B007A00790C7517D1
:100E8600037D017F031210CFE50B75F00A8424B0B1
:100E9600F50DE434A3F50CE50B75F00A84E5F024B2
:100EA600B0F50FE434A3F50E7510A37511A57B00FC
:0E0EB6007A00790C7517037D027F030210CFBE
:100CA2001213A07BFF7A12796A7517037D01E4FFA4
:100CB2001210CF7BFF7A1279707517037D02E4FF61
:100CC2001210CF7BFF7A1279767517037D03E4FF4A
:100CD2001210CFC2AF120E46D2AFE521C4540F7527
:100CE200F00AA4FFE521540F2FFF7840F2E522C459
:100CF200540F75F00AA4FEE522540F2E08F2FDE50A
:100D020023C4540F75F00AA4FEE523540F2EFE7877
:100D12003FF2FB750DFE750E00750F301207B478A9
:100D22003EEFF27BFE7A007930F517E4FD7F010297
:020D320010CFE0
:1012F500BF0D1E0536533601E536700D1213A07568
:1013050033AA7534AA7535AA22E536B40103120C41
:02131500A22212
:10035D00004D4AB8000D4A4C000DA5410025AAB626
:10036D0000056A49007AADBD00025D5200092D47B6
:10037D00005C95BA000A954E000B4A43004B553769
:10038D00000AD54A00955ABF0004BA53000A5B48CB
:10039D0000652BBC00052B50000A934500474AB958
:1003AD000006AA4C000AD5410024DAB60004B64A6C
:1003BD000069573D000A4E51000D2646005E933AE6
:1003CD00000D534D0005AA430036B53700096D4B9E
:1003DD0000B4AEBF0004AD53000A4D48006D25BCFE
:1003ED00000D254F000D5244005DAA38000B5A4CEC
:1003FD0000056D410024ADB600049B4A007A4BBE4A
:10040D00000A4B51000AA546005B52BA0006D24EB7
:10041D00000ADA4200355B370009374B008497C17B
:10042D000004975300064B480066A53C000EA54FEF
:10043D000006B244004AB638000AAE4C00092E42FE
:10044D00003C9735000C9649007D4ABD000D4A5180
:10045D00000DA5450055AABA00056A4E000A6D4368
:10046D0000452EB700052D4B008A95BF000A955308
:10047D00000B4A47006B553B000AD54F00055A4506
:10048D00004A5D38000A5B4C00052B42003A93B6DA
:10049D0000069349007729BD0006AA51000AD546EA
:1004AD000054DABA0004B64E000A57430045273807
:1004BD00000D264A008E933E000D5252000DAA47A4
:1004CD000066B53B00056D4F0004AE45004A4EB9C0
:1004DD00000A4D4C000D1541002D92B50000000095
:1004ED000000001F0000003B0000005A00000078D3
:1004FD0000000097000000B5000000D4000000F3DC
:10050D0000000111000001300000014E000000004C
:10051D00B3F5D2BBB3F5B6FEB3F5C8FDB3F5CBC499
:10052D00B3F5CEE5B3F5C1F9B3F5C6DFB3F5B0CB91
:10053D00B3F5BEC5B3F5CAAECAAED2BBCAAEB6FE32
:10054D00CAAEC8FDCAAECBC4CAAECEE5CAAEC1F9FD
:10055D00CAAEC6DFCAAEB0CBCAAEBEC5B6FECAAE57
:10056D00D8A5D2BBD8A5B6FED8A5C8FDD8A5CBC4F5
:10057D00D8A5CEE5D8A5C1F9D8A5C6DFD8A5B0CBED
:10058D00D8A5BEC5C8FDCAAE0000D5FDB6FEC8FDD6
:10059D00CBC4CEE5C1F9C6DFB0CBBEC5CAAEB6ACD5
:1005AD00C0B0CAF3C5A3BBA2CDC3C1FAC9DFC2EDAA
:0A05BD00D1F2BAEFBCA6B9B7D6ED33
:06000E008F118D128B130F
:1000140075F004EFA42459F582E5F03403F5831256
:100024000788EF5460FFE4FEFDFC780512074EE4F8
:100034007B01FAF9F8C312073D75F0047020E5114D
:10004400A42459F582E5F03403F583120788EF54AC
:100054001FFFEF24FFF515E434FFF514801DE511AF
:10006400A42459F582E5F03403F583120788EF548C
:100074001FFFEF241EF515E433F514E51225E025E2
:10008400E024E5F582E43404F5831207887C00EF6C
:100094002513FFEC3ECF24FFF517EF34FFF516E5EB
:1000A400115403700FE512D3940240080517E517A5
:1000B40070020516C3E5179515E51695145003024D
:1000C40001C1D205E5179515F517E5169514F51632
:1000D400751201751801E4F519FFFE7D08FCE51899
:1000E40014F9F812076175F004E511A42459F58296
:1000F400E5F03403F583120798EB5FFFEA5EFEE94F
:100104005DFDE85CFCE4FBFAF9F8C312073D7003FB
:100114000201B00201B6AF1A7E00C3E5179FE516CF
:100124009E50030201BCE5179FF517E5169EF516D0
:10013400051875F004E511A42459F582E5F034039B
:10014400F583120788E4FFFEED54F0FDE4FC781417
:1001540012074EA804A905AA06AB07AF12E4FCFDDA
:10016400FEC312073D700B6319FFE51970060512F3
:1001740080020512E4FFFE7D08FCE51814F9F8126C
:10018400076175F004E511A42459F582E5F0340300
:10019400F583120798EB5FFFEA5EFEE95DFDE85C1C
:1001A400FCE4FBFAF9F8C312073D7006751A1D0248
:1001B400011A751A1E02011AE5170202ECC205C3E0
:1001C400E5159517F515E5149516F5141511751221
:1001D4000C75F004E511A42459F582E5F03403F517
:1001E40083120788E4FFFEED54F0FDE4FC7814125A
:1001F400074EE4FBFAF9F8C312073D700575180CB5
:10020400800375180DE4F519FFFE7D08FCE518144C
:10021400F9F812076175F004E511A42459F582E593
:10022400F03403F583120798EB5FFFEA5EFEE95DA5
:10023400FDE85CFCE4FBFAF9F8C312073D70030225
:1002440002DB0202E1AF1A7E00D3E5159FE5149E9E
:1002540050030202E7E5159FF515E5149EF5141504
:1002640018E5197002151275F004E511A42459F566
:1002740082E5F03403F583120788E4FFFEED54F0C1
:10028400FDE4FC781412074EA804A905AA06AB07DE
:10029400AF12E4FCFDFEC312073D70036319FFE4D3
:1002A400FFFE7D08FCE51814F9F812076175F004E7
:1002B400E511A42459F582E5F03403F58312079877
:1002C400EB5FFFEA5EFEE95DFDE85CFCE4FBFAF946
:1002D400F8C312073D7006751A1D020249751A1EED
:1002E400020249C3E51A951504F513E5324513F5E1
:1002F40032E531F531E530F530E52FF52FE51275AE
:10030400F040A4FFAEF0EE3395E0FDFCE5324FF58E
:1003140032E5314EF531E5304DF530E52F4CF52F12
:1003240075F004E511A42459F582E5F03403F5834E
:10033400120788E4FFFEED54F0FDE4FC7814120784
:100344004EA804A905AA06AB07AF12E4FCFDFEC340
:0803540012073D7002D322C321
:01035C00227E
:0207B4008F0AAA
:1007B600E4F51012000E5048AB0DAA0EA90FAF10AB
:1007C600051075F002EFA4F58285F08374C875F004
:1007D600F21206C1E53254C0FFE5315403FEE4FDD2
:1007E600FC780612074E90059575F002EF1207A8E1
:1007F600EE25E02583F583E493FE740193FF8030B4
:10080600E53254C0FFE5315403FEE4FDFC780612E0
:10081600074E90059575F002EF1207A8EE25E02524
:1008260083F583E493FE740193FFAB0DAA0EA90F23
:10083600AD10051075F002EDA4F58285F083EE8FFC
:10084600F01206C1AB0DAA0EA90FAF10051075F078
:1008560002EFA4F58285F08374D475F0C21206C146
:10086600E532543FFF90051975F004EF1207A8E42E
:1008760025E025E02583F583E493FE740193FFAD1F
:1008860010051075F002EDA4F58285F083EE8FF069
:100896001206C1E532543FFF90051B75F004EF12B6
:1008A60007A8E425E025E02583F583E493FE74019B
:1008B60093FFAD10051075F002EDA4F58285F08367
:1008C600EE8FF01206C1AF10051075F002EFA4F519
:1008D6008285F08374A175F0A01206C1E50A24642E
:1008E600FFE433FE7C007D0C120641AF05300502A5
:1008F6008008EF70047F0B80011FEF25E024AFF521
:1009060082E43405F583E493FE740193FFAB0DAAEC
:100916000EA90FAD10051075F002EDA4F58285F055
:0909260083EE8FF01206C1AF1040
:01092F0022A5
:0C143A000000EF1F70011E144E70F52220
:10136D00C2B27FD07E0712143AD2B27F047E001231
:09137D00143AA2B29204A204B3D6
:011386002244
:100B6A00751820E4F51CF51BF51AF51912136D9288
:100B7A0003200303A2032230B2FD7F087E00121471
:100B8A003AAF181518EF605430B2FDE4F58BD28EE7
:100B9A0020B2FDC28EE58BC3941E5017AF1CAE1B4C
:100BAA00AD1AAC1978011207758F1C8E1B8D1A8C21
:100BBA001980CEAF1CAE1BAD1AAC1978011207759D
:100BCA008F1C8E1B8D1A8C19E51C4401F51CE51B24
:100BDA00F51BE51AF51AE519F51980A5AF1CAE1B28
:100BEA00AD1AAC19781812074EEF12060DAF1CAEEB
:100BFA001BAD1AAC19780812074EAB15AA16A9171D
:050C0A00EF12060DD3FE
:010C0F0022C2
:0914460053890F438910C2AB2247
:10141B00313233263435362537383928301B0D27F2
:10102800C100C101C102012D00012E009020010163
:101038000101010101010101010101010101012970
:101048000090000F0F0F0F0F0F0F0F0F0F0F0F0F45
:101058000F0F0F90100101010101010101010101B0
:0E1068000101010101012A00012B00012C00F1
:100A9200E52914601014601314601624037016D232
:100AA200A0C2A38010D2A3C2A2800AD2A2C2A180F5
:100AB20004D2A1C2A0E52925E025E02400F8E22520
:100AC200E0FFA2A4E4334FFFE52925E025E024005E
:100AD200F8EFF2E52925E025E02401F8E225E0FF20
:100AE200A2A5E4334FFFE52925E025E02401F8EF34
:100AF200F2E52925E025E02402F8E225E0FFA2A69E
:100B0200E4334FFFE52925E025E02402F8EFF2E582
:100B12002925E025E02403F8E225E0FFA2A7E4333B
:100B22004FFFE52925E025E02403F8EFF2E4FFE595
:100B32002925E025E024002FF8E2540FFEBE0F0F16
:100B4200E52925E025E024202FF87401F2800FEE3C
:100B5200700CE52925E025E024202FF8E4F20FBFF0
:070B620004CD05295329030E
:010B69002269
:100F3700E4F508E4F509E50825E025E0242025097E
:100F4700F8E2FFE50825E025E024102509F8E2FE90
:100F57006F603DEE7020E50825E025E0241BF58253
:100F6700E43414F583E5822509F582E43583F583B6
:100F7700E493FF1212F5E50825E025E02420250972
:100F8700F8E2FFE50825E025E024102509F8EFF24F
:100F97000509E509C39404409D0508E508C39404C1
:020FA700409177
:010FA9002225
:10127C00E4FCFDFE7B997A03F9F81206EEC37412B6
:10128C009FFFE49EF52DEF540FF52E5389F0438903
:0B129C0001852D8C852E8AD28CD2A9F2
:0112A7002224
:03000B0002111CC3
:0D111C00C0E0C0D075D000C000C006C00704
:10112900852D8C852E8A052AE52AC394C840207509
:101139002A00D200052BE52B94054005752B00D21A
:1011490001052CE52CC394194005752C00D2021217
:021159000A92F8
:0B115B00D007D006D000D0D0D0E0328A
:03000000020D34BA
:0C0D3400787FE4F6D8FD758137020D7B56
:1005C700BB010689828A83E0225002E722BBFE0232
:0905D700E32289828A83E4932265
:1005E000BB010CE58229F582E5833AF583E02250D0
:1005F00006E92582F8E622BBFE06E92582F8E2221A
:0D060000E58229F582E5833AF583E4932233
:10060D00BB010689828A83F0225002F722BBFE01CC
:02061D00F322C6
:10061F00F8BB010DE58229F582E5833AF583E8F011
:10062F00225006E92582C8F622BBFE05E92582C8BD
:02063F00F222A5
:10064100BC000BBE0029EF8DF084FFADF022E4CC9D
:10065100F875F008EF2FFFEE33FEEC33FCEE9DEC66
:10066100984005FCEE9DFE0FD5F0E9E4CEFD22EDAC
:10067100F8F5F0EE8420D21CFEADF075F008EF2FF6
:10068100FFED33FD4007985006D5F0F222C398FDE7
:050691000FD5F0EA2284
:10069600BB010A89828A83E0F5F0A3E0225006872F
:1006A600F009E71922BBFE07E3F5F009E3192289F1
:0B06B600828A83E493F5F07401932224
:1006C100F8BB0111E58229F582E5833AF583E8F06B
:1006D100E5F0A3F0225009E92582C8F608A6F02228
:0D06E100BBFE09E92582C8F2E5F008F2220F
:1006EE00E88FF0A4CC8BF0A42CFCE98EF0A42CFCAB
:1006FE008AF0EDA42CFCEA8EF0A4CDA8F08BF0A429
:10070E002DCC3825F0FDE98FF0A42CCD35F0FCEB87
:10071E008EF0A4FEA9F0EB8FF0A4CFC5F02ECD394C
:0F072E00FEE43CFCEAA42DCE35F0FDE43CFC22B9
:10073D00EB9FF5F0EA9E42F0E99D42F0E89C45F012
:01074D002289
:10074E00E8600FECC313FCED13FDEE13FEEF13FF89
:03075E00D8F122AD
:10076100E86010ECA2E713FCED13FDEE13FEEF13AE
:04077100FFD8F0229B
:10077500E8600FEFC333FFEE33FEED33FDEC33FCE2
:03078500D8F12286
:10078800E493FC740193FD740293FE740393FF22B7
:10079800E493F8740193F9740293FA740393FB22B7
:0C07A800A42582F582E5F03583F583225C
:100D40000211E3E493A3F8E493A34003F68001F2D5
:100D500008DFF48029E493A3F85407240CC8C333B4
:100D6000C4540F4420C8834004F456800146F6DF83
:100D7000E4800B010204081020408090101CE47EE7
:100D8000019360BCA3FF543F30E509541FFEE49378
:100D9000A360010ECF54C025E060A840B8E493A33F
:100DA000FAE493A3F8E493A3C8C582C8CAC583CA6A
:100DB000F0A3C8C582C8CAC583CADFE9DEE780BE22
:011076000079
:00000001FF
