:04188200EF12082336
:10188600E4FF7E01EE600F30B4024207D2B5C2B566
:06189600EE25E0FE80EEED
:01189C002229
:041865001207E4FF83
:101869007E01EE60135F7004C2B48002D2B4D2B5B7
:08187900C2B5EE25E0FE80EA95
:011881002244
:1016CA00D2977FBF121869121886900005121882E5
:1016DA0090000412188290000312188290000212DD
:1016EA001882900001121882900006121882EF12D6
:1016FA000811C297E92405F9E43AFA1207CB547F94
:03170A00020811C1
:10170D00D2977FBE121869900005121865900004DB
:10171D00121865900003121865900002121865905A
:10172D0000011218659000061218651207CBFF1202
:0A173D001869E4FF121869C2972230
:10195500D297EF25E04481FF121869121886C297C5
:01196500225F
:10193000D297EF25E04480FF121869AF05121869AD
:03194000C2972229
:10174700750817750905750A09750B12750C55E4A7
:10175700F50D750E02C2B5C297FF121955EF30E7A6
:1017670010E4FD7F071219307B007A007908121701
:011777000D64
:01177800224E
:1011310020003C1C7C1EFFFFFFFFFE3FF98F798ED4
:10114100718671F671F6780E380E3E3C1FFC1FFC5D
:101151001C1C0000010041042008139007C00FE08F
:10116100DFF61FF00FE007C01390200841040100D3
:1011710000000000078003C001E001F000F800F862
:1011810000F800F800F801F003F007E00FC01F00BD
:10119100000000007FFE60066006600660066006D3
:1011A10060067FFE7FFE601E6C1E6C1E6C1E601E44
:1011B1007FFEA1A0A1A0A1A0A1A0A1A0A1A0A1A0EA
:0211C100A1A0EB
:10194300C290D291D295E5805480FFC29570F5C2C2
:0119530095FE
:011954002270
:0918D200FF1218DBE50B4480FF56
:1018DB00AE07121943C290C291D2958E80C2952247
:0619040014F91207CBFFED
:10190A00AE07121943D290C291D2958E80C2952207
:101847007F301218DB7F0C1218DB7F011218DB7B4D
:0E185700FF7A117931751001E4FDFF021825AA
:101825008B0D8A0E890F1217D5AB0D050FE50FAA83
:101835000E7002050E1219041510E510D394005010
:02184500E82297
:0A1633008F138D148B158A1689178A
:10163D00AF181518EFD394004038AD14AF1312172F
:10164D00D50513E513D394074005E4F5130514AB45
:10165D0015AA16A91712089AFDACF0ECFF12190A7B
:10166D00AF0512190A74022517F517E43516F5168C
:02167D0080BE2D
:01167F002248
:0217D500AE075D
:1017D700E4FFED14601014601314601624037016F0
:1017E700EE2480FF8010EE2490FF800AEE2488FF0D
:0917F7008004EE2498FF0218DBC7
:050003007F0F0218DB75
:051991007F0C0218DBD1
:1018EB007F301218DB7F011218DB7BFF7A11793105
:0918FB00751001E4FDFF0218253F
:0612DD008B458A4689479B
:1012E3007F341218DB7F341218DBE4FCEC4480FFFC
:1012F3001218DB7F801218DBE4FDAB450547E54799
:10130300AA4670020546121904AB450547E547AAEC
:1013130046700205461219040DBD08DE0CBC20CC34
:10132300E4FCEC4480FF1218DB7F881218DBE4FD39
:10133300AB450547E547AA4670020546121904ABBB
:10134300450547E547AA46700205461219040DBD37
:1013530008DE0CBC20CC7F361218DB7F300218DB92
:08109F008F0B8B0C8A0D890EEA
:1010A7007F341218DB7F341218DBEDC39402503003
:1010B700E4FCEDC454F044804C1218D2AB0C050E7E
:1010C700E50EAA0D7002050D121904AB0C050EE50D
:1010D7000EAA0D7002050D1219040CBC10D480372E
:1010E700E4FCEDC454F044804CFF1218DBE50B44DC
:1010F70088FF1218DBAB0C050EE50EAA0D70020572
:101107000D121904AB0C050EE50EAA0D7002050DA4
:101117001219040CBC10CBEDC454F044801218D241
:0A1127007F361218DB7F300218DB60
:101586007F341218DB7F341218DBE4FCEC4480FF56
:101596001218DB7F801218DBE4FDE4FF12190AE45F
:1015A600FF12190A0DBD08F20CBC20E0E4FCEC4465
:1015B60080FF1218DB7F881218DBE4FDE4FF1219A6
:1015C6000AE4FF12190A0DBD08F20CBC20E07F36B2
:0815D6001218DB7F300218DB64
:0213E100AB0758
:1013E3007F341218DB7F341218DBEDC394025024D0
:1013F300E4FCEDC454F044804CFF1218DBEB448052
:10140300FF1218DBE4FF12190AE4FF12190A0CBCDD
:1014130010E08022E4FCEDC454F044804CFF121829
:10142300DBEB4488FF1218DBE4FF12190AE4FF1216
:10143300190A0CBC10E0EDC454F04480FF1218DB11
:10144300EB4480FF1218DB7F361218DB7F30021863
:01145300DBBD
:0F1976007BFF7A1179B3C374089FF518021633FB
:03145400011E0076
:10177900D2AF1217471218471215867F011217A9FF
:10178900E51E700A300014C200120B21800DE51EFF
:10179900B40108300205C202121363120E8980E0F7
:1015DE00C4D6D6D3C9E8B6A8A3BA00011F021C030D
:1015EE001F041E051F061E071F081F091E0A1F0BBC
:1015FE001E0C1F00000000D6DCD2BBD6DCB6FED619
:10160E00DCC8FDD6DCCBC4D6DCCEE5D6DCC1F9D643
:10161E00DCC8D5CEC2B6C8A3BACAAAB6C8A3BAC4C5
:05162E00D6D6D3A3BADB
:101457000124AA0125AA0126AA01220001230001CD
:02146700210062
:10191A00E4F51FE51F04FDE4FF121976051FE51F14
:05192A00C3940340EE30
:01192F002295
:100B21007B007A0079391216CAE524653E7003020A
:100B31000BD5853E24E53CC4540F24B0783BF2E448
:100B410034A318F2E53C540F24B0783DF2E434A309
:100B510018F2783E74A1F20874C3F2E53DC4540F53
:100B610024B07841F2E434A318F2E53D540F24B0E7
:100B71007843F2E434A318F2784474A1F20874C300
:100B8100F2E53EC4540F24B07847F2E434A318F2DE
:100B9100E53E540F24B07849F2E434A318F27BFE09
:100BA1007A00793A7518087D03E4FF121633E526B9
:100BB100653C6020853C26E53CC394084009E53C42
:100BC100D39418500280007BFF7A117953E4FD7FA2
:100BD1000512109FE525653B7003020C82853B25BC
:100BE100784A7420F208F2087432F2087430F2E59F
:100BF10039C4540F243008F2E539540F243008F277
:100C0100087420F208F2E53AC4540F243008F2E5E2
:100C11003A540F243008F2087420F208F2E53BC47C
:100C2100540F243008F2E53B540F243008F2785A6F
:100C310074A1F20874A4F27BFE7A00794A75100E51
:100C41007D01E4FF1218257BFE7A00795A7518019F
:100C51007D017F031216337BFE7A00795A751801E4
:100C61007D017F05121633E53F75F004A42401F9D7
:100C7100741635F0FA7BFF7518027D027F03121698
:010C8100333F
:010C8200224F
:1013630075160075170075180B7B007A00790C123F
:101373001005E50B75F00A8424B0F50EE434A3F5EB
:101383000DE50B75F00A84E5F024B0F510E434A301
:10139300F50F7511A17512E67B007A00790D7518AA
:1013A300037D017F03121633E50C75F00A8424B024
:1013B300F50EE434A3F50DE50C75F00A84E5F0248D
:1013C300B0F510E434A3F50F7511A37512A57B00D6
:0E13D3007A00790D7518037D027F0302163330
:1011C3001218EB7BFF7A1679217518037D01E4FF72
:1011D3001216337BFF7A1679277518037D02E4FF15
:1011E3001216337BFF7A16792D7518037D03E4FFFE
:1011F300121633121363E539C4540F75F00AA4FFB2
:10120300E539540F2FFF784AF2E53AC4540F75F0CD
:101213000AA4FEE53A540F2E08F2FDE53BC4540F31
:1012230075F00AA4FEE53B540F2EFE7849F2FB75D8
:101233000EFE750F0075103A1209A57848EFF27B80
:0E124300FE7A00793AF518E4FD7F01021633B9
:10152D00E521B40700504590153BF82828730215A6
:10153D005002155402155A02156002156602156CFB
:10154D000215727D0180087D017F06801C7D027F62
:10155D000480167D037F0180107D037F04800A7D4A
:10156D00037F0780047D017F021217D50521E52138
:09157D00D394064003E4F5212299
:10189D00E52114600904700D7D027F0680047D0230
:0B18AD007F031217D5052153210122F3
:1005C700E51E6402600302074BE521B40700400300
:1005D7000207CA9005E1F82828730205F6020624E7
:1005E7000206520206800206A10206DA020713E596
:1005F7002775F00A842430783AF2E52775F00A84E3
:10060700E5F0243008F27BFE7A00793A7510027D16
:10061700017F021218257D017F020207C7E52875B1
:10062700F00A842430783AF2E52875F00A84E5F078
:10063700243008F27BFE7A00793A7510027D017F3B
:10064700041218257D017F040207C7E52975F00A02
:10065700842430783AF2E52975F00A84E5F02430ED
:1006670008F27BFE7A00793A7510027D017F061247
:1006770018257D017F060207C7E52D75F004A42420
:1006870001F9741635F0FA7BFF7518027D027F03B6
:100697001216337D027F040207C7E52A75F00A8424
:1006A70024B0783DF2E434A318F2E52A75F00A8401
:1006B700E5F024B0783FF2E434A318F27BFE7A0029
:1006C700793C7518027D03E4FF1216337D037F0121
:1006D7000207C7E52B75F00A8424B0783DF2E434AD
:1006E700A318F2E52B75F00A84E5F024B0783FF201
:1006F700E434A318F27BFE7A00793C7518027D0377
:100707007F031216337D037F040207C7E52C75F0BC
:100717000A8424B0783DF2E434A318F2E52C75F08E
:100727000A84E5F024B0783FF2E434A318F27BFEA4
:100737007A00793C7518027D037F061216337D0314
:100747007F07807CE51E64037079E52114603B0414
:100757007071E52275F00A8424B0783DF2E434A381
:1007670018F2E52275F00A84E5F024B0783FF2E448
:1007770034A318F27BFE7A00793C7518027D027F5C
:10078700021216337D027F038036E52375F00A8453
:1007970024B0783DF2E434A318F2E52375F00A8417
:1007A700E5F024B0783FF2E434A318F27BFE7A0038
:1007B700793C7518027D027F051216337D027F068C
:0307C7001217D531
:0107CA00220C
:100F5900E521B407004003021002900F6AF828281F
:100F690073020F7F020F8D020F9B020FCC020FDA63
:100F7900020FE8020FF60527E527D39463407AE4C8
:100F8900F52780750528E528D3940C406C75280150
:100F990080670529E5275403700EE528B40209E5A1
:100FA90029D3941D40538016E52825E024E8F582CD
:100FB900E43415F583E493FFE529D39F403B752974
:100FC900018036052DE52DD39407402D752D01801F
:100FD90028052AE52AD39417401FE4F52A801A0523
:100FE9002BE52BD3943B4011E4F52B800C052CE524
:0C0FF9002CD3943B4003E4F52C0205C708
:10180000E52114601104701A0522E522D3941740D3
:1018100011E4F522800C0523E523D3943B4003E437
:05182000F5230205C7DD
:1014C300E539C4540F75F00AA4FFE539540F2FF51D
:1014D30027E53AC4540F75F00AA4FFE53A540F2FD9
:1014E300F528E53BC4540F75F00AA4FFE53B540F00
:1014F3002FF529853F2DE53CC4540F75F00AA4FF51
:10150300E53C540F2FF52AE53DC4540F75F00AA4AA
:10151300FFE53D540F2FF52BE53EC4540F75F00A3C
:0A152300A4FFE53E540F2FF52C2223
:0B0C83008F0AE50A640D6003020D59A2
:100C8E00E51E64027071751E031218EB7BFF7A1558
:100C9E0079DE751805E4FDFF121633E522C4540FF4
:100CAE0024B07831F2E434A318F2E522540F24B0C4
:100CBE007833F2E434A318F2783474A1F20874C3D2
:100CCE00F2E523C4540F24B07837F2E434A318F2BB
:100CDE00E523540F24B07839F2E434A318F27BFEE6
:100CEE007A0079307518057D027F02121633E4F50D
:100CFE00217D027F03804E751E021218EB78307430
:100D0E00D0F20874A3F20874CAF20874B1F27BFE32
:100D1E007A007930751802E4FD7F03121633E4FD74
:100D2E007F051213E17BFF7A117993E4FD7F0612A2
:100D3E00109F7524AA7525AA120B211214C3E4F56F
:0B0D4E00217D017F021217D502000377
:100D5900E50A641B6051E50AB42611E51EB40203D5
:100D6900020F59E51E6403703E021800E50A642764
:100D79007035E51EC39402501E051E531E01E51E63
:100D8900700D1218EB7524AA7525AA7526AA22E5F5
:100D99001EB401130211C3E51EB4020302152DE5A9
:080DA9001EB4030312189D2281
:10035D00004D4AB8000D4A4C000DA5410025AAB626
:10036D0000056A49007AADBD00025D5200092D47B6
:10037D00005C95BA000A954E000B4A43004B553769
:10038D00000AD54A00955ABF0004BA53000A5B48CB
:10039D0000652BBC00052B50000A934500474AB958
:1003AD000006AA4C000AD5410024DAB60004B64A6C
:1003BD000069573D000A4E51000D2646005E933AE6
:1003CD00000D534D0005AA430036B53700096D4B9E
:1003DD0000B4AEBF0004AD53000A4D48006D25BCFE
:1003ED00000D254F000D5244005DAA38000B5A4CEC
:1003FD0000056D410024ADB600049B4A007A4BBE4A
:10040D00000A4B51000AA546005B52BA0006D24EB7
:10041D00000ADA4200355B370009374B008497C17B
:10042D000004975300064B480066A53C000EA54FEF
:10043D000006B244004AB638000AAE4C00092E42FE
:10044D00003C9735000C9649007D4ABD000D4A5180
:10045D00000DA5450055AABA00056A4E000A6D4368
:10046D0000452EB700052D4B008A95BF000A955308
:10047D00000B4A47006B553B000AD54F00055A4506
:10048D00004A5D38000A5B4C00052B42003A93B6DA
:10049D0000069349007729BD0006AA51000AD546EA
:1004AD000054DABA0004B64E000A57430045273807
:1004BD00000D264A008E933E000D5252000DAA47A4
:1004CD000066B53B00056D4F0004AE45004A4EB9C0
:1004DD00000A4D4C000D1541002D92B50000000095
:1004ED000000001F0000003B0000005A00000078D3
:1004FD0000000097000000B5000000D4000000F3DC
:10050D0000000111000001300000014E000000004C
:10051D00B3F5D2BBB3F5B6FEB3F5C8FDB3F5CBC499
:10052D00B3F5CEE5B3F5C1F9B3F5C6DFB3F5B0CB91
:10053D00B3F5BEC5B3F5CAAECAAED2BBCAAEB6FE32
:10054D00CAAEC8FDCAAECBC4CAAECEE5CAAEC1F9FD
:10055D00CAAEC6DFCAAEB0CBCAAEBEC5B6FECAAE57
:10056D00D8A5D2BBD8A5B6FED8A5C8FDD8A5CBC4F5
:10057D00D8A5CEE5D8A5C1F9D8A5C6DFD8A5B0CBED
:10058D00D8A5BEC5C8FDCAAE0000D5FDB6FEC8FDD6
:10059D00CBC4CEE5C1F9C6DFB0CBBEC5CAAEB6ACD5
:1005AD00C0B0CAF3C5A3BBA2CDC3C1FAC9DFC2EDAA
:0A05BD00D1F2BAEFBCA6B9B7D6ED33
:06000E008F128D138B140C
:1000140075F004EFA42459F582E5F03403F5831256
:100024000979EF5460FFE4FEFDFC7805120952E4FF
:100034007B01FAF9F8C312094175F0047020E51246
:10004400A42459F582E5F03403F583120979EF54B9
:100054001FFFEF24FFF516E434FFF515801DE512AC
:10006400A42459F582E5F03403F583120979EF5499
:100074001FFFEF241EF516E433F515E51325E025DF
:10008400E024E5F582E43404F5831209797C00EF79
:100094002514FFEC3ECF24FFF518EF34FFF517E5E8
:1000A400125403700FE513D3940240080518E518A1
:1000B40070020517C3E5189516E517951550030248
:1000C40001C1D205E5189516F518E5179515F5172C
:1000D400751301751901E4F51AFFFE7D08FCE51995
:1000E40014F9F812096575F004E512A42459F5828F
:1000F400E5F03403F583120989EB5FFFEA5EFEE95C
:100104005DFDE85CFCE4FBFAF9F8C31209417003F5
:100114000201B00201B6AF1B7E00C3E5189FE517CC
:100124009E50030201BCE5189FF518E5179EF517CC
:10013400051975F004E512A42459F582E5F0340399
:10014400F583120979E4FFFEED54F0FDE4FC781424
:10015400120952A804A905AA06AB07AF13E4FCFDD3
:10016400FEC3120941700B631AFFE51A70060513EA
:1001740080020513E4FFFE7D08FCE51914F9F8126A
:10018400096575F004E512A42459F582E5F03403F9
:10019400F583120989EB5FFFEA5EFEE95DFDE85C29
:1001A400FCE4FBFAF9F8C31209417006751B1D0241
:1001B400011A751B1E02011AE5180202ECC205C3DE
:1001C400E5169518F516E5159517F5151512751319
:1001D4000C75F004E512A42459F582E5F03403F516
:1001E40083120979E4FFFEED54F0FDE4FC78141267
:1001F4000952E4FBFAF9F8C3120941700575190CA8
:10020400800375190DE4F51AFFFE7D08FCE5191449
:10021400F9F812096575F004E512A42459F582E58C
:10022400F03403F583120989EB5FFFEA5EFEE95DB2
:10023400FDE85CFCE4FBFAF9F8C31209417003021F
:1002440002DB0202E1AF1B7E00D3E5169FE5159E9B
:1002540050030202E7E5169FF516E5159EF5151500
:1002640019E51A7002151375F004E512A42459F562
:1002740082E5F03403F583120979E4FFFEED54F0CE
:10028400FDE4FC7814120952A804A905AA06AB07D8
:10029400AF13E4FCFDFEC31209417003631AFFE4CB
:1002A400FFFE7D08FCE51914F9F812096575F004E0
:1002B400E512A42459F582E5F03403F58312098983
:1002C400EB5FFFEA5EFEE95DFDE85CFCE4FBFAF946
:1002D400F8C31209417006751B1D020249751B1EE5
:1002E400020249C3E51B951604F514E5444514F5CB
:1002F40044E543F543E542F542E541F541E513752F
:10030400F040A4FFAEF0EE3395E0FDFCE5444FF57C
:1003140044E5434EF543E5424DF542E5414CF54194
:1003240075F004E512A42459F582E5F03403F5834D
:10033400120979E4FFFEED54F0FDE4FC781412098F
:1003440052A804A905AA06AB07AF13E4FCFDFEC33B
:080354001209417002D322C31B
:01035C00227E
:0209A5008F0BB6
:1009A700E4F51112000E5048AB0EAA0FA910AF11B3
:1009B700051175F002EFA4F58285F08374C875F010
:1009C700F21208C5E54454C0FFE5435403FEE4FDB5
:1009D700FC780612095290059575F002EF120999F5
:1009E700EE25E02583F583E493FE740193FF8030C1
:1009F700E54454C0FFE5435403FEE4FDFC780612CA
:100A0700095290059575F002EF120999EE25E02538
:100A170083F583E493FE740193FFAB0EAA0FA9102D
:100A2700AD11051175F002EDA4F58285F083EE8F07
:100A3700F01208C5AB0EAA0FA910AF11051175F07A
:100A470002EFA4F58285F08374D475F0C21208C54D
:100A5700E544543FFF90051975F004EF120999E436
:100A670025E025E02583F583E493FE740193FFAD2C
:100A770011051175F002EDA4F58285F083EE8FF074
:100A87001208C5E544543FFF90051B75F004EF12AB
:100A97000999E425E025E02583F583E493FE7401B5
:100AA70093FFAD11051175F002EDA4F58285F08372
:100AB700EE8FF01208C5AF11051175F002EFA4F51E
:100AC7008285F08374A175F0A01208C5E50B246434
:100AD700FFE433FE7C007D0C120845AF05300502AC
:100AE7008008EF70047F0B80011FEF25E024AFF52E
:100AF70082E43405F583E493FE740193FFAB0EAAF9
:100B07000FA910AD11051175F002EDA4F58285F05E
:090B170083EE8FF01208C5AF1146
:010B200022B2
:0314690001480037
:0C1985000000EF1F70011E144E70F522D0
:1018B800C2B27FD07E07121985D2B27F047E001291
:0918C8001985A2B29204A204B336
:0118D10022F4
:061005008B138A1489150B
:10100B00C2AF1218B89203200303A20322E4F548DF
:10101B0020B20AAF480548EFC3941440F3E548C328
:10102B009414400280227F087E00121985E4FDE4AF
:10103B00FCE4F54820B20AAF480548EFC3941440CE
:10104B00F3E548C394144005D2B2D2AF227F037E9E
:10105B000012198574192DF8C000E625E0D000F6B2
:10106B0030B20F74192DF8E64401F67F037E00129F
:10107B0019850CBC08BB0DBD05B5AB13AA14A9157E
:10108B00E519120811AB16AA17A918E51B120811BE
:03109B00D2AFD3FE
:01109E00222F
:10196600313233263435362537383928301B0D27A2
:10146C00C100C101C1020137000138009020010107
:10147C000101010101010101010101010101012F22
:10148C000090000F0F0F0F0F0F0F0F0F0F0F0F0FFD
:10149C000F0F0F9010010101010101010101010168
:1014AC00010101010102300000023203E8013400A5
:0614BC00013500013600BD
:100DB100E52F14601014601314601624037016D20A
:100DC100A0C2A38010D2A3C2A2800AD2A2C2A180D3
:100DD10004D2A1C2A0E52F25E025E02400F8E225F8
:100DE100E0FFA2A4E4334FFFE52F25E025E0240036
:100DF100F8EFF2E52F25E025E02401F8E225E0FFF8
:100E0100A2A5E4334FFFE52F25E025E02401F8EF0B
:100E1100F2E52F25E025E02402F8E225E0FFA2A675
:100E2100E4334FFFE52F25E025E02402F8EFF2E55A
:100E31002F25E025E02403F8E225E0FFA2A7E43313
:100E41004FFFE52F25E025E02403F8EFF2E4FFE56D
:100E51002F25E025E024002FF8E2540FFEBE0F0FEE
:100E6100E52F25E025E024202FF87401F2800FEE14
:100E7100700CE52F25E025E024202FF8E4F20FBFC8
:070E810004CD052F532F03E0
:010E88002247
:100E8900E4F508E4F509E50825E025E02466F5829E
:100E9900E43419F583E5822509F582E43583F58380
:100EA900E49364267036E50825E025E02410250939
:100EB900F8E270230531E53170020530D39533E549
:100EC90030953240177FD0120C8374C82533F5331F
:100ED900E43532F5328005E4F530F531E50825E0F1
:100EE90025E024202509F8E2FFE50825E025E0248E
:100EF900102509F8E2FE6F603EEEB40120E50825F1
:100F0900E025E02466F582E43419F583E5822509B4
:100F1900F582E43583F583E493FF120C83E5082514
:100F2900E025E024202509F8E2FFE50825E025E091
:100F390024102509F8EFF20509E509C394045003C3
:0F0F4900020E8F0508E508C394045003020E8CB6
:010F58002276
:1017A900E4FCFDFE7B997A03F9F81208F2C374127E
:1017B9009FFFE49EF537EF540FF5385389F04389BD
:0B17C9000185378C85388AD28CD2A9AC
:0117D40022F2
:03000B000216805A
:0D168000C0E0C0D075D000C000C006C0079B
:10168D0085378C85388A0534E534C394C840207578
:10169D003400D2000535E53594054005753500D289
:1016AD00010536E536C394194005753600D2021290
:0216BD000DB16D
:0B16BF00D007D006D000D0D0D0E03221
:0300000002125198
:0C125100787FE4F6D8FD75814802129801
:1007CB00BB010689828A83E0225002E722BBFE022C
:0907DB00E32289828A83E493225F
:1007E400BB010CE58229F582E5833AF583E02250CA
:1007F40006E92582F8E622BBFE06E92582F8E22214
:0D080400E58229F582E5833AF583E493222D
:10081100BB010689828A83F0225002F722BBFE01C6
:02082100F322C0
:10082300F8BB010DE58229F582E5833AF583E8F00B
:10083300225006E92582C8F622BBFE05E92582C8B7
:02084300F2229F
:10084500BC000BBE0029EF8DF084FFADF022E4CC97
:10085500F875F008EF2FFFEE33FEEC33FCEE9DEC60
:10086500984005FCEE9DFE0FD5F0E9E4CEFD22EDA6
:10087500F8F5F0EE8420D21CFEADF075F008EF2FF0
:10088500FFED33FD4007985006D5F0F222C398FDE1
:050895000FD5F0EA227E
:10089A00BB010A89828A83E0F5F0A3E02250068729
:1008AA00F009E71922BBFE07E3F5F009E3192289EB
:0B08BA00828A83E493F5F0740193221E
:1008C500F8BB0111E58229F582E5833AF583E8F065
:1008D500E5F0A3F0225009E92582C8F608A6F02222
:0D08E500BBFE09E92582C8F2E5F008F22209
:1008F200E88FF0A4CC8BF0A42CFCE98EF0A42CFCA5
:100902008AF0EDA42CFCEA8EF0A4CDA8F08BF0A422
:100912002DCC3825F0FDE98FF0A42CCD35F0FCEB81
:100922008EF0A4FEA9F0EB8FF0A4CFC5F02ECD3946
:0F093200FEE43CFCEAA42DCE35F0FDE43CFC22B3
:10094100EB9FF5F0EA9E42F0E99D42F0E89C45F00C
:010951002283
:10095200E8600FECC313FCED13FDEE13FEEF13FF83
:03096200D8F122A7
:10096500E86010ECA2E713FCED13FDEE13FEEF13A8
:04097500FFD8F02295
:10097900E493FC740193FD740293FE740393FF22C4
:10098900E493F8740193F9740293FA740393FB22C4
:0C099900A42582F582E5F03583F5832269
:10125D00021779E493A3F8E493A34003F68001F217
:10126D0008DFF48029E493A3F85407240CC8C33392
:10127D00C4540F4420C8834004F456800146F6DF61
:10128D00E4800B0102040810204080901454E47E89
:10129D00019360BCA3FF543F30E509541FFEE49356
:1012AD00A360010ECF54C025E060A840B8E493A31D
:1012BD00FAE493A3F8E493A3C8C582C8CAC583CA48
:1012CD00F0A3C8C582C8CAC583CADFE9DEE780BE00
:0114C2000029
:00000001FF
