:04131200EF12061FB1
:10131600E4FF7E01EE600F30B4024207D2B5C2B5DB
:06132600EE25E0FE80EE62
:01132C00229E
:0412F5001205E0FFFF
:1012F9007E01EE60135F7004C2B48002D2B4D2B52D
:08130900C2B5EE25E0FE80EA0A
:0113110022B9
:10111D00D2977FBF1212F9121316900005121312F7
:10112D009000041213129000031213129000021279
:10113D001312900001121312900006121312EF12E7
:10114D00060DC297E92405F9E43AFA1205C7547F52
:03115D0002060D7A
:10119C00D2977FBE1212F99000051212F59000043E
:1011AC001212F59000031212F59000021212F59033
:1011BC0000011212F59000061212F51205C7FF126B
:0A11CC0012F9E4FF1212F9C2972293
:1013DF00D297EF25E04481FF1212F9121316C2972C
:0113EF0022DB
:1013BA00D297EF25E04480FF1212F9AF051212F915
:0313CA00C29722A5
:1011D600750817750905750A09750B12750C55E41E
:1011E600F50D750E02C2B5C297FF1213DFEF30E799
:1011F60010E4FD7F071213BA7B007A0079081211FA
:011206009C4B
:0112070022C4
:100FAE0020003C1C7C1EFFFFFFFFFE3FF98F798E59
:100FBE00718671F671F6780E380E3E3C1FFC1FFCE2
:100FCE001C1C0000010041042008139007C00FE014
:100FDE00DFF61FF00FE007C0139020084104010058
:100FEE0000000000078003C001E001F000F800F8E7
:100FFE0000F800F800F801F003F007E00FC01F0042
:10100E000000A1A0A1A0A1A0A1A0A1A0A1A0A1A00B
:02101E00A1A08F
:1013CD00C290D291D295E5805480FFC29570F5C23E
:0113DD00957A
:0113DE0022EC
:09134700FF121350E5084480FF79
:10135000AE071213CDC290C291D2958E80C2952253
:0613790014F91205C7FF84
:10137F00AE071213CDD290C291D2958E80C2952214
:1012D7007F301213507F0C1213507F011213507B73
:0E12E700FF7A0F79AE750F01E4FDFF0212B51C
:1012B5008B0C8A0D890E121266AB0C050EE50EAA73
:1012C5000D7002050D121379150FE50FD39400501B
:0212D500E8220D
:0A10D0008F128D138B148A158916F8
:1010DA00AF171517EFD394004038AD13AF121212A1
:1010EA00660512E512D394074005E4F5120513AB21
:1010FA0014AA15A916120696FDACF0ECFF12137F7E
:10110A00AF0512137F74022516F516E43515F51589
:02111A0080BE95
:01111C0022B0
:02126600AE07D1
:10126800E4FFED1460101460131460162403701664
:10127800EE2480FF8010EE2490FF800AEE2488FF81
:091288008004EE2498FF021350CB
:050003007F0F02135005
:051424007F0C021350D3
:101360007F301213507F011213507BFF7A0F79AE3A
:09137000750F01E4FDFF0212B546
:060DC4008B1D8A1E891F31
:100DCA007F341213507F34121350E4FCEC4480FF3A
:100DDA001213507F80121350E4FDAB1D051FE51F4F
:100DEA00AA1E7002051E121379AB1D051FE51FAA64
:100DFA001E7002051E1213790DBD08DE0CBC20CC34
:100E0A00E4FCEC4480FF1213507F88121350E4FD77
:100E1A00AB1D051FE51FAA1E7002051E121379AB32
:100E2A001D051FE51FAA1E7002051E1213790DBDAE
:100E3A0008DE0CBC20CC7F361213507F30021350D0
:080C18008F088B098A0A890B81
:100C20007F341213507F34121350EDC394025030AE
:100C3000E4FCEDC454F044804C121347AB09050B9F
:100C4000E50BAA0A7002050A121379AB09050BE538
:100C50000BAA0A7002050A1213790CBC10D4803753
:100C6000E4FCEDC454F044804CFF121350E50844FA
:100C700088FF121350AB09050BE50BAA0A70020599
:100C80000A121379AB09050BE50BAA0A7002050AD3
:100C90001213790CBC10CBEDC454F04480121347EE
:0A0CA0007F361213507F300213500C
:101020007F341213507F34121350E4FCEC4480FFE1
:101030001213507F80121350E4FDE4FF12137FE47B
:10104000FF12137F0DBD08F20CBC20E0E4FCEC4461
:1010500080FF1213507F88121350E4FDE4FF121337
:101060007FE4FF12137F0DBD08F20CBC20E07F3639
:081070001213507F30021350EF
:020EC800AB0776
:100ECA007F341213507F34121350EDC3940250240E
:100EDA00E4FCEDC454F044804CFF121350EB448000
:100EEA00FF121350E4FF12137FE4FF12137F0CBCAE
:100EFA0010E08022E4FCEDC454F044804CFF12134D
:100F0A0050EB4488FF121350E4FF12137FE4FF12E0
:100F1A00137F0CBC10E0EDC454F04480FF12135050
:100F2A00EB4480FF1213507F361213507F300213A6
:010F3A005066
:0F1400007BFF7A107910C374089FF5170210D084
:031078000135003F
:10129100D2AF1211D61212D71210207F0112123AB8
:1012A10012141BE5357008300005C2001209301216
:0412B1000F3B80EF80
:1012080000000000D6DCD2BBD6DCB6FED6DCC8FDBA
:10121800D6DCCBC4D6DCCEE5D6DCC1F9D6DCC8D565
:10122800CEC2B6C8A3BACAAAB6C8A3BAC4D6D6D3B9
:02123800A3BA57
:0B107B000132AA0133AA0134AAC1040B
:10138F00E4F536E53604FDE4FF1214000536E536C4
:05139F00C3940340EEC1
:0113A4002226
:100930007B007A00792112111DE5326526700302D1
:1009400009EC852632E524C4540F24B07831F2E452
:1009500034A318F2E524540F24B07833F2E434A31E
:1009600018F2783474A1F20874C3F2E525C4540F68
:1009700024B07837F2E434A318F2E525540F24B0FC
:100980007839F2E434A318F2783A74A1F20874C307
:10099000F2E526C4540F24B0783DF2E434A318F2F3
:1009A000E526540F24B0783FF2E434A318F27BFE1E
:1009B0007A0079307517087D03E4FF1210D0E53412
:1009C00065246028852434E524C39408400CE5247C
:1009D000D394185005200414800320040FB2047B24
:1009E000FF7A0F79D0E4FD7F05120C18E5336523FB
:1009F0007003020A9985233378407420F208F208C4
:100A00007432F2087430F2E521C4540F243008F235
:100A1000E521540F243008F2087420F208F2E52290
:100A2000C4540F243008F2E522540F243008F20891
:100A30007420F208F2E523C4540F243008F2E523B1
:100A4000540F243008F2785074A1F20874A4F27B99
:100A5000FE7A007940750F0E7D01E4FF1212B57B1E
:100A6000FE7A0079507517017D017F031210D07B4B
:100A7000FE7A0079507517017D017F051210D0E5CF
:100A80002775F004A42408F9741235F0FA7BFF7579
:090A900017027D027F031210D051
:010A9900223A
:100E4A0075150075160075170A7B007A00790B1262
:100E5A000B72E50A75F00A8424B0F50DE434A3F5A3
:100E6A000CE50A75F00A84E5F024B0F50FE434A322
:100E7A00F50E7510A17511E67B007A00790C7517CD
:100E8A00037D017F031210D0E50B75F00A8424B0AC
:100E9A00F50DE434A3F50CE50B75F00A84E5F024AE
:100EAA00B0F50FE434A3F50E7510A37511A57B00F8
:0E0EBA007A00790C7517037D027F030210D0B9
:100CAA001213607BFF7A1279287517037D01E4FF1E
:100CBA001210D07BFF7A12792E7517037D02E4FF9A
:100CCA001210D07BFF7A1279347517037D03E4FF83
:100CDA001210D0120E4AE521C4540F75F00AA4FF6F
:100CEA00E521540F2FFF7840F2E522C4540F75F026
:100CFA000AA4FEE522540F2E08F2FDE523C4540F80
:100D0A0075F00AA4FEE523540F2EFE783FF2FB7518
:100D1A000DFE750E00750F301207B4783EEFF27BA8
:0E0D2A00FE7A007930F517E4FD7F010210D04B
:1013A500BF0D110535533501E5356008E535B40147
:0513B50003120CAA2246
:10035D00004D4AB8000D4A4C000DA5410025AAB626
:10036D0000056A49007AADBD00025D5200092D47B6
:10037D00005C95BA000A954E000B4A43004B553769
:10038D00000AD54A00955ABF0004BA53000A5B48CB
:10039D0000652BBC00052B50000A934500474AB958
:1003AD000006AA4C000AD5410024DAB60004B64A6C
:1003BD000069573D000A4E51000D2646005E933AE6
:1003CD00000D534D0005AA430036B53700096D4B9E
:1003DD0000B4AEBF0004AD53000A4D48006D25BCFE
:1003ED00000D254F000D5244005DAA38000B5A4CEC
:1003FD0000056D410024ADB600049B4A007A4BBE4A
:10040D00000A4B51000AA546005B52BA0006D24EB7
:10041D00000ADA4200355B370009374B008497C17B
:10042D000004975300064B480066A53C000EA54FEF
:10043D000006B244004AB638000AAE4C00092E42FE
:10044D00003C9735000C9649007D4ABD000D4A5180
:10045D00000DA5450055AABA00056A4E000A6D4368
:10046D0000452EB700052D4B008A95BF000A955308
:10047D00000B4A47006B553B000AD54F00055A4506
:10048D00004A5D38000A5B4C00052B42003A93B6DA
:10049D0000069349007729BD0006AA51000AD546EA
:1004AD000054DABA0004B64E000A57430045273807
:1004BD00000D264A008E933E000D5252000DAA47A4
:1004CD000066B53B00056D4F0004AE45004A4EB9C0
:1004DD00000A4D4C000D1541002D92B50000000095
:1004ED000000001F0000003B0000005A00000078D3
:1004FD0000000097000000B5000000D4000000F3DC
:10050D0000000111000001300000014E000000004C
:10051D00B3F5D2BBB3F5B6FEB3F5C8FDB3F5CBC499
:10052D00B3F5CEE5B3F5C1F9B3F5C6DFB3F5B0CB91
:10053D00B3F5BEC5B3F5CAAECAAED2BBCAAEB6FE32
:10054D00CAAEC8FDCAAECBC4CAAECEE5CAAEC1F9FD
:10055D00CAAEC6DFCAAEB0CBCAAEBEC5B6FECAAE57
:10056D00D8A5D2BBD8A5B6FED8A5C8FDD8A5CBC4F5
:10057D00D8A5CEE5D8A5C1F9D8A5C6DFD8A5B0CBED
:10058D00D8A5BEC5C8FDCAAE0000D5FDB6FEC8FDD6
:10059D00CBC4CEE5C1F9C6DFB0CBBEC5CAAEB6ACD5
:1005AD00C0B0CAF3C5A3BBA2CDC3C1FAC9DFC2EDAA
:0A05BD00D1F2BAEFBCA6B9B7D6ED33
:06000E008F118D128B130F
:1000140075F004EFA42459F582E5F03403F5831256
:100024000788EF5460FFE4FEFDFC780512074EE4F8
:100034007B01FAF9F8C312073D75F0047020E5114D
:10004400A42459F582E5F03403F583120788EF54AC
:100054001FFFEF24FFF515E434FFF514801DE511AF
:10006400A42459F582E5F03403F583120788EF548C
:100074001FFFEF241EF515E433F514E51225E025E2
:10008400E024E5F582E43404F5831207887C00EF6C
:100094002513FFEC3ECF24FFF517EF34FFF516E5EB
:1000A400115403700FE512D3940240080517E517A5
:1000B40070020516C3E5179515E51695145003024D
:1000C40001C1D205E5179515F517E5169514F51632
:1000D400751201751801E4F519FFFE7D08FCE51899
:1000E40014F9F812076175F004E511A42459F58296
:1000F400E5F03403F583120798EB5FFFEA5EFEE94F
:100104005DFDE85CFCE4FBFAF9F8C312073D7003FB
:100114000201B00201B6AF1A7E00C3E5179FE516CF
:100124009E50030201BCE5179FF517E5169EF516D0
:10013400051875F004E511A42459F582E5F034039B
:10014400F583120788E4FFFEED54F0FDE4FC781417
:1001540012074EA804A905AA06AB07AF12E4FCFDDA
:10016400FEC312073D700B6319FFE51970060512F3
:1001740080020512E4FFFE7D08FCE51814F9F8126C
:10018400076175F004E511A42459F582E5F0340300
:10019400F583120798EB5FFFEA5EFEE95DFDE85C1C
:1001A400FCE4FBFAF9F8C312073D7006751A1D0248
:1001B400011A751A1E02011AE5170202ECC205C3E0
:1001C400E5159517F515E5149516F5141511751221
:1001D4000C75F004E511A42459F582E5F03403F517
:1001E40083120788E4FFFEED54F0FDE4FC7814125A
:1001F400074EE4FBFAF9F8C312073D700575180CB5
:10020400800375180DE4F519FFFE7D08FCE518144C
:10021400F9F812076175F004E511A42459F582E593
:10022400F03403F583120798EB5FFFEA5EFEE95DA5
:10023400FDE85CFCE4FBFAF9F8C312073D70030225
:1002440002DB0202E1AF1A7E00D3E5159FE5149E9E
:1002540050030202E7E5159FF515E5149EF5141504
:1002640018E5197002151275F004E511A42459F566
:1002740082E5F03403F583120788E4FFFEED54F0C1
:10028400FDE4FC781412074EA804A905AA06AB07DE
:10029400AF12E4FCFDFEC312073D70036319FFE4D3
:1002A400FFFE7D08FCE51814F9F812076175F004E7
:1002B400E511A42459F582E5F03403F58312079877
:1002C400EB5FFFEA5EFEE95DFDE85CFCE4FBFAF946
:1002D400F8C312073D7006751A1D020249751A1EED
:1002E400020249C3E51A951504F513E5314513F5E2
:1002F40031E530F530E52FF52FE52EF52EE51275B5
:10030400F040A4FFAEF0EE3395E0FDFCE5314FF58F
:1003140031E5304EF530E52F4DF52FE52E4CF52E19
:1003240075F004E511A42459F582E5F03403F5834E
:10033400120788E4FFFEED54F0FDE4FC7814120784
:100344004EA804A905AA06AB07AF12E4FCFDFEC340
:0803540012073D7002D322C321
:01035C00227E
:0207B4008F0AAA
:1007B600E4F51012000E5048AB0DAA0EA90FAF10AB
:1007C600051075F002EFA4F58285F08374C875F004
:1007D600F21206C1E53154C0FFE5305403FEE4FDD4
:1007E600FC780612074E90059575F002EF1207A8E1
:1007F600EE25E02583F583E493FE740193FF8030B4
:10080600E53154C0FFE5305403FEE4FDFC780612E2
:10081600074E90059575F002EF1207A8EE25E02524
:1008260083F583E493FE740193FFAB0DAA0EA90F23
:10083600AD10051075F002EDA4F58285F083EE8FFC
:10084600F01206C1AB0DAA0EA90FAF10051075F078
:1008560002EFA4F58285F08374D475F0C21206C146
:10086600E531543FFF90051975F004EF1207A8E42F
:1008760025E025E02583F583E493FE740193FFAD1F
:1008860010051075F002EDA4F58285F083EE8FF069
:100896001206C1E531543FFF90051B75F004EF12B7
:1008A60007A8E425E025E02583F583E493FE74019B
:1008B60093FFAD10051075F002EDA4F58285F08367
:1008C600EE8FF01206C1AF10051075F002EFA4F519
:1008D6008285F08374A175F0A01206C1E50A24642E
:1008E600FFE433FE7C007D0C120641AF05300502A5
:1008F6008008EF70047F0B80011FEF25E024AFF521
:1009060082E43405F583E493FE740193FFAB0DAAEC
:100916000EA90FAD10051075F002EDA4F58285F055
:0909260083EE8FF01206C1AF1040
:01092F0022A5
:0C140F000000EF1F70011E144E70F5224B
:10132D00C2B27FD07E0712140FD2B27F047E00129C
:09133D00140FA2B29203A203B343
:011346002284
:100B7200751820E4F51CF51BF51AF51912132D92C0
:100B820002200203A2022230B2FD7F087E0012146C
:100B92000FAF181518EF605430B2FDE4F58BD28E0A
:100BA20020B2FDC28EE58BC3941E5017AF1CAE1B44
:100BB200AD1AAC1978011207758F1C8E1B8D1A8C19
:100BC2001980CEAF1CAE1BAD1AAC19780112077595
:100BD2008F1C8E1B8D1A8C19E51C4401F51CE51B1C
:100BE200F51BE51AF51AE519F51980A5AF1CAE1B20
:100BF200AD1AAC19781812074EEF12060DAF1CAEE3
:100C02001BAD1AAC19780812074EAB15AA16A91714
:050C1200EF12060DD3F6
:010C170022BA
:09141B0053890F438910C2AB2272
:1013F000313233263435362537383928301B0D271E
:10108600C100C101012C00012D00902001010101C8
:101096000101010101010101010101010129009084
:1010A600000F0F0F0F0F0F0F0F0F0F0F0F0F0F0F59
:1010B6000F9010010101010101010101010101016E
:0910C600010101012A00012B00C7
:100A9A00E52914601014601314601624037016D22A
:100AAA00A0C2A38010D2A3C2A2800AD2A2C2A180ED
:100ABA0004D2A1C2A0E52925E025E02400F8E22518
:100ACA00E0FFA2A4E4334FFFE52925E025E0240056
:100ADA00F8EFF2E52925E025E02401F8E225E0FF18
:100AEA00A2A5E4334FFFE52925E025E02401F8EF2C
:100AFA00F2E52925E025E02402F8E225E0FFA2A696
:100B0A00E4334FFFE52925E025E02402F8EFF2E57A
:100B1A002925E025E02403F8E225E0FFA2A7E43333
:100B2A004FFFE52925E025E02403F8EFF2E4FFE58D
:100B3A002925E025E024002FF8E2540FFEBE0F0F0E
:100B4A00E52925E025E024202FF87401F2800FEE34
:100B5A00700CE52925E025E024202FF8E4F20FBFE8
:070B6A0004CD052953290306
:010B71002261
:100F3B00E4F508E4F509E50825E025E0242025097A
:100F4B00F8E2FFE50825E025E024102509F8E2FE8C
:100F5B006F603DEE7020E50825E025E024F0F5827A
:100F6B00E43413F583E5822509F582E43583F583B3
:100F7B00E493FF1213A5E50825E025E024202509BD
:100F8B00F8E2FFE50825E025E024102509F8EFF24B
:100F9B000509E509C39404409D0508E508C39404BD
:020FAB00409173
:010FAD002221
:10123A00E4FCFDFE7B997A03F9F81206EEC37412F8
:10124A009FFFE49EF52CEF540FF52D5389F0438947
:0B125A0001852C8C852D8AD28CD2A936
:011265002266
:03000B000211607F
:0D116000C0E0C0D075D000C000C006C007C0
:10116D00852C8C852D8A052AE52AC394C8401275D5
:10117D002A00D200052BE52B94054005752B00D2D6
:04118D0001120A9AA7
:0B119100D007D006D000D0D0D0E03254
:03000000020D38B6
:0C0D3800787FE4F6D8FD758136020D7F4F
:1005C700BB010689828A83E0225002E722BBFE0232
:0905D700E32289828A83E4932265
:1005E000BB010CE58229F582E5833AF583E02250D0
:1005F00006E92582F8E622BBFE06E92582F8E2221A
:0D060000E58229F582E5833AF583E4932233
:10060D00BB010689828A83F0225002F722BBFE01CC
:02061D00F322C6
:10061F00F8BB010DE58229F582E5833AF583E8F011
:10062F00225006E92582C8F622BBFE05E92582C8BD
:02063F00F222A5
:10064100BC000BBE0029EF8DF084FFADF022E4CC9D
:10065100F875F008EF2FFFEE33FEEC33FCEE9DEC66
:10066100984005FCEE9DFE0FD5F0E9E4CEFD22EDAC
:10067100F8F5F0EE8420D21CFEADF075F008EF2FF6
:10068100FFED33FD4007985006D5F0F222C398FDE7
:050691000FD5F0EA2284
:10069600BB010A89828A83E0F5F0A3E0225006872F
:1006A600F009E71922BBFE07E3F5F009E3192289F1
:0B06B600828A83E493F5F07401932224
:1006C100F8BB0111E58229F582E5833AF583E8F06B
:1006D100E5F0A3F0225009E92582C8F608A6F02228
:0D06E100BBFE09E92582C8F2E5F008F2220F
:1006EE00E88FF0A4CC8BF0A42CFCE98EF0A42CFCAB
:1006FE008AF0EDA42CFCEA8EF0A4CDA8F08BF0A429
:10070E002DCC3825F0FDE98FF0A42CCD35F0FCEB87
:10071E008EF0A4FEA9F0EB8FF0A4CFC5F02ECD394C
:0F072E00FEE43CFCEAA42DCE35F0FDE43CFC22B9
:10073D00EB9FF5F0EA9E42F0E99D42F0E89C45F012
:01074D002289
:10074E00E8600FECC313FCED13FDEE13FEEF13FF89
:03075E00D8F122AD
:10076100E86010ECA2E713FCED13FDEE13FEEF13AE
:04077100FFD8F0229B
:10077500E8600FEFC333FFEE33FEED33FDEC33FCE2
:03078500D8F12286
:10078800E493FC740193FD740293FE740393FF22B7
:10079800E493F8740193F9740293FA740393FB22B7
:0C07A800A42582F582E5F03583F583225C
:100D4400021291E493A3F8E493A34003F68001F222
:100D540008DFF48029E493A3F85407240CC8C333B0
:100D6400C4540F4420C8834004F456800146F6DF7F
:100D7400E4800B0102040810204080901078E47E87
:100D8400019360BCA3FF543F30E509541FFEE49374
:100D9400A360010ECF54C025E060A840B8E493A33B
:100DA400FAE493A3F8E493A3C8C582C8CAC583CA66
:100DB400F0A3C8C582C8CAC583CADFE9DEE780BE1E
:0110CF000020
:00000001FF
