:040D4E00EF12061F7B
:100D5200E4FF7E01EE600F30B4024207D2B5C2B5A5
:060D6200EE25E0FE80EE2C
:010D68002268
:040D14001205E0FFE5
:100D18007E01EE60135F7004C2B48002D2B4D2B513
:080D2800C2B5EE25E0FE80EAF1
:010D300022A0
:100B9A00D2977FBF120D18120D52900005120D4EFA
:100BAA00900004120D4E900003120D4E9000021296
:100BBA000D4E900001120D4E900006120D4EEF12CE
:100BCA00060DC297E92405F9E43AFA1205C7547FDB
:030BDA0002060D03
:100BDD00D2977FBE120D18900005120D14900004CF
:100BED00120D14900003120D14900002120D1490AA
:100BFD000001120D14900006120D141205C7FF12FC
:0A0C0D000D18E4FF120D18C2972223
:100DE600D297EF25E04481FF120D18120D52C297DB
:010DF60022DA
:100DAF00D297EF25E04480FF120D18AF05120D18F2
:030DBF00C29722B6
:100C4A00752117752205752309752412752555E432
:100C5A00F526752702C2B5C297FF120DE6EF30E7F7
:100C6A0010E4FD7F07120DAF7B007A007921120B89
:010C7A00DD9C
:010C7B002256
:020008002000D6
:100DC200C290D291D295E5805480FFC29570F5C24F
:010DD200958B
:010DD30022FD
:100DF700AE07120DC2C290C291D2958E80C29522C3
:060D990014F91205C7FF6A
:100D9F00AE07120DC2D290C291D2958E80C295220B
:100CF6007F30120DF77F0C120DF77F01120DF77B77
:0E0D0600FF7A007908754401E4FDFF020CD469
:100CD4008B418A428943120CA9AB410543E543AADF
:100CE4004270020542120D991544E544D394005014
:020CF400E822F4
:0A0B4D008F3F8D408B418A4289439F
:100B5700AF441544EFD394004038AD40AF3F120C7B
:100B6700A9053FE53FD394074005E4F53F0540ABB2
:100B770041AA42A943120696FDACF0ECFF120D9F65
:100B8700AF05120D9F74022543F543E43542F54244
:020B970080BE1E
:010B99002239
:020CA900AE0794
:100CAB00E4FFED1460101460131460162403701627
:100CBB00EE2480FF8010EE2490FF800AEE2488FF44
:090CCB008004EE2498FF020DF7ED
:050003007F0F020DF764
:050E07007F0C020DF755
:100D69007F30120DF77F01120DF77BFF7A007908AA
:090D7900754401E4FDFF020CD4F5
:060ACC008B148A15891647
:100AD2007F34120DF77F34120DF7E4FCEC4480FFF3
:100AE200120DF77F80120DF7E4FDAB140516E51623
:100AF200AA1570020515120D99AB140516E516AA72
:100B02001570020515120D990DBD08DE0CBC20CC26
:100B1200E4FCEC4480FF120DF77F88120DF7E4FD30
:100B2200AB140516E516AA1570020515120D99AB40
:100B3200140516E516AA1570020515120D990DBDBC
:0B0B420008DE0CBC20CC7F36020DF753
:0B0DD400C10001180001190001170008
:100D8200D2AF120C4A120CF67F01120C7C3000FD1D
:070D9200C20012090780F600
:100C7C00E4FCFDFE7B997A03F9F81206EEAD07ACA5
:100C8C0006C374129DFDE49CF5188D195389F0432D
:0C0C9C00890185188C85198AD28CD2A998
:010CA8002229
:03000B00020D31B2
:040D3100C0E0C0D08E
:100D350085188C85198A0517E517C394C84005756C
:040D45001700D200C1
:050D4900D0D0D0E03223
:100C17002A00D2BB00B6FE00C800CBC400CEE50058
:100C2700C1F900CCEC00C0F1B0DD00FF0C17FF0CE0
:100C370019FF0C1CFF0C1FFF0C21FF0C24FF0C27B6
:030C4700FF0C2A75
:060DDF00011AAA011BAA83
:100907007B007A007908120B9AE51A650D607785E6
:100917000D1A752120E509C4540F2430F522E50985
:10092700540F2430F52375242DE50AC4540F2430C1
:10093700F525E50A540F2430F526752720E50BC465
:10094700540F2430F528E50B540F2430F529752A68
:100957003AE50CC4540F2430F52BE50C540F243022
:10096700F52C752D3AE50DC4540F2430F52EE50D01
:10097700540F2430F52F7B007A00792175440F7DC1
:1009870001E4FF120CD4E51B650A7003020A3F85D8
:100997000A1B752132752230E508C4540F2430F53F
:1009A70023E508540F2430F5247B007A007921755C
:1009B7004404E4FD7F01120CD47BFF7A0C792D757A
:1009C7004402E4FD7F04120B4DE50E75F003A424E9
:1009D70032F582E4340CF583E493FB740193FA74E3
:1009E7000293F9754401E4FD7F06120B4DE508C437
:1009F700540FFFE50854F075F00AA42FFFE509C46A
:100A0700540FFEE50954F075F00AA42EFDE50AC45B
:100A1700540FFEE50A54F075F00AA42EFB75420048
:100A27007543007544351207A17B007A0079358F2D
:080A3700447D027F01120B4D0A
:010A3F002294
:10035D00004D4AB8000D4A4C000DA5410025AAB626
:10036D0000056A49007AADBD00025D5200092D47B6
:10037D00005C95BA000A954E000B4A43004B553769
:10038D00000AD54A00955ABF0004BA53000A5B48CB
:10039D0000652BBC00052B50000A934500474AB958
:1003AD000006AA4C000AD5410024DAB60004B64A6C
:1003BD000069573D000A4E51000D2646005E933AE6
:1003CD00000D534D0005AA430036B53700096D4B9E
:1003DD0000B4AEBF0004AD53000A4D48006D25BCFE
:1003ED00000D254F000D5244005DAA38000B5A4CEC
:1003FD0000056D410024ADB600049B4A007A4BBE4A
:10040D00000A4B51000AA546005B52BA0006D24EB7
:10041D00000ADA4200355B370009374B008497C17B
:10042D000004975300064B480066A53C000EA54FEF
:10043D000006B244004AB638000AAE4C00092E42FE
:10044D00003C9735000C9649007D4ABD000D4A5180
:10045D00000DA5450055AABA00056A4E000A6D4368
:10046D0000452EB700052D4B008A95BF000A955308
:10047D00000B4A47006B553B000AD54F00055A4506
:10048D00004A5D38000A5B4C00052B42003A93B6DA
:10049D0000069349007729BD0006AA51000AD546EA
:1004AD000054DABA0004B64E000A57430045273807
:1004BD00000D264A008E933E000D5252000DAA47A4
:1004CD000066B53B00056D4F0004AE45004A4EB9C0
:1004DD00000A4D4C000D1541002D92B50000000095
:1004ED000000001F0000003B0000005A00000078D3
:1004FD0000000097000000B5000000D4000000F3DC
:10050D0000000111000001300000014E000000004C
:10051D00B3F5D2BBB3F5B6FEB3F5C8FDB3F5CBC499
:10052D00B3F5CEE5B3F5C1F9B3F5C6DFB3F5B0CB91
:10053D00B3F5BEC5B3F5CAAECAAED2BBCAAEB6FE32
:10054D00CAAEC8FDCAAECBC4CAAECEE5CAAEC1F9FD
:10055D00CAAEC6DFCAAEB0CBCAAEBEC5B6FECAAE57
:10056D00D8A5D2BBD8A5B6FED8A5C8FDD8A5CBC4F5
:10057D00D8A5CEE5D8A5C1F9D8A5C6DFD8A5B0CBED
:10058D00D8A5BEC5C8FDCAAE0000D5FDB6FEC8FDD6
:10059D00CBC4CEE5C1F9C6DFB0CBBEC5CAAEB6ACD5
:1005AD00C0B0CAF3C5A3BBA2CDC3C1FAC9DFC2EDAA
:0A05BD00D1F2BAEFBCA6B9B7D6ED33
:06000E008F468D478B4870
:1000140075F004EFA42459F582E5F03403F5831256
:100024000775EF5460FFE4FEFDFC780512074EE40B
:100034007B01FAF9F8C312073D75F0047020E54618
:10004400A42459F582E5F03403F583120775EF54BF
:100054001FFFEF24FFF54AE434FFF549801DE54610
:10006400A42459F582E5F03403F583120775EF549F
:100074001FFFEF241EF54AE433F549E54725E02543
:10008400E024E5F582E43404F5831207757C00EF7F
:100094002548FFEC3ECF24FFF54CEF34FFF54BE54C
:1000A400465403700FE547D394024008054CE54CD1
:1000B4007002054BC3E54C954AE54B954950030244
:1000C40001C1D201E54C954AF54CE54B9549F54BF8
:1000D400754701754D01E4F54EFFFE7D08FCE54DC5
:1000E40014F9F812076175F004E546A42459F58261
:1000F400E5F03403F583120785EB5FFFEA5EFEE962
:100104005DFDE85CFCE4FBFAF9F8C312073D7003FB
:100114000201B00201B6AF4F7E00C3E54C9FE54B30
:100124009E50030201BCE54C9FF54CE54B9EF54BFC
:10013400054D75F004E546A42459F582E5F0340331
:10014400F583120775E4FFFEED54F0FDE4FC78142A
:1001540012074EA804A905AA06AB07AF47E4FCFDA5
:10016400FEC312073D700B634EFFE54E7006054754
:1001740080020547E4FFFE7D08FCE54D14F9F81202
:10018400076175F004E546A42459F582E5F03403CB
:10019400F583120785EB5FFFEA5EFEE95DFDE85C2F
:1001A400FCE4FBFAF9F8C312073D7006754F1D0213
:1001B400011A754F1E02011AE54C0202ECC201C37A
:1001C400E54A954CF54AE549954BF5491546754779
:1001D4000C75F004E546A42459F582E5F03403F5E2
:1001E40083120775E4FFFEED54F0FDE4FC7814126D
:1001F400074EE4FBFAF9F8C312073D7005754D0C80
:100204008003754D0DE4F54EFFFE7D08FCE54D14AD
:10021400F9F812076175F004E546A42459F582E55E
:10022400F03403F583120785EB5FFFEA5EFEE95DB8
:10023400FDE85CFCE4FBFAF9F8C312073D70030225
:1002440002DB0202E1AF4F7E00D3E54A9FE5499EFF
:1002540050030202E7E54A9FF54AE5499EF5491530
:100264004DE54E7002154775F004E546A42459F592
:1002740082E5F03403F583120775E4FFFEED54F0D4
:10028400FDE4FC781412074EA804A905AA06AB07DE
:10029400AF47E4FCFDFEC312073D7003634EFFE469
:1002A400FFFE7D08FCE54D14F9F812076175F004B2
:1002B400E546A42459F582E5F03403F58312078555
:1002C400EB5FFFEA5EFEE95DFDE85CFCE4FBFAF946
:1002D400F8C312073D7006754F1D020249754F1E83
:1002E400020249C3E54F954A04F548E5134548F52C
:1002F40013E512F512E511F511E510F510E5477552
:10030400F040A4FFAEF0EE3395E0FDFCE5134FF5AD
:1003140013E5124EF512E5114DF511E5104CF510EB
:1003240075F004E546A42459F582E5F03403F58319
:10033400120775E4FFFEED54F0FDE4FC7814120797
:100344004EA804A905AA06AB07AF47E4FCFDFEC30B
:0803540012073D7002D322C321
:01035C00227E
:0207A1008F3F88
:1007A300E4F54512000E5048AB42AA43A944AF45B5
:1007B300054575F002EFA4F58285F08374C875F0E2
:1007C300F21206C1E51354C0FFE5125403FEE4FD23
:1007D300FC780612074E90059575F002EF12079507
:1007E300EE25E02583F583E493FE740193FF8030C7
:1007F300E51354C0FFE5125403FEE4FDFC78061232
:10080300074E90059575F002EF120795EE25E0254A
:1008130083F583E493FE740193FFAB42AA43A94497
:10082300AD45054575F002EDA4F58285F083EE8FA5
:10083300F01206C1AB42AA43A944AF45054575F082
:1008430002EFA4F58285F08374D475F0C21206C159
:10085300E513543FFF90051975F004EF120795E473
:1008630025E025E02583F583E493FE740193FFAD32
:1008730045054575F002EDA4F58285F083EE8FF012
:100883001206C1E513543FFF90051B75F004EF12E8
:100893000795E425E025E02583F583E493FE7401C1
:1008A30093FFAD45054575F002EDA4F58285F08310
:1008B300EE8FF01206C1E53F2464FFE433FE7C00B3
:1008C3007D0C120641AF053001028008EF70047FF2
:1008D3000B80011FEF25E024AFF582E43405F58397
:1008E300E493FE740193FFAB42AA43A944AD4505CB
:1008F3004575F002EDA4F58285F083EE8FF01206C4
:03090300C1AF453C
:0109060022CE
:03000000020A40B1
:0C0A4000787FE4F6D8FD75814F020A872C
:1005C700BB010689828A83E0225002E722BBFE0232
:0905D700E32289828A83E4932265
:1005E000BB010CE58229F582E5833AF583E02250D0
:1005F00006E92582F8E622BBFE06E92582F8E2221A
:0D060000E58229F582E5833AF583E4932233
:10060D00BB010689828A83F0225002F722BBFE01CC
:02061D00F322C6
:10061F00F8BB010DE58229F582E5833AF583E8F011
:10062F00225006E92582C8F622BBFE05E92582C8BD
:02063F00F222A5
:10064100BC000BBE0029EF8DF084FFADF022E4CC9D
:10065100F875F008EF2FFFEE33FEEC33FCEE9DEC66
:10066100984005FCEE9DFE0FD5F0E9E4CEFD22EDAC
:10067100F8F5F0EE8420D21CFEADF075F008EF2FF6
:10068100FFED33FD4007985006D5F0F222C398FDE7
:050691000FD5F0EA2284
:10069600BB010A89828A83E0F5F0A3E0225006872F
:1006A600F009E71922BBFE07E3F5F009E3192289F1
:0B06B600828A83E493F5F07401932224
:1006C100F8BB0111E58229F582E5833AF583E8F06B
:1006D100E5F0A3F0225009E92582C8F608A6F02228
:0D06E100BBFE09E92582C8F2E5F008F2220F
:1006EE00E88FF0A4CC8BF0A42CFCE98EF0A42CFCAB
:1006FE008AF0EDA42CFCEA8EF0A4CDA8F08BF0A429
:10070E002DCC3825F0FDE98FF0A42CCD35F0FCEB87
:10071E008EF0A4FEA9F0EB8FF0A4CFC5F02ECD394C
:0F072E00FEE43CFCEAA42DCE35F0FDE43CFC22B9
:10073D00EB9FF5F0EA9E42F0E99D42F0E89C45F012
:01074D002289
:10074E00E8600FECC313FCED13FDEE13FEEF13FF89
:03075E00D8F122AD
:10076100E86010ECA2E713FCED13FDEE13FEEF13AE
:04077100FFD8F0229B
:10077500E493FC740193FD740293FE740393FF22CA
:10078500E493F8740193F9740293FA740393FB22CA
:0C079500A42582F582E5F03583F583226F
:100A4C00020D82E493A3F8E493A34003F68001F231
:100A5C0008DFF48029E493A3F85407240CC8C333AB
:100A6C00C4540F4420C8834004F456800146F6DF7A
:100A7C00E4800B0102040810204080900DD4E47E29
:100A8C00019360BCA3FF543F30E509541FFEE4936F
:100A9C00A360010ECF54C025E060A840B8E493A336
:100AAC00FAE493A3F8E493A3C8C582C8CAC583CA61
:100ABC00F0A3C8C582C8CAC583CADFE9DEE780BE19
:010DE500000D
:00000001FF
