:041EC300EF1203D542
:101EC700E4FF7E01EE600F3091024207D290C2908C
:061ED700EE25E0FE80EEA6
:011EDD0022E2
:041EA600120396FF8E
:101EAA007E01EE60135F7004C2918002D291D290DB
:081EBA00C290EE25E0FE80EA73
:011EC20022FD
:101BD400D2927FBF121EAA121EC7900005121EC306
:101BE400900004121EC3900003121EC39000021240
:101BF4001EC3900001121EC3900006121EC3EF12F2
:101C040003C3C292E92405F9E43AFA12037D547F2E
:031C14000203C305
:101C9500D2927FBE121EAA900005121EA6900004C5
:101CA500121EA6900003121EA6900002121EA690F8
:101CB5000001121EA6900006121EA612037DFF1239
:0A1CC5001EAAE4FF121EAAC292221A
:101FBC00D292EF25E04481FF121EAA121EC7C292D4
:011FCC0022F2
:101FA900D292EF25E04480FF121EAAAF05121EAAA5
:031FB900C29222AF
:101CCF00750817750905750A09750B12750C55E41A
:101CDF00F50D750E02C290C292FF121FBCEF30E7D6
:101CEF0010E4FD7F07121FA97B007A007908121CF0
:011CFF00954F
:011D000022C0
:1010E800200000000000183033986FEC58341110BD
:1010F8003118311831D8101018300FE007C01C70A3
:1011080000000000010041042008139007C00FE010
:10111800DFF61FF00FE007C013902008410401001C
:1011280000000000078003C001E001F000F800F8AB
:1011380000F800F800F801F003F007E00FC01F0006
:10114800000000007FFE600660066006600660061C
:1011580060067FFE7FFE601E6C1E6C1E6C1E601E8D
:101168007FFE000000000000008001C00360063020
:10117800041004100C18180C3FFE014000800000F9
:101188000000000000000000308019C00F60063029
:10119800073005900CD8186C3FFE0158008C0006EB
:1011A80000000008040C020A060E0109050D030BD5
:1011B800070FA1A0A1A0A1A0A1A0A1A0A1A0A1A04A
:0211C800A1A0E4
:101F5700EF540F9011AA93C454F0FEEFC4540F939B
:041F67004206AF0679
:011F6B002253
:071EF800AE07121F57AE07F1
:101EFF00C285D286D287E5A05401FFC28770F5C292
:011F0F00874A
:011F100022AE
:091F2A00FF121F33E50A4480FF99
:0E1F3300121EF8C285C286D2878EA0C28722F7
:061F810014F912037DFFBC
:0E1F8700121EF8D285C286D2878EA0C2872293
:101E6A007F30121F337F0C121F337F01121F337B07
:0E1E7A00FF7A1079E8750F01E4FDFF021E08E3
:101E08008B0C8A0D890E121D88AB0C050EE50EAAE7
:101E18000D7002050D121F81150FE50FD3940050A8
:021E2800E822AE
:0A1AA2008F128D138B148A1589161C
:101AAC00AF171517EFD39400403EAD13AF12121DB4
:101ABC00880512E512D394074005E4F5120513AB23
:101ACC0014AA15A91612044CFDACF0ECF518AF05D0
:101ADC00AC07FF121F87AF04121F8774022516F57F
:081AEC0016E43515F51580B86C
:011AF40022CF
:021D8800AE07A4
:101D8A00E4FFED1460101460131460162403701637
:101D9A00EE2480FF8010EE2490FF800AEE2488FF54
:091DAA008004EE2498FF021F33AF
:052014007F0F021F33E5
:052019007F0C021F33E3
:101F11007F30121F337F01121F337BFF7A1079E864
:091F2100750F01E4FDFF021E082A
:06153A008B4E8A4F895020
:101540007F34121F337F34121F33E4FCEC4480FFDE
:10155000121F337F80121F33E4F551AB4E0550E567
:1015600050AA4F7002054F121F81AB4E0550E55037
:10157000AA4F7002054F121F810551E551C394080F
:1015800040D90CBC20C6E4FCEC4480FF121F337F22
:1015900088121F33E4F551AB4E0550E550AA4F7049
:1015A00002054F121F81AB4E0550E550AA4F700245
:1015B000054F121F810551E551C3940840D90CBC59
:0C15C00020C67F36121F337F30021F331D
:0A14A2008F0A8D0B8B0C8A0D890E4A
:1014AC007F34121F337F34121F33E50BC394025069
:1014BC0031E4FCE50BC454F044804C121F2AAB0CF5
:1014CC00050EE50EAA0D7002050D121F81AB0C0561
:1014DC000EE50EAA0D7002050D121F810CBC10D367
:1014EC008038E4FCE50BC454F044804CFF121F33ED
:1014FC00E50A4488FF121F33AB0C050EE50EAA0D4E
:10150C007002050D121F81AB0C050EE50EAA0D70B5
:10151C0002050D121F810CBC10CAE50BC454F0441B
:0E152C0080121F2A7F36121F337F30021F33BA
:101A4A007F34121F337F34121F33E4FBEB4480FFD1
:101A5A00121F337F80121F33E4FCE4FF121F87E456
:101A6A00FF121F870CBC08F20BBB20E0E4FBEB441F
:101A7A0080FF121F337F88121F33E4FCE4FF121F1A
:101A8A0087E4FF121F870CBC08F20BBB20E07F36ED
:081A9A00121F337F30021F33DD
:0417CC00AB05AA07B8
:1017D0007F34121F337F34121F33EBC39402502423
:1017E000E4FCEBC454F044804CFF121F33EA448005
:1017F000FF121F33E4FF121F87E4FF121F870CBC88
:1018000010E08022E4FCEBC454F044804CFF121F33
:1018100033EA4488FF121F33E4FF121F87E4FF12EC
:101820001F870CBC10E0EBC454F04480FF121F3340
:10183000EA4480FF121F337F36121F337F30021FAE
:011840003374
:0F1FDD007BFF7A1179BAC374089FF517021AA215
:09184100011F00C105021D000099
:101C1700D2AF12001E122008121CCF121E6A121D0C
:101C2700B3121A4A7F01121D01E51F701D30010D05
:101C3700C201120CD63006121219EB800DE51FB443
:0F1C47000108300205C20212165812175280DA35
:101DB3007F007E82121E2ABF0104D206800AEF70C2
:101DC30004C2068003C206227F017E82121E2A8F6E
:0A1DD300237F027E82121E2A8F2455
:011DDD0022E3
:1019EB00200543200058E549C4540F75F00AA4FFA5
:1019FB00E549540F7C002FFFEC35F0FEE5236F70AB
:101A0B0001EE703AE54AC4540F75F00AA4FFE54A9B
:101A1B00540F2FFFEC35F0FEE524B50721ECB5068E
:101A2B001DD200021FEC051EE51E7002051DC3949E
:0E1A3B002CE51D94014007E4F51DF51EC205C3
:011A4900227A
:101B4600011F021C031F041E051F061E071F081F78
:101B5600091E0A1F0B1E0C1F00000000D6DCD2BB9C
:101B6600D6DCB6FED6DCC8FDD6DCCBC4D6DCCEE5EC
:101B7600D6DCC1F9D6DCC8D5CEC2B6C8A3BACAAAC5
:0A1B8600B6C8A3BAC4D6D6D3A3BADA
:10184A000125AA0126AA0127AA01230001240001D1
:04185A002200C106A1
:101F4100E4F556E55604FDE4FF121FDD0556E5569E
:051F5100C3940340EE03
:011F56002268
:100CD600E527B4AA1730060E7BFF7A1079EAE4FD01
:100CE600FF1214A28006E4FDFF1217CC7B007A00E7
:100CF6007946121BD4E525654B7003020DAC854B76
:100D060025E549C4540F24B07817F2E434A318F249
:100D1600E549540F24B07819F2E434A318F2781A8E
:100D260074A1F20874C3F2E54AC4540F24B0781DC6
:100D3600F2E434A318F2E54A540F24B0781FF2E423
:100D460034A318F2782074A1F20874C3F2E54BC4F8
:100D5600540F24B07823F2E434A318F2E54B540F71
:100D660024B07825F2E434A318F27BFE7A007916D3
:100D76007517087D03E4FF121AA2E5276549602668
:100D8600854927E549C39408400FE549D39418508F
:100D9600087BFF7A11790A80067BFF7A11792AE4AB
:100DA600FD7F051214A2E52665487003020E5985DB
:100DB600482678267420F208F2087432F208743055
:100DC600F2E546C4540F243008F2E546540F2430A9
:100DD60008F2087420F208F2E547C4540F243008DC
:100DE600F2E547540F243008F2087420F208F2E5C1
:100DF60048C4540F243008F2E548540F243008F252
:100E0600783674A1F20874A4F27BFE7A007926750E
:100E16000F0E7D01E4FF121E087BFE7A00793675FF
:100E260017017D017F03121AA27BFE7A00793675BF
:100E360017017D017F05121AA2E54C75F004A42462
:100E46005EF9741B35F0FA7BFF7517027D027F038E
:030E5600121AA2CB
:010E59002276
:1016580075150075160075170A7B007A00790B124C
:101668001408E50A75F00A8424B0F50DE434A3F5EE
:101678000CE50A75F00A84E5F024B0F50FE434A30C
:10168800F50E7510A17511E67B007A00790C7517B7
:10169800037D017F03121AA2E50B75F00A8424B0BA
:1016A800F50DE434A3F50CE50B75F00A84E5F02498
:1016B800B0F50FE434A3F50E7510A37511A57B00E2
:0E16C8007A00790C7517037D027F03021AA2C7
:100FD600121F117BFF7A1B797E7517037D01E4FFD3
:100FE600121AA27BFF7A1B79847517037D02E4FF30
:100FF600121AA27BFF7A1B798A7517037D03E4FF19
:10100600121AA2300658E52375F00A8424B0781720
:10101600F2E434A318F2E52375F00A84E5F024B06F
:101026007819F2E434A318F2781A74A1F20874C39A
:10103600F2E52475F00A8424B0781DF2E434A3188E
:10104600F2E52475F00A84E5F024B0781FF2E43462
:10105600A318F27BFE7A007916751705802278169A
:1010660074CEF20874B4F20874BFF20874AAF208D7
:1010760074C6F20874F4F27BFE7A007916751703CB
:101086007D037F03121AA2121658E546C4540F7543
:10109600F00AA4FFE546540F2FFF7826F2E547C471
:1010A600540F75F00AA4FEE547540F2E08F2FDE52D
:1010B60048C4540F75F00AA4FEE548540F2EFE7876
:1010C60025F2FB750DFE750E00750F16120E5A7879
:1010D60024EFF27BFE7A007916F517E4FD7F010214
:0210E6001AA24C
:10198900E522B40800504E901997F82828730219D7
:10199900AF0219B30219B90219BF0219C50219CB4D
:1019A9000219D10219D77D0180087D017F068022A5
:1019B9007D027F04801C7D037F0180167D037F04E7
:1019C90080107D037F07800AE4FD7F0580047D0187
:1019D9007F02121D880522E522D394074003E4F50E
:0219E9002222B8
:101D5C00E52214600D146010240270137D027F06BE
:101D6C00800AE4FD7F0480047D027F03121D880538
:0C1D7C0022E522D394024003E4F5222269
:1011CA00E546C454F0FFE52875F00A844FF546C495
:1011DA0054F0FFE52875F00A84E5F04FF546E54737
:1011EA00C454F0FFE52975F00A844FF547C454F05A
:1011FA00FFE52975F00A84E5F04FF547E548C45440
:10120A00F0FFE52A75F00A844FF548C454F0FFE56B
:10121A002A75F00A84E5F04FF548E54CC454F0FF0E
:10122A00E52E75F00A844FF54CC454F0FFE52E758F
:10123A00F00A84E5F04FF54CE549C454F0FFE52B7C
:10124A0075F00A844FF549C454F0FFE52B75F00A8E
:10125A0084E5F04FF549E54AC454F0FFE52C75F0F2
:10126A000A844FF54AC454F0FFE52C75F00A84E568
:10127A00F04FF54AE54BC454F0FFE52D75F00A84AA
:10128A004FF54BC454F0FFE52D75F00A84E5F04F95
:0B129A00F54B7B007A007946021C95A2
:10062500E51F640260030207EFE522C39407501437
:10063500E4FD7F05121FDD7BFF7A11794AE4FD7F1A
:10064500051214A2E522B40800400302088E9006A4
:100655005AF82828730206720206A00206CE020680
:10066500FC02071D02075602078F0207C8E5287519
:10067500F00A8424307816F2E52875F00A84E5F04E
:10068500243008F27BFE7A007916750F027D017F12
:1006950002121E087D017F02020875E52975F00A20
:1006A5008424307816F2E52975F00A84E5F02430C3
:1006B50008F27BFE7A007916750F027D017F041220
:1006C5001E087D017F04020875E52A75F00A842459
:1006D500307816F2E52A75F00A84E5F0243008F240
:1006E5007BFE7A007916750F027D017F06121E08C2
:1006F5007D017F06020875E52E75F004A4245EF9D8
:10070500741B35F0FA7BFF7517027D027F03121A01
:10071500A27D027F04020875E52B75F00A8424B0DA
:100725007819F2E434A318F2E52B75F00A84E5F0A4
:1007350024B0781BF2E434A318F27BFE7A00791812
:100745007517027D03E4FF121AA27D037F010208DB
:1007550075E52C75F00A8424B07819F2E434A318F1
:10076500F2E52C75F00A84E5F024B0781BF2E43448
:10077500A318F27BFE7A0079187517027D037F03B3
:10078500121AA27D037F04020875E52D75F00A840F
:1007950024B07819F2E434A318F2E52D75F00A8433
:1007A500E5F024B0781BF2E434A318F27BFE7A005E
:1007B50079187517027D037F06121AA27D037F073C
:1007C500020875781874A1F20874CCF2E4FD7F056F
:1007D5001217CC7BFE7A007918751701E4FD7F05A9
:1007E500121AA2E4FD7F05020875E51F6403600384
:1007F50002088EE522146042146078240260030228
:10080500088EE52375F00A8424B07819F2E434A340
:1008150018F2E52375F00A84E5F024B0781BF2E4BC
:1008250034A318F27BFE7A0079187517027D027FD2
:1008350002121AA27D027F038036E52475F00A8430
:1008450024B07819F2E434A318F2E52475F00A848B
:10085500E5F024B0781BF2E434A318F27BFE7A00AD
:1008650079187517027D027F05121AA27D027F068F
:10087500021D887BFF3006067A11796A80047A1199
:09088500798AE4FD7F041214A23B
:01088E002247
:1012A500E522B4080040030213599012B6F8282825
:1012B500730212CE0212DF0212ED02131E02132C6C
:1012C50002133A0213480213560528E528D39463FE
:1012D5005003021359E4F528807A0529E529D394AA
:1012E5000C4071752901806C052AE5285403700EA0
:1012F500E529B40209E52AD3941D40588016E5294D
:1013050025E02445F582E4341BF583E493FFE52AC3
:10131500D39F4040752A01803B052EE52ED39407C7
:101325004032752E01802D052BE52BD394174024D3
:10133500E4F52B801F052CE52CD3943B4016E4F5F2
:101345002C8011052DE52DD3943B4008E4F52D8027
:07135500031211CA02062574
:101DDE007F007E82121E883006067D017F00800302
:101DEE00E4FDFF7E82121E4AAD237F017E82121E0B
:0A1DFE004AAD247F027E82021E4AD5
:101D2F00E5221460151460202402701E0523E5239C
:101D3F00D394174015E4F52380100524E524D3949C
:0D1D4F003B4007E4F5248002B206020625A1
:10191F00E546C4540F75F00AA4FFE546540F2FF5A2
:10192F0028E547C4540F75F00AA4FFE547540F2F5D
:10193F00F529E548C4540F75F00AA4FFE548540F84
:10194F002FF52A854C2EE549C4540F75F00AA4FFD4
:10195F00E549540F2FF52BE54AC4540F75F00AA42F
:10196F00FFE54A540F2FF52CE54BC4540F75F00AC1
:0A197F00A4FFE54B540F2FF52D22B5
:100AF9008F09300007D205C200122008E509640DEC
:050B09006003020C4A2C
:100B0E00121FFAE51F64026003020BD8751F031251
:100B1E001F11780C74C4F20874D6F20874A1F2088E
:100B2E0014F20874D6F20874D3F20874A3F208749F
:100B3E00BAF27BFE7A00790C751704E4FDFF121AE7
:100B4E00A2E4FD7F051217CCE4FDFF1217CC7BFF4C
:100B5E003006067A11796A80047A11798AE4FD7F6B
:100B6E00041214A2E52375F00A8424B0780DF2E481
:100B7E0034A318F2E52375F00A84E5F024B0780F5B
:100B8E00F2E434A318F2781074A1F20874C3F2E5FB
:100B9E002475F00A8424B07813F2E434A318F2E535
:100BAE002475F00A84E5F024B07815F2E434A31825
:100BBE00F27BFE7A00790C7517057D027F02121A00
:100BCE00A2E4F5227D027F03806C121DDE751F02EA
:100BDE00121F11780C74D0F20874A3F20874A1F2EB
:100BEE000814F20874CAF20874B1F20874A3F20879
:100BFE0074BAF27BFE7A00790C751704E4FDFF12CD
:100C0E001AA2E4FD7F051217CCE4FD7F041217CC67
:100C1E00E4FDFF1217CC7BFF7A11794AE4FD7F05C4
:100C2E001214A27525AA7526AA120CD612191FE443
:0C0C3E00F5227D017F02121D88022014A7
:100C4A00E509641B7034122008E51FB40303121D62
:100C5A00DEE4F51F121F11122019E4FD7F0412179A
:100C6A00CCE4FD7F051217CCE4FDFF1217CC7525E5
:100C7A00AA7527AA7526AA020CD6E509B42611E593
:100C8A001FB402030212A5E51F6403703E021D2F62
:100C9A00E50964277035E51FC39402501E051F53EA
:100CAA001F01E51F700D121F117525AA7526AA7559
:100CBA0027AA22E51FB40113020FD6E51FB40203C7
:0C0CCA00021989E51FB40303121D5C220F
:10088F00004D4AB8000D4A4C000DA5410025AAB6EF
:10089F0000056A49007AADBD00025D5200092D477F
:1008AF00005C95BA000A954E000B4A43004B553732
:1008BF00000AD54A00955ABF0004BA53000A5B4894
:1008CF0000652BBC00052B50000A934500474AB921
:1008DF000006AA4C000AD5410024DAB60004B64A35
:1008EF000069573D000A4E51000D2646005E933AAF
:1008FF00000D534D0005AA430036B53700096D4B67
:10090F0000B4AEBF0004AD53000A4D48006D25BCC6
:10091F00000D254F000D5244005DAA38000B5A4CB4
:10092F0000056D410024ADB600049B4A007A4BBE12
:10093F00000A4B51000AA546005B52BA0006D24E80
:10094F00000ADA4200355B370009374B008497C144
:10095F000004975300064B480066A53C000EA54FB8
:10096F000006B244004AB638000AAE4C00092E42C7
:10097F00003C9735000C9649007D4ABD000D4A5149
:10098F00000DA5450055AABA00056A4E000A6D4331
:10099F0000452EB700052D4B008A95BF000A9553D1
:1009AF00000B4A47006B553B000AD54F00055A45CF
:1009BF00004A5D38000A5B4C00052B42003A93B6A3
:1009CF0000069349007729BD0006AA51000AD546B3
:1009DF000054DABA0004B64E000A574300452738D0
:1009EF00000D264A008E933E000D5252000DAA476D
:1009FF000066B53B00056D4F0004AE45004A4EB989
:100A0F00000A4D4C000D1541002D92B5000000005D
:100A1F000000001F0000003B0000005A000000789B
:100A2F0000000097000000B5000000D4000000F3A4
:100A3F0000000111000001300000014E0000000015
:100A4F00B3F5D2BBB3F5B6FEB3F5C8FDB3F5CBC462
:100A5F00B3F5CEE5B3F5C1F9B3F5C6DFB3F5B0CB5A
:100A6F00B3F5BEC5B3F5CAAECAAED2BBCAAEB6FEFB
:100A7F00CAAEC8FDCAAECBC4CAAECEE5CAAEC1F9C6
:100A8F00CAAEC6DFCAAEB0CBCAAEBEC5B6FECAAE20
:100A9F00D8A5D2BBD8A5B6FED8A5C8FDD8A5CBC4BE
:100AAF00D8A5CEE5D8A5C1F9D8A5C6DFD8A5B0CBB6
:100ABF00D8A5BEC5C8FDCAAE0000D5FDB6FEC8FD9F
:100ACF00CBC4CEE5C1F9C6DFB0CBBEC5CAAEB6AC9E
:100ADF00C0B0CAF3C5A3BBA2CDC3C1FAC9DFC2ED73
:0A0AEF00D1F2BAEFBCA6B9B7D6EDFC
:06002E008F118D128B13EF
:1000340075F004EFA4248BF582E5F03408F58312FF
:1000440005F9EF5460FFE4FEFDFC78051205D2E4E7
:100054007B01FAF9F8C31205C175F0047020E511AB
:10006400A4248BF582E5F03408F5831205F9EF54E6
:100074001FFFEF24FFF515E434FFF514801DE5118F
:10008400A4248BF582E5F03408F5831205F9EF54C6
:100094001FFFEF241EF515E433F514E51225E025C2
:1000A400E02417F582E4340AF5831205F97C00EFA5
:1000B4002513FFEC3ECF24FFF517EF34FFF516E5CB
:1000C400115403700FE512D3940240080517E51785
:1000D40070020516C3E5179515E51695145003022D
:1000E40001E1D207E5179515F517E5169514F516F0
:1000F400751201751801E4F519FFFE7D08FCE51879
:1001040014F9F81205E575F004E511A4248BF582C1
:10011400E5F03408F583120609EB5FFFEA5EFEE9B9
:100124005DFDE85CFCE4FBFAF9F8C31205C1700359
:100134000201D00201D6AF1A7E00C3E5179FE5166F
:100144009E50030201DCE5179FF517E5169EF51690
:10015400051875F004E511A4248BF582E5F0340844
:10016400F5831205F9E4FFFEED54F0FDE4FC781488
:100174001205D2A804A905AA06AB07AF12E4FCFD38
:10018400FEC31205C1700B6319FFE5197006051251
:1001940080020512E4FFFE7D08FCE51814F9F8124C
:1001A40005E575F004E511A4248BF582E5F0340827
:1001B400F583120609EB5FFFEA5EFEE95DFDE85C8C
:1001C400FCE4FBFAF9F8C31205C17006751A1D02A6
:1001D400013A751A1E02013AE51702030CC207C35D
:1001E400E5159517F515E5149516F5141511751201
:1001F4000C75F004E511A4248BF582E5F03408F5C0
:10020400831205F9E4FFFEED54F0FDE4FC781412CA
:1002140005D2E4FBFAF9F8C31205C1700575180C90
:10022400800375180DE4F519FFFE7D08FCE518142C
:10023400F9F81205E575F004E511A4248BF582E5BF
:10024400F03408F583120609EB5FFFEA5EFEE95D10
:10025400FDE85CFCE4FBFAF9F8C31205C170030283
:1002640002FB020301AF1A7E00D3E5159FE5149E3D
:100274005003020307E5159FF515E5149EF51415C3
:1002840018E5197002151275F004E511A4248BF514
:1002940082E5F03408F5831205F9E4FFFEED54F02D
:1002A400FDE4FC78141205D2A804A905AA06AB073C
:1002B400AF12E4FCFDFEC31205C170036319FFE431
:1002C400FFFE7D08FCE51814F9F81205E575F00445
:1002D400E511A4248BF582E5F03408F583120609B0
:1002E400EB5FFFEA5EFEE95DFDE85CFCE4FBFAF926
:1002F400F8C31205C17006751A1D020269751A1E2B
:10030400020269C3E51A951504F513E5554513F57D
:1003140055E554F554E553F553E552F552E5127598
:10032400F040A4FFAEF0EE3395E0FDFCE5554FF54B
:1003340055E5544EF554E5534DF553E5524CF552FD
:1003440075F004E511A4248BF582E5F03408F583F7
:100354001205F9E4FFFEED54F0FDE4FC78141205F7
:10036400D2A804A905AA06AB07AF12E4FCFDFEC39C
:080374001205C17002D322C37F
:01037C00225E
:020E5A008F0AFD
:100E5C00E4F51012002E5048AB0DAA0EA90FAF10DE
:100E6C00051075F002EFA4F58285F08374C875F057
:100E7C00F2120477E55554C0FFE5545403FEE4FD2B
:100E8C00FC78061205D2900AC775F002EF1206190B
:100E9C00EE25E02583F583E493FE740193FF803007
:100EAC00E55554C0FFE5545403FEE4FDFC780612EE
:100EBC0005D2900AC775F002EF120619EE25E0254F
:100ECC0083F583E493FE740193FFAB0DAA0EA90F77
:100EDC00AD10051075F002EDA4F58285F083EE8F50
:100EEC00F0120477AB0DAA0EA90FAF10051075F018
:100EFC0002EFA4F58285F08374D475F0C2120477E6
:100F0C00E555543FFF900A4B75F004EF120619E4B7
:100F1C0025E025E02583F583E493FE740193FFAD72
:100F2C0010051075F002EDA4F58285F083EE8FF0BC
:100F3C00120477E555543FFF900A4D75F004EF12FB
:100F4C000619E425E025E02583F583E493FE74017E
:100F5C0093FFAD10051075F002EDA4F58285F083BA
:100F6C00EE8FF0120477AF10051075F002EFA4F5B8
:100F7C008285F08374A175F0A0120477E50A2464CD
:100F8C00FFE433FE7C007D0C1203F7AF0530070243
:100F9C008008EF70047F0B80011FEF25E024E1F542
:100FAC0082E4340AF583E493FE740193FFAB0DAA3B
:100FBC000EA90FAD10051075F002EDA4F58285F0A9
:090FCC0083EE8FF0120477AF10E0
:010FD50022F9
:03185E000157002F
:0C000E000000EF1F70011E144E70F52260
:101EDE00C2947FD07E0712000ED2947F047E001231
:091EEE00000EA2949204A204B3B8
:011EF70022C8
:061408008B128A13891407
:10140E00C2AF121EDE9203200303A20322E4F5579D
:10141E0020940AAF570557EFC3941440F3E557C312
:10142E009414400280227F087E0012000EE4FDE438
:10143E00FCE4F55720940AAF570557EFC3941440B8
:10144E00F3E557C394144005D294D2AF227F037EA6
:10145E000012000E74182DF8C000E625E0D000F63C
:10146E0030940F74182DF8E64401F67F037E0012B7
:10147E00000E0CBC08BB0DBD05B5AB12AA13A9140A
:10148E00E5181203C3AB15AA16A917E51A1203C362
:03149E00D2AFD3F7
:0114A1002228
:04201E00261B0D2749
:10186100C101C102C100013900013A00840801012E
:10187100010184000F0F0F0F8404010101010230E7
:101881000000023203E80134000135000136000294
:031891003700001D
:101AF5007800E225E0FFA282E4334FF208E225E018
:101B0500FFA281E4334FF208E225E0FFA283E4332C
:101B15004FF208E225E0FFA284E4334FF2E4FF74BC
:101B2500002FF8E2540FFEBE0F0974082FF8740158
:101B3500F28009EE700674082FF8E4F20FBF04DF97
:011B4500227D
:10175200E4F508E50890201E93642670367404258B
:1017620008F8E270230531E53170020530D3953374
:10177200E5309532401D7F26120AF974642533F54F
:1017820033E43532F532800BE4F530F5317532034E
:101792007533E874082508F8E2FF74042508F8E2B6
:1017A200FE6F601CEEB4010AE50890201E93FF1242
:1017B2000AF974082508F8E2FF74042508F8EFF224
:0917C2000508E508C39404408AFF
:0117CB0022FB
:101D0100E4FCFDFE7B997A03F9F81204A4C3741272
:101D11009FFFE49EF539EF540FF53A5389F043895B
:0D1D21000185398C853A8AD28CD2A9D2BBBB
:011D2E002292
:03000B0002135C81
:10135C00C0E0C083C082C0D075D000C000C006C041
:01136C000779
:10136D0085398C853A8A0534E534C394C8401275A5
:10137D003400D2010535E53594054005753500D2AB
:10138D0002300065E536B40800505E90139FF828D2
:10139D0028730213B70213C40213B70213C4021346
:1013AD00B70213C40213CF0213ECB293E534C39406
:1013BD00C7403605368032E534C394C7402B053619
:1013CD008027B2930538E53870020537C394F4E5EC
:1013DD0037940140147537007538000536800AE5DD
:0C13ED0034C394C74003753600121AF593
:0F13F900D007D006D000D0D0D082D083D0E03241
:101FCD0001050A12171E29333C444B51565A5D5FC9
:10189400013D0001420001430001440001450004F0
:0D18A4003E00000000C108013B00013C00B7
:101F950075CB4C75CA29E4F5C885CBCD85CACCC2AD
:041FA500CAC2AD22DD
:0218B2008D089F
:1018B400AB07AA06E4F9F8FF7E107D0EFC121B901C
:1018C4008F418E408D3F8C3EAF08E4FCFDFEAB4162
:1018D400AA40A93FA83E1204A4E47B64FAF9F812D2
:1018E400052FAD07AC06C3E5419DFFE5409CAB0762
:1018F400FAC3740C9DFDE49CFCC3740C9BFBE49A3A
:101904008C428D43F5448B4553890F43891085429E
:0A1914008D85438BC2ABC28ED280DA
:01191E0022A6
:101C5600E4FCFDFEAB41AA40A93FA83E1204A4E461
:101C66007B64FAF9F812052FAD07AC06C3E5419D72
:101C7600FFE5409CAB07FAC3740C9DFDE49CFCC3D6
:0E1C8600740C9BFBE49A8C428D43F5448B4515
:011C9400222D
:03001B00021F6C55
:101F6C0030800985448D85458BC2803285428D85B4
:051F7C00438BD280320E
:03002B000216D6E4
:1016D600C0E0C0F0C083C082C0D075D000C000C0DA
:0D16E60001C002C003C004C005C006C0075B
:1016F300C2CFE53D14602814603524027036E53B03
:10170300901FCD93FF121C5620080D053BE53BC3EC
:10171300940F4020D208801CD53B19C208801505C0
:101723003CE53CD3940A400C753C00B28080052014
:041733008002D280DE
:10173700D007D006D005D004D003D002D001D00006
:0B174700D0D0D082D083D0F0D0E032B0
:0C001E007D0A7F647E001218B2021F955C
:0C200800E4F53DD2ABD28ED2ADD2CA229C
:0E1FEC00753D01C280C2ABC28ED2ADD2CA22F8
:0E1FFA00753D02C2ABC28EC2ADC2CAD28022F9
:08000300E4F5E7F5E5F5E6225E
:101E2A00AD07AC06C2AF75E78175E5018CE3EDF548
:101E3A00E475E64675E6B900120003D2AFAFE222B6
:101E4A00AB07AA06C2AF75E78175E5028AE3EBF52F
:101E5A00E48DE275E64675E6B900120003D2AF22B8
:101E8800AD07AC06C2AF75E78175E5038CE3EDF5E8
:0E1E9800E475E64675E6B900120003D2AF22EB
:030000000215CC1A
:0C15CC00787FE4F6D8FD758157021613F5
:10037D00BB010689828A83E0225002E722BBFE027E
:09038D00E32289828A83E49322B1
:10039600BB010CE58229F582E5833AF583E022501C
:1003A60006E92582F8E622BBFE06E92582F8E22266
:0D03B600E58229F582E5833AF583E4932280
:1003C300BB010689828A83F0225002F722BBFE0119
:0203D300F32213
:1003D500F8BB010DE58229F582E5833AF583E8F05E
:1003E500225006E92582C8F622BBFE05E92582C80A
:0203F500F222F2
:1003F700BC000BBE0029EF8DF084FFADF022E4CCEA
:10040700F875F008EF2FFFEE33FEEC33FCEE9DECB2
:10041700984005FCEE9DFE0FD5F0E9E4CEFD22EDF8
:10042700F8F5F0EE8420D21CFEADF075F008EF2F42
:10043700FFED33FD4007985006D5F0F222C398FD33
:050447000FD5F0EA22D0
:10044C00BB010A89828A83E0F5F0A3E0225006877B
:10045C00F009E71922BBFE07E3F5F009E31922893D
:0B046C00828A83E493F5F07401932270
:10047700F8BB0111E58229F582E5833AF583E8F0B7
:10048700E5F0A3F0225009E92582C8F608A6F02274
:0D049700BBFE09E92582C8F2E5F008F2225B
:1004A400E88FF0A4CC8BF0A42CFCE98EF0A42CFCF7
:1004B4008AF0EDA42CFCEA8EF0A4CDA8F08BF0A475
:1004C4002DCC3825F0FDE98FF0A42CCD35F0FCEBD4
:1004D4008EF0A4FEA9F0EB8FF0A4CFC5F02ECD3999
:0F04E400FEE43CFCEAA42DCE35F0FDE43CFC2206
:1004F30075F008758200EF2FFFEE33FECD33CDCCC0
:1005030033CCC58233C5829BED9AEC99E582984042
:100513000CF582EE9BFEED9AFDEC99FC0FD5F0D61F
:10052300E4CEFBE4CDFAE4CCF9A88222B800C1B949
:100533000059BA002DEC8BF084CFCECDFCE5F0CB87
:10054300F97818EF2FFFEE33FEED33FDEC33FCEBC0
:1005530033FB10D703994004EB99FB0FD8E5E4F97B
:10056300FA227818EF2FFFEE33FEED33FDEC33FC68
:10057300C933C910D7059BE99A4007EC9BFCE99A5C
:10058300F90FD8E0E4C9FAE4CCFB2275F010EF2FA1
:10059300FFEE33FEED33FDCC33CCC833C810D707A1
:1005A3009BEC9AE899400AED9BFDEC9AFCE899F8DC
:0E05B3000FD5F0DAE4CDFBE4CCFAE4C8F9226F
:101B9000C2D5E830E70FB2D5E4C39BFBE49AFAE480
:101BA00099F9E498F8EC30E717B2D5121BC6120584
:101BB0002FE4C39BFBE49AFAE499F9E498F88003D4
:101BC00012052F30D50DE4C39FFFE49EFEE49DFD7A
:041BD000E49CFC2273
:1005C100EB9FF5F0EA9E42F0E99D42F0E89C45F090
:0105D1002207
:1005D200E8600FECC313FCED13FDEE13FEEF13FF07
:0305E200D8F1222B
:1005E500E86010ECA2E713FCED13FDEE13FEEF132C
:0405F500FFD8F02219
:1005F900E493FC740193FD740293FE740393FF2248
:10060900E493F8740193F9740293FA740393FB2247
:0C061900A42582F582E5F03583F58322EC
:1015D800021C17E493A3F8E493A34003F68001F2F6
:1015E80008DFF48029E493A3F85407240CC8C33314
:1015F800C4540F4420C8834004F456800146F6DFE3
:10160800E4800B0102040810204080901841E47E19
:10161800019360BCA3FF543F30E509541FFEE493D7
:10162800A360010ECF54C025E060A840B8E493A39E
:10163800FAE493A3F8E493A3C8C582C8CAC583CAC9
:10164800F0A3C8C582C8CAC583CADFE9DEE780BE81
:0118B1000036
:00000001FF
