:041FA300EF1203D561
:101FA700E4FF7E01EE600F30B4024207D2B5C2B53E
:061FB700EE25E0FE80EEC5
:011FBD002201
:041F8600120396FFAD
:101F8A007E01EE60135F7004C2B48002D2B4D2B58F
:081F9A00C2B5EE25E0FE80EA6D
:011FA200221C
:101CB400D2977FBF121F8A121FA7900005121FA37D
:101CC400900004121FA3900003121FA3900002129D
:101CD4001FA3900001121FA3900006121FA3EF126E
:101CE40003C3C297E92405F9E43AFA12037D547F49
:031CF4000203C325
:101D7500D2977FBE121F8A900005121F869000041D
:101D8500121F86900003121F86900002121F869074
:101D95000001121F86900006121F8612037DFF1296
:0A1DA5001F8AE4FF121F8AC2972272
:10208400D297EF25E04481FF121F8A121FA7C2973F
:012094002229
:10205F00D297EF25E04480FF121F8AAF05121F8A27
:03206F00C29722F3
:101DAF00750817750905750A09750B12750C55E439
:101DBF00F50D750E02C2B5C297FF122084EF30E702
:101DCF0010E4FD7F0712205F7B007A007908121D57
:011DDF00758E
:011DE00022E0
:10137100200000000000183033986FEC5834111031
:101381003118311831D8101018300FE007C01C7017
:1013910000000000010041042008139007C00FE085
:1013A100DFF61FF00FE007C0139020084104010091
:1013B10000000000078003C001E001F000F800F820
:1013C10000F800F800F801F003F007E00FC01F007B
:1013D100000000007FFE6006600660066006600691
:1013E10060067FFE7FFE601E6C1E6C1E6C1E601E02
:1013F1007FFE000000000000008001C00360063095
:10140100041004100C18180C3FFE0140008000006D
:101411000000000000000000308019C00F6006309D
:10142100073005900CD8186C3FFE0158008C00065F
:101431000000A1A0A1A0A1A0A1A0A1A0A1A0A1A0E4
:02144100A1A068
:10207200C290D291D295E5805480FFC29570F5C28C
:0120820095C8
:01208300223A
:091FD800FF121FE1E50B4480FF3C
:101FE100AE07122072C290C291D2958E80C2952204
:06200A0014F912037DFF32
:10201000AE07122072D290C291D2958E80C29522C4
:101F4A007F30121FE17F0C121FE17F01121FE17B1C
:0E1F5A00FF7A137971751001E4FDFF021EE895
:101EE8008B0D8A0E890F121E68AB0D050FE50FAA20
:101EF8000E7002050E12200A1510E510D39400503A
:021F0800E822CD
:0A1BD9008F138D148B158A168917DF
:101BE300AF181518EFD394004038AD14AF13121E7D
:101BF300680513E513D394074005E4F5130514AB07
:101C030015AA16A91712044CFDACF0ECFF12201014
:101C1300AF0512201074022517F517E43516F516D3
:021C230080BE81
:011C2500229C
:021E6800AE07C3
:101E6A00E4FFED1460101460131460162403701656
:101E7A00EE2480FF8010EE2490FF800AEE2488FF73
:091E8A008004EE2498FF021FE120
:0520EC007F0F021FE15F
:0520F1007F0C021FE15D
:101FF1007F30121FE17F01121FE17BFF7A1379719C
:09200100751001E4FDFF021EE868
:0617F6008B538A54895553
:1017FC007F34121FE17F34121FE1E4FCEC4480FFC4
:10180C00121FE17F80121FE1E4FDAB530555E55536
:10181C00AA547002055412200AAB530555E555AA7B
:10182C00547002055412200A0DBD08DE0CBC20CCED
:10183C00E4FCEC4480FF121FE17F88121FE1E4FD01
:10184C00AB530555E555AA547002055412200AAB4A
:10185C00530555E555AA547002055412200A0DBDC6
:10186C0008DE0CBC20CC7F36121FE17F30021FE15A
:0816D8008F0B8B0C8A0D890EAB
:1016E0007F34121FE17F34121FE1EDC394025030AA
:1016F000E4FCEDC454F044804C121FD8AB0C050E32
:10170000E50EAA0D7002050D12200AAB0C050EE5C0
:101710000EAA0D7002050D12200A0CBC10D48037E1
:10172000E4FCEDC454F044804CFF121FE1E50B448F
:1017300088FF121FE1AB0C050EE50EAA0D70020525
:101740000D12200AAB0C050EE50EAA0D7002050D58
:1017500012200A0CBC10CBEDC454F04480121FD8E8
:0A1760007F36121FE17F30021FE107
:101B81007F34121FE17F34121FE1E4FCEC4480FF3B
:101B9100121FE17F80121FE1E4FDE4FF122010E437
:101BA100FF1220100DBD08F20CBC20E0E4FCEC4457
:101BB10080FF121FE17F88121FE1E4FDE4FF122084
:101BC10010E4FF1220100DBD08F20CBC20E07F369E
:081BD100121FE17F30021FE149
:02197600AB07BD
:101978007F34121FE17F34121FE1EDC3940250241B
:10198800E4FCEDC454F044804CFF121FE1EB4480AA
:10199800FF121FE1E4FF122010E4FF1220100CBC1C
:1019A80010E08022E4FCEDC454F044804CFF121F88
:1019B800E1EB4488FF121FE1E4FF122010E4FF125C
:1019C80020100CBC10E0EDC454F04480FF121FE15D
:1019D800EB4480FF121FE17F36121FE17F30021FA8
:0119E800E11D
:0F20B5007BFF7A147933C374089FF518021BD987
:09164000015800C105025600002A
:101CF700D2AF12001E1220E0121DAF121F4A121E91
:101D070093121B817F01121DE1E558701D30010DF3
:101D1700C201120CD6300612121B22800DE558B4F0
:0F1D27000108300205C20212187C12129B80DAEA
:101E93007F007E82121F0ABF0104D206800AEF7000
:101EA30004C2068003C206227F017E82121F0A8FAC
:0A1EB300237F027E82121F0A8F2493
:011EBD002202
:101B2200200543200058E54AC4540F75F00AA4FF6B
:101B3200E54A540F7C002FFFEC35F0FEE5236F7071
:101B420001EE703AE54BC4540F75F00AA4FFE54B61
:101B5200540F2FFFEC35F0FEE524B50721ECB50656
:101B62001DD2000220C40557E55770020556C394E2
:0E1B72002CE55694014007E4F556F557C205E0
:011B80002242
:101C2600011F021C031F041E051F061E071F081F97
:101C3600091E0A1F0B1E0C1F00000000D6DCD2BBBB
:101C4600D6DCB6FED6DCC8FDD6DCCBC4D6DCCEE50B
:101C5600D6DCC1F9D6DCC8D5CEC2B6C8A3BACAAAE4
:0A1C6600B6C8A3BAC4D6D6D3A3BAF9
:101649000125AA0126AA0127AA01230001240001D4
:041659002200C106A4
:10202000E4F51EE51E04FDE4FF1220B5051EE51EC5
:05203000C3940340EE23
:012035002288
:100CD600E527B4AA1730060E7BFF7A137973E4FD75
:100CE600FF1216D88006E4FDFF1219767B007A0003
:100CF6007947121CB4E525654C7003020DAC854C92
:100D060025E54AC4540F24B0783BF2E434A318F224
:100D1600E54A540F24B0783DF2E434A318F2783E45
:100D260074A1F20874C3F2E54BC4540F24B07841A1
:100D3600F2E434A318F2E54B540F24B07843F2E4FE
:100D460034A318F2784474A1F20874C3F2E54CC4D3
:100D5600540F24B07847F2E434A318F2E54C540F4C
:100D660024B07849F2E434A318F27BFE7A00793A8B
:100D76007518087D03E4FF121BD9E527654A60262E
:100D8600854A27E54AC39408400FE54AD39418508C
:100D9600087BFF7A13799380067BFF7A1379B3E495
:100DA600FD7F051216D8E52665497003020E5985A2
:100DB6004926784A7420F208F2087432F208743030
:100DC600F2E547C4540F243008F2E547540F2430A7
:100DD60008F2087420F208F2E548C4540F243008DB
:100DE600F2E548540F243008F2087420F208F2E5C0
:100DF60049C4540F243008F2E549540F243008F250
:100E0600785A74A1F20874A4F27BFE7A00794A75C6
:100E1600100E7D01E4FF121EE87BFE7A00795A75FA
:100E260018017D017F03121BD97BFE7A00795A7562
:100E360018017D017F05121BD9E54D75F004A42428
:100E46003EF9741C35F0FA7BFF7518027D027F03AC
:030E5600121BD993
:010E59002276
:10187C0075160075170075180B7B007A00790C1221
:10188C0015A6E50B75F00A8424B0F50EE434A3F527
:10189C000DE50B75F00A84E5F024B0F510E434A3E3
:1018AC00F50F7511A17512E67B007A00790D75188C
:1018BC00037D017F03121BD9E50C75F00A8424B05B
:1018CC00F50EE434A3F50DE50C75F00A84E5F0246F
:1018DC00B0F510E434A3F50F7511A37512A57B00B8
:0E18EC007A00790D7518037D027F03021BD967
:100FD600121FF17BFF7A1C795E7518037D01E4FF11
:100FE600121BD97BFF7A1C79647518037D02E4FF16
:100FF600121BD97BFF7A1C796A7518037D03E4FFFF
:10100600121BD9300658E52375F00A8424B0783BC4
:10101600F2E434A318F2E52375F00A84E5F024B06F
:10102600783DF2E434A318F2783E74A1F20874C352
:10103600F2E52475F00A8424B07841F2E434A3186A
:10104600F2E52475F00A84E5F024B07843F2E4343E
:10105600A318F27BFE7A00793A7518058022783A51
:1010660074CEF20874B4F20874BFF20874AAF208D7
:1010760074C6F20874F4F27BFE7A00793A751803A6
:101086007D037F03121BD912187CE547C4540F75E4
:10109600F00AA4FFE547540F2FFF784AF2E548C44B
:1010A600540F75F00AA4FEE548540F2E08F2FDE52C
:1010B60049C4540F75F00AA4FEE549540F2EFE7874
:1010C60049F2FB750EFE750F0075103A120E5A782E
:1010D60048EFF27BFE7A00793AF518E4FD7F0102CB
:0210E6001BD914
:101AC000E522B40800504E901ACEF8282873021A66
:101AD000E6021AEA021AF0021AF6021AFC021B02C5
:101AE000021B08021B0E7D0180087D017F068022FB
:101AF0007D027F04801C7D037F0180167D037F04AF
:101B000080107D037F07800AE4FD7F0580047D014E
:101B10007F02121E680522E522D394074003E4F5F4
:021B200022227F
:101E3C00E52214600D146010240270137D027F06DD
:101E4C00800AE4FD7F0480047D027F03121E680576
:0C1E5C0022E522D394024003E4F5222288
:1010E800E547C454F0FFE52875F00A844FF547C476
:1010F80054F0FFE52875F00A84E5F04FF547E54818
:10110800C454F0FFE52975F00A844FF548C454F03B
:10111800FFE52975F00A84E5F04FF548E549C45420
:10112800F0FFE52A75F00A844FF549C454F0FFE54D
:101138002A75F00A84E5F04FF549E54DC454F0FFEF
:10114800E52E75F00A844FF54DC454F0FFE52E7571
:10115800F00A84E5F04FF54DE54AC454F0FFE52B5D
:1011680075F00A844FF54AC454F0FFE52B75F00A70
:1011780084E5F04FF54AE54BC454F0FFE52C75F0D3
:101188000A844FF54BC454F0FFE52C75F00A84E54A
:10119800F04FF54BE54CC454F0FFE52D75F00A848B
:1011A8004FF54CC454F0FFE52D75F00A84E5F04F77
:0B11B800F54C7B007A007947021D75A2
:10062500E558640260030207EFE522C394075014FE
:10063500E4FD7F051220B57BFF7A1379D3E4FD7FB6
:10064500051216D8E522B40800400302088E90066C
:100655005AF82828730206720206A00206CE020680
:10066500FC02071D02075602078F0207C8E5287519
:10067500F00A842430783AF2E52875F00A84E5F02A
:10068500243008F27BFE7A00793A7510027D017FED
:1006950002121EE87D017F02020875E52975F00A40
:1006A500842430783AF2E52975F00A84E5F024309F
:1006B50008F27BFE7A00793A7510027D017F0412FB
:1006C5001EE87D017F04020875E52A75F00A842479
:1006D50030783AF2E52A75F00A84E5F0243008F21C
:1006E5007BFE7A00793A7510027D017F06121EE8BD
:1006F5007D017F06020875E52E75F004A4243EF9F8
:10070500741C35F0FA7BFF7518027D027F03121BFE
:10071500D97D027F04020875E52B75F00A8424B0A3
:10072500783DF2E434A318F2E52B75F00A84E5F080
:1007350024B0783FF2E434A318F27BFE7A00793CCA
:100745007518027D03E4FF121BD97D037F010208A2
:1007550075E52C75F00A8424B0783DF2E434A318CD
:10076500F2E52C75F00A84E5F024B0783FF2E43424
:10077500A318F27BFE7A00793C7518027D037F038E
:10078500121BD97D037F04020875E52D75F00A84D7
:1007950024B0783DF2E434A318F2E52D75F00A840F
:1007A500E5F024B0783FF2E434A318F27BFE7A003A
:1007B500793C7518027D037F06121BD97D037F07DF
:1007C500020875783C74A1F20874CCF2E4FD7F054B
:1007D5001219767BFE7A00793C751801E4FD7F05D8
:1007E500121BD9E4FD7F05020875E5586403600313
:1007F50002088EE522146042146078240260030228
:10080500088EE52375F00A8424B0783DF2E434A31C
:1008150018F2E52375F00A84E5F024B0783FF2E498
:1008250034A318F27BFE7A00793C7518027D027FAD
:1008350002121BD97D027F038036E52475F00A84F8
:1008450024B0783DF2E434A318F2E52475F00A8467
:10085500E5F024B0783FF2E434A318F27BFE7A0089
:10086500793C7518027D027F05121BD97D027F0632
:10087500021E687BFF3006067A1379F380047A142A
:090885007913E4FD7F041216D87A
:01088E002247
:10144300E522B4080040030214F7901454F8282846
:101453007302146C02147D02148B0214BC0214CAAE
:101463000214D80214E60214F40528E528D3946381
:1014730050030214F7E4F528807A0529E529D3946B
:101483000C4071752901806C052AE5285403700E00
:10149300E529B40209E52AD3941D40588016E529AD
:1014A30025E02425F582E4341CF583E493FFE52A43
:1014B300D39F4040752A01803B052EE52ED3940728
:1014C3004032752E01802D052BE52BD39417402434
:1014D300E4F52B801F052CE52CD3943B4016E4F553
:1014E3002C8011052DE52DD3943B4008E4F52D8088
:0714F300031210E8020625B8
:101EBE007F007E82121F683006067D017F00800340
:101ECE00E4FDFF7E82121F2AAD237F017E82121F48
:0A1EDE002AAD247F027E82021F2A33
:101E0F00E5221460151460202402701E0523E523BB
:101E1F00D394174015E4F52380100524E524D394BB
:0D1E2F003B4007E4F5248002B206020625C0
:101A5600E547C4540F75F00AA4FFE547540F2FF568
:101A660028E548C4540F75F00AA4FFE548540F2F23
:101A7600F529E549C4540F75F00AA4FFE549540F4A
:101A86002FF52A854D2EE54AC4540F75F00AA4FF9A
:101A9600E54A540F2FF52BE54BC4540F75F00AA4F5
:101AA600FFE54B540F2FF52CE54CC4540F75F00A87
:0A1AB600A4FFE54C540F2FF52D227C
:100AF9008F0A300007D205C2001220E0E50A640D12
:050B09006003020C4A2C
:100B0E001220D2E55864026003020BD87558031206
:100B1E001FF1783074C4F20874D6F20874A1F2088A
:100B2E0014F20874D6F20874D3F20874A3F208749F
:100B3E00BAF27BFE7A007930751804E4FDFF121BC1
:100B4E00D9E4FD7F05121976E4FDFF1219767BFFBD
:100B5E003006067A1379F380047A147913E4FD7F54
:100B6E00041216D8E52375F00A8424B07831F2E425
:100B7E0034A318F2E52375F00A84E5F024B0783337
:100B8E00F2E434A318F2783474A1F20874C3F2E5D7
:100B9E002475F00A8424B07837F2E434A318F2E511
:100BAE002475F00A84E5F024B07839F2E434A31801
:100BBE00F27BFE7A0079307518057D027F02121BDA
:100BCE00D9E4F5227D027F03806C121EBE75580299
:100BDE00121FF1783074D0F20874A3F20874A1F2E7
:100BEE000814F20874CAF20874B1F20874A3F20879
:100BFE0074BAF27BFE7A007930751804E4FDFF12A8
:100C0E001BD9E4FD7F05121976E4FD7F04121976D7
:100C1E00E4FDFF1219767BFF7A1379D3E4FD7F058D
:100C2E001216D87525AA7526AA120CD6121A56E4D3
:0C0C3E00F5227D017F02121E680220ECEE
:100C4A00E50A641B70341220E0E558B40303121E4F
:100C5A00BEE4F558121FF11220F1E4FD7F041219C7
:100C6A0076E4FD7F05121976E4FDFF1219767525E3
:100C7A00AA7527AA7526AA020CD6E50AB42611E592
:100C8A0058B40203021443E5586403703E021E0F6F
:100C9A00E50A64277035E558C39402501E05585377
:100CAA005801E558700D121FF17525AA7526AA7507
:100CBA0027AA22E558B40113020FD6E558B4020355
:0C0CCA00021AC0E558B40303121E3C22BD
:10088F00004D4AB8000D4A4C000DA5410025AAB6EF
:10089F0000056A49007AADBD00025D5200092D477F
:1008AF00005C95BA000A954E000B4A43004B553732
:1008BF00000AD54A00955ABF0004BA53000A5B4894
:1008CF0000652BBC00052B50000A934500474AB921
:1008DF000006AA4C000AD5410024DAB60004B64A35
:1008EF000069573D000A4E51000D2646005E933AAF
:1008FF00000D534D0005AA430036B53700096D4B67
:10090F0000B4AEBF0004AD53000A4D48006D25BCC6
:10091F00000D254F000D5244005DAA38000B5A4CB4
:10092F0000056D410024ADB600049B4A007A4BBE12
:10093F00000A4B51000AA546005B52BA0006D24E80
:10094F00000ADA4200355B370009374B008497C144
:10095F000004975300064B480066A53C000EA54FB8
:10096F000006B244004AB638000AAE4C00092E42C7
:10097F00003C9735000C9649007D4ABD000D4A5149
:10098F00000DA5450055AABA00056A4E000A6D4331
:10099F0000452EB700052D4B008A95BF000A9553D1
:1009AF00000B4A47006B553B000AD54F00055A45CF
:1009BF00004A5D38000A5B4C00052B42003A93B6A3
:1009CF0000069349007729BD0006AA51000AD546B3
:1009DF000054DABA0004B64E000A574300452738D0
:1009EF00000D264A008E933E000D5252000DAA476D
:1009FF000066B53B00056D4F0004AE45004A4EB989
:100A0F00000A4D4C000D1541002D92B5000000005D
:100A1F000000001F0000003B0000005A000000789B
:100A2F0000000097000000B5000000D4000000F3A4
:100A3F0000000111000001300000014E0000000015
:100A4F00B3F5D2BBB3F5B6FEB3F5C8FDB3F5CBC462
:100A5F00B3F5CEE5B3F5C1F9B3F5C6DFB3F5B0CB5A
:100A6F00B3F5BEC5B3F5CAAECAAED2BBCAAEB6FEFB
:100A7F00CAAEC8FDCAAECBC4CAAECEE5CAAEC1F9C6
:100A8F00CAAEC6DFCAAEB0CBCAAEBEC5B6FECAAE20
:100A9F00D8A5D2BBD8A5B6FED8A5C8FDD8A5CBC4BE
:100AAF00D8A5CEE5D8A5C1F9D8A5C6DFD8A5B0CBB6
:100ABF00D8A5BEC5C8FDCAAE0000D5FDB6FEC8FD9F
:100ACF00CBC4CEE5C1F9C6DFB0CBBEC5CAAEB6AC9E
:100ADF00C0B0CAF3C5A3BBA2CDC3C1FAC9DFC2ED73
:0A0AEF00D1F2BAEFBCA6B9B7D6EDFC
:06002E008F128D138B14EC
:1000340075F004EFA4248BF582E5F03408F58312FF
:1000440005F9EF5460FFE4FEFDFC78051205D2E4E7
:100054007B01FAF9F8C31205C175F0047020E512AA
:10006400A4248BF582E5F03408F5831205F9EF54E6
:100074001FFFEF24FFF516E434FFF515801DE5128C
:10008400A4248BF582E5F03408F5831205F9EF54C6
:100094001FFFEF241EF516E433F515E51325E025BF
:1000A400E02417F582E4340AF5831205F97C00EFA5
:1000B4002514FFEC3ECF24FFF518EF34FFF517E5C8
:1000C400125403700FE513D3940240080518E51881
:1000D40070020517C3E5189516E517951550030228
:1000E40001E1D207E5189516F518E5179515F517EA
:1000F400751301751901E4F51AFFFE7D08FCE51975
:1001040014F9F81205E575F004E512A4248BF582C0
:10011400E5F03408F583120609EB5FFFEA5EFEE9B9
:100124005DFDE85CFCE4FBFAF9F8C31205C1700359
:100134000201D00201D6AF1B7E00C3E5189FE5176C
:100144009E50030201DCE5189FF518E5179EF5178C
:10015400051975F004E512A4248BF582E5F0340842
:10016400F5831205F9E4FFFEED54F0FDE4FC781488
:100174001205D2A804A905AA06AB07AF13E4FCFD37
:10018400FEC31205C1700B631AFFE51A700605134E
:1001940080020513E4FFFE7D08FCE51914F9F8124A
:1001A40005E575F004E512A4248BF582E5F0340826
:1001B400F583120609EB5FFFEA5EFEE95DFDE85C8C
:1001C400FCE4FBFAF9F8C31205C17006751B1D02A5
:1001D400013A751B1E02013AE51802030CC207C35B
:1001E400E5169518F516E5159517F51515127513F9
:1001F4000C75F004E512A4248BF582E5F03408F5BF
:10020400831205F9E4FFFEED54F0FDE4FC781412CA
:1002140005D2E4FBFAF9F8C31205C1700575190C8F
:10022400800375190DE4F51AFFFE7D08FCE5191429
:10023400F9F81205E575F004E512A4248BF582E5BE
:10024400F03408F583120609EB5FFFEA5EFEE95D10
:10025400FDE85CFCE4FBFAF9F8C31205C170030283
:1002640002FB020301AF1B7E00D3E5169FE5159E3A
:100274005003020307E5169FF516E5159EF51515BF
:1002840019E51A7002151375F004E512A4248BF510
:1002940082E5F03408F5831205F9E4FFFEED54F02D
:1002A400FDE4FC78141205D2A804A905AA06AB073C
:1002B400AF13E4FCFDFEC31205C17003631AFFE42F
:1002C400FFFE7D08FCE51914F9F81205E575F00444
:1002D400E512A4248BF582E5F03408F583120609AF
:1002E400EB5FFFEA5EFEE95DFDE85CFCE4FBFAF926
:1002F400F8C31205C17006751B1D020269751B1E29
:10030400020269C3E51B951604F514E5524514F57C
:1003140052E551F551E550F550E54FF54FE51375AC
:10032400F040A4FFAEF0EE3395E0FDFCE5524FF54E
:1003340052E5514EF551E5504DF550E54F4CF54F12
:1003440075F004E512A4248BF582E5F03408F583F6
:100354001205F9E4FFFEED54F0FDE4FC78141205F7
:10036400D2A804A905AA06AB07AF13E4FCFDFEC39B
:080374001205C17002D322C37F
:01037C00225E
:020E5A008F0BFC
:100E5C00E4F51112002E5048AB0EAA0FA910AF11D9
:100E6C00051175F002EFA4F58285F08374C875F056
:100E7C00F2120477E55254C0FFE5515403FEE4FD31
:100E8C00FC78061205D2900AC775F002EF1206190B
:100E9C00EE25E02583F583E493FE740193FF803007
:100EAC00E55254C0FFE5515403FEE4FDFC780612F4
:100EBC0005D2900AC775F002EF120619EE25E0254F
:100ECC0083F583E493FE740193FFAB0EAA0FA91074
:100EDC00AD11051175F002EDA4F58285F083EE8F4E
:100EEC00F0120477AB0EAA0FA910AF11051175F013
:100EFC0002EFA4F58285F08374D475F0C2120477E6
:100F0C00E552543FFF900A4B75F004EF120619E4BA
:100F1C0025E025E02583F583E493FE740193FFAD72
:100F2C0011051175F002EDA4F58285F083EE8FF0BA
:100F3C00120477E552543FFF900A4D75F004EF12FE
:100F4C000619E425E025E02583F583E493FE74017E
:100F5C0093FFAD11051175F002EDA4F58285F083B8
:100F6C00EE8FF0120477AF11051175F002EFA4F5B6
:100F7C008285F08374A175F0A0120477E50B2464CC
:100F8C00FFE433FE7C007D0C1203F7AF0530070243
:100F9C008008EF70047F0B80011FEF25E024E1F542
:100FAC0082E4340AF583E493FE740193FFAB0EAA3A
:100FBC000FA910AD11051175F002EDA4F58285F0A5
:090FCC0083EE8FF0120477AF11DF
:010FD50022F9
:03165D00011F006A
:0C000E000000EF1F70011E144E70F52260
:101FBE00C2B27FD07E0712000ED2B27F047E001214
:091FCE00000EA2B29204A204B3B9
:011FD70022E7
:0615A6008B138A14891565
:1015AC00C2AF121FBE9203200303A20322E4F51F55
:1015BC0020B20AAF1F051FEFC3941440F3E51FC3FD
:1015CC009414400280227F087E0012000EE4FDE499
:1015DC00FCE4F51F20B20AAF1F051FEFC3941440A3
:1015EC00F3E51FC394144005D2B2D2AF227F037E21
:1015FC000012000E74192DF8C000E625E0D000F69C
:10160C0030B20F74192DF8E64401F67F037E0012F8
:10161C00000E0CBC08BB0DBD05B5AB13AA14A91567
:10162C00E5191203C3AB16AA17A918E51B1203C3BD
:03163C00D2AFD357
:01163F002288
:10209500313233263435362537383928301B0D276C
:10166000C101C102C100013A00013B00902001010B
:10167000010101010101010101010101010101302B
:101680000090000F0F0F0F0F0F0F0F0F0F0F0F0F07
:101690000F0F0F9010010101010101010101010172
:1016A000010101010102310000023303E8013500AC
:0A16B0000136000137000238000087
:1011C300E53014601014601314601624037016D2F3
:1011D300A0C2A38010D2A3C2A2800AD2A2C2A180BD
:1011E30004D2A1C2A0E53025E025E02400F8E225E1
:1011F300E0FFA2A4E4334FFFE53025E025E024001F
:10120300F8EFF2E53025E025E02401F8E225E0FFE0
:10121300A2A5E4334FFFE53025E025E02401F8EFF4
:10122300F2E53025E025E02402F8E225E0FFA2A65E
:10123300E4334FFFE53025E025E02402F8EFF2E543
:101243003025E025E02403F8E225E0FFA2A7E433FC
:101253004FFFE53025E025E02403F8EFF2E4FFE556
:101263003025E025E024002FF8E2540FFEBE0F0FD7
:10127300E53025E025E024202FF87401F2800FEEFD
:10128300700CE53025E025E024202FF8E4F20FBFB1
:0712930004CD0530533003C8
:01129A002231
:10129B00E4F508E4F509E50825E025E02495F58259
:1012AB00E43420F583E5822509F582E43583F58363
:1012BB00E4936426703CE50825E025E0241025091D
:1012CB00F8E270230532E53270020531D39534E52F
:1012DB00319533401D7F26120AF974642534F53499
:1012EB00E43533F533800BE4F531F53275330375A3
:1012FB0034E8E50825E025E024202509F8E2FFE5A0
:10130B000825E025E024102509F8E2FE6F603EEE8B
:10131B00B40120E50825E025E02495F582E434208E
:10132B00F583E5822509F582E43583F583E493FFA4
:10133B00120AF9E50825E025E024202509F8E2FF4B
:10134B00E50825E025E024102509F8EFF20509E56D
:10135B0009C3940450030212A10508E508C39404C1
:05136B00500302129E78
:01137000225A
:101DE100E4FCFDFE7B997A03F9F81204A4C3741292
:101DF1009FFFE49EF53AEF540FF53B5389F0438979
:0D1E010001853A8C853B8AD28CD2A9D2BBD8
:011E0E0022B1
:03000B000214FAE2
:1014FA00C0E0C083C082C0D075D000C000C006C0A2
:01150A0007D9
:10150B00853A8C853B8A0535E535C394C840127501
:10151B003500D2010536E53694054005753600D207
:10152B0002300065E537B40800505E90153DF82891
:10153B002873021555021562021555021562021524
:10154B005502156202156D02158AB296E535C394E4
:10155B00C7403605378032E535C394C7402B053776
:10156B008027B2960539E53970020538C394F4E546
:10157B0038940140147538007539000537800AE539
:0C158B0035C394C740037537001211C32C
:0F159700D007D006D000D0D0D082D083D0E032A1
:1020A50001050A12171E29333C444B51565A5D5FF0
:1016BA00013E0001430001440001450001460004C7
:0D16CA003F00000000C108013C00013D0090
:10204B0075CB4C75CA29E4F5C885CBCD85CACCC2F6
:04205B00CAC2AD2226
:0219E9008D0867
:1019EB00AB07AA06E4F9F8FF7E107D0EFC121C7003
:1019FB008F428E418D408C3FAF08E4FCFDFEAB4225
:101A0B00AA41A940A83F1204A4E47B64FAF9F81296
:101A1B00052FAD07AC06C3E5429DFFE5419CAB0727
:101A2B00FAC3740C9DFDE49CFCC3740C9BFBE49A01
:101A3B008C438D44F5458B4653890F438910854361
:0A1A4B008D85448BC2ABC28ED2B36E
:011A5500226E
:101D3600E4FCFDFEAB42AA41A940A83F1204A4E47C
:101D46007B64FAF9F812052FAD07AC06C3E5429D90
:101D5600FFE5419CAB07FAC3740C9DFDE49CFCC3F4
:0E1D6600740C9BFBE49A8C438D44F5458B4630
:011D7400224C
:03001B000220368A
:1020360030B30985458D85468BC2B33285438D8580
:05204600448BD2B3320F
:03002B000218FABE
:1018FA00C0E0C0F0C083C082C0D075D000C000C0B4
:0D190A0001C002C003C004C005C006C00734
:10191700C2CFE53E14602814603524027036E53CDA
:101927009020A593FF121D3620080D053CE53CC30A
:10193700940F4020D208801CD53C19C20880150599
:101947003DE53DD3940A400C753D00B2B3800520B8
:04195700B302D2B352
:10195B00D007D006D005D004D003D002D001D000E0
:0B196B00D0D0D082D083D0F0D0E0328A
:0C001E007D0A7F647E001219E902204B6D
:0C20E000E4F53ED2ABD28ED2ADD2CA22C3
:0E20C400753E01C2B3C2ABC28ED2ADD2CA22EB
:0E20D200753E02C2ABC28EC2ADC2CAD2B322EC
:08000300E4F5E7F5E5F5E6225E
:101F0A00AD07AC06C2AF75E78175E5018CE3EDF567
:101F1A00E475E64675E6B900120003D2AFAFE222D5
:101F2A00AB07AA06C2AF75E78175E5028AE3EBF54E
:101F3A00E48DE275E64675E6B900120003D2AF22D7
:101F6800AD07AC06C2AF75E78175E5038CE3EDF507
:0E1F7800E475E64675E6B900120003D2AF220A
:0300000002176A7A
:0C176A00787FE4F6D8FD7581580217B1B5
:10037D00BB010689828A83E0225002E722BBFE027E
:09038D00E32289828A83E49322B1
:10039600BB010CE58229F582E5833AF583E022501C
:1003A60006E92582F8E622BBFE06E92582F8E22266
:0D03B600E58229F582E5833AF583E4932280
:1003C300BB010689828A83F0225002F722BBFE0119
:0203D300F32213
:1003D500F8BB010DE58229F582E5833AF583E8F05E
:1003E500225006E92582C8F622BBFE05E92582C80A
:0203F500F222F2
:1003F700BC000BBE0029EF8DF084FFADF022E4CCEA
:10040700F875F008EF2FFFEE33FEEC33FCEE9DECB2
:10041700984005FCEE9DFE0FD5F0E9E4CEFD22EDF8
:10042700F8F5F0EE8420D21CFEADF075F008EF2F42
:10043700FFED33FD4007985006D5F0F222C398FD33
:050447000FD5F0EA22D0
:10044C00BB010A89828A83E0F5F0A3E0225006877B
:10045C00F009E71922BBFE07E3F5F009E31922893D
:0B046C00828A83E493F5F07401932270
:10047700F8BB0111E58229F582E5833AF583E8F0B7
:10048700E5F0A3F0225009E92582C8F608A6F02274
:0D049700BBFE09E92582C8F2E5F008F2225B
:1004A400E88FF0A4CC8BF0A42CFCE98EF0A42CFCF7
:1004B4008AF0EDA42CFCEA8EF0A4CDA8F08BF0A475
:1004C4002DCC3825F0FDE98FF0A42CCD35F0FCEBD4
:1004D4008EF0A4FEA9F0EB8FF0A4CFC5F02ECD3999
:0F04E400FEE43CFCEAA42DCE35F0FDE43CFC2206
:1004F30075F008758200EF2FFFEE33FECD33CDCCC0
:1005030033CCC58233C5829BED9AEC99E582984042
:100513000CF582EE9BFEED9AFDEC99FC0FD5F0D61F
:10052300E4CEFBE4CDFAE4CCF9A88222B800C1B949
:100533000059BA002DEC8BF084CFCECDFCE5F0CB87
:10054300F97818EF2FFFEE33FEED33FDEC33FCEBC0
:1005530033FB10D703994004EB99FB0FD8E5E4F97B
:10056300FA227818EF2FFFEE33FEED33FDEC33FC68
:10057300C933C910D7059BE99A4007EC9BFCE99A5C
:10058300F90FD8E0E4C9FAE4CCFB2275F010EF2FA1
:10059300FFEE33FEED33FDCC33CCC833C810D707A1
:1005A3009BEC9AE899400AED9BFDEC9AFCE899F8DC
:0E05B3000FD5F0DAE4CDFBE4CCFAE4C8F9226F
:101C7000C2D5E830E70FB2D5E4C39BFBE49AFAE49F
:101C800099F9E498F8EC30E717B2D5121CA61205C2
:101C90002FE4C39BFBE49AFAE499F9E498F88003F3
:101CA00012052F30D50DE4C39FFFE49EFEE49DFD99
:041CB000E49CFC2292
:1005C100EB9FF5F0EA9E42F0E99D42F0E89C45F090
:0105D1002207
:1005D200E8600FECC313FCED13FDEE13FEEF13FF07
:0305E200D8F1222B
:1005E500E86010ECA2E713FCED13FDEE13FEEF132C
:0405F500FFD8F02219
:1005F900E493FC740193FD740293FE740393FF2248
:10060900E493F8740193F9740293FA740393FB2247
:0C061900A42582F582E5F03583F58322EC
:10177600021CF7E493A3F8E493A34003F68001F276
:1017860008DFF48029E493A3F85407240CC8C33374
:10179600C4540F4420C8834004F456800146F6DF43
:1017A600E4800B0102040810204080901640E47E7D
:1017B600019360BCA3FF543F30E509541FFEE49338
:1017C600A360010ECF54C025E060A840B8E493A3FF
:1017D600FAE493A3F8E493A3C8C582C8CAC583CA2A
:1017E600F0A3C8C582C8CAC583CADFE9DEE780BEE2
:0116D7000012
:00000001FF
