:041B7A00EF120889D5
:101B7E00E4FF7E01EE600F30B4024207D2B5C2B56B
:061B8E00EE25E0FE80EEF2
:011B9400222E
:041B5D0012084AFF21
:101B61007E01EE60135F7004C2B48002D2B4D2B5BC
:081B7100C2B5EE25E0FE80EA9A
:011B79002249
:10198E00D2977FBF121B61121B7E900005121B7A2D
:10199E00900004121B7A900003121B7A9000021220
:1019AE001B7A900001121B7A900006121B7AEF121E
:1019BE000877C297E92405F9E43AFA120831547F00
:0319CE0002087795
:1019D100D2977FBE121B61900005121B5D9000041F
:1019E100121B5D900003121B5D900002121B5D90A3
:1019F1000001121B5D900006121B5D120831FF12DF
:0A1A01001B61E4FF121B61C2972273
:101C3200D297EF25E04481FF121B61121B7EC297EF
:011C4200227F
:101C0D00D297EF25E04480FF121B61AF05121B61D7
:031C1D00C2972249
:101A0B00750817750905750A09750B12750C55E4E0
:101A1B00F50D750E02C2B5C297FF121C32EF30E7FF
:101A2B0010E4FD7F07121C0D7B007A007908121958
:011A3B00D1D9
:011A3C002287
:10126000200000000000183037D86FEC58343118D7
:101270003118311831D8301818301FF00FE00C60D9
:1012800000000000010041042008139007C00FE097
:10129000DFF61FF00FE007C01390200841040100A3
:1012A00000000000078003C001E001F000F800F832
:1012B00000F800F800F801F003F007E00FC01F008D
:1012C000000000007FFE60066006600660066006A3
:1012D00060067FFE7FFE601E6C1E6C1E6C1E601E14
:1012E0007FFE000000000000008001C003600630A7
:1012F000041004100C18180C3FFE01400080000080
:101300000000000000000000308019C00F600630AF
:10131000073005900CD8186C3FFE0158008C000671
:101320000000A1A0A1A0A1A0A1A0A1A0A1A0A1A0F6
:02133000A1A07A
:101C2000C290D291D295E5805480FFC29570F5C2E2
:011C3000951E
:011C31002290
:091BAF00FF121BB8E50B4480FF96
:101BB800AE07121C20C290C291D2958E80C2952287
:061BE10014F9120831FFA7
:101BE700AE07121C20D290C291D2958E80C2952248
:101B3F007F30121BB87F0C121BB87F01121BB87BB2
:0E1B4F00FF7A127960751001E4FDFF021B1D84
:101B1D008B0D8A0E890F121AF2AB0D050FE50FAA68
:101B2D000E7002050E121BE11510E510D394005036
:021B3D00E8229C
:0A18AD008F138D148B158A1689170E
:1018B700AF181518EFD394004038AD14AF13121AB0
:1018C700F20513E513D394074005E4F5130514ABAC
:1018D70015AA16A917120900FDACF0ECFF121BE7B9
:1018E700AF05121BE774022517F517E43516F51631
:0218F70080BEB1
:0118F90022CC
:021AF200AE073D
:101AF400E4FFED14601014601314601624037016D0
:101B0400EE2480FF8010EE2490FF800AEE2488FFEC
:091B14008004EE2498FF021BB8C6
:050003007F0F021BB895
:051C6E007F0C021BB811
:101BC8007F30121BB87F01121BB87BFF7A12796035
:091BD800751001E4FDFF021B1D64
:0615A1008B458A468947D4
:1015A7007F34121BB87F34121BB8E4FCEC4480FF75
:1015B700121BB87F80121BB8E4FDAB450547E54712
:1015C700AA4670020546121BE1AB450547E547AA47
:1015D7004670020546121BE10DBD08DE0CBC20CC8F
:1015E700E4FCEC4480FF121BB87F88121BB8E4FDB3
:1015F700AB450547E547AA4670020546121BE1AB16
:10160700450547E547AA4670020546121BE10DBD91
:1016170008DE0CBC20CC7F36121BB87F30021BB80B
:081483008F0B8B0C8A0D890E02
:10148B007F34121BB87F34121BB8EDC3940250305B
:10149B00E4FCEDC454F044804C121BAFAB0C050EB6
:1014AB00E50EAA0D7002050D121BE1AB0C050EE546
:1014BB000EAA0D7002050D121BE10CBC10D4803767
:1014CB00E4FCEDC454F044804CFF121BB8E50B4414
:1014DB0088FF121BB8AB0C050EE50EAA0D700205AA
:1014EB000D121BE1AB0C050EE50EAA0D7002050DDE
:1014FB00121BE10CBC10CBEDC454F04480121BAF9B
:0A150B007F36121BB87F30021BB8B8
:101855007F34121BB87F34121BB8E4FCEC4480FFC4
:10186500121BB87F80121BB8E4FDE4FF121BE7E4EE
:10187500FF121BE70DBD08F20CBC20E0E4FCEC44B4
:1018850080FF121BB87F88121BB8E4FDE4FF121B12
:10189500E7E4FF121BE70DBD08F20CBC20E07F3624
:0818A500121BB87F30021BB8D2
:0216A500AB0791
:1016A7007F34121BB87F34121BB8EDC39402502449
:1016B700E4FCEDC454F044804CFF121BB8EB4480AB
:1016C700FF121BB8E4FF121BE7E4FF121BE70CBC79
:1016D70010E08022E4FCEDC454F044804CFF121B60
:1016E700B8EB4488FF121BB8E4FF121BE7E4FF12B4
:1016F7001BE70CBC10E0EDC454F04480FF121BB88C
:10170700EB4480FF121BB87F36121BB87F30021BD9
:01171700B819
:0F1C53007BFF7A137922C374089FF5180218AD2E
:03171800011E00AF
:101A3D00D2AF121A0B121B3F1218557F01121AC684
:101A4D00E51E700A300014C200120BC3800DE51E96
:101A5D00B40108300205C20212162712118A80E065
:1018FA00011F021C031F041E051F061E071F081FC7
:10190A00091E0A1F0B1E0C1F00000000D6DCD2BBEA
:10191A00D6DCB6FED6DCC8FDD6DCCBC4D6DCCEE53A
:10192A00D6DCC1F9D6DCC8D5CEC2B6C8A3BACAAA13
:0A193A00B6C8A3BAC4D6D6D3A3BA28
:10171B000124AA0125AA0126AA0122000123000106
:04172B002100C105D3
:101BF700E4F51FE51F04FDE4FF121C53051FE51F55
:051C0700C3940340EE50
:011C0C0022B5
:100BC300E526B4AA1930050F7BFF7A127962E4FD9A
:100BD3007F011214838007E4FD7F011216A57B00B9
:100BE3007A00793912198EE524653E7003020C9B55
:100BF300853E24E53CC4540F24B0783BF2E434A38F
:100C030018F2E53C540F24B0783DF2E434A318F213
:100C1300783E74A1F20874C3F2E53DC4540F24B0C6
:100C23007841F2E434A318F2E53D540F24B078433D
:100C3300F2E434A318F2784474A1F20874C3F2E521
:100C43003EC4540F24B07847F2E434A318F2E53ECF
:100C5300540F24B07849F2E434A318F27BFE7A00EF
:100C6300793A7518087D03E4FF1218ADE526653C53
:100C73006026853C26E53CC39408400FE53CD394AD
:100C83001850087BFF7A12798280067BFF7A1279EB
:100C9300A2E4FD7F05121483E525653B7003020D75
:100CA30048853B25784A7420F208F2087432F2082A
:100CB3007430F2E539C4540F243008F2E539540F87
:100CC300243008F2087420F208F2E53AC4540F24E1
:100CD3003008F2E53A540F243008F2087420F20881
:100CE300F2E53BC4540F243008F2E53B540F2430A3
:100CF30008F2785A74A1F20874A4F27BFE7A0079A0
:100D03004A75100E7D01E4FF121B1D7BFE7A0079EC
:100D13005A7518017D017F031218AD7BFE7A0079A5
:100D23005A7518017D017F051218ADE53F75F00472
:100D3300A42412F9741935F0FA7BFF7518027D02A9
:050D43007F031218AD52
:010D48002288
:1016270075160075170075180B7B007A00790C1278
:1016370013E9E50B75F00A8424B0F50EE434A3F53D
:101647000DE50B75F00A84E5F024B0F510E434A33A
:10165700F50F7511A17512E67B007A00790D7518E3
:10166700037D017F031218ADE50C75F00A8424B0E1
:10167700F50EE434A3F50DE50C75F00A84E5F024C6
:10168700B0F510E434A3F50F7511A37512A57B000F
:0E1697007A00790D7518037D027F030218ADED
:100EC500121BC87BFF7A1979327518037D01E4FF7F
:100ED5001218AD7BFF7A1979387518037D02E4FF86
:100EE5001218AD7BFF7A19793E7518037D03E4FF6F
:100EF5001218AD300558E52275F00A8424B0783B08
:100F0500F2E434A318F2E52275F00A84E5F024B082
:100F1500783DF2E434A318F2783E74A1F20874C364
:100F2500F2E52375F00A8424B07841F2E434A3187D
:100F3500F2E52375F00A84E5F024B07843F2E43451
:100F4500A318F27BFE7A00793A7518058022783A63
:100F550074CEF20874B4F20874BFF20874AAF208E9
:100F650074C6F20874F4F27BFE7A00793A751803B8
:100F75007D037F031218AD121627E539C4540F758A
:100F8500F00AA4FFE539540F2FFF784AF2E53AC479
:100F9500540F75F00AA4FEE53A540F2E08F2FDE54C
:100FA5003BC4540F75F00AA4FEE53B540F2EFE78A2
:100FB50049F2FB750EFE750F0075103A120D497852
:100FC50048EFF27BFE7A00793AF518E4FD7F0102DD
:020FD50018AD55
:1017F300E521B40800504E901801F8282873021808
:101803001902181D02182302182902182F0218356D
:1018130002183B0218417D0180087D017F0680226A
:101823007D027F04801C7D037F0180167D037F047E
:1018330080107D037F07800AE4FD7F0580047D011E
:101843007F02121AF20521E521D394074003E4F540
:02185300212250
:101A9A00E52114600D146010240270137D027F0684
:101AAA00800AE4FD7F0580047D027F03121AF20595
:0C1ABA0021E521D394024003E4F5212231
:100FD700E539C454F0FFE52775F00A844FF539C4A5
:100FE70054F0FFE52775F00A84E5F04FF539E53A47
:100FF700C454F0FFE52875F00A844FF53AC454F05D
:10100700FFE52875F00A84E5F04FF53AE53BC4544F
:10101700F0FFE52975F00A844FF53BC454F0FFE56E
:101027002975F00A84E5F04FF53BE53FC454F0FF1E
:10103700E52D75F00A844FF53FC454F0FFE52D7593
:10104700F00A84E5F04FF53FE53CC454F0FFE52A8C
:1010570075F00A844FF53CC454F0FFE52A75F00A91
:1010670084E5F04FF53CE53DC454F0FFE52B75F002
:101077000A844FF53DC454F0FFE52B75F00A84E56B
:10108700F04FF53DE53EC454F0FFE52C75F00A84BA
:101097004FF53EC454F0FFE52C75F00A84E5F04F98
:0B10A700F53E7B007A0079390219D178
:10035D00E51E64026003020527E521C394075014CE
:10036D00E4FD7F05121C537BFF7A1279C2E4FD7FF9
:10037D0005121483E521B4080040030205C690035D
:10038D0092F82828730203AA0203D8020406020475
:10039D003402045502048E0204C7020500E52775D8
:1003AD00F00A842430783AF2E52775F00A84E5F0F6
:1003BD00243008F27BFE7A00793A7510027D017FB8
:1003CD0002121B1D7D017F020205ADE52875F00AA5
:1003DD00842430783AF2E52875F00A84E5F024306B
:1003ED0008F27BFE7A00793A7510027D017F0412C6
:1003FD001B1D7D017F040205ADE52975F00A8424DE
:10040D0030783AF2E52975F00A84E5F0243008F2E7
:10041D007BFE7A00793A7510027D017F06121B1D55
:10042D007D017F060205ADE52D75F004A42412F9BA
:10043D00741935F0FA7BFF7518027D027F031218CF
:10044D00AD7D027F040205ADE52A75F00A8424B066
:10045D00783DF2E434A318F2E52A75F00A84E5F04C
:10046D0024B0783FF2E434A318F27BFE7A00793C95
:10047D007518027D03E4FF1218AD7D037F0102059F
:10048D00ADE52B75F00A8424B0783DF2E434A31861
:10049D00F2E52B75F00A84E5F024B0783FF2E434F0
:1004AD00A318F27BFE7A00793C7518027D037F0359
:1004BD001218AD7D037F040205ADE52C75F00A849D
:1004CD0024B0783DF2E434A318F2E52C75F00A84DB
:1004DD00E5F024B0783FF2E434A318F27BFE7A0005
:1004ED00793C7518027D037F061218AD7D037F07D9
:1004FD000205AD783C74A1F20874CCF2E4FD7F05E1
:10050D001216A57BFE7A00793C751801E4FD7F0576
:10051D001218ADE4FD7F050205ADE51E6403600311
:10052D000205C6E5211460421460782402600302BE
:10053D0005C6E52275F00A8424B0783DF2E434A3B3
:10054D0018F2E52275F00A84E5F024B0783FF2E464
:10055D0034A318F27BFE7A00793C7518027D027F78
:10056D00021218AD7D027F038036E52375F00A84F3
:10057D0024B0783DF2E434A318F2E52375F00A8433
:10058D00E5F024B0783FF2E434A318F27BFE7A0054
:10059D00793C7518027D027F051218AD7D027F062C
:1005AD00021AF27BFF3005067A1279E280047A1383
:0905BD007902E4FD7F05121483AC
:0105C6002212
:10133200E521B4080040030213E6901343F828287D
:101342007302135B02136C02137A0213AB0213B91A
:101352000213C70213D50213E30527E527D39463CB
:1013620050030213E6E4F527807A0528E528D39492
:101372000C4071752801806C0529E5275403700E15
:10138200E528B40209E529D3941D40588016E528C2
:1013920025E024F9F582E43418F583E493FFE52986
:1013A200D39F4040752901803B052DE52DD394073D
:1013B2004032752D01802D052AE52AD39417402449
:1013C200E4F52A801F052BE52BD3943B4016E4F568
:1013D2002B8011052CE52CD3943B4008E4F52C809E
:0713E20003120FD702035DA7
:101A6D00E5211460151460202402701E0522E52264
:101A7D00D394174015E4F52280100523E523D39464
:0D1A8D003B4007E4F5238002B20502035D33
:10178900E539C4540F75F00AA4FFE539540F2FF554
:1017990027E53AC4540F75F00AA4FFE53A540F2F10
:1017A900F528E53BC4540F75F00AA4FFE53B540F37
:1017B9002FF529853F2DE53CC4540F75F00AA4FF88
:1017C900E53C540F2FF52AE53DC4540F75F00AA4E2
:1017D900FFE53D540F2FF52BE53EC4540F75F00A74
:0A17E900A4FFE53E540F2FF52C225B
:0B0A0B008F0AE50A640D6003020B5027
:100A1600E51E64026003020AE5751E03121BC87810
:100A26003074C4F20874D6F208F20874D3F208746B
:100A3600C9F20874E8F20874B6F20874A8F20874E9
:100A4600A3F20874BAF27BFE7A007930751805E4D1
:100A5600FDFF1218ADE4FD7F051216A57D01E4FF2A
:100A66001216A57BFF3005067A1279E280047A1306
:100A76007902E4FD7F05121483E52275F00A8424C9
:100A8600B07831F2E434A318F2E52275F00A84E571
:100A9600F024B07833F2E434A318F2783474A1F277
:100AA6000874C3F2E52375F00A8424B07837F2E4BB
:100AB60034A318F2E52375F00A84E5F024B07839FA
:100AC600F2E434A318F27BFE7A0079307518057DBE
:100AD600027F021218ADE4F5217D027F0380657561
:100AE6001E02121BC8783074D0F20874A3F2087480
:100AF600B6F20874D4F20874CAF20874B1F2087433
:100B0600BCF20874E4F20874A3F20874BAF27BFE2D
:100B16007A007930751805E4FDFF1218ADE4FD7F03
:100B2600051216A57BFF7A1279C2E4FD7F05121421
:100B3600837524AA7525AA120BC3121789E4F52119
:0A0B46007D017F02121AF202000383
:100B5000E50AB41B1CE4F51E121BC8121C6EE4FD52
:100B60007F051216A57524AA7526AA7525AA020B5B
:100B7000C3E50AB42611E51EB40203021332E51ED2
:100B80006403703E021A6DE50A64277035E51EC3E2
:100B90009402501E051E531E01E51E700D121BC847
:100BA0007524AA7525AA7526AA22E51EB40113028A
:100BB0000EC5E51EB402030217F3E51EB4030312CB
:030BC0001A9A225C
:1005C700004D4AB8000D4A4C000DA5410025AAB6BA
:1005D70000056A49007AADBD00025D5200092D474A
:1005E700005C95BA000A954E000B4A43004B5537FD
:1005F700000AD54A00955ABF0004BA53000A5B485F
:1006070000652BBC00052B50000A934500474AB9EB
:100617000006AA4C000AD5410024DAB60004B64AFF
:100627000069573D000A4E51000D2646005E933A79
:10063700000D534D0005AA430036B53700096D4B31
:1006470000B4AEBF0004AD53000A4D48006D25BC91
:10065700000D254F000D5244005DAA38000B5A4C7F
:1006670000056D410024ADB600049B4A007A4BBEDD
:10067700000A4B51000AA546005B52BA0006D24E4B
:10068700000ADA4200355B370009374B008497C10F
:100697000004975300064B480066A53C000EA54F83
:1006A7000006B244004AB638000AAE4C00092E4292
:1006B700003C9735000C9649007D4ABD000D4A5114
:1006C700000DA5450055AABA00056A4E000A6D43FC
:1006D70000452EB700052D4B008A95BF000A95539C
:1006E700000B4A47006B553B000AD54F00055A459A
:1006F700004A5D38000A5B4C00052B42003A93B66E
:1007070000069349007729BD0006AA51000AD5467D
:100717000054DABA0004B64E000A5743004527389A
:10072700000D264A008E933E000D5252000DAA4737
:100737000066B53B00056D4F0004AE45004A4EB953
:10074700000A4D4C000D1541002D92B50000000028
:100757000000001F0000003B0000005A0000007866
:1007670000000097000000B5000000D4000000F36F
:1007770000000111000001300000014E00000000E0
:10078700B3F5D2BBB3F5B6FEB3F5C8FDB3F5CBC42D
:10079700B3F5CEE5B3F5C1F9B3F5C6DFB3F5B0CB25
:1007A700B3F5BEC5B3F5CAAECAAED2BBCAAEB6FEC6
:1007B700CAAEC8FDCAAECBC4CAAECEE5CAAEC1F991
:1007C700CAAEC6DFCAAEB0CBCAAEBEC5B6FECAAEEB
:1007D700D8A5D2BBD8A5B6FED8A5C8FDD8A5CBC489
:1007E700D8A5CEE5D8A5C1F9D8A5C6DFD8A5B0CB81
:1007F700D8A5BEC5C8FDCAAE0000D5FDB6FEC8FD6A
:10080700CBC4CEE5C1F9C6DFB0CBBEC5CAAEB6AC68
:10081700C0B0CAF3C5A3BBA2CDC3C1FAC9DFC2ED3D
:0A082700D1F2BAEFBCA6B9B7D6EDC6
:06000E008F128D138B140C
:1000140075F004EFA424C3F582E5F03405F58312EA
:1000240009DFEF5460FFE4FEFDFC78051209B8E433
:100034007B01FAF9F8C31209A775F0047020E512E0
:10004400A424C3F582E5F03405F5831209DFEF54E7
:100054001FFFEF24FFF516E434FFF515801DE512AC
:10006400A424C3F582E5F03405F5831209DFEF54C7
:100074001FFFEF241EF516E433F515E51325E025DF
:10008400E0244FF582E43407F5831209DF7C00EFA6
:100094002514FFEC3ECF24FFF518EF34FFF517E5E8
:1000A400125403700FE513D3940240080518E518A1
:1000B40070020517C3E5189516E517951550030248
:1000C40001C1D206E5189516F518E5179515F5172B
:1000D400751301751901E4F51AFFFE7D08FCE51995
:1000E40014F9F81209CB75F004E512A424C3F582BF
:1000F400E5F03405F5831209EFEB5FFFEA5EFEE9F4
:100104005DFDE85CFCE4FBFAF9F8C31209A770038F
:100114000201B00201B6AF1B7E00C3E5189FE517CC
:100124009E50030201BCE5189FF518E5179EF517CC
:10013400051975F004E512A424C3F582E5F034052D
:10014400F5831209DFE4FFFEED54F0FDE4FC7814BE
:100154001209B8A804A905AA06AB07AF13E4FCFD6D
:10016400FEC31209A7700B631AFFE51A7006051384
:1001740080020513E4FFFE7D08FCE51914F9F8126A
:1001840009CB75F004E512A424C3F582E5F0340527
:10019400F5831209EFEB5FFFEA5EFEE95DFDE85CC3
:1001A400FCE4FBFAF9F8C31209A77006751B1D02DB
:1001B400011A751B1E02011AE5180202ECC206C3DD
:1001C400E5169518F516E5159517F5151512751319
:1001D4000C75F004E512A424C3F582E5F03405F5AA
:1001E400831209DFE4FFFEED54F0FDE4FC78141201
:1001F40009B8E4FBFAF9F8C31209A7700575190CDC
:10020400800375190DE4F51AFFFE7D08FCE5191449
:10021400F9F81209CB75F004E512A424C3F582E5BC
:10022400F03405F5831209EFEB5FFFEA5EFEE95D4A
:10023400FDE85CFCE4FBFAF9F8C31209A7700302B9
:1002440002DB0202E1AF1B7E00D3E5169FE5159E9B
:1002540050030202E7E5169FF516E5159EF5151500
:1002640019E51A7002151375F004E512A424C3F5F8
:1002740082E5F03405F5831209DFE4FFFEED54F066
:10028400FDE4FC78141209B8A804A905AA06AB0772
:10029400AF13E4FCFDFEC31209A77003631AFFE465
:1002A400FFFE7D08FCE51914F9F81209CB75F0047A
:1002B400E512A424C3F582E5F03405F5831209EFB1
:1002C400EB5FFFEA5EFEE95DFDE85CFCE4FBFAF946
:1002D400F8C31209A77006751B1D020249751B1E7F
:1002E400020249C3E51B951604F514E5444514F5CB
:1002F40044E543F543E542F542E541F541E513752F
:10030400F040A4FFAEF0EE3395E0FDFCE5444FF57C
:1003140044E5434EF543E5424DF542E5414CF54194
:1003240075F004E512A424C3F582E5F03405F583E1
:100334001209DFE4FFFEED54F0FDE4FC7814120929
:10034400B8A804A905AA06AB07AF13E4FCFDFEC3D5
:080354001209A77002D322C3B5
:01035C00227E
:020D49008F0B0E
:100D4B00E4F51112000E5048AB0EAA0FA910AF110B
:100D5B00051175F002EFA4F58285F08374C875F068
:100D6B00F212092BE54454C0FFE5435403FEE4FDA6
:100D7B00FC78061209B89007FF75F002EF1209FF15
:100D8B00EE25E02583F583E493FE740193FF803019
:100D9B00E54454C0FFE5435403FEE4FDFC78061222
:100DAB0009B89007FF75F002EF1209FFEE25E02559
:100DBB0083F583E493FE740193FFAB0EAA0FA91086
:100DCB00AD11051175F002EDA4F58285F083EE8F60
:100DDB00F012092BAB0EAA0FA910AF11051175F06C
:100DEB0002EFA4F58285F08374D475F0C212092B3F
:100DFB00E544543FFF90078375F004EF1209FFE4BD
:100E0B0025E025E02583F583E493FE740193FFAD84
:100E1B0011051175F002EDA4F58285F083EE8FF0CC
:100E2B0012092BE544543FFF90078575F004EF1230
:100E3B0009FFE425E025E02583F583E493FE7401A7
:100E4B0093FFAD11051175F002EDA4F58285F083CA
:100E5B00EE8FF012092BAF11051175F002EFA4F50F
:100E6B008285F08374A175F0A012092BE50B246425
:100E7B00FFE433FE7C007D0C1208ABAF053006029D
:100E8B008008EF70047F0B80011FEF25E02419F51C
:100E9B0082E43408F583E493FE740193FFAB0EAA4E
:100EAB000FA910AD11051175F002EDA4F58285F0B7
:090EBB0083EE8FF012092BAF1138
:010EC400220B
:03172F000148006E
:0C1C62000000EF1F70011E144E70F522F0
:101B9500C2B27FD07E07121C62D2B27F047E0012D1
:091BA5001C62A2B29204A204B376
:011BAE002214
:0613E9008B138A14891524
:1013EF00C2AF121B959203200303A20322E4F54818
:1013FF0020B20AAF480548EFC3941440F3E548C341
:10140F009414400280227F087E00121C62E4FDE4E7
:10141F00FCE4F54820B20AAF480548EFC3941440E6
:10142F00F3E548C394144005D2B2D2AF227F037EB6
:10143F0000121C6274192DF8C000E625E0D000F6EA
:10144F0030B20F74192DF8E64401F67F037E0012B7
:10145F001C620CBC08BB0DBD05B5AB13AA14A915B6
:10146F00E519120877AB16AA17A918E51B1208770A
:03147F00D2AFD316
:011482002247
:101C4300313233263435362537383928301B0D27C2
:10173200C100C101C102013700013800902001013E
:101742000101010101010101010101010101012F59
:101752000090000F0F0F0F0F0F0F0F0F0F0F0F0F34
:101762000F0F0F901001010101010101010101019F
:10177200010101010102300000023203E8013400DC
:06178200013500013600F4
:1010B200E52F14601014601314601624037016D206
:1010C200A0C2A38010D2A3C2A2800AD2A2C2A180CF
:1010D20004D2A1C2A0E52F25E025E02400F8E225F4
:1010E200E0FFA2A4E4334FFFE52F25E025E0240032
:1010F200F8EFF2E52F25E025E02401F8E225E0FFF4
:10110200A2A5E4334FFFE52F25E025E02401F8EF07
:10111200F2E52F25E025E02402F8E225E0FFA2A671
:10112200E4334FFFE52F25E025E02402F8EFF2E556
:101132002F25E025E02403F8E225E0FFA2A7E4330F
:101142004FFFE52F25E025E02403F8EFF2E4FFE569
:101152002F25E025E024002FF8E2540FFEBE0F0FEA
:10116200E52F25E025E024202FF87401F2800FEE10
:10117200700CE52F25E025E024202FF8E4F20FBFC4
:0711820004CD052F532F03DC
:011189002243
:10118A00E4F508E4F509E50825E025E02443F582BD
:10119A00E4341CF583E5822509F582E43583F58379
:1011AA00E4936426703CE50825E025E0241025092F
:1011BA00F8E270230531E53170020530D39533E545
:1011CA00309532401D7F26120A0B74642533F5339D
:1011DA00E43532F532800BE4F530F53175320375BA
:1011EA0033E8E50825E025E024202509F8E2FFE5B3
:1011FA000825E025E024102509F8E2FE6F603EEE9E
:10120A00B40120E50825E025E02443F582E4341CF6
:10121A00F583E5822509F582E43583F583E493FFB6
:10122A00120A0BE50825E025E024202509F8E2FF4B
:10123A00E50825E025E024102509F8EFF20509E57F
:10124A0009C3940450030211900508E508C39404E5
:05125A00500302118D9C
:01125F00226C
:101AC600E4FCFDFE7B997A03F9F8120958C37412F7
:101AD6009FFFE49EF537EF540FF5385389F043899D
:0B1AE6000185378C85388AD28CD2A98C
:011AF10022D2
:03000B0002194493
:0D194400C0E0C0D075D000C000C006C007D4
:1019510085378C85388A0534E534C394C8402075B1
:101961003400D2000535E53594054005753500D2C2
:10197100010536E536C394194005753600D20212C9
:0219810010B2A2
:0B198300D007D006D000D0D0D0E0325A
:03000000021515D1
:0C151500787FE4F6D8FD75814802155C73
:10083100BB010689828A83E0225002E722BBFE02C5
:09084100E32289828A83E49322F8
:10084A00BB010CE58229F582E5833AF583E0225063
:10085A0006E92582F8E622BBFE06E92582F8E222AD
:0D086A00E58229F582E5833AF583E49322C7
:10087700BB010689828A83F0225002F722BBFE0160
:02088700F3225A
:10088900F8BB010DE58229F582E5833AF583E8F0A5
:10089900225006E92582C8F622BBFE05E92582C851
:0208A900F22239
:1008AB00BC000BBE0029EF8DF084FFADF022E4CC31
:1008BB00F875F008EF2FFFEE33FEEC33FCEE9DECFA
:1008CB00984005FCEE9DFE0FD5F0E9E4CEFD22ED40
:1008DB00F8F5F0EE8420D21CFEADF075F008EF2F8A
:1008EB00FFED33FD4007985006D5F0F222C398FD7B
:0508FB000FD5F0EA2218
:10090000BB010A89828A83E0F5F0A3E022500687C2
:10091000F009E71922BBFE07E3F5F009E319228984
:0B092000828A83E493F5F074019322B7
:10092B00F8BB0111E58229F582E5833AF583E8F0FE
:10093B00E5F0A3F0225009E92582C8F608A6F022BB
:0D094B00BBFE09E92582C8F2E5F008F222A2
:10095800E88FF0A4CC8BF0A42CFCE98EF0A42CFC3E
:100968008AF0EDA42CFCEA8EF0A4CDA8F08BF0A4BC
:100978002DCC3825F0FDE98FF0A42CCD35F0FCEB1B
:100988008EF0A4FEA9F0EB8FF0A4CFC5F02ECD39E0
:0F099800FEE43CFCEAA42DCE35F0FDE43CFC224D
:1009A700EB9FF5F0EA9E42F0E99D42F0E89C45F0A6
:0109B700221D
:1009B800E8600FECC313FCED13FDEE13FEEF13FF1D
:0309C800D8F12241
:1009CB00E86010ECA2E713FCED13FDEE13FEEF1342
:0409DB00FFD8F0222F
:1009DF00E493FC740193FD740293FE740393FF225E
:1009EF00E493F8740193F9740293FA740393FB225E
:0C09FF00A42582F582E5F03583F5832203
:10152100021A3DE493A3F8E493A34003F68001F289
:1015310008DFF48029E493A3F85407240CC8C333CB
:10154100C4540F4420C8834004F456800146F6DF9A
:10155100E4800B0102040810204080901718E47EFB
:10156100019360BCA3FF543F30E509541FFEE4938F
:10157100A360010ECF54C025E060A840B8E493A356
:10158100FAE493A3F8E493A3C8C582C8CAC583CA81
:10159100F0A3C8C582C8CAC583CADFE9DEE780BE39
:011788000060
:00000001FF
