:04132D00EF12061F96
:10133100E4FF7E01EE600F30B4024207D2B5C2B5C0
:06134100EE25E0FE80EE47
:011347002283
:041310001205E0FFE3
:101314007E01EE60135F7004C2B48002D2B4D2B511
:08132400C2B5EE25E0FE80EAEF
:01132C00229E
:10114600D2977FBF12131412133190000512132D7C
:1011560090000412132D90000312132D900002121A
:10116600132D90000112132D90000612132DEF126D
:10117600060DC297E92405F9E43AFA1205C7547F29
:0311860002060D51
:10118900D2977FBE12131490000512131090000419
:1011990012131090000312131090000212131090F2
:1011A90000011213109000061213101205C7FF1246
:0A11B9001314E4FF121314C297226E
:1013E500D297EF25E04481FF121314121331C297EF
:0113F50022D5
:1013C000D297EF25E04480FF121314AF05121314D7
:0313D000C297229F
:1011C300750817750905750A09750B12750C55E431
:1011D300F50D750E02C2B5C297FF1213E5EF30E7A6
:1011E30010E4FD7F071213C07B007A007908121107
:0111F3008972
:0111F40022D8
:100F870020003C1C7C1EFFFFFFFFFE3FF98F798E80
:100F9700718671F671F6780E380E3E3C1FFC1FFC09
:100FA7001C1C0000010041042008139007C00FE03B
:100FB700DFF61FF00FE007C013902008410401007F
:100FC70000000000078003C001E001F000F800F80E
:100FD70000F800F800F801F003F007E00FC01F0069
:100FE7000000A1A0A1A0A1A0A1A0A1A0A1A0A1A033
:020FF700A1A0B7
:1013D300C290D291D295E5805480FFC29570F5C238
:0113E3009574
:0113E40022E6
:09136200FF12136BE5084480FF43
:10136B00AE071213D3C290C291D2958E80C2952232
:0613940014F91205C7FF69
:10139A00AE071213D3D290C291D2958E80C29522F3
:1012F2007F3012136B7F0C12136B7F0112136B7B07
:0E130200FF7A0F7987750F01E4FDFF0212AE2E
:1012AE008B0C8A0D890E121283AB0C050EE50EAA5D
:1012BE000D7002050D121394150FE50FD394005007
:0212CE00E82214
:0A10AF008F128D138B148A15891619
:1010B900AF171517EFD394004038AD13AF121212C2
:1010C900830512E512D394074005E4F5120513AB25
:1010D90014AA15A916120696FDACF0ECFF12139A84
:1010E900AF0512139A74022516F516E43515F51590
:0210F90080BEB7
:0110FB0022D2
:02128300AE07B4
:10128500E4FFED1460101460131460162403701647
:10129500EE2480FF8010EE2490FF800AEE2488FF64
:0912A5008004EE2498FF02136B93
:050003007F0F02136BEA
:051421007F0C02136BBB
:10137B007F3012136B7F0112136B7BFF7A0F798710
:09138B00750F01E4FDFF0212AE32
:060D9D008B1D8A1E891F58
:100DA3007F3412136B7F3412136BE4FCEC4480FF2B
:100DB30012136B7F8012136BE4FDAB1D051FE51F40
:100DC300AA1E7002051E121394AB1D051FE51FAA70
:100DD3001E7002051E1213940DBD08DE0CBC20CC40
:100DE300E4FCEC4480FF12136B7F8812136BE4FD69
:100DF300AB1D051FE51FAA1E7002051E121394AB3F
:100E03001D051FE51FAA1E7002051E1213940DBDBA
:100E130008DE0CBC20CC7F3612136B7F3002136BC1
:080BF1008F088B098A0A890BA9
:100BF9007F3412136B7F3412136BEDC394025030A0
:100C0900E4FCEDC454F044804C121362AB09050BAB
:100C1900E50BAA0A7002050A121394AB09050BE544
:100C29000BAA0A7002050A1213940CBC10D480375F
:100C3900E4FCEDC454F044804CFF12136BE5084406
:100C490088FF12136BAB09050BE50BAA0A700205A5
:100C59000A121394AB09050BE50BAA0A7002050ADF
:100C69001213940CBC10CBEDC454F04480121362DF
:0A0C79007F3612136B7F3002136BFD
:101057007F3412136B7F3412136BE4FCEC4480FF74
:1010670012136B7F8012136BE4FDE4FF12139AE4F3
:10107700FF12139A0DBD08F20CBC20E0E4FCEC440F
:1010870080FF12136B7F8812136BE4FDE4FF1213CA
:101097009AE4FF12139A0DBD08F20CBC20E07F36CC
:0810A70012136B7F3002136B82
:020EA100AB079D
:100EA3007F3412136B7F3412136BEDC394025024FF
:100EB300E4FCEDC454F044804CFF12136BEB44800C
:100EC300FF12136BE4FF12139AE4FF12139A0CBC84
:100ED30010E08022E4FCEDC454F044804CFF121374
:100EE3006BEB4488FF12136BE4FF12139AE4FF12B7
:100EF300139A0CBC10E0EDC454F04480FF12136B42
:100F0300EB4480FF12136B7F3612136B7F30021397
:010F13006B72
:0F1406007BFF7A0F79E9C374089FF5170210AFC7
:030FF900013600BE
:10122700D2AF1211C31212F21210577F01121257C6
:10123700E536700A300014C20012091D800DE5362C
:10124700B40108300205C202120E23120F1480E007
:1011F50000000000D6DCD2BBD6DCB6FED6DCC8FDCE
:10120500D6DCCBC4D6DCCEE5D6DCC1F9D6DCC8D578
:10121500CEC2B6C8A3BACAAAB6C8A3BAC4D6D6D3CC
:02122500A3BA6A
:090FFC000133AA0134AA0135AA4F
:1013AA00E4F537E53704FDE4FF1214060537E5379F
:0513BA00C3940340EEA6
:0113BF00220B
:10091D007B007A007921121146E5336526700302BA
:10092D0009D1852633E524C4540F24B07831F2E47F
:10093D0034A318F2E524540F24B07833F2E434A331
:10094D0018F2783474A1F20874C3F2E525C4540F7B
:10095D0024B07837F2E434A318F2E525540F24B00F
:10096D007839F2E434A318F2783A74A1F20874C31A
:10097D00F2E526C4540F24B0783DF2E434A318F206
:10098D00E526540F24B0783FF2E434A318F27BFE31
:10099D007A0079307517087D03E4FF1210AFE53545
:1009AD0065246020852435E524C394084009E52499
:1009BD00D39418500280007BFF7A0F79A9E4FD7F54
:1009CD0005120BF1E53465237003020A7E8523348D
:1009DD0078407420F208F2087432F2087430F2E5AF
:1009ED0021C4540F243008F2E521540F243008F2AD
:1009FD00087420F208F2E522C4540F243008F2E501
:100A0D0022540F243008F2087420F208F2E523C4B2
:100A1D00540F243008F2E523540F243008F2785097
:100A2D0074A1F20874A4F27BFE7A007940750F0E62
:100A3D007D01E4FF1212AE7BFE7A0079507517012D
:100A4D007D017F031210AF7BFE7A0079507517017F
:100A5D007D017F051210AFE52775F004A424F5F98B
:100A6D00741135F0FA7BFF7517027D027F031210AA
:010A7D00AFC9
:010A7E002255
:100E230075150075160075170A7B007A00790B1289
:100E33000B57E50A75F00A8424B0F50DE434A3F5E5
:100E43000CE50A75F00A84E5F024B0F50FE434A349
:100E5300F50E7510A17511E67B007A00790C7517F4
:100E6300037D017F031210AFE50B75F00A8424B0F4
:100E7300F50DE434A3F50CE50B75F00A84E5F024D5
:100E8300B0F50FE434A3F50E7510A37511A57B001F
:0E0E93007A00790C7517037D027F030210AF01
:100C830012137B7BFF7A1279157517037D01E4FF3D
:100C93001210AF7BFF7A12791B7517037D02E4FFF5
:100CA3001210AF7BFF7A1279217517037D03E4FFDE
:100CB3001210AF120E23E521C4540F75F00AA4FFDE
:100CC300E521540F2FFF7840F2E522C4540F75F04D
:100CD3000AA4FEE522540F2E08F2FDE523C4540FA7
:100CE30075F00AA4FEE523540F2EFE783FF2FB7540
:100CF3000DFE750E00750F301207A1783EEFF27BE3
:0E0D0300FE7A007930F517E4FD7F010210AF93
:1012D000BF0D1E0536533601E536700D12137B75B2
:1012E00033AA7534AA7535AA22E536B40103120C67
:0212F000832257
:10035D00004D4AB8000D4A4C000DA5410025AAB626
:10036D0000056A49007AADBD00025D5200092D47B6
:10037D00005C95BA000A954E000B4A43004B553769
:10038D00000AD54A00955ABF0004BA53000A5B48CB
:10039D0000652BBC00052B50000A934500474AB958
:1003AD000006AA4C000AD5410024DAB60004B64A6C
:1003BD000069573D000A4E51000D2646005E933AE6
:1003CD00000D534D0005AA430036B53700096D4B9E
:1003DD0000B4AEBF0004AD53000A4D48006D25BCFE
:1003ED00000D254F000D5244005DAA38000B5A4CEC
:1003FD0000056D410024ADB600049B4A007A4BBE4A
:10040D00000A4B51000AA546005B52BA0006D24EB7
:10041D00000ADA4200355B370009374B008497C17B
:10042D000004975300064B480066A53C000EA54FEF
:10043D000006B244004AB638000AAE4C00092E42FE
:10044D00003C9735000C9649007D4ABD000D4A5180
:10045D00000DA5450055AABA00056A4E000A6D4368
:10046D0000452EB700052D4B008A95BF000A955308
:10047D00000B4A47006B553B000AD54F00055A4506
:10048D00004A5D38000A5B4C00052B42003A93B6DA
:10049D0000069349007729BD0006AA51000AD546EA
:1004AD000054DABA0004B64E000A57430045273807
:1004BD00000D264A008E933E000D5252000DAA47A4
:1004CD000066B53B00056D4F0004AE45004A4EB9C0
:1004DD00000A4D4C000D1541002D92B50000000095
:1004ED000000001F0000003B0000005A00000078D3
:1004FD0000000097000000B5000000D4000000F3DC
:10050D0000000111000001300000014E000000004C
:10051D00B3F5D2BBB3F5B6FEB3F5C8FDB3F5CBC499
:10052D00B3F5CEE5B3F5C1F9B3F5C6DFB3F5B0CB91
:10053D00B3F5BEC5B3F5CAAECAAED2BBCAAEB6FE32
:10054D00CAAEC8FDCAAECBC4CAAECEE5CAAEC1F9FD
:10055D00CAAEC6DFCAAEB0CBCAAEBEC5B6FECAAE57
:10056D00D8A5D2BBD8A5B6FED8A5C8FDD8A5CBC4F5
:10057D00D8A5CEE5D8A5C1F9D8A5C6DFD8A5B0CBED
:10058D00D8A5BEC5C8FDCAAE0000D5FDB6FEC8FDD6
:10059D00CBC4CEE5C1F9C6DFB0CBBEC5CAAEB6ACD5
:1005AD00C0B0CAF3C5A3BBA2CDC3C1FAC9DFC2EDAA
:0A05BD00D1F2BAEFBCA6B9B7D6ED33
:06000E008F118D128B130F
:1000140075F004EFA42459F582E5F03403F5831256
:100024000775EF5460FFE4FEFDFC780512074EE40B
:100034007B01FAF9F8C312073D75F0047020E5114D
:10004400A42459F582E5F03403F583120775EF54BF
:100054001FFFEF24FFF515E434FFF514801DE511AF
:10006400A42459F582E5F03403F583120775EF549F
:100074001FFFEF241EF515E433F514E51225E025E2
:10008400E024E5F582E43404F5831207757C00EF7F
:100094002513FFEC3ECF24FFF517EF34FFF516E5EB
:1000A400115403700FE512D3940240080517E517A5
:1000B40070020516C3E5179515E51695145003024D
:1000C40001C1D205E5179515F517E5169514F51632
:1000D400751201751801E4F519FFFE7D08FCE51899
:1000E40014F9F812076175F004E511A42459F58296
:1000F400E5F03403F583120785EB5FFFEA5EFEE962
:100104005DFDE85CFCE4FBFAF9F8C312073D7003FB
:100114000201B00201B6AF1A7E00C3E5179FE516CF
:100124009E50030201BCE5179FF517E5169EF516D0
:10013400051875F004E511A42459F582E5F034039B
:10014400F583120775E4FFFEED54F0FDE4FC78142A
:1001540012074EA804A905AA06AB07AF12E4FCFDDA
:10016400FEC312073D700B6319FFE51970060512F3
:1001740080020512E4FFFE7D08FCE51814F9F8126C
:10018400076175F004E511A42459F582E5F0340300
:10019400F583120785EB5FFFEA5EFEE95DFDE85C2F
:1001A400FCE4FBFAF9F8C312073D7006751A1D0248
:1001B400011A751A1E02011AE5170202ECC205C3E0
:1001C400E5159517F515E5149516F5141511751221
:1001D4000C75F004E511A42459F582E5F03403F517
:1001E40083120775E4FFFEED54F0FDE4FC7814126D
:1001F400074EE4FBFAF9F8C312073D700575180CB5
:10020400800375180DE4F519FFFE7D08FCE518144C
:10021400F9F812076175F004E511A42459F582E593
:10022400F03403F583120785EB5FFFEA5EFEE95DB8
:10023400FDE85CFCE4FBFAF9F8C312073D70030225
:1002440002DB0202E1AF1A7E00D3E5159FE5149E9E
:1002540050030202E7E5159FF515E5149EF5141504
:1002640018E5197002151275F004E511A42459F566
:1002740082E5F03403F583120775E4FFFEED54F0D4
:10028400FDE4FC781412074EA804A905AA06AB07DE
:10029400AF12E4FCFDFEC312073D70036319FFE4D3
:1002A400FFFE7D08FCE51814F9F812076175F004E7
:1002B400E511A42459F582E5F03403F5831207858A
:1002C400EB5FFFEA5EFEE95DFDE85CFCE4FBFAF946
:1002D400F8C312073D7006751A1D020249751A1EED
:1002E400020249C3E51A951504F513E5324513F5E1
:1002F40032E531F531E530F530E52FF52FE51275AE
:10030400F040A4FFAEF0EE3395E0FDFCE5324FF58E
:1003140032E5314EF531E5304DF530E52F4CF52F12
:1003240075F004E511A42459F582E5F03403F5834E
:10033400120775E4FFFEED54F0FDE4FC7814120797
:100344004EA804A905AA06AB07AF12E4FCFDFEC340
:0803540012073D7002D322C321
:01035C00227E
:0207A1008F0ABD
:1007A300E4F51012000E5048AB0DAA0EA90FAF10BE
:1007B300051075F002EFA4F58285F08374C875F017
:1007C300F21206C1E53254C0FFE5315403FEE4FDE5
:1007D300FC780612074E90059575F002EF12079507
:1007E300EE25E02583F583E493FE740193FF8030C7
:1007F300E53254C0FFE5315403FEE4FDFC780612F4
:10080300074E90059575F002EF120795EE25E0254A
:1008130083F583E493FE740193FFAB0DAA0EA90F36
:10082300AD10051075F002EDA4F58285F083EE8F0F
:10083300F01206C1AB0DAA0EA90FAF10051075F08B
:1008430002EFA4F58285F08374D475F0C21206C159
:10085300E532543FFF90051975F004EF120795E454
:1008630025E025E02583F583E493FE740193FFAD32
:1008730010051075F002EDA4F58285F083EE8FF07C
:100883001206C1E532543FFF90051B75F004EF12C9
:100893000795E425E025E02583F583E493FE7401C1
:1008A30093FFAD10051075F002EDA4F58285F0837A
:1008B300EE8FF01206C1AF10051075F002EFA4F52C
:1008C3008285F08374A175F0A01206C1E50A246441
:1008D300FFE433FE7C007D0C120641AF05300502B8
:1008E3008008EF70047F0B80011FEF25E024AFF534
:1008F30082E43405F583E493FE740193FFAB0DAA00
:100903000EA90FAD10051075F002EDA4F58285F068
:0909130083EE8FF01206C1AF1053
:01091C0022B8
:03100500013800AF
:0C1415000000EF1F70011E144E70F52245
:10134800C2B27FD07E07121415D2B27F047E00127B
:091358001415A2B29204A204B320
:011361002269
:060B57008B128A138914C1
:100B5D00C2AF1213489203200303A20322E4F53817
:100B6D0020B20AAF380538EFC3941440F3E538C30B
:100B7D009414400280227F087E00121415E4FDE4D7
:100B8D00FCE4F53820B20AAF380538EFC3941440B1
:100B9D00F3E538C394144005D2B2D2AF227F037E61
:100BAD000012141574182DF8C000E625E0D000F6DB
:100BBD0030B20F74182DF8E64401F67F027E001254
:100BCD0014150CBC08BB0DBD05B5AB12AA13A914A9
:100BDD00E51812060DAB15AA16A917E51A12060D82
:030BED00D2AFD3B1
:010BF00022E2
:1013F600313233263435362537383928301B0D2718
:10100800C100C101C102012D00012E009020010183
:101018000101010101010101010101010101012990
:101028000090000F0F0F0F0F0F0F0F0F0F0F0F0F65
:101038000F0F0F90100101010101010101010101D0
:0E1048000101010101012A00012B00012C0011
:100A7F00E52914601014601314601624037016D245
:100A8F00A0C2A38010D2A3C2A2800AD2A2C2A18008
:100A9F0004D2A1C2A0E52925E025E02400F8E22533
:100AAF00E0FFA2A4E4334FFFE52925E025E0240071
:100ABF00F8EFF2E52925E025E02401F8E225E0FF33
:100ACF00A2A5E4334FFFE52925E025E02401F8EF47
:100ADF00F2E52925E025E02402F8E225E0FFA2A6B1
:100AEF00E4334FFFE52925E025E02402F8EFF2E596
:100AFF002925E025E02403F8E225E0FFA2A7E4334F
:100B0F004FFFE52925E025E02403F8EFF2E4FFE5A8
:100B1F002925E025E024002FF8E2540FFEBE0F0F29
:100B2F00E52925E025E024202FF87401F2800FEE4F
:100B3F00700CE52925E025E024202FF8E4F20FBF03
:070B4F0004CD052953290321
:010B5600227C
:100F1400E4F508E4F509E50825E025E024202509A1
:100F2400F8E2FFE50825E025E024102509F8E2FEB3
:100F34006F603DEE7020E50825E025E024F6F5829B
:100F4400E43413F583E5822509F582E43583F583DA
:100F5400E493FF1212D0E50825E025E024202509BA
:100F6400F8E2FFE50825E025E024102509F8EFF272
:100F74000509E509C39404409D0508E508C39404E4
:020F840040919A
:010F86002248
:10125700E4FCFDFE7B997A03F9F81206EEC37412DB
:101267009FFFE49EF52DEF540FF52E5389F0438928
:0B12770001852D8C852E8AD28CD2A917
:011282002249
:03000B000210FCE4
:0D10FC00C0E0C0D075D000C000C006C00725
:10110900852D8C852E8A052AE52AC394C840207529
:101119002A00D200052BE52B94054005752B00D23A
:1011290001052CE52CC394194005752C00D2021237
:021139000A7F2B
:0B113B00D007D006D000D0D0D0E032AA
:03000000020D11DD
:0C0D1100787FE4F6D8FD758138020D589B
:1005C700BB010689828A83E0225002E722BBFE0232
:0905D700E32289828A83E4932265
:1005E000BB010CE58229F582E5833AF583E02250D0
:1005F00006E92582F8E622BBFE06E92582F8E2221A
:0D060000E58229F582E5833AF583E4932233
:10060D00BB010689828A83F0225002F722BBFE01CC
:02061D00F322C6
:10061F00F8BB010DE58229F582E5833AF583E8F011
:10062F00225006E92582C8F622BBFE05E92582C8BD
:02063F00F222A5
:10064100BC000BBE0029EF8DF084FFADF022E4CC9D
:10065100F875F008EF2FFFEE33FEEC33FCEE9DEC66
:10066100984005FCEE9DFE0FD5F0E9E4CEFD22EDAC
:10067100F8F5F0EE8420D21CFEADF075F008EF2FF6
:10068100FFED33FD4007985006D5F0F222C398FDE7
:050691000FD5F0EA2284
:10069600BB010A89828A83E0F5F0A3E0225006872F
:1006A600F009E71922BBFE07E3F5F009E3192289F1
:0B06B600828A83E493F5F07401932224
:1006C100F8BB0111E58229F582E5833AF583E8F06B
:1006D100E5F0A3F0225009E92582C8F608A6F02228
:0D06E100BBFE09E92582C8F2E5F008F2220F
:1006EE00E88FF0A4CC8BF0A42CFCE98EF0A42CFCAB
:1006FE008AF0EDA42CFCEA8EF0A4CDA8F08BF0A429
:10070E002DCC3825F0FDE98FF0A42CCD35F0FCEB87
:10071E008EF0A4FEA9F0EB8FF0A4CFC5F02ECD394C
:0F072E00FEE43CFCEAA42DCE35F0FDE43CFC22B9
:10073D00EB9FF5F0EA9E42F0E99D42F0E89C45F012
:01074D002289
:10074E00E8600FECC313FCED13FDEE13FEEF13FF89
:03075E00D8F122AD
:10076100E86010ECA2E713FCED13FDEE13FEEF13AE
:04077100FFD8F0229B
:10077500E493FC740193FD740293FE740393FF22CA
:10078500E493F8740193F9740293FA740393FB22CA
:0C079500A42582F582E5F03583F583226F
:100D1D00021227E493A3F8E493A34003F68001F2B3
:100D2D0008DFF48029E493A3F85407240CC8C333D7
:100D3D00C4540F4420C8834004F456800146F6DFA6
:100D4D00E4800B0102040810204080900FF9E47E2E
:100D5D00019360BCA3FF543F30E509541FFEE4939B
:100D6D00A360010ECF54C025E060A840B8E493A362
:100D7D00FAE493A3F8E493A3C8C582C8CAC583CA8D
:100D8D00F0A3C8C582C8CAC583CADFE9DEE780BE45
:011056000099
:00000001FF
