:041EFA00EF1203D50B
:101EFE00E4FF7E01EE600F3091024207D290C29055
:061F0E00EE25E0FE80EE6E
:011F140022AA
:041EDD00120396FF57
:101EE1007E01EE60135F7004C2918002D291D290A4
:081EF100C290EE25E0FE80EA3C
:011EF90022C6
:101BEB00D2927FBF121EE1121EFE900005121EFA4A
:101BFB00900004121EFA900003121EFA90000212BB
:101C0B001EFA900001121EFA900006121EFAEF1235
:101C1B0003C3C292E92405F9E43AFA12037D547F17
:031C2B000203C3EE
:101CAC00D2927FBE121EE1900005121EDD90000440
:101CBC00121EDD900003121EDD900002121EDD903C
:101CCC000001121EDD900006121EDD12037DFF12B4
:0A1CDC001EE1E4FF121EE1C2922295
:101FF300D292EF25E04481FF121EE1121EFEC2922F
:0120030022BA
:101FE000D292EF25E04480FF121EE1AF05121EE100
:031FF000C2922278
:101CE600750817750905750A09750B12750C55E403
:101CF600F50D750E02C290C292FF121FF3EF30E788
:101D060010E4FD7F07121FE07B007A007908121CA1
:011D1600AC20
:011D170022A9
:1010ED00200000000000183033986FEC58341110B8
:1010FD003118311831D8101018300FE007C01C709E
:10110D0000000000010041042008139007C00FE00B
:10111D00DFF61FF00FE007C0139020084104010017
:10112D0000000000078003C001E001F000F800F8A6
:10113D0000F800F800F801F003F007E00FC01F0001
:10114D00000000007FFE6006600660066006600617
:10115D0060067FFE7FFE601E6C1E6C1E6C1E601E88
:10116D007FFE000000000000008001C0036006301B
:10117D00041004100C18180C3FFE014000800000F4
:10118D000000000000000000308019C00F60063024
:10119D00073005900CD8186C3FFE0158008C0006E6
:1011AD0000000008040C020A060E0109050D030BD0
:1011BD00070FA1A0A1A0A1A0A1A0A1A0A1A0A1A045
:0211CD00A1A0DF
:101F8E00EF540F9011AF93C454F0FEEFC4540F935F
:041F9E004206AF0642
:011FA200221C
:071F2F00AE07121F8EAE0782
:101F3600C285D286D287E5A05401FFC28770F5C25A
:011F46008713
:011F47002277
:091F6100FF121F6AE50A4480FF2B
:0E1F6A00121F2FC285C286D2878EA0C2872288
:061FB80014F912037DFF85
:0E1FBE00121F2FD285C286D2878EA0C2872224
:101EA1007F30121F6A7F0C121F6A7F01121F6A7B2B
:0E1EB100FF7A1079ED750F01E4FDFF021E1F90
:101E1F008B0C8A0D890E121D9FAB0C050EE50EAAB9
:101E2F000D7002050D121FB8150FE50FD39400505A
:021E3F00E82297
:0A1AB9008F108D118B128A1389140F
:101AC300AF151515EFD39400403EAD11AF10121DA5
:101AD3009F0510E510D394074005E4F5100511ABFD
:101AE30012AA13A91412044CFDACF0ECF516AF05C1
:101AF300AC07FF121FBEAF04121FBE74022514F5FC
:081B030014E43513F51380B85A
:011B0B0022B7
:021D9F00AE078D
:101DA100E4FFED1460101460131460162403701620
:101DB100EE2480FF8010EE2490FF800AEE2488FF3D
:091DC1008004EE2498FF021F6A61
:05203B007F0F021F6A87
:052040007F0C021F6A85
:101F48007F30121F6A7F01121F6A7BFF7A1079EDBA
:091F5800750F01E4FDFF021E1FDC
:06154B008B1B8A1C891DA8
:101551007F34121F6A7F34121F6AE4FCEC4480FF5F
:10156100121F6A7F80121F6AE4F51EAB1B051DE581
:101571001DAA1C7002051C121FB8AB1B051DE51D21
:10158100AA1C7002051C121FB8051EE51EC3940893
:1015910040D90CBC20C6E4FCEC4480FF121F6A7FDA
:1015A10088121F6AE4F51EAB1B051DE51DAA1C7000
:1015B10002051C121FB8AB1B051DE51DAA1C7002FC
:1015C100051C121FB8051EE51EC3940840D90CBCAA
:0C15D10020C67F36121F6A7F30021F6A9E
:0A14B3008F0A8D0B8B0C8A0D890E39
:1014BD007F34121F6A7F34121F6AE50BC3940250EA
:1014CD0031E4FCE50BC454F044804C121F61AB0CAD
:1014DD00050EE50EAA0D7002050D121FB8AB0C0519
:1014ED000EE50EAA0D7002050D121FB80CBC10D31F
:1014FD008038E4FCE50BC454F044804CFF121F6AA5
:10150D00E50A4488FF121F6AAB0C050EE50EAA0D05
:10151D007002050D121FB8AB0C050EE50EAA0D706D
:10152D0002050D121FB80CBC10CAE50BC454F044D3
:0E153D0080121F617F36121F6A7F30021F6A04
:101A61007F34121F6A7F34121F6AE4FBEB4480FF4C
:101A7100121F6A7F80121F6AE4FCE4FF121FBEE49A
:101A8100FF121FBE0CBC08F20BBB20E0E4FBEB44D1
:101A910080FF121F6A7F88121F6AE4FCE4FF121F95
:101AA100BEE4FF121FBE0CBC08F20BBB20E07F3668
:081AB100121F6A7F30021F6A58
:0417E000AB05AA07A4
:1017E4007F34121F6A7F34121F6AEBC394025024A1
:1017F400E4FCEBC454F044804CFF121F6AEA4480BA
:10180400FF121F6AE4FF121FBEE4FF121FBE0CBCCE
:1018140010E08022E4FCEBC454F044804CFF121F1F
:101824006AEA4488FF121F6AE4FF121FBEE4FF1233
:101834001FBE0CBC10E0EBC454F04480FF121F6ABE
:10184400EA4480FF121F6A7F36121F6A7F30021F2C
:011854006A29
:0F2004007BFF7A1179BFC374089FF515021AB9D3
:09185500015500C1050253000019
:101C2E00D2AF12001E12202F121CE6121EA1121D80
:101C3E00CA121A617F01121D18E555701030011A73
:101C4E00C201120CDE300612121A02800DE555B4D6
:0F1C5E000108300205C20212166912176680DAF9
:101DCA007F007E82121E61BF0104D206800AEF7074
:101DDA0004C2068003C206227F017E82121E618F20
:0A1DEA00237F027E82121E618F2407
:011DF40022CC
:101A0200200543200058E54AC4540F75F00AA4FF8C
:101A1200E54A540F7C002FFFEC35F0FEE5236F7092
:101A220001EE703AE54BC4540F75F00AA4FFE54B82
:101A3200540F2FFFEC35F0FEE524B50721ECB50677
:101A42001DD2000220130554E55470020553C394BD
:0E1A52002CE55394014007E4F553F554C2050A
:011A60002263
:101B5D00011F021C031F041E051F061E071F081F61
:101B6D00091E0A1F0B1E0C1F00000000D6DCD2BB85
:101B7D00D6DCB6FED6DCC8FDD6DCCBC4D6DCCEE5D5
:101B8D00D6DCC1F9D6DCC8D5CEC2B6C8A3BACAAAAE
:0A1B9D00B6C8A3BAC4D6D6D3A3BAC3
:10185E000125AA0126AA0127AA01230001240001BD
:04186E002200C1068D
:101F7800E4F51FE51F04FDE4FF122004051FE51F1B
:051F8800C3940340EECC
:011F8D002231
:100CDE00E527B4AA1730060E7BFF7A1079EFE4FDF4
:100CEE00FF1214B38006E4FDFF1217E07B007A00BA
:100CFE007947121BEBE525654C7003020DB4854C4C
:100D0E0025E54AC4540F24B07817F2E434A318F240
:100D1E00E54A540F24B07819F2E434A318F2781A85
:100D2E0074A1F20874C3F2E54BC4540F24B0781DBD
:100D3E00F2E434A318F2E54B540F24B0781FF2E41A
:100D4E0034A318F2782074A1F20874C3F2E54CC4EF
:100D5E00540F24B07823F2E434A318F2E54C540F68
:100D6E0024B07825F2E434A318F27BFE7A007916CB
:100D7E007515087D03E4FF121AB9E527654A60264A
:100D8E00854A27E54AC39408400FE54AD394185084
:100D9E00087BFF7A11790F80067BFF7A11792FE499
:100DAE00FD7F051214B3E52665497003020E6185B9
:100DBE00492678267420F208F2087432F20874304C
:100DCE00F2E547C4540F243008F2E547540F24309F
:100DDE0008F2087420F208F2E548C4540F243008D3
:100DEE00F2E548540F243008F2087420F208F2E5B8
:100DFE0049C4540F243008F2E549540F243008F248
:100E0E00783674A1F20874A4F27BFE7A0079267506
:100E1E000F0E7D01E4FF121E1F7BFE7A00793675E0
:100E2E0015017D017F03121AB97BFE7A00793675A2
:100E3E0015017D017F05121AB9E54D75F004A42444
:100E4E0075F9741B35F0FA7BFF7515027D027F0371
:030E5E00121AB9AC
:010E6100226E
:101669007513007514007515087B007A0079091245
:101679001419506CE50875F00A8424B0F50BE434AC
:10168900A3F50AE50875F00A84E5F024B0F50DE440
:1016990034A3F50C750EA1750FE67B007A00790A63
:1016A9007515037D017F03121AB9E50975F00A84DE
:1016B90024B0F50BE434A3F50AE50975F00A84E5CD
:1016C900F024B0F50DE434A3F50C750EA3750FA540
:1016D9007B007A00790A7515037D027F03121AB916
:0116E90022DE
:100FDE00121F487BFF7A1B79957515037D01E4FF7F
:100FEE00121AB97BFF7A1B799B7515037D02E4FFFC
:100FFE00121AB97BFF7A1B79A17515037D03E4FFE5
:10100E00121AB9300658E52375F00A8424B0781701
:10101E00F2E434A318F2E52375F00A84E5F024B067
:10102E007819F2E434A318F2781A74A1F20874C392
:10103E00F2E52475F00A8424B0781DF2E434A31886
:10104E00F2E52475F00A84E5F024B0781FF2E4345A
:10105E00A318F27BFE7A0079167515058022781694
:10106E0074CEF20874B4F20874BFF20874AAF208CF
:10107E0074C6F20874F4F27BFE7A007916751503C5
:10108E007D037F03121AB9E547C4540F75F00AA405
:10109E00FFE547540F2FFF7826F2E548C4540F752D
:1010AE00F00AA4FEE548540F2E08F2FDE549C4549B
:1010BE000F75F00AA4FEE549540F2EFE7825F2FBBB
:1010CE00750DFE750E00750F16120E627824EFF276
:0F10DE007BFE7A007916F515E4FD7F01021AB941
:1019A000E522B40800504E9019AEF82828730219A9
:1019B000C60219CA0219D00219D60219DC0219E2AC
:1019C0000219E80219EE7D0180087D017F06802260
:1019D0007D027F04801C7D037F0180167D037F04D0
:1019E00080107D037F07800AE4FD7F0580047D0170
:1019F0007F02121D9F0522E522D394074003E4F5E0
:021A00002222A0
:101D7300E52214600D146010240270137D027F06A7
:101D8300800AE4FD7F0480047D027F03121D9F050A
:0C1D930022E522D394024003E4F5222252
:1011CF00E547C454F0FFE52875F00A844FF547C48E
:1011DF0054F0FFE52875F00A84E5F04FF547E54830
:1011EF00C454F0FFE52975F00A844FF548C454F054
:1011FF00FFE52975F00A84E5F04FF548E549C45439
:10120F00F0FFE52A75F00A844FF549C454F0FFE565
:10121F002A75F00A84E5F04FF549E54DC454F0FF07
:10122F00E52E75F00A844FF54DC454F0FFE52E7589
:10123F00F00A84E5F04FF54DE54AC454F0FFE52B75
:10124F0075F00A844FF54AC454F0FFE52B75F00A88
:10125F0084E5F04FF54AE54BC454F0FFE52C75F0EB
:10126F000A844FF54BC454F0FFE52C75F00A84E562
:10127F00F04FF54BE54CC454F0FFE52D75F00A84A3
:10128F004FF54CC454F0FFE52D75F00A84E5F04F8F
:0B129F00F54C7B007A007947021CAC84
:10062500E555640260030207EFE522C39407501401
:10063500E4FD7F051220047BFF7A11794FE4FD7FED
:10064500051214B3E522B40800400302088E900693
:100655005AF82828730206720206A00206CE020680
:10066500FC02071D02075602078F0207C8E5287519
:10067500F00A8424307816F2E52875F00A84E5F04E
:10068500243008F27BFE7A007916750F027D017F12
:1006950002121E1F7D017F02020875E52975F00A09
:1006A5008424307816F2E52975F00A84E5F02430C3
:1006B50008F27BFE7A007916750F027D017F041220
:1006C5001E1F7D017F04020875E52A75F00A842442
:1006D500307816F2E52A75F00A84E5F0243008F240
:1006E5007BFE7A007916750F027D017F06121E1FAB
:1006F5007D017F06020875E52E75F004A42475F9C1
:10070500741B35F0FA7BFF7515027D027F03121A03
:10071500B97D027F04020875E52B75F00A8424B0C3
:100725007819F2E434A318F2E52B75F00A84E5F0A4
:1007350024B0781BF2E434A318F27BFE7A00791812
:100745007515027D03E4FF121AB97D037F010208C6
:1007550075E52C75F00A8424B07819F2E434A318F1
:10076500F2E52C75F00A84E5F024B0781BF2E43448
:10077500A318F27BFE7A0079187515027D037F03B5
:10078500121AB97D037F04020875E52D75F00A84F8
:1007950024B07819F2E434A318F2E52D75F00A8433
:1007A500E5F024B0781BF2E434A318F27BFE7A005E
:1007B50079187515027D037F06121AB97D037F0727
:1007C500020875781874A1F20874CCF2E4FD7F056F
:1007D5001217E07BFE7A007918751501E4FD7F0597
:1007E500121AB9E4FD7F05020875E5556403600337
:1007F50002088EE522146042146078240260030228
:10080500088EE52375F00A8424B07819F2E434A340
:1008150018F2E52375F00A84E5F024B0781BF2E4BC
:1008250034A318F27BFE7A0079187515027D027FD4
:1008350002121AB97D027F038036E52475F00A8419
:1008450024B07819F2E434A318F2E52475F00A848B
:10085500E5F024B0781BF2E434A318F27BFE7A00AD
:1008650079187515027D027F05121AB97D027F067A
:10087500021D9F7BFF3006067A11796F80047A117D
:09088500798FE4FD7F041214B325
:01088E002247
:10136200E522B408004003021416901373F82828EB
:101372007302138B02139C0213AA0213DB0213E9FA
:101382000213F70214050214130528E528D3946307
:101392005003021416E4F528807A0529E529D3942E
:1013A2000C4071752901806C052AE5285403700EE2
:1013B200E529B40209E52AD3941D40588016E5298F
:1013C20025E0245CF582E4341BF583E493FFE52AEF
:1013D200D39F4040752A01803B052EE52ED394070A
:1013E2004032752E01802D052BE52BD39417402416
:1013F200E4F52B801F052CE52CD3943B4016E4F535
:101402002C8011052DE52DD3943B4008E4F52D8069
:07141200031211CF020625B1
:101DF5007F007E82121EBF3006067D017F008003B4
:101E0500E4FDFF7E82121E81AD237F017E82121EBC
:0A1E150081AD247F027E82021E814F
:101D4600E5221460151460202402701E0523E52385
:101D5600D394174015E4F52380100524E524D39485
:0D1D66003B4007E4F5248002B2060206258A
:10193600E547C4540F75F00AA4FFE547540F2FF589
:1019460028E548C4540F75F00AA4FFE548540F2F44
:10195600F529E549C4540F75F00AA4FFE549540F6B
:101966002FF52A854D2EE54AC4540F75F00AA4FFBB
:10197600E54A540F2FF52BE54BC4540F75F00AA416
:10198600FFE54B540F2FF52CE54CC4540F75F00AA8
:0A199600A4FFE54C540F2FF52D229D
:100AF9008F09300009D205C20012202FD293E509CF
:070B0900640D6003020C4CB7
:100B1000122021E55564026003020BDA75550312B9
:100B20001F48780C74C4F20874D6F20874A1F20855
:100B300014F20874D6F20874D3F20874A3F208749D
:100B4000BAF27BFE7A00790C751504E4FDFF121AE7
:100B5000B9E4FD7F051217E0E4FDFF1217E07BFF0B
:100B60003006067A11796F80047A11798FE4FD7F5F
:100B7000041214B3E52375F00A8424B0780DF2E46E
:100B800034A318F2E52375F00A84E5F024B0780F59
:100B9000F2E434A318F2781074A1F20874C3F2E5F9
:100BA0002475F00A8424B07813F2E434A318F2E533
:100BB0002475F00A84E5F024B07815F2E434A31823
:100BC000F27BFE7A00790C7515057D027F02121A00
:100BD000B9E4F5227D027F03806C121DF575550284
:100BE000121F48780C74D0F20874A3F20874A1F2B2
:100BF0000814F20874CAF20874B1F20874A3F20877
:100C000074BAF27BFE7A00790C751504E4FDFF12CC
:100C10001AB9E4FD7F051217E0E4FD7F041217E026
:100C2000E4FDFF1217E07BFF7A11794FE4FD7F05A9
:100C30001214B37525AA7526AA120CDE121936E411
:0C0C4000F5227D017F02121D9F02203B67
:100C4C00E509641B703412202FE555B40303121D03
:100C5C00F5E4F555121F48122040E4FD7F041217ED
:100C6C00E0E4FD7F051217E0E4FDFF1217E07525A7
:100C7C00AA7527AA7526AA020CDEE509B42611E589
:100C8C0055B40203021362E55564037044021D4619
:100C9C00E5096427703BE555C39402502405555370
:100CAC005501E555701012202F121F487525AA7595
:100CBC0026AA7527AA22E555B40116122021020F87
:100CCC00DEE555B402030219A0E555B40303121D69
:020CDC00732281
:10088F00004D4AB8000D4A4C000DA5410025AAB6EF
:10089F0000056A49007AADBD00025D5200092D477F
:1008AF00005C95BA000A954E000B4A43004B553732
:1008BF00000AD54A00955ABF0004BA53000A5B4894
:1008CF0000652BBC00052B50000A934500474AB921
:1008DF000006AA4C000AD5410024DAB60004B64A35
:1008EF000069573D000A4E51000D2646005E933AAF
:1008FF00000D534D0005AA430036B53700096D4B67
:10090F0000B4AEBF0004AD53000A4D48006D25BCC6
:10091F00000D254F000D5244005DAA38000B5A4CB4
:10092F0000056D410024ADB600049B4A007A4BBE12
:10093F00000A4B51000AA546005B52BA0006D24E80
:10094F00000ADA4200355B370009374B008497C144
:10095F000004975300064B480066A53C000EA54FB8
:10096F000006B244004AB638000AAE4C00092E42C7
:10097F00003C9735000C9649007D4ABD000D4A5149
:10098F00000DA5450055AABA00056A4E000A6D4331
:10099F0000452EB700052D4B008A95BF000A9553D1
:1009AF00000B4A47006B553B000AD54F00055A45CF
:1009BF00004A5D38000A5B4C00052B42003A93B6A3
:1009CF0000069349007729BD0006AA51000AD546B3
:1009DF000054DABA0004B64E000A574300452738D0
:1009EF00000D264A008E933E000D5252000DAA476D
:1009FF000066B53B00056D4F0004AE45004A4EB989
:100A0F00000A4D4C000D1541002D92B5000000005D
:100A1F000000001F0000003B0000005A000000789B
:100A2F0000000097000000B5000000D4000000F3A4
:100A3F0000000111000001300000014E0000000015
:100A4F00B3F5D2BBB3F5B6FEB3F5C8FDB3F5CBC462
:100A5F00B3F5CEE5B3F5C1F9B3F5C6DFB3F5B0CB5A
:100A6F00B3F5BEC5B3F5CAAECAAED2BBCAAEB6FEFB
:100A7F00CAAEC8FDCAAECBC4CAAECEE5CAAEC1F9C6
:100A8F00CAAEC6DFCAAEB0CBCAAEBEC5B6FECAAE20
:100A9F00D8A5D2BBD8A5B6FED8A5C8FDD8A5CBC4BE
:100AAF00D8A5CEE5D8A5C1F9D8A5C6DFD8A5B0CBB6
:100ABF00D8A5BEC5C8FDCAAE0000D5FDB6FEC8FD9F
:100ACF00CBC4CEE5C1F9C6DFB0CBBEC5CAAEB6AC9E
:100ADF00C0B0CAF3C5A3BBA2CDC3C1FAC9DFC2ED73
:0A0AEF00D1F2BAEFBCA6B9B7D6EDFC
:06002E008F118D128B13EF
:1000340075F004EFA4248BF582E5F03408F58312FF
:1000440005F9EF5460FFE4FEFDFC78051205D2E4E7
:100054007B01FAF9F8C31205C175F0047020E511AB
:10006400A4248BF582E5F03408F5831205F9EF54E6
:100074001FFFEF24FFF515E434FFF514801DE5118F
:10008400A4248BF582E5F03408F5831205F9EF54C6
:100094001FFFEF241EF515E433F514E51225E025C2
:1000A400E02417F582E4340AF5831205F97C00EFA5
:1000B4002513FFEC3ECF24FFF517EF34FFF516E5CB
:1000C400115403700FE512D3940240080517E51785
:1000D40070020516C3E5179515E51695145003022D
:1000E40001E1D207E5179515F517E5169514F516F0
:1000F400751201751801E4F519FFFE7D08FCE51879
:1001040014F9F81205E575F004E511A4248BF582C1
:10011400E5F03408F583120609EB5FFFEA5EFEE9B9
:100124005DFDE85CFCE4FBFAF9F8C31205C1700359
:100134000201D00201D6AF1A7E00C3E5179FE5166F
:100144009E50030201DCE5179FF517E5169EF51690
:10015400051875F004E511A4248BF582E5F0340844
:10016400F5831205F9E4FFFEED54F0FDE4FC781488
:100174001205D2A804A905AA06AB07AF12E4FCFD38
:10018400FEC31205C1700B6319FFE5197006051251
:1001940080020512E4FFFE7D08FCE51814F9F8124C
:1001A40005E575F004E511A4248BF582E5F0340827
:1001B400F583120609EB5FFFEA5EFEE95DFDE85C8C
:1001C400FCE4FBFAF9F8C31205C17006751A1D02A6
:1001D400013A751A1E02013AE51702030CC207C35D
:1001E400E5159517F515E5149516F5141511751201
:1001F4000C75F004E511A4248BF582E5F03408F5C0
:10020400831205F9E4FFFEED54F0FDE4FC781412CA
:1002140005D2E4FBFAF9F8C31205C1700575180C90
:10022400800375180DE4F519FFFE7D08FCE518142C
:10023400F9F81205E575F004E511A4248BF582E5BF
:10024400F03408F583120609EB5FFFEA5EFEE95D10
:10025400FDE85CFCE4FBFAF9F8C31205C170030283
:1002640002FB020301AF1A7E00D3E5159FE5149E3D
:100274005003020307E5159FF515E5149EF51415C3
:1002840018E5197002151275F004E511A4248BF514
:1002940082E5F03408F5831205F9E4FFFEED54F02D
:1002A400FDE4FC78141205D2A804A905AA06AB073C
:1002B400AF12E4FCFDFEC31205C170036319FFE431
:1002C400FFFE7D08FCE51814F9F81205E575F00445
:1002D400E511A4248BF582E5F03408F583120609B0
:1002E400EB5FFFEA5EFEE95DFDE85CFCE4FBFAF926
:1002F400F8C31205C17006751A1D020269751A1E2B
:10030400020269C3E51A951504F513E5524513F580
:1003140052E551F551E550F550E54FF54FE51275AD
:10032400F040A4FFAEF0EE3395E0FDFCE5524FF54E
:1003340052E5514EF551E5504DF550E54F4CF54F12
:1003440075F004E511A4248BF582E5F03408F583F7
:100354001205F9E4FFFEED54F0FDE4FC78141205F7
:10036400D2A804A905AA06AB07AF12E4FCFDFEC39C
:080374001205C17002D322C37F
:01037C00225E
:020E62008F0AF5
:100E6400E4F51012002E5048AB0DAA0EA90FAF10D6
:100E7400051075F002EFA4F58285F08374C875F04F
:100E8400F2120477E55254C0FFE5515403FEE4FD29
:100E9400FC78061205D2900AC775F002EF12061903
:100EA400EE25E02583F583E493FE740193FF8030FF
:100EB400E55254C0FFE5515403FEE4FDFC780612EC
:100EC40005D2900AC775F002EF120619EE25E02547
:100ED40083F583E493FE740193FFAB0DAA0EA90F6F
:100EE400AD10051075F002EDA4F58285F083EE8F48
:100EF400F0120477AB0DAA0EA90FAF10051075F010
:100F040002EFA4F58285F08374D475F0C2120477DD
:100F1400E552543FFF900A4B75F004EF120619E4B2
:100F240025E025E02583F583E493FE740193FFAD6A
:100F340010051075F002EDA4F58285F083EE8FF0B4
:100F4400120477E552543FFF900A4D75F004EF12F6
:100F54000619E425E025E02583F583E493FE740176
:100F640093FFAD10051075F002EDA4F58285F083B2
:100F7400EE8FF0120477AF10051075F002EFA4F5B0
:100F84008285F08374A175F0A0120477E50A2464C5
:100F9400FFE433FE7C007D0C1203F7AF053007023B
:100FA4008008EF70047F0B80011FEF25E024E1F53A
:100FB40082E4340AF583E493FE740193FFAB0DAA33
:100FC4000EA90FAD10051075F002EDA4F58285F0A1
:090FD40083EE8FF0120477AF10D8
:010FDD0022F1
:031872000156001C
:0C000E000000EF1F70011E144E70F52260
:101F1500C2947FD07E0712000ED2947F047E0012F9
:091F2500000EA2949204A204B380
:011F2E002290
:061419008B108A118912FC
:10141F00C2AF121F159203200303A20322E4F55655
:10142F0020940AAF560556EFC3941440F3E556C304
:10143F009414400280227F087E0012000EE4FDE427
:10144F00FCE4F55620940AAF560556EFC3941440AA
:10145F00F3E556C394144005D294D2AF227F037E96
:10146F000012000E74162DF8C000E625E0D000F62D
:10147F0030940F74162DF8E64401F67F037E0012A8
:10148F00000E0CBC08BB0DBD05B5AB10AA11A912FF
:10149F00E5161203C3AB13AA14A915E5181203C35B
:0314AF00D2AFD3E6
:0114B2002217
:04204500261B0D2722
:10187500C101C102C100013A00013B008408010118
:10188500010184000F0F0F0F8404010101010230D3
:101895000000023203E80134000135000136000181
:0618A500370002380000CC
:101B0C007800E225E0FFA282E4334FF208E225E000
:101B1C00FFA281E4334FF208E225E0FFA283E43315
:101B2C004FF208E225E0FFA284E4334FF2E4FF74A5
:101B3C00002FF8E2540FFEBE0F0974082FF8740141
:101B4C00F28009EE700674082FF8E4F20FBF04DF80
:011B5C002266
:10176600E4F508E508902045936426703674042550
:1017760008F8E270230531E53170020530D3953360
:10178600E5309532401D7F26120AF974642533F53B
:1017960033E43532F532800BE4F530F5317532033A
:1017A6007533E874082508F8E2FF74042508F8E2A2
:1017B600FE6F601CEEB4010AE50890204593FF1207
:1017C6000AF974082508F8E2FF74042508F8EFF210
:0917D6000508E508C39404408AEB
:0117DF0022E7
:101D1800E4FCFDFE7B997A03F9F81204A4C374125B
:101D28009FFFE49EF53AEF540FF53B5389F0438942
:0D1D380001853A8C853B8AD28CD2A9D2BBA2
:011D4500227B
:03000B000212AA34
:1012AA00C0E0C083C082C0D075D000C000C006C0F4
:0112BA00072C
:1012BB00853A8C853B8A0534E534C39464401E75AE
:1012CB0034000535E53594024005753500D201052E
:1012DB0036E536C3940A4005753600D202300065F8
:1012EB00E537B40800505E9012F9F8282873021302
:1012FB001102131C02131302131C02131302131CEF
:10130B00021329021346C293E534C394634036801B
:10131B0024E534C39463402D0537C29380270539E8
:10132B00E53970020538C3942CE5389401401675E5
:10133B0038007539000537D293800AE534C39463BE
:08134B004003753700121B0C72
:0F135300D007D006D000D0D0D082D083D0E032E7
:101E410001030507090B0D0F1214171B1E23292E61
:101E510033383C4144484B4E5356585A5D5F616498
:1018AB00013E0001430001440001450001460004D4
:0D18BB003F00000000C108013C00013D009D
:101FCC0075CB4C75CA29E4F5C885CBCD85CACCC276
:041FDC00CAC2AD22A6
:0218C9008D0888
:1018CB00AB07AA06E4F9F8FF7E107D0EFC121BA7EE
:1018DB008F428E418D408C3FAF08E4FCFDFEAB4246
:1018EB00AA41A940A83F1204A4E47B64FAF9F812B8
:1018FB00052FAD07AC06C3E5429DFFE5419CAB0749
:10190B00FAC3740C9DFDE49CFCC3740C9BFBE49A22
:10191B008C438D44F5458B4653890F438910854382
:0A192B008D85448BC2ABC28ED280C2
:01193500228F
:101C6D00E4FCFDFEAB42AA41A940A83F1204A4E446
:101C7D007B64FAF9F812052FAD07AC06C3E5429D5A
:101C8D00FFE5419CAB07FAC3740C9DFDE49CFCC3BE
:0E1C9D00740C9BFBE49A8C438D44F5458B46FA
:011CAB002216
:03001B00021FA31E
:101FA30030800985458D85468BC2803285438D857A
:051FB300448BD28032D6
:03002B000216EAD0
:1016EA00C0E0C0F0C083C082C0D075D000C000C0C6
:0D16FA0001C002C003C004C005C006C00747
:10170700C2CFE53E14602814603524027036E53CEC
:10171700901E4193FF121C6D20080D053CE53CC34C
:10172700941D4020D208801CD53C19C2088015059D
:101737003DE53DD39402400C753D00B28080052005
:041747008002D280CA
:10174B00D007D006D005D004D003D002D001D000F2
:0B175B00D0D0D082D083D0F0D0E0329C
:0C001E007D0A7F647E001218C9021FCC0E
:0C202F00E4F53ED2ABD28ED2ADD2CA2274
:0E201300753E01C280C2ABC28ED2ADD2CA22CF
:0E202100753E02C2ABC28EC2ADC2CAD28022D0
:08000300E4F5E7F5E5F5E6225E
:101E6100AD07AC06C2AF75E78175E5018CE3EDF511
:101E7100E475E64675E6B900120003D2AFAFE2227F
:101E8100AB07AA06C2AF75E78175E5028AE3EBF5F8
:101E9100E48DE275E64675E6B900120003D2AF2281
:101EBF00AD07AC06C2AF75E78175E5038CE3EDF5B1
:0E1ECF00E475E64675E6B900120003D2AF22B4
:030000000215DD09
:0C15DD00787FE4F6D8FD758156021624D4
:10037D00BB010689828A83E0225002E722BBFE027E
:09038D00E32289828A83E49322B1
:10039600BB010CE58229F582E5833AF583E022501C
:1003A60006E92582F8E622BBFE06E92582F8E22266
:0D03B600E58229F582E5833AF583E4932280
:1003C300BB010689828A83F0225002F722BBFE0119
:0203D300F32213
:1003D500F8BB010DE58229F582E5833AF583E8F05E
:1003E500225006E92582C8F622BBFE05E92582C80A
:0203F500F222F2
:1003F700BC000BBE0029EF8DF084FFADF022E4CCEA
:10040700F875F008EF2FFFEE33FEEC33FCEE9DECB2
:10041700984005FCEE9DFE0FD5F0E9E4CEFD22EDF8
:10042700F8F5F0EE8420D21CFEADF075F008EF2F42
:10043700FFED33FD4007985006D5F0F222C398FD33
:050447000FD5F0EA22D0
:10044C00BB010A89828A83E0F5F0A3E0225006877B
:10045C00F009E71922BBFE07E3F5F009E31922893D
:0B046C00828A83E493F5F07401932270
:10047700F8BB0111E58229F582E5833AF583E8F0B7
:10048700E5F0A3F0225009E92582C8F608A6F02274
:0D049700BBFE09E92582C8F2E5F008F2225B
:1004A400E88FF0A4CC8BF0A42CFCE98EF0A42CFCF7
:1004B4008AF0EDA42CFCEA8EF0A4CDA8F08BF0A475
:1004C4002DCC3825F0FDE98FF0A42CCD35F0FCEBD4
:1004D4008EF0A4FEA9F0EB8FF0A4CFC5F02ECD3999
:0F04E400FEE43CFCEAA42DCE35F0FDE43CFC2206
:1004F30075F008758200EF2FFFEE33FECD33CDCCC0
:1005030033CCC58233C5829BED9AEC99E582984042
:100513000CF582EE9BFEED9AFDEC99FC0FD5F0D61F
:10052300E4CEFBE4CDFAE4CCF9A88222B800C1B949
:100533000059BA002DEC8BF084CFCECDFCE5F0CB87
:10054300F97818EF2FFFEE33FEED33FDEC33FCEBC0
:1005530033FB10D703994004EB99FB0FD8E5E4F97B
:10056300FA227818EF2FFFEE33FEED33FDEC33FC68
:10057300C933C910D7059BE99A4007EC9BFCE99A5C
:10058300F90FD8E0E4C9FAE4CCFB2275F010EF2FA1
:10059300FFEE33FEED33FDCC33CCC833C810D707A1
:1005A3009BEC9AE899400AED9BFDEC9AFCE899F8DC
:0E05B3000FD5F0DAE4CDFBE4CCFAE4C8F9226F
:101BA700C2D5E830E70FB2D5E4C39BFBE49AFAE469
:101BB70099F9E498F8EC30E717B2D5121BDD120556
:101BC7002FE4C39BFBE49AFAE499F9E498F88003BD
:101BD70012052F30D50DE4C39FFFE49EFEE49DFD63
:041BE700E49CFC225C
:1005C100EB9FF5F0EA9E42F0E99D42F0E89C45F090
:0105D1002207
:1005D200E8600FECC313FCED13FDEE13FEEF13FF07
:0305E200D8F1222B
:1005E500E86010ECA2E713FCED13FDEE13FEEF132C
:0405F500FFD8F02219
:1005F900E493FC740193FD740293FE740393FF2248
:10060900E493F8740193F9740293FA740393FB2247
:0C061900A42582F582E5F03583F58322EC
:1015E900021C2EE493A3F8E493A34003F68001F2CE
:1015F90008DFF48029E493A3F85407240CC8C33303
:10160900C4540F4420C8834004F456800146F6DFD1
:10161900E4800B0102040810204080901855E47EF4
:10162900019360BCA3FF543F30E509541FFEE493C6
:10163900A360010ECF54C025E060A840B8E493A38D
:10164900FAE493A3F8E493A3C8C582C8CAC583CAB8
:10165900F0A3C8C582C8CAC583CADFE9DEE780BE70
:0118C800001F
:00000001FF
