:041EDD00EF1203D528
:101EE100E4FF7E01EE600F30B4024207D2B5C2B505
:061EF100EE25E0FE80EE8C
:011EF70022C8
:041EC000120396FF74
:101EC4007E01EE60135F7004C2B48002D2B4D2B556
:081ED400C2B5EE25E0FE80EA34
:011EDC0022E3
:101CA900D2977FBF121EC4121EE1900005121EDDDD
:101CB900900004121EDD900003121EDD9000021236
:101CC9001EDD900001121EDD900006121EDDEF12CE
:101CD90003C3C297E92405F9E43AFA12037D547F54
:031CE9000203C330
:101D2B00D2977FBE121EC4900005121EC0900004F5
:101D3B00121EC0900003121EC0900002121EC09013
:101D4B000001121EC0900006121EC012037DFF126E
:0A1D5B001EC4E4FF121EC4C297224A
:101FBE00D297EF25E04481FF121EC4121EE1C29794
:011FCE0022F0
:101F9900D297EF25E04480FF121EC4AF05121EC47C
:031FA900C29722BA
:101D9E00750817750905750A09750B12750C55E44A
:101DAE00F50D750E02C2B5C297FF121FBEEF30E7DA
:101DBE0010E4FD7F07121F997B007A007908121D2F
:011DCE002BE9
:011DCF0022F1
:10136600200000000000183033986FEC583411103C
:101376003118311831D8101018300FE007C01C7022
:1013860000000000010041042008139007C00FE090
:10139600DFF61FF00FE007C013902008410401009C
:1013A60000000000078003C001E001F000F800F82B
:1013B60000F800F800F801F003F007E00FC01F0086
:1013C600000000007FFE600660066006600660069C
:1013D60060067FFE7FFE601E6C1E6C1E6C1E601E0D
:1013E6007FFE000000000000008001C003600630A0
:1013F600041004100C18180C3FFE01400080000079
:101406000000000000000000308019C00F600630A8
:10141600073005900CD8186C3FFE0158008C00066A
:101426000000A1A0A1A0A1A0A1A0A1A0A1A0A1A0EF
:02143600A1A073
:101FAC00C290D291D295E5805480FFC29570F5C253
:011FBC00958F
:011FBD002201
:091F1200FF121F1BE50B4480FFC8
:101F1B00AE07121FACC290C291D2958E80C2952291
:061F440014F912037DFFF9
:101F4A00AE07121FACD290C291D2958E80C2952252
:101EA2007F30121F1B7F0C121F1B7F01121F1B7B17
:0E1EB200FF7A137966751001E4FDFF021E80B1
:101E80008B0D8A0E890F121E55AB0D050FE50FAA9B
:101E90000E7002050E121F441510E510D394005069
:021EA000E82236
:0A1BCE008F138D148B158A168917EA
:101BD800AF181518EFD394004038AD14AF13121E88
:101BE800550513E513D394074005E4F5130514AB25
:101BF80015AA16A91712044CFDACF0ECFF121F4AE7
:101C0800AF05121F4A74022517F517E43516F516A5
:021C180080BE8C
:011C1A0022A7
:021E5500AE07D6
:101E5700E4FFED1460101460131460162403701669
:101E6700EE2480FF8010EE2490FF800AEE2488FF86
:091E77008004EE2498FF021F1BF9
:050003007F0F021F1B2E
:052026007F0C021F1BEE
:101F2B007F30121F1B7F01121F1B7BFF7A137966F9
:091F3B00751001E4FDFF021E8097
:0617EB008B538A5489555E
:1017F1007F34121F1B7F34121F1BE4FCEC4480FF5B
:10180100121F1B7F80121F1BE4FDAB530555E555CD
:10181100AA5470020554121F44AB530555E555AA4D
:101821005470020554121F440DBD08DE0CBC20CCBF
:10183100E4FCEC4480FF121F1B7F88121F1BE4FD98
:10184100AB530555E555AA5470020554121F44AB1C
:10185100530555E555AA5470020554121F440DBD98
:1018610008DE0CBC20CC7F36121F1B7F30021F1BF1
:0816CD008F0B8B0C8A0D890EB6
:1016D5007F34121F1B7F34121F1BEDC39402503041
:1016E500E4FCEDC454F044804C121F12AB0C050E03
:1016F500E50EAA0D7002050D121F44AB0C050EE593
:101705000EAA0D7002050D121F440CBC10D48037B3
:10171500E4FCEDC454F044804CFF121F1BE50B4460
:1017250088FF121F1BAB0C050EE50EAA0D700205F6
:101735000D121F44AB0C050EE50EAA0D7002050D2A
:10174500121F440CBC10CBEDC454F04480121F1280
:0A1755007F36121F1B7F30021F1B9E
:101B76007F34121F1B7F34121F1BE4FCEC4480FFD2
:101B8600121F1B7F80121F1BE4FDE4FF121F4AE495
:101B9600FF121F4A0DBD08F20CBC20E0E4FCEC4429
:101BA60080FF121F1B7F88121F1BE4FDE4FF121F1C
:101BB6004AE4FF121F4A0DBD08F20CBC20E07F3636
:081BC600121F1B7F30021F1BE0
:02196B00AB07C8
:10196D007F34121F1B7F34121F1BEDC394025024B2
:10197D00E4FCEDC454F044804CFF121F1BEB44807B
:10198D00FF121F1BE4FF121F4AE4FF121F4A0CBC7B
:10199D0010E08022E4FCEDC454F044804CFF121F93
:1019AD001BEB4488FF121F1BE4FF121F4AE4FF12BA
:1019BD001F4A0CBC10E0EDC454F04480FF121F1BF5
:1019CD00EB4480FF121F1B7F36121F1B7F30021F3F
:0119DD001BEE
:0F1FEF007BFF7A147928C374089FF518021BCE64
:09163500015800C1050256000035
:101D6500D2AF12001E121D9E121EA2121B767F01FB
:101D7500121E29E558701D30010DC201120CCB3021
:101D85000612121B17800DE558B40108300205C272
:091D95000212187112129080DA9A
:101B1700200543200058E54AC4540F75F00AA4FF76
:101B2700E54A540F7C002FFFEC35F0FEE5236F707C
:101B370001EE703AE54BC4540F75F00AA4FFE54B6C
:101B4700540F2FFFEC35F0FEE524B50721ECB50661
:101B57001DD200021FFE0557E55770020556C394B4
:0E1B67002CE55694014007E4F556F557C205EB
:011B7500224D
:101C1B00011F021C031F041E051F061E071F081FA2
:101C2B00091E0A1F0B1E0C1F00000000D6DCD2BBC6
:101C3B00D6DCB6FED6DCC8FDD6DCCBC4D6DCCEE516
:101C4B00D6DCC1F9D6DCC8D5CEC2B6C8A3BACAAAEF
:0A1C5B00B6C8A3BAC4D6D6D3A3BA04
:10163E000125AA0126AA0127AA01230001240001DF
:04164E002200C106AF
:101F5A00E4F51EE51E04FDE4FF121FEF051EE51E53
:051F6A00C3940340EEEA
:011F6F00224F
:100CCB00E527B4AA1730060E7BFF7A137968E4FD8B
:100CDB00FF1216CD8006E4FDFF12196B7B007A0024
:100CEB007947121CA9E525654C7003020DA1854CB3
:100CFB0025E54AC4540F24B0783BF2E434A318F230
:100D0B00E54A540F24B0783DF2E434A318F2783E50
:100D1B0074A1F20874C3F2E54BC4540F24B07841AC
:100D2B00F2E434A318F2E54B540F24B07843F2E409
:100D3B0034A318F2784474A1F20874C3F2E54CC4DE
:100D4B00540F24B07847F2E434A318F2E54C540F57
:100D5B0024B07849F2E434A318F27BFE7A00793A96
:100D6B007518087D03E4FF121BCEE527654A602644
:100D7B00854A27E54AC39408400FE54AD394185097
:100D8B00087BFF7A13798880067BFF7A1379A8E4B6
:100D9B00FD7F051216CDE52665497003020E4E85C3
:100DAB004926784A7420F208F2087432F20874303B
:100DBB00F2E547C4540F243008F2E547540F2430B2
:100DCB0008F2087420F208F2E548C4540F243008E6
:100DDB00F2E548540F243008F2087420F208F2E5CB
:100DEB0049C4540F243008F2E549540F243008F25B
:100DFB00785A74A1F20874A4F27BFE7A00794A75D2
:100E0B00100E7D01E4FF121E807BFE7A00795A756D
:100E1B0018017D017F03121BCE7BFE7A00795A7578
:100E2B0018017D017F05121BCEE54D75F004A4243E
:100E3B0033F9741C35F0FA7BFF7518027D027F03C2
:030E4B00121BCEA9
:010E4E002281
:1018710075160075170075180B7B007A00790C122C
:10188100159BE50B75F00A8424B0F50EE434A3F53D
:101891000DE50B75F00A84E5F024B0F510E434A3EE
:1018A100F50F7511A17512E67B007A00790D751897
:1018B100037D017F03121BCEE50C75F00A8424B071
:1018C100F50EE434A3F50DE50C75F00A84E5F0247A
:1018D100B0F510E434A3F50F7511A37512A57B00C3
:0E18E1007A00790D7518037D027F03021BCE7D
:100FCB00121F2B7BFF7A1C79537518037D01E4FFED
:100FDB00121BCE7BFF7A1C79597518037D02E4FF37
:100FEB00121BCE7BFF7A1C795F7518037D03E4FF20
:100FFB00121BCE300658E52375F00A8424B0783BDB
:10100B00F2E434A318F2E52375F00A84E5F024B07A
:10101B00783DF2E434A318F2783E74A1F20874C35D
:10102B00F2E52475F00A8424B07841F2E434A31875
:10103B00F2E52475F00A84E5F024B07843F2E43449
:10104B00A318F27BFE7A00793A7518058022783A5C
:10105B0074CEF20874B4F20874BFF20874AAF208E2
:10106B0074C6F20874F4F27BFE7A00793A751803B1
:10107B007D037F03121BCE121871E547C4540F7505
:10108B00F00AA4FFE547540F2FFF784AF2E548C456
:10109B00540F75F00AA4FEE548540F2E08F2FDE537
:1010AB0049C4540F75F00AA4FEE549540F2EFE787F
:1010BB0049F2FB750EFE750F0075103A120E4F7844
:1010CB0048EFF27BFE7A00793AF518E4FD7F0102D6
:0210DB001BCE2A
:101AB500E522B40800504E901AC3F8282873021A7C
:101AC500DB021ADF021AE5021AEB021AF1021AF713
:101AD500021AFD021B037D0180087D017F0680221D
:101AE5007D027F04801C7D037F0180167D037F04BA
:101AF50080107D037F07800AE4FD7F0580047D015A
:101B05007F02121E550522E522D394074003E4F512
:021B150022228A
:101DFD00E52214600D146010240270137D027F061D
:101E0D00800AE4FD7F0480047D027F03121E5505C8
:0C1E1D0022E522D394024003E4F52222C7
:1010DD00E547C454F0FFE52875F00A844FF547C481
:1010ED0054F0FFE52875F00A84E5F04FF547E54823
:1010FD00C454F0FFE52975F00A844FF548C454F047
:10110D00FFE52975F00A84E5F04FF548E549C4542B
:10111D00F0FFE52A75F00A844FF549C454F0FFE558
:10112D002A75F00A84E5F04FF549E54DC454F0FFFA
:10113D00E52E75F00A844FF54DC454F0FFE52E757C
:10114D00F00A84E5F04FF54DE54AC454F0FFE52B68
:10115D0075F00A844FF54AC454F0FFE52B75F00A7B
:10116D0084E5F04FF54AE54BC454F0FFE52C75F0DE
:10117D000A844FF54BC454F0FFE52C75F00A84E555
:10118D00F04FF54BE54CC454F0FFE52D75F00A8496
:10119D004FF54CC454F0FFE52D75F00A84E5F04F82
:0B11AD00F54C7B007A007947021D2BF7
:10062500E558640260030207EFE522C394075014FE
:10063500E4FD7F05121FEF7BFF7A1379C8E4FD7F88
:10064500051216CDE522B40800400302088E900677
:100655005AF82828730206720206A00206CE020680
:10066500FC02071D02075602078F0207C8E5287519
:10067500F00A842430783AF2E52875F00A84E5F02A
:10068500243008F27BFE7A00793A7510027D017FED
:1006950002121E807D017F02020875E52975F00AA8
:1006A500842430783AF2E52975F00A84E5F024309F
:1006B50008F27BFE7A00793A7510027D017F0412FB
:1006C5001E807D017F04020875E52A75F00A8424E1
:1006D50030783AF2E52A75F00A84E5F0243008F21C
:1006E5007BFE7A00793A7510027D017F06121E8025
:1006F5007D017F06020875E52E75F004A42433F903
:10070500741C35F0FA7BFF7518027D027F03121BFE
:10071500CE7D027F04020875E52B75F00A8424B0AE
:10072500783DF2E434A318F2E52B75F00A84E5F080
:1007350024B0783FF2E434A318F27BFE7A00793CCA
:100745007518027D03E4FF121BCE7D037F010208AD
:1007550075E52C75F00A8424B0783DF2E434A318CD
:10076500F2E52C75F00A84E5F024B0783FF2E43424
:10077500A318F27BFE7A00793C7518027D037F038E
:10078500121BCE7D037F04020875E52D75F00A84E2
:1007950024B0783DF2E434A318F2E52D75F00A840F
:1007A500E5F024B0783FF2E434A318F27BFE7A003A
:1007B500793C7518027D037F06121BCE7D037F07EA
:1007C500020875783C74A1F20874CCF2E4FD7F054B
:1007D50012196B7BFE7A00793C751801E4FD7F05E3
:1007E500121BCEE4FD7F05020875E558640360031E
:1007F50002088EE522146042146078240260030228
:10080500088EE52375F00A8424B0783DF2E434A31C
:1008150018F2E52375F00A84E5F024B0783FF2E498
:1008250034A318F27BFE7A00793C7518027D027FAD
:1008350002121BCE7D027F038036E52475F00A8403
:1008450024B0783DF2E434A318F2E52475F00A8467
:10085500E5F024B0783FF2E434A318F27BFE7A0089
:10086500793C7518027D027F05121BCE7D027F063D
:10087500021E557BFF3006067A1379E880047A1448
:090885007908E4FD7F041216CD90
:01088E002247
:10143800E522B4080040030214EC901449F8282867
:10144800730214610214720214800214B10214BFF0
:101458000214CD0214DB0214E90528E528D39463AD
:1014680050030214ECE4F528807A0529E529D39481
:101478000C4071752901806C052AE5285403700E0B
:10148800E529B40209E52AD3941D40588016E529B8
:1014980025E0241AF582E4341CF583E493FFE52A59
:1014A800D39F4040752A01803B052EE52ED3940733
:1014B8004032752E01802D052BE52BD3941740243F
:1014C800E4F52B801F052CE52CD3943B4016E4F55E
:1014D8002C8011052DE52DD3943B4008E4F52D8093
:0714E800031210DD020625CE
:101DD000E5221460151460202402701E0523E523FB
:101DE000D394174015E4F52380100524E524D394FB
:0D1DF0003B4007E4F5248002B20602062500
:101A4B00E547C4540F75F00AA4FFE547540F2FF573
:101A5B0028E548C4540F75F00AA4FFE548540F2F2E
:101A6B00F529E549C4540F75F00AA4FFE549540F55
:101A7B002FF52A854D2EE54AC4540F75F00AA4FFA5
:101A8B00E54A540F2FF52BE54BC4540F75F00AA400
:101A9B00FFE54B540F2FF52CE54CC4540F75F00A92
:0A1AAB00A4FFE54C540F2FF52D2287
:100AF9008F0A300007D205C20012201AE50A640DD8
:050B09006003020C472F
:100B0E0012200CE55864026003020BD875580312CC
:100B1E001F2B783074C4F20874D6F20874A1F20850
:100B2E0014F20874D6F20874D3F20874A3F208749F
:100B3E00BAF27BFE7A007930751804E4FDFF121BC1
:100B4E00CEE4FD7F0512196BE4FDFF12196B7BFFDE
:100B5E003006067A1379E880047A147908E4FD7F6A
:100B6E00041216CDE52375F00A8424B07831F2E430
:100B7E0034A318F2E52375F00A84E5F024B0783337
:100B8E00F2E434A318F2783474A1F20874C3F2E5D7
:100B9E002475F00A8424B07837F2E434A318F2E511
:100BAE002475F00A84E5F024B07839F2E434A31801
:100BBE00F27BFE7A0079307518057D027F02121BDA
:100BCE00CEE4F5227D027F038069755802121F2B39
:100BDE00783074D0F20874A3F20874A1F20814F2FB
:100BEE000874CAF20874B1F20874A3F20874BAF267
:100BFE007BFE7A007930751804E4FDFF121BCEE4FB
:100C0E00FD7F0512196BE4FD7F0412196BE4FDFFE5
:100C1E0012196B7BFF7A1379C8E4FD7F051216CD8E
:100C2E007525AA7526AA120CCB121A4BE4F5227D55
:090C3E00017F02121E55020003A1
:100C4700E50A641B702C12201AE4F558121F2B12A8
:100C57002026E4FD7F0412196BE4FD7F0512196B52
:100C6700E4FDFF12196B7525AA7527AA7526AA0236
:100C77000CCBE50AB42611E558B40203021438E593
:100C8700586403703E021DD0E50A64277035E558A5
:100C9700C39402501E0558535801E558700D121F92
:100CA7002B7525AA7526AA7527AA22E558B401131C
:100CB700020FCBE558B40203021AB5E558B4030393
:040CC700121DFD22DB
:10088F00004D4AB8000D4A4C000DA5410025AAB6EF
:10089F0000056A49007AADBD00025D5200092D477F
:1008AF00005C95BA000A954E000B4A43004B553732
:1008BF00000AD54A00955ABF0004BA53000A5B4894
:1008CF0000652BBC00052B50000A934500474AB921
:1008DF000006AA4C000AD5410024DAB60004B64A35
:1008EF000069573D000A4E51000D2646005E933AAF
:1008FF00000D534D0005AA430036B53700096D4B67
:10090F0000B4AEBF0004AD53000A4D48006D25BCC6
:10091F00000D254F000D5244005DAA38000B5A4CB4
:10092F0000056D410024ADB600049B4A007A4BBE12
:10093F00000A4B51000AA546005B52BA0006D24E80
:10094F00000ADA4200355B370009374B008497C144
:10095F000004975300064B480066A53C000EA54FB8
:10096F000006B244004AB638000AAE4C00092E42C7
:10097F00003C9735000C9649007D4ABD000D4A5149
:10098F00000DA5450055AABA00056A4E000A6D4331
:10099F0000452EB700052D4B008A95BF000A9553D1
:1009AF00000B4A47006B553B000AD54F00055A45CF
:1009BF00004A5D38000A5B4C00052B42003A93B6A3
:1009CF0000069349007729BD0006AA51000AD546B3
:1009DF000054DABA0004B64E000A574300452738D0
:1009EF00000D264A008E933E000D5252000DAA476D
:1009FF000066B53B00056D4F0004AE45004A4EB989
:100A0F00000A4D4C000D1541002D92B5000000005D
:100A1F000000001F0000003B0000005A000000789B
:100A2F0000000097000000B5000000D4000000F3A4
:100A3F0000000111000001300000014E0000000015
:100A4F00B3F5D2BBB3F5B6FEB3F5C8FDB3F5CBC462
:100A5F00B3F5CEE5B3F5C1F9B3F5C6DFB3F5B0CB5A
:100A6F00B3F5BEC5B3F5CAAECAAED2BBCAAEB6FEFB
:100A7F00CAAEC8FDCAAECBC4CAAECEE5CAAEC1F9C6
:100A8F00CAAEC6DFCAAEB0CBCAAEBEC5B6FECAAE20
:100A9F00D8A5D2BBD8A5B6FED8A5C8FDD8A5CBC4BE
:100AAF00D8A5CEE5D8A5C1F9D8A5C6DFD8A5B0CBB6
:100ABF00D8A5BEC5C8FDCAAE0000D5FDB6FEC8FD9F
:100ACF00CBC4CEE5C1F9C6DFB0CBBEC5CAAEB6AC9E
:100ADF00C0B0CAF3C5A3BBA2CDC3C1FAC9DFC2ED73
:0A0AEF00D1F2BAEFBCA6B9B7D6EDFC
:06002E008F128D138B14EC
:1000340075F004EFA4248BF582E5F03408F58312FF
:1000440005F9EF5460FFE4FEFDFC78051205D2E4E7
:100054007B01FAF9F8C31205C175F0047020E512AA
:10006400A4248BF582E5F03408F5831205F9EF54E6
:100074001FFFEF24FFF516E434FFF515801DE5128C
:10008400A4248BF582E5F03408F5831205F9EF54C6
:100094001FFFEF241EF516E433F515E51325E025BF
:1000A400E02417F582E4340AF5831205F97C00EFA5
:1000B4002514FFEC3ECF24FFF518EF34FFF517E5C8
:1000C400125403700FE513D3940240080518E51881
:1000D40070020517C3E5189516E517951550030228
:1000E40001E1D207E5189516F518E5179515F517EA
:1000F400751301751901E4F51AFFFE7D08FCE51975
:1001040014F9F81205E575F004E512A4248BF582C0
:10011400E5F03408F583120609EB5FFFEA5EFEE9B9
:100124005DFDE85CFCE4FBFAF9F8C31205C1700359
:100134000201D00201D6AF1B7E00C3E5189FE5176C
:100144009E50030201DCE5189FF518E5179EF5178C
:10015400051975F004E512A4248BF582E5F0340842
:10016400F5831205F9E4FFFEED54F0FDE4FC781488
:100174001205D2A804A905AA06AB07AF13E4FCFD37
:10018400FEC31205C1700B631AFFE51A700605134E
:1001940080020513E4FFFE7D08FCE51914F9F8124A
:1001A40005E575F004E512A4248BF582E5F0340826
:1001B400F583120609EB5FFFEA5EFEE95DFDE85C8C
:1001C400FCE4FBFAF9F8C31205C17006751B1D02A5
:1001D400013A751B1E02013AE51802030CC207C35B
:1001E400E5169518F516E5159517F51515127513F9
:1001F4000C75F004E512A4248BF582E5F03408F5BF
:10020400831205F9E4FFFEED54F0FDE4FC781412CA
:1002140005D2E4FBFAF9F8C31205C1700575190C8F
:10022400800375190DE4F51AFFFE7D08FCE5191429
:10023400F9F81205E575F004E512A4248BF582E5BE
:10024400F03408F583120609EB5FFFEA5EFEE95D10
:10025400FDE85CFCE4FBFAF9F8C31205C170030283
:1002640002FB020301AF1B7E00D3E5169FE5159E3A
:100274005003020307E5169FF516E5159EF51515BF
:1002840019E51A7002151375F004E512A4248BF510
:1002940082E5F03408F5831205F9E4FFFEED54F02D
:1002A400FDE4FC78141205D2A804A905AA06AB073C
:1002B400AF13E4FCFDFEC31205C17003631AFFE42F
:1002C400FFFE7D08FCE51914F9F81205E575F00444
:1002D400E512A4248BF582E5F03408F583120609AF
:1002E400EB5FFFEA5EFEE95DFDE85CFCE4FBFAF926
:1002F400F8C31205C17006751B1D020269751B1E29
:10030400020269C3E51B951604F514E5524514F57C
:1003140052E551F551E550F550E54FF54FE51375AC
:10032400F040A4FFAEF0EE3395E0FDFCE5524FF54E
:1003340052E5514EF551E5504DF550E54F4CF54F12
:1003440075F004E512A4248BF582E5F03408F583F6
:100354001205F9E4FFFEED54F0FDE4FC78141205F7
:10036400D2A804A905AA06AB07AF13E4FCFDFEC39B
:080374001205C17002D322C37F
:01037C00225E
:020E4F008F0B07
:100E5100E4F51112002E5048AB0EAA0FA910AF11E4
:100E6100051175F002EFA4F58285F08374C875F061
:100E7100F2120477E55254C0FFE5515403FEE4FD3C
:100E8100FC78061205D2900AC775F002EF12061916
:100E9100EE25E02583F583E493FE740193FF803012
:100EA100E55254C0FFE5515403FEE4FDFC780612FF
:100EB10005D2900AC775F002EF120619EE25E0255A
:100EC10083F583E493FE740193FFAB0EAA0FA9107F
:100ED100AD11051175F002EDA4F58285F083EE8F59
:100EE100F0120477AB0EAA0FA910AF11051175F01E
:100EF10002EFA4F58285F08374D475F0C2120477F1
:100F0100E552543FFF900A4B75F004EF120619E4C5
:100F110025E025E02583F583E493FE740193FFAD7D
:100F210011051175F002EDA4F58285F083EE8FF0C5
:100F3100120477E552543FFF900A4D75F004EF1209
:100F41000619E425E025E02583F583E493FE740189
:100F510093FFAD11051175F002EDA4F58285F083C3
:100F6100EE8FF0120477AF11051175F002EFA4F5C1
:100F71008285F08374A175F0A0120477E50B2464D7
:100F8100FFE433FE7C007D0C1203F7AF053007024E
:100F91008008EF70047F0B80011FEF25E024E1F54D
:100FA10082E4340AF583E493FE740193FFAB0EAA45
:100FB1000FA910AD11051175F002EDA4F58285F0B0
:090FC10083EE8FF0120477AF11EA
:010FCA002204
:03165200011F0075
:0C000E000000EF1F70011E144E70F52260
:101EF800C2B27FD07E0712000ED2B27F047E0012DB
:091F0800000EA2B29204A204B37F
:011F110022AD
:06159B008B138A14891570
:1015A100C2AF121EF89203200303A20322E4F51F27
:1015B10020B20AAF1F051FEFC3941440F3E51FC308
:1015C1009414400280227F087E0012000EE4FDE4A4
:1015D100FCE4F51F20B20AAF1F051FEFC3941440AE
:1015E100F3E51FC394144005D2B2D2AF227F037E2C
:1015F1000012000E74192DF8C000E625E0D000F6A7
:1016010030B20F74192DF8E64401F67F037E001203
:10161100000E0CBC08BB0DBD05B5AB13AA14A91572
:10162100E5191203C3AB16AA17A918E51B1203C3C8
:03163100D2AFD362
:011634002293
:101FCF00313233263435362537383928301B0D2733
:10165500C101C102C100013A00013B009020010116
:101665000101010101010101010101010101013036
:101675000090000F0F0F0F0F0F0F0F0F0F0F0F0F12
:101685000F0F0F901001010101010101010101017D
:10169500010101010102310000023303E8013500B7
:0A16A5000136000137000238000092
:1011B800E53014601014601314601624037016D2FE
:1011C800A0C2A38010D2A3C2A2800AD2A2C2A180C8
:1011D80004D2A1C2A0E53025E025E02400F8E225EC
:1011E800E0FFA2A4E4334FFFE53025E025E024002A
:1011F800F8EFF2E53025E025E02401F8E225E0FFEC
:10120800A2A5E4334FFFE53025E025E02401F8EFFF
:10121800F2E53025E025E02402F8E225E0FFA2A669
:10122800E4334FFFE53025E025E02402F8EFF2E54E
:101238003025E025E02403F8E225E0FFA2A7E43307
:101248004FFFE53025E025E02403F8EFF2E4FFE561
:101258003025E025E024002FF8E2540FFEBE0F0FE2
:10126800E53025E025E024202FF87401F2800FEE08
:10127800700CE53025E025E024202FF8E4F20FBFBC
:0712880004CD0530533003D3
:01128F00223C
:10129000E4F508E4F509E50825E025E024CFF5822A
:1012A000E4341FF583E5822509F582E43583F5836F
:1012B000E4936426703CE50825E025E02410250928
:1012C000F8E270230532E53270020531D39534E53A
:1012D000319533401D7F26120AF974642534F534A4
:1012E000E43533F533800BE4F531F53275330375AE
:1012F00034E8E50825E025E024202509F8E2FFE5AB
:101300000825E025E024102509F8E2FE6F603EEE96
:10131000B40120E50825E025E024CFF582E4341F60
:10132000F583E5822509F582E43583F583E493FFAF
:10133000120AF9E50825E025E024202509F8E2FF56
:10134000E50825E025E024102509F8EFF20509E578
:1013500009C3940450030212960508E508C39404D7
:0513600050030212938E
:011365002265
:101E2900E4FCFDFE7B997A03F9F81204A4C3741249
:101E39009FFFE49EF53AEF540FF53B5389F0438930
:0B1E490001853A8C853B8AD28CD2A91F
:011E5400226B
:03000B000214EFED
:1014EF00C0E0C083C082C0D075D000C000C006C0AD
:0114FF0007E5
:10150000853A8C853B8A0535E535C394C84012750C
:101510003500D2010536E53694054005753600D212
:1015200002300065E537B40800505E901532F828A7
:10153000287302154A02155702154A02155702155B
:101540004A02155702156202157FB296E535C3941B
:10155000C7403605378032E535C394C7402B053781
:101560008027B2960539E53970020538C394F4E551
:1015700038940140147538007539000537800AE544
:0C15800035C394C740037537001211B842
:0F158C00D007D006D000D0D0D082D083D0E032AC
:101FDF0001050A12171E29333C444B51565A5D5FB7
:1016AF00013E0001430001440001450001460004D2
:0D16BF003F00000000C108013C00013D009B
:101F850075CB4C75CA29E4F5C885CBCD85CACCC2BD
:041F9500CAC2AD22ED
:0219DE008D0872
:1019E000AB07AA06E4F9F8FF7E107D0EFC121C6519
:1019F0008F428E418D408C3FAF08E4FCFDFEAB4230
:101A0000AA41A940A83F1204A4E47B64FAF9F812A1
:101A1000052FAD07AC06C3E5429DFFE5419CAB0732
:101A2000FAC3740C9DFDE49CFCC3740C9BFBE49A0C
:101A30008C438D44F5458B4653890F43891085436C
:0A1A40008D85448BC2ABC28ED2B379
:011A4A002279
:101CEC00E4FCFDFEAB42AA41A940A83F1204A4E4C7
:101CFC007B64FAF9F812052FAD07AC06C3E5429DDB
:101D0C00FFE5419CAB07FAC3740C9DFDE49CFCC33E
:0E1D1C00740C9BFBE49A8C438D44F5458B467A
:011D2A002296
:03001B00021F7051
:101F700030B30985458D85468BC2B33285438D8547
:051F8000448BD2B332D6
:03002B000218EFC9
:1018EF00C0E0C0F0C083C082C0D075D000C000C0BF
:0D18FF0001C002C003C004C005C006C00740
:10190C00C2CFE53E14602814603524027036E53CE5
:10191C00901FDF93FF121CEC20080D053CE53CC327
:10192C00940F4020D208801CD53C19C208801505A4
:10193C003DE53DD3940A400C753D00B2B3800520C3
:04194C00B302D2B35D
:10195000D007D006D005D004D003D002D001D000EB
:0B196000D0D0D082D083D0F0D0E03295
:0C001E007D0A7F647E001219DE021F853F
:0C201A00E4F53ED2ABD28ED2ADD2CA2289
:0E1FFE00753E01D2B3C2ABC28ED2ADD2CA22A2
:0E200C00753E02C2ABC28EC2ADC2CAD2B322B2
:0300000002175F85
:0C175F00787FE4F6D8FD7581580217A6CB
:10037D00BB010689828A83E0225002E722BBFE027E
:09038D00E32289828A83E49322B1
:10039600BB010CE58229F582E5833AF583E022501C
:1003A60006E92582F8E622BBFE06E92582F8E22266
:0D03B600E58229F582E5833AF583E4932280
:1003C300BB010689828A83F0225002F722BBFE0119
:0203D300F32213
:1003D500F8BB010DE58229F582E5833AF583E8F05E
:1003E500225006E92582C8F622BBFE05E92582C80A
:0203F500F222F2
:1003F700BC000BBE0029EF8DF084FFADF022E4CCEA
:10040700F875F008EF2FFFEE33FEEC33FCEE9DECB2
:10041700984005FCEE9DFE0FD5F0E9E4CEFD22EDF8
:10042700F8F5F0EE8420D21CFEADF075F008EF2F42
:10043700FFED33FD4007985006D5F0F222C398FD33
:050447000FD5F0EA22D0
:10044C00BB010A89828A83E0F5F0A3E0225006877B
:10045C00F009E71922BBFE07E3F5F009E31922893D
:0B046C00828A83E493F5F07401932270
:10047700F8BB0111E58229F582E5833AF583E8F0B7
:10048700E5F0A3F0225009E92582C8F608A6F02274
:0D049700BBFE09E92582C8F2E5F008F2225B
:1004A400E88FF0A4CC8BF0A42CFCE98EF0A42CFCF7
:1004B4008AF0EDA42CFCEA8EF0A4CDA8F08BF0A475
:1004C4002DCC3825F0FDE98FF0A42CCD35F0FCEBD4
:1004D4008EF0A4FEA9F0EB8FF0A4CFC5F02ECD3999
:0F04E400FEE43CFCEAA42DCE35F0FDE43CFC2206
:1004F30075F008758200EF2FFFEE33FECD33CDCCC0
:1005030033CCC58233C5829BED9AEC99E582984042
:100513000CF582EE9BFEED9AFDEC99FC0FD5F0D61F
:10052300E4CEFBE4CDFAE4CCF9A88222B800C1B949
:100533000059BA002DEC8BF084CFCECDFCE5F0CB87
:10054300F97818EF2FFFEE33FEED33FDEC33FCEBC0
:1005530033FB10D703994004EB99FB0FD8E5E4F97B
:10056300FA227818EF2FFFEE33FEED33FDEC33FC68
:10057300C933C910D7059BE99A4007EC9BFCE99A5C
:10058300F90FD8E0E4C9FAE4CCFB2275F010EF2FA1
:10059300FFEE33FEED33FDCC33CCC833C810D707A1
:1005A3009BEC9AE899400AED9BFDEC9AFCE899F8DC
:0E05B3000FD5F0DAE4CDFBE4CCFAE4C8F9226F
:101C6500C2D5E830E70FB2D5E4C39BFBE49AFAE4AA
:101C750099F9E498F8EC30E717B2D5121C9B1205D8
:101C85002FE4C39BFBE49AFAE499F9E498F88003FE
:101C950012052F30D50DE4C39FFFE49EFEE49DFDA4
:041CA500E49CFC229D
:1005C100EB9FF5F0EA9E42F0E99D42F0E89C45F090
:0105D1002207
:1005D200E8600FECC313FCED13FDEE13FEEF13FF07
:0305E200D8F1222B
:1005E500E86010ECA2E713FCED13FDEE13FEEF132C
:0405F500FFD8F02219
:1005F900E493FC740193FD740293FE740393FF2248
:10060900E493F8740193F9740293FA740393FB2247
:0C061900A42582F582E5F03583F58322EC
:10176B00021D65E493A3F8E493A34003F68001F212
:10177B0008DFF48029E493A3F85407240CC8C3337F
:10178B00C4540F4420C8834004F456800146F6DF4E
:10179B00E4800B0102040810204080901635E47E93
:1017AB00019360BCA3FF543F30E509541FFEE49343
:1017BB00A360010ECF54C025E060A840B8E493A30A
:1017CB00FAE493A3F8E493A3C8C582C8CAC583CA35
:1017DB00F0A3C8C582C8CAC583CADFE9DEE780BEED
:0116CC00001D
:00000001FF
