:041A7100EF120889DF
:101A7500E4FF7E01EE600F30B4024207D2B5C2B575
:061A8500EE25E0FE80EEFC
:011A8B002238
:041A540012084AFF2B
:101A58007E01EE60135F7004C2B48002D2B4D2B5C6
:081A6800C2B5EE25E0FE80EAA4
:011A70002253
:10188700D2977FBF121A58121A75900005121A7153
:10189700900004121A71900003121A71900002123C
:1018A7001A71900001121A71900006121A71EF1244
:1018B7000877C297E92405F9E43AFA120831547F08
:0318C7000208779D
:1018CA00D2977FBE121A58900005121A549000043B
:1018DA00121A54900003121A54900002121A5490C9
:1018EA000001121A54900006121A54120831FF12FB
:0A18FA001A58E4FF121A58C2972290
:101B2900D297EF25E04481FF121A58121A75C2970D
:011B39002289
:101B0400D297EF25E04480FF121A58AF05121A58F5
:031B1400C2972253
:10190400750817750905750A09750B12750C55E4E8
:10191400F50D750E02C2B5C297FF121B29EF30E711
:1019240010E4FD7F07121B047B007A00790812186B
:01193400CAE8
:01193500228F
:100FF00020003C1C7C1EFFFFFFFFFE3FF98F798E17
:10100000718671F671F6780E380E3E3C1FFC1FFC9F
:101010001C1C0000010041042008139007C00FE0D1
:10102000DFF61FF00FE007C0139020084104010015
:1010300000000000078003C001E001F000F800F8A4
:1010400000F800F800F801F003F007E00FC01F00FF
:10105000000000007FFE6006600660066006600615
:1010600060067FFE7FFE601E6C1E6C1E6C1E601E86
:101070007FFE000000000000008001C00360063019
:10108000041004100C18180C3FFE014000800000F2
:101090000000000000000000308019C00F60063022
:1010A000073005900CD8186C3FFE0158008C0006E4
:1010B0000000A1A0A1A0A1A0A1A0A1A0A1A0A1A069
:0210C000A1A0ED
:101B1700C290D291D295E5805480FFC29570F5C2EC
:011B27009528
:011B2800229A
:091AA600FF121AAFE50B4480FFAA
:101AAF00AE07121B17C290C291D2958E80C295229B
:061AD80014F9120831FFB1
:101ADE00AE07121B17D290C291D2958E80C295225C
:101A36007F30121AAF7F0C121AAF7F01121AAF7BDA
:0E1A4600FF7A0F79F0751001E4FDFF021A140B
:101A14008B0D8A0E890F1219BFAB0D050FE50FAAA6
:101A24000E7002050E121AD81510E510D39400504A
:021A3400E822A6
:0A17F0008F138D148B158A168917CC
:1017FA00AF181518EFD394004038AD14AF1312196F
:10180A00BF0513E513D394074005E4F5130514AB9C
:10181A0015AA16A917120900FDACF0ECFF121ADE80
:10182A00AF05121ADE74022517F517E43516F516F8
:02183A0080BE6E
:01183C002289
:0219BF00AE0771
:1019C100E4FFED1460101460131460162403701604
:1019D100EE2480FF8010EE2490FF800AEE2488FF21
:0919E1008004EE2498FF021AAF05
:050003007F0F021AAF9F
:051B65007F0C021AAF25
:101ABF007F30121AAF7F01121AAF7BFF7A0F79F0C6
:091ACF00751001E4FDFF021A1478
:06148F008B458A468947E7
:101495007F34121AAF7F34121AAFE4FCEC4480FF9C
:1014A500121AAF7F80121AAFE4FDAB450547E54739
:1014B500AA4670020546121AD8AB450547E547AA64
:1014C5004670020546121AD80DBD08DE0CBC20CCAC
:1014D500E4FCEC4480FF121AAF7F88121AAFE4FDDA
:1014E500AB450547E547AA4670020546121AD8AB33
:1014F500450547E547AA4670020546121AD80DBDAF
:1015050008DE0CBC20CC7F36121AAF7F30021AAF32
:0812E3008F0B8B0C8A0D890EA4
:1012EB007F34121AAF7F34121AAFEDC39402503011
:1012FB00E4FCEDC454F044804C121AA6AB0C050E62
:10130B00E50EAA0D7002050D121AD8AB0C050EE5F1
:10131B000EAA0D7002050D121AD80CBC10D4803712
:10132B00E4FCEDC454F044804CFF121AAFE50B44BF
:10133B0088FF121AAFAB0C050EE50EAA0D70020555
:10134B000D121AD8AB0C050EE50EAA0D7002050D89
:10135B00121AD80CBC10CBEDC454F04480121AA650
:0A136B007F36121AAF7F30021AAF6E
:101743007F34121AAF7F34121AAFE4FCEC4480FFEB
:10175300121AAF7F80121AAFE4FDE4FF121ADEE41F
:10176300FF121ADE0DBD08F20CBC20E0E4FCEC44D1
:1017730080FF121AAF7F88121AAFE4FDE4FF121A3A
:10178300DEE4FF121ADE0DBD08F20CBC20E07F364A
:08179300121AAF7F30021AAFF9
:02159300AB07A4
:101595007F34121AAF7F34121AAFEDC39402502470
:1015A500E4FCEDC454F044804CFF121AAFEB4480C8
:1015B500FF121AAFE4FF121ADEE4FF121ADE0CBCAA
:1015C50010E08022E4FCEDC454F044804CFF121A74
:1015D500AFEB4488FF121AAFE4FF121ADEE4FF12E4
:1015E5001ADE0CBC10E0EDC454F04480FF121AAFB3
:1015F500EB4480FF121AAF7F36121AAF7F30021A02
:01160500AF35
:0F1B4A007BFF7A1079B2C374089FF5180217F069
:03160600011E00C2
:10193600D2AF121904121A361217437F01121993E5
:10194600E51E700A300014C200120B87800DE51EDA
:10195600B40108300205C2021215151210C280E049
:10179B00C4D6D6D3C9E8B6A8A3BA00011F021C034E
:1017AB001F041E051F061E071F081F091E0A1F0BFD
:1017BB001E0C1F00000000D6DCD2BBD6DCB6FED65A
:1017CB00DCC8FDD6DCCBC4D6DCCEE5D6DCC1F9D685
:1017DB00DCC8D5CEC2B6C8A3BACAAAB6C8A3BAC407
:0517EB00D6D6D3A3BA1D
:101609000124AA0125AA0126AA0122000123000119
:041619002100C105E6
:101AEE00E4F51FE51F04FDE4FF121B4A051FE51F69
:051AFE00C3940340EE5B
:011B030022BF
:100B87007B007A007939121887E524653E700302E5
:100B97000C41853E24E53CC4540F24B0783BF2E475
:100BA70034A318F2E53C540F24B0783DF2E434A3A3
:100BB70018F2783E74A1F20874C3F2E53DC4540FED
:100BC70024B07841F2E434A318F2E53D540F24B081
:100BD7007843F2E434A318F2784474A1F20874C39A
:100BE700F2E53EC4540F24B07847F2E434A318F278
:100BF700E53E540F24B07849F2E434A318F27BFEA3
:100C07007A00793A7518087D03E4FF1217F0E52694
:100C1700653C6026853C26E53CC39408400FE53CCF
:100C2700D3941850087BFF7A10791280067BFF7ADD
:100C3700107932E4FD7F051212E3E525653B700369
:100C4700020CEE853B25784A7420F208F2087432CC
:100C5700F2087430F2E539C4540F243008F2E5394C
:100C6700540F243008F2087420F208F2E53AC4540D
:100C77000F243008F2E53A540F243008F2087420A4
:100C8700F208F2E53BC4540F243008F2E53B540F59
:100C9700243008F2785A74A1F20874A4F27BFE7A21
:100CA70000794A75100E7D01E4FF121A147BFE7A53
:100CB70000795A7518017D017F031217F07BFE7AC0
:100CC70000795A7518017D017F051217F0E53F7508
:100CD700F004A424BEF9741735F0FA7BFF751802E7
:070CE7007D027F031217F0EC
:010CEE0022E3
:1015150075160075170075180B7B007A00790C128B
:101525001249E50B75F00A8424B0F50EE434A3F5F1
:101535000DE50B75F00A84E5F024B0F510E434A34D
:10154500F50F7511A17512E67B007A00790D7518F6
:10155500037D017F031217F0E50C75F00A8424B0B2
:10156500F50EE434A3F50DE50C75F00A84E5F024D9
:10157500B0F510E434A3F50F7511A37512A57B0022
:0E1585007A00790D7518037D027F030217F0BE
:10137500121ABF7BFF7A1779DE7518037D01E4FF2A
:101385001217F07BFF7A1779E47518037D02E4FFE5
:101395001217F07BFF7A1779EA7518037D03E4FFCE
:1013A5001217F0121515E539C4540F75F00AA4FF8C
:1013B500E539540F2FFF784AF2E53AC4540F75F01A
:1013C5000AA4FEE53A540F2E08F2FDE53BC4540F7E
:1013D50075F00AA4FEE53B540F2EFE7849F2FB7525
:1013E5000EFE750F0075103A120A0B7848EFF27B66
:0E13F500FE7A00793AF518E4FD7F010217F048
:1016E100E521B40800504E9016EFF8282873021730
:1016F1000702170B02171102171702171D021723F2
:1017010002172902172F7D0180087D017F068022A3
:101711007D027F04801C7D037F0180167D037F0491
:1017210080107D037F07800AE4FD7F0580047D0131
:101731007F021219BF0521E521D394074003E4F587
:02174100212263
:1019EA00E52114600B14600E240270117D0280023E
:1019FA00E4FD7F0680047D027F031219BF0521E5FD
:0A1A0A0021D394024003E4F52122E9
:100E3D00E539C454F0FFE52775F00A844FF539C440
:100E4D0054F0FFE52775F00A84E5F04FF539E53AE2
:100E5D00C454F0FFE52875F00A844FF53AC454F0F8
:100E6D00FFE52875F00A84E5F04FF53AE53BC454EB
:100E7D00F0FFE52975F00A844FF53BC454F0FFE50A
:100E8D002975F00A84E5F04FF53BE53FC454F0FFBA
:100E9D00E52D75F00A844FF53FC454F0FFE52D752F
:100EAD00F00A84E5F04FF53FE53CC454F0FFE52A28
:100EBD0075F00A844FF53CC454F0FFE52A75F00A2D
:100ECD0084E5F04FF53CE53DC454F0FFE52B75F09E
:100EDD000A844FF53DC454F0FFE52B75F00A84E507
:100EED00F04FF53DE53EC454F0FFE52C75F00A8456
:100EFD004FF53EC454F0FFE52C75F00A84E5F04F34
:0B0F0D00F53E7B007A0079390218CA1B
:10035D00E51E64026003020527E521C394075014CE
:10036D00E4FD7F05121B4A7BFF7A107952E4FD7F75
:10037D00051212E3E521B4080040030205C69003FF
:10038D0092F82828730203AA0203D8020406020475
:10039D003402045502048E0204C7020500E52775D8
:1003AD00F00A842430783AF2E52775F00A84E5F0F6
:1003BD00243008F27BFE7A00793A7510027D017FB8
:1003CD0002121A147D017F020205ADE52875F00AAF
:1003DD00842430783AF2E52875F00A84E5F024306B
:1003ED0008F27BFE7A00793A7510027D017F0412C6
:1003FD001A147D017F040205ADE52975F00A8424E8
:10040D0030783AF2E52975F00A84E5F0243008F2E7
:10041D007BFE7A00793A7510027D017F06121A145F
:10042D007D017F060205ADE52D75F004A424BEF90E
:10043D00741735F0FA7BFF7518027D027F031217D2
:10044D00F07D027F040205ADE52A75F00A8424B023
:10045D00783DF2E434A318F2E52A75F00A84E5F04C
:10046D0024B0783FF2E434A318F27BFE7A00793C95
:10047D007518027D03E4FF1217F07D037F0102055D
:10048D00ADE52B75F00A8424B0783DF2E434A31861
:10049D00F2E52B75F00A84E5F024B0783FF2E434F0
:1004AD00A318F27BFE7A00793C7518027D037F0359
:1004BD001217F07D037F040205ADE52C75F00A845B
:1004CD0024B0783DF2E434A318F2E52C75F00A84DB
:1004DD00E5F024B0783FF2E434A318F27BFE7A0005
:1004ED00793C7518027D037F061217F07D037F0797
:1004FD000205AD783C74A1F20874CCF2E4FD7F05E1
:10050D001215937BFE7A00793C751801E4FD7F0589
:10051D001217F0E4FD7F050205ADE51E64036003CF
:10052D000205C6E5211460421460782402600302BE
:10053D0005C6E52275F00A8424B0783DF2E434A3B3
:10054D0018F2E52275F00A84E5F024B0783FF2E464
:10055D0034A318F27BFE7A00793C7518027D027F78
:10056D00021217F07D027F038036E52375F00A84B1
:10057D0024B0783DF2E434A318F2E52375F00A8433
:10058D00E5F024B0783FF2E434A318F27BFE7A0054
:10059D00793C7518027D027F051217F07D027F06EA
:1005AD000219BF7BFF3005067A10797280047A102C
:0905BD007992E4FD7F061212E3BD
:0105C6002212
:10119200E521B4080040030212469011A3F8282862
:1011A200730211BB0211CC0211DA02120B021219E4
:1011B2000212270212350212430527E527D3946350
:1011C2005003021246E4F527807A0528E528D394D5
:1011D2000C4071752801806C0529E5275403700EB7
:1011E200E528B40209E529D3941D40588016E52864
:1011F20025E024A5F582E43417F583E493FFE5297D
:10120200D39F4040752901803B052DE52DD39407DE
:101212004032752D01802D052AE52AD394174024EA
:10122200E4F52A801F052BE52BD3943B4016E4F509
:101232002B8011052CE52CD3943B4008E4F52C803F
:0712420003120E3D02035DE3
:10196600E5211460151460202402701E0522E5226C
:10197600D394174015E4F52280100523E523D3946C
:0D1986003B4007E4F5238002B20502035D3B
:10167700E539C4540F75F00AA4FFE539540F2FF567
:1016870027E53AC4540F75F00AA4FFE53A540F2F23
:10169700F528E53BC4540F75F00AA4FFE53B540F4A
:1016A7002FF529853F2DE53CC4540F75F00AA4FF9B
:1016B700E53C540F2FF52AE53DC4540F75F00AA4F5
:1016C700FFE53D540F2FF52BE53EC4540F75F00A87
:0A16D700A4FFE53E540F2FF52C226E
:0B0CEF008F0AE50A640D6003020DE5AA
:100CFA00E51E64026003020D91751E03121ABF7B82
:100D0A00FF7A17799B751805E4FDFF1217F0E4FDC9
:100D1A007F051215937BFF3005067A1079728004DD
:100D2A007A107992E4FD7F061212E3E522C4540F89
:100D3A0024B07831F2E434A318F2E522540F24B037
:100D4A007833F2E434A318F2783474A1F20874C345
:100D5A00F2E523C4540F24B07837F2E434A318F22E
:100D6A00E523540F24B07839F2E434A318F27BFE59
:100D7A007A0079307518057D027F021217F0E4F5C2
:100D8A00217D027F03804E751E02121ABF783074CD
:100D9A00D0F20874A3F20874CAF20874B1F27BFEA6
:100DAA007A007930751802E4FD7F021217F0E4FD2B
:100DBA007F051215937BFF7A107952E4FD7F0512A5
:100DCA0012E37524AA7525AA120B87121677E4F581
:0B0DDA00217D017F021219BF020003FF
:100DE500E50A641B6051E50AB42611E51EB4020349
:100DF500021192E51E6403703E021966E50A642736
:100E05007035E51EC39402501E051E531E01E51ED6
:100E1500700D121ABF7524AA7525AA7526AA22E592
:100E25001EB40113021375E51EB402030216E1E5B3
:080E35001EB403031219EA22A6
:1005C700004D4AB8000D4A4C000DA5410025AAB6BA
:1005D70000056A49007AADBD00025D5200092D474A
:1005E700005C95BA000A954E000B4A43004B5537FD
:1005F700000AD54A00955ABF0004BA53000A5B485F
:1006070000652BBC00052B50000A934500474AB9EB
:100617000006AA4C000AD5410024DAB60004B64AFF
:100627000069573D000A4E51000D2646005E933A79
:10063700000D534D0005AA430036B53700096D4B31
:1006470000B4AEBF0004AD53000A4D48006D25BC91
:10065700000D254F000D5244005DAA38000B5A4C7F
:1006670000056D410024ADB600049B4A007A4BBEDD
:10067700000A4B51000AA546005B52BA0006D24E4B
:10068700000ADA4200355B370009374B008497C10F
:100697000004975300064B480066A53C000EA54F83
:1006A7000006B244004AB638000AAE4C00092E4292
:1006B700003C9735000C9649007D4ABD000D4A5114
:1006C700000DA5450055AABA00056A4E000A6D43FC
:1006D70000452EB700052D4B008A95BF000A95539C
:1006E700000B4A47006B553B000AD54F00055A459A
:1006F700004A5D38000A5B4C00052B42003A93B66E
:1007070000069349007729BD0006AA51000AD5467D
:100717000054DABA0004B64E000A5743004527389A
:10072700000D264A008E933E000D5252000DAA4737
:100737000066B53B00056D4F0004AE45004A4EB953
:10074700000A4D4C000D1541002D92B50000000028
:100757000000001F0000003B0000005A0000007866
:1007670000000097000000B5000000D4000000F36F
:1007770000000111000001300000014E00000000E0
:10078700B3F5D2BBB3F5B6FEB3F5C8FDB3F5CBC42D
:10079700B3F5CEE5B3F5C1F9B3F5C6DFB3F5B0CB25
:1007A700B3F5BEC5B3F5CAAECAAED2BBCAAEB6FEC6
:1007B700CAAEC8FDCAAECBC4CAAECEE5CAAEC1F991
:1007C700CAAEC6DFCAAEB0CBCAAEBEC5B6FECAAEEB
:1007D700D8A5D2BBD8A5B6FED8A5C8FDD8A5CBC489
:1007E700D8A5CEE5D8A5C1F9D8A5C6DFD8A5B0CB81
:1007F700D8A5BEC5C8FDCAAE0000D5FDB6FEC8FD6A
:10080700CBC4CEE5C1F9C6DFB0CBBEC5CAAEB6AC68
:10081700C0B0CAF3C5A3BBA2CDC3C1FAC9DFC2ED3D
:0A082700D1F2BAEFBCA6B9B7D6EDC6
:06000E008F128D138B140C
:1000140075F004EFA424C3F582E5F03405F58312EA
:1000240009DFEF5460FFE4FEFDFC78051209B8E433
:100034007B01FAF9F8C31209A775F0047020E512E0
:10004400A424C3F582E5F03405F5831209DFEF54E7
:100054001FFFEF24FFF516E434FFF515801DE512AC
:10006400A424C3F582E5F03405F5831209DFEF54C7
:100074001FFFEF241EF516E433F515E51325E025DF
:10008400E0244FF582E43407F5831209DF7C00EFA6
:100094002514FFEC3ECF24FFF518EF34FFF517E5E8
:1000A400125403700FE513D3940240080518E518A1
:1000B40070020517C3E5189516E517951550030248
:1000C40001C1D206E5189516F518E5179515F5172B
:1000D400751301751901E4F51AFFFE7D08FCE51995
:1000E40014F9F81209CB75F004E512A424C3F582BF
:1000F400E5F03405F5831209EFEB5FFFEA5EFEE9F4
:100104005DFDE85CFCE4FBFAF9F8C31209A770038F
:100114000201B00201B6AF1B7E00C3E5189FE517CC
:100124009E50030201BCE5189FF518E5179EF517CC
:10013400051975F004E512A424C3F582E5F034052D
:10014400F5831209DFE4FFFEED54F0FDE4FC7814BE
:100154001209B8A804A905AA06AB07AF13E4FCFD6D
:10016400FEC31209A7700B631AFFE51A7006051384
:1001740080020513E4FFFE7D08FCE51914F9F8126A
:1001840009CB75F004E512A424C3F582E5F0340527
:10019400F5831209EFEB5FFFEA5EFEE95DFDE85CC3
:1001A400FCE4FBFAF9F8C31209A77006751B1D02DB
:1001B400011A751B1E02011AE5180202ECC206C3DD
:1001C400E5169518F516E5159517F5151512751319
:1001D4000C75F004E512A424C3F582E5F03405F5AA
:1001E400831209DFE4FFFEED54F0FDE4FC78141201
:1001F40009B8E4FBFAF9F8C31209A7700575190CDC
:10020400800375190DE4F51AFFFE7D08FCE5191449
:10021400F9F81209CB75F004E512A424C3F582E5BC
:10022400F03405F5831209EFEB5FFFEA5EFEE95D4A
:10023400FDE85CFCE4FBFAF9F8C31209A7700302B9
:1002440002DB0202E1AF1B7E00D3E5169FE5159E9B
:1002540050030202E7E5169FF516E5159EF5151500
:1002640019E51A7002151375F004E512A424C3F5F8
:1002740082E5F03405F5831209DFE4FFFEED54F066
:10028400FDE4FC78141209B8A804A905AA06AB0772
:10029400AF13E4FCFDFEC31209A77003631AFFE465
:1002A400FFFE7D08FCE51914F9F81209CB75F0047A
:1002B400E512A424C3F582E5F03405F5831209EFB1
:1002C400EB5FFFEA5EFEE95DFDE85CFCE4FBFAF946
:1002D400F8C31209A77006751B1D020249751B1E7F
:1002E400020249C3E51B951604F514E5444514F5CB
:1002F40044E543F543E542F542E541F541E513752F
:10030400F040A4FFAEF0EE3395E0FDFCE5444FF57C
:1003140044E5434EF543E5424DF542E5414CF54194
:1003240075F004E512A424C3F582E5F03405F583E1
:100334001209DFE4FFFEED54F0FDE4FC7814120929
:10034400B8A804A905AA06AB07AF13E4FCFDFEC3D5
:080354001209A77002D322C3B5
:01035C00227E
:020A0B008F0B4F
:100A0D00E4F51112000E5048AB0EAA0FA910AF114C
:100A1D00051175F002EFA4F58285F08374C875F0A9
:100A2D00F212092BE54454C0FFE5435403FEE4FDE7
:100A3D00FC78061209B89007FF75F002EF1209FF56
:100A4D00EE25E02583F583E493FE740193FF80305A
:100A5D00E54454C0FFE5435403FEE4FDFC78061263
:100A6D0009B89007FF75F002EF1209FFEE25E0259A
:100A7D0083F583E493FE740193FFAB0EAA0FA910C7
:100A8D00AD11051175F002EDA4F58285F083EE8FA1
:100A9D00F012092BAB0EAA0FA910AF11051175F0AD
:100AAD0002EFA4F58285F08374D475F0C212092B80
:100ABD00E544543FFF90078375F004EF1209FFE4FE
:100ACD0025E025E02583F583E493FE740193FFADC6
:100ADD0011051175F002EDA4F58285F083EE8FF00E
:100AED0012092BE544543FFF90078575F004EF1272
:100AFD0009FFE425E025E02583F583E493FE7401E9
:100B0D0093FFAD11051175F002EDA4F58285F0830B
:100B1D00EE8FF012092BAF11051175F002EFA4F550
:100B2D008285F08374A175F0A012092BE50B246466
:100B3D00FFE433FE7C007D0C1208ABAF05300602DE
:100B4D008008EF70047F0B80011FEF25E02419F55D
:100B5D0082E43408F583E493FE740193FFAB0EAA8F
:100B6D000FA910AD11051175F002EDA4F58285F0F8
:090B7D0083EE8FF012092BAF1179
:010B8600224C
:03161D0001480081
:0C1B59000000EF1F70011E144E70F522FA
:101A8C00C2B27FD07E07121B59D2B27F047E0012E5
:091A9C001B59A2B29204A204B38A
:011AA500221E
:061249008B138A148915C5
:10124F00C2AF121A8C9203200303A20322E4F548C3
:10125F0020B20AAF480548EFC3941440F3E548C3E2
:10126F009414400280227F087E00121B59E4FDE493
:10127F00FCE4F54820B20AAF480548EFC394144088
:10128F00F3E548C394144005D2B2D2AF227F037E58
:10129F0000121B5974192DF8C000E625E0D000F696
:1012AF0030B20F74192DF8E64401F67F037E001259
:1012BF001B590CBC08BB0DBD05B5AB13AA14A91562
:1012CF00E519120877AB16AA17A918E51B120877AC
:0312DF00D2AFD3B8
:0112E20022E9
:101B3A00313233263435362537383928301B0D27CC
:10162000C100C101C1020137000138009020010151
:101630000101010101010101010101010101012F6C
:101640000090000F0F0F0F0F0F0F0F0F0F0F0F0F47
:101650000F0F0F90100101010101010101010101B2
:10166000010101010102300000023203E8013400EF
:0616700001350001360007
:100F1800E52F14601014601314601624037016D2A1
:100F2800A0C2A38010D2A3C2A2800AD2A2C2A1806A
:100F380004D2A1C2A0E52F25E025E02400F8E2258F
:100F4800E0FFA2A4E4334FFFE52F25E025E02400CD
:100F5800F8EFF2E52F25E025E02401F8E225E0FF8F
:100F6800A2A5E4334FFFE52F25E025E02401F8EFA3
:100F7800F2E52F25E025E02402F8E225E0FFA2A60D
:100F8800E4334FFFE52F25E025E02402F8EFF2E5F2
:100F98002F25E025E02403F8E225E0FFA2A7E433AB
:100FA8004FFFE52F25E025E02403F8EFF2E4FFE505
:100FB8002F25E025E024002FF8E2540FFEBE0F0F86
:100FC800E52F25E025E024202FF87401F2800FEEAC
:100FD800700CE52F25E025E024202FF8E4F20FBF60
:070FE80004CD052F532F0378
:010FEF0022DF
:1010C200E4F508E4F509E50825E025E0243AF5828F
:1010D200E4341BF583E5822509F582E43583F58343
:1010E200E49364267036E50825E025E024102509FE
:1010F200F8E270230531E53170020530D39533E50E
:1011020030953240177FD0120CEF74C82533F53377
:10111200E43532F5328005E4F530F531E50825E0B5
:1011220025E024202509F8E2FFE50825E025E02452
:10113200102509F8E2FE6F603EEEB40120E50825B5
:10114200E025E0243AF582E4341BF583E5822509A3
:10115200F582E43583F583E493FF120CEFE508256D
:10116200E025E024202509F8E2FFE50825E025E056
:1011720024102509F8EFF20509E509C39404500388
:0F1182000210C80508E508C3940450030210C505
:01119100223B
:10199300E4FCFDFE7B997A03F9F8120958C374122B
:1019A3009FFFE49EF537EF540FF5385389F04389D1
:0B19B3000185378C85388AD28CD2A9C0
:0119BE002206
:03000B0002183D9B
:0D183D00C0E0C0D075D000C000C006C007DC
:10184A0085378C85388A0534E534C394C8402075B9
:10185A003400D2000535E53594054005753500D2CA
:10186A00010536E536C394194005753600D20212D1
:02187A000F1845
:0B187C00D007D006D000D0D0D0E03262
:03000000021403E4
:0C140300787FE4F6D8FD75814802144A99
:10083100BB010689828A83E0225002E722BBFE02C5
:09084100E32289828A83E49322F8
:10084A00BB010CE58229F582E5833AF583E0225063
:10085A0006E92582F8E622BBFE06E92582F8E222AD
:0D086A00E58229F582E5833AF583E49322C7
:10087700BB010689828A83F0225002F722BBFE0160
:02088700F3225A
:10088900F8BB010DE58229F582E5833AF583E8F0A5
:10089900225006E92582C8F622BBFE05E92582C851
:0208A900F22239
:1008AB00BC000BBE0029EF8DF084FFADF022E4CC31
:1008BB00F875F008EF2FFFEE33FEEC33FCEE9DECFA
:1008CB00984005FCEE9DFE0FD5F0E9E4CEFD22ED40
:1008DB00F8F5F0EE8420D21CFEADF075F008EF2F8A
:1008EB00FFED33FD4007985006D5F0F222C398FD7B
:0508FB000FD5F0EA2218
:10090000BB010A89828A83E0F5F0A3E022500687C2
:10091000F009E71922BBFE07E3F5F009E319228984
:0B092000828A83E493F5F074019322B7
:10092B00F8BB0111E58229F582E5833AF583E8F0FE
:10093B00E5F0A3F0225009E92582C8F608A6F022BB
:0D094B00BBFE09E92582C8F2E5F008F222A2
:10095800E88FF0A4CC8BF0A42CFCE98EF0A42CFC3E
:100968008AF0EDA42CFCEA8EF0A4CDA8F08BF0A4BC
:100978002DCC3825F0FDE98FF0A42CCD35F0FCEB1B
:100988008EF0A4FEA9F0EB8FF0A4CFC5F02ECD39E0
:0F099800FEE43CFCEAA42DCE35F0FDE43CFC224D
:1009A700EB9FF5F0EA9E42F0E99D42F0E89C45F0A6
:0109B700221D
:1009B800E8600FECC313FCED13FDEE13FEEF13FF1D
:0309C800D8F12241
:1009CB00E86010ECA2E713FCED13FDEE13FEEF1342
:0409DB00FFD8F0222F
:1009DF00E493FC740193FD740293FE740393FF225E
:1009EF00E493F8740193F9740293FA740393FB225E
:0C09FF00A42582F582E5F03583F5832203
:10140F00021936E493A3F8E493A34003F68001F2A4
:10141F0008DFF48029E493A3F85407240CC8C333DE
:10142F00C4540F4420C8834004F456800146F6DFAD
:10143F00E4800B0102040810204080901606E47E21
:10144F00019360BCA3FF543F30E509541FFEE493A2
:10145F00A360010ECF54C025E060A840B8E493A369
:10146F00FAE493A3F8E493A3C8C582C8CAC583CA94
:10147F00F0A3C8C582C8CAC583CADFE9DEE780BE4C
:011676000073
:00000001FF
