:04130600EF120739A2
:10130A00E4FF7E01EE600F30B4024FFFD2B5C2B5E2
:06131A00EE25E0FE80EE6E
:0113200022AA
:0412CD001206FAFF0C
:1012D1007E01EE60135F7004C2B48002D2B4D2B555
:0812E100C2B5EE25E0FE80EA33
:0112E90022E2
:1010DC00D2977FBF1212D112130A90000512130679
:1010EC0090000412130690000312130690000212D3
:1010FC001306900001121306900006121306EF124D
:10110C000727C297E92405F9E43AFA1206E1547F5D
:03111C00020727A0
:10119700D2977FBE1212D19000051212CD90000493
:1011A7001212CD9000031212CD9000021212CD90B0
:1011B70000011212CD9000061212CD1206E1FF12A5
:0A11C70012D1E4FF1212D1C29722E8
:10138600D297EF25E04481FF1212D112130AC297B9
:011396002234
:10134F00D297EF25E04480FF1212D1AF051212D1D0
:03135F00C2972210
:10115C009000007417F0A37405F0A37409F0A37445
:10116C0012F0A37455F0E4A3F0A37402F0C2B5C25C
:10117C0097E4FF121386EF30E710E4FD7F0712139C
:0A118C004F7B017A007900121197E1
:011196002236
:020008002000D6
:10136200C290D291D295E5805480FFC29570F5C2A9
:0113720095E5
:011373002257
:10137400AE07121362C290C291D295AF068F80C29B
:021384009522B0
:10111F0090007FE0FBA3E475F001120771A9F0FACC
:10112F001206E1FF12114A90007FE0FBA3E475F075
:0B113F0001120771A9F0FA1206E1FF8F
:10114A00AE07121362D290C291D295AF068F80C2B7
:02115A009522DC
:10128B007F301213747F0C1213747F011213747B53
:10129B00FF7A00790890002A7401F0E4FDFF021236
:0112AB00AC96
:1012AC00900027EBF0A3EAF0A3E9F01212359000BE
:1012BC002712113990002AE014F0E0D3940050EE7C
:0112CC0022FF
:10102400900075EFF0A3EDF0A3EBF0A3EAF0A3E9D1
:01103400F0CB
:1010350090007AE0FF14F0EFD394004045900075DE
:10104500E0FFA3E0FD121235900075E004F0E0D357
:1010550094074006E4F0A3E004F0900077E0FBA3DA
:10106500E0FAA3E0F9120787FDACF0ECFBFF1211E3
:101075004AAF0512114A900078E475F00212075B39
:0210850080AE3B
:011087002246
:10123500E4FEED1460101460131460162403701698
:10124500EF2480FE8010EF2490FE800AEF2488FEB4
:0B1255008004EF2498FEAF0602137423
:050003007F0F021374E1
:051397007F0C0213743D
:1012EA007F301213747F011213747BFF7A0079081E
:0C12FA0090002A7401F0E4FDFF0212AC29
:0B10880090007FEBF0A3EAF0A3E9F07A
:101093007F341213747F34121374E4FCEC4480FF26
:1010A3001213747F80121374E4FD12111F0DEDB43B
:1010B30008F80CECB420E5E4FCEC4480FF12137454
:1010C3007F88121374E4FD12111F0DEDB408F80CA0
:0910D300ECB420E57F3602137431
:0E133800C1004100830041008400410082009A
:10132100D2AF12115C12128B7F011211D13000FD6C
:07133100C200120EEA80F673
:1011D100E4FCFDFE7B997A03F9F81207DFAD07AC59
:1011E10006C374129DFDE49C900083F0AF05A3EF4C
:1011F100F05389F0438901900083E0F58CA3E0F579
:051201008AD28CD2A985
:0112060022C5
:03000B000212607E
:08126000C0E0C083C082C0D0D1
:10126800900083E0F58CA3E0F58A900082E004F01A
:0A127800E0C394C84004E4F0D20083
:09128200D0D0D082D083D0E0323C
:101207002A00D2BB00B6FE00C800CBC400CEE50062
:10121700C1F900CCEC00FF1207FF1209FF120CFF07
:0E122700120FFF1211FF1214FF1217FF121AFE
:08134600410085AA410086AABE
:100E2F001206E154F075F00AA4FF1206E1C4540F44
:100E3F007C002FFFEC35F0FEE4FD90005112098A83
:100E4F009000011206FA54F075F00AA4FF90000109
:100E5F001206FAC4540F7C002FFFEC35F0FEE4FDB0
:100E6F0090005512098A9000021206FA54F075F09C
:100E7F000AA4FF9000021206FAC4540F7C002FFF41
:100E8F00EC35F0FEE4FD90005912098A900055E010
:100E9F00FCA3E0FDA3E0FEA3E0FF90006112098A2E
:100EAF00900059E0FCA3E0FDA3E0FEA3E0FF90005B
:100EBF006512098A90004EE0F9A3E0FAA3E09000D2
:100ECF0069C9F0A3EAF0A3E9F0900051E0FCA3E0B8
:0A0EDF00FDA3E0FEA3E0FF120C3DAE
:010EE90022E6
:100EEA007B017A00796D1210DC900072E0FC9000B0
:100EFA0085E06C7003020F97900072E0FE90008507
:100F0A00F09000007420F090006EE0FDC4540F24AD
:100F1A0030900001F0ED540F2430A3F0A3742DF0AB
:100F2A0090006FE0FDC4540F2430900004F0ED549B
:100F3A000F2430A3F0A37420F0900070E0FFC45493
:100F4A000F2430900007F0EF540F2430A3F0A3745D
:100F5A003AF0900071E0FFC4540F243090000AF078
:100F6A00EF540F2430A3F0A3743AF0EEC4540F24C4
:100F7A0030A3F0EC540F2430A3F07B017A007900FF
:0D0F8A0090002A740FF07D01E4FF1212ACFC
:010F97002237
:1009D300004D4AB8000D4A4C000DA5410025AAB6AA
:1009E30000056A49007AADBD00025D5200092D473A
:1009F300005C95BA000A954E000B4A43004B5537ED
:100A0300000AD54A00955ABF0004BA53000A5B484E
:100A130000652BBC00052B50000A934500474AB9DB
:100A23000006AA4C000AD5410024DAB60004B64AEF
:100A33000069573D000A4E51000D2646005E933A69
:100A4300000D534D0005AA430036B53700096D4B21
:100A530000B4AEBF0004AD53000A4D48006D25BC81
:100A6300000D254F000D5244005DAA38000B5A4C6F
:100A730000056D410024ADB600049B4A007A4BBECD
:100A8300000A4B51000AA546005B52BA0006D24E3B
:100A9300000ADA4200355B370009374B008497C1FF
:100AA3000004975300064B480066A53C000EA54F73
:100AB3000006B244004AB638000AAE4C00092E4282
:100AC300003C9735000C9649007D4ABD000D4A5104
:100AD300000DA5450055AABA00056A4E000A6D43EC
:100AE30000452EB700052D4B008A95BF000A95538C
:100AF300000B4A47006B553B000AD54F00055A458A
:100B0300004A5D38000A5B4C00052B42003A93B65D
:100B130000069349007729BD0006AA51000AD5466D
:100B23000054DABA0004B64E000A5743004527388A
:100B3300000D264A008E933E000D5252000DAA4727
:100B43000066B53B00056D4F0004AE45004A4EB943
:100B5300000A4D4C000D1541002D92B50000000018
:100B63000000001F0000003B0000005A0000007856
:100B730000000097000000B5000000D4000000F35F
:100B830000000111000001300000014E00000000D0
:100B9300B3F5D2BBB3F5B6FEB3F5C8FDB3F5CBC41D
:100BA300B3F5CEE5B3F5C1F9B3F5C6DFB3F5B0CB15
:100BB300B3F5BEC5B3F5CAAECAAED2BBCAAEB6FEB6
:100BC300CAAEC8FDCAAECBC4CAAECEE5CAAEC1F981
:100BD300CAAEC6DFCAAEB0CBCAAEBEC5B6FECAAEDB
:100BE300D8A5D2BBD8A5B6FED8A5C8FDD8A5CBC479
:100BF300D8A5CEE5D8A5C1F9D8A5C6DFD8A5B0CB71
:100C0300D8A5BEC5C8FDCAAE0000D5FDB6FEC8FD59
:100C1300CBC4CEE5C1F9C6DFB0CBBEC5CAAEB6AC58
:100C2300C0B0CAF3C5A3BBA2CDC3C1FAC9DFC2ED2D
:0A0C3300D1F2BAEFBCA6B9B7D6EDB6
:06000E0090002B12098A8C
:1000140090002BA3A3E0FEA3E090EA8F75F00412F6
:1000240009C7EE25E025E02583F58312096AEF541C
:1000340060FFE4FEFDFC7805120930E47B01FAF967
:10004400F8C312091F90002B7030A3A3E0FEA3E0B5
:1000540090EA8F75F0041209C7EE25E025E02583A8
:10006400F58312096AEF541FFFEF24FFFFE434FF06
:10007400FEE434FFFDE434FF802BA3A3E0FEA3E001
:1000840090EA8F75F0041209C7EE25E025E0258378
:10009400F58312096AEF541FFFEF241EFFE433FEB9
:1000A400E433FDE433FC90003712098A90002FA357
:1000B400A3E0FEA3E0900B5B75F0041209C7EE25E4
:1000C400E025E02583F58312096A900033E0F8A364
:1000D400E0F9A3E0FAA3E02FFFEA3EFEE93DFDE8E4
:1000E4003CFCEF24FFFFEE34FFFEED34FFFDEC3467
:1000F400FFFC90003B12098A90002BA3A3A3E054B9
:1001040003FFE4FEFDFCEF70397F02A3E0F8A3E0F7
:10011400F9A3E0FAA3E0FBD3120909402590003BC0
:10012400E0FCA3E0FDA3E0FEA3E0FFE4FAF9F8EFAE
:100134002401FFEA3EFEE93DFDE83CFC90003B1251
:10014400098A900037E0FCA3E0FDA3E0FEA3E0FFF2
:10015400A3E0F8A3E0F9A3E0FAA3E0FBC3120909C2
:100164005003020387D20190003BE0FCA3E0FDA30F
:10017400E0FEA3E0FF900037E0F8A3E0F9A3E0FA83
:10018400A3E0FBEF9BFFEE9AFEED99FDEC98FCA338
:1001940012098A90002F1209960000000190004372
:1001A4001209960000000190004712099600000011
:1001B40000900043A3A3A3E014F9E4FFFE7D08FC30
:1001C400A80112094390002BA3A3E0FAA3E090EA4C
:1001D4008F75F0041209C7EA25E025E02583F5832D
:1001E40012097AEB5FFFEA5EFEE95DFDE85CFCE480
:1001F400FBFAF9F8C312091F90003F70030203636E
:1002040002036D90003FE0FCA3E0FDA3E0FEA3E049
:10021400FF90003BE0F8A3E0F9A3E0FAA3E0FBC3FE
:10022400120909500302037790003BE0FCA3E0FDB0
:10023400A3E0FEA3E0FFA3E0F8A3E0F9A3E0FAA3A0
:10024400E0FBEF9BFFEE9AFEED99FDEC98FC90002D
:100254003B12098A900043E0FCA3E0FDA3E0FEA367
:10026400E0FFE4FAF9F8EF2401FFEA3EFEE93DFD80
:10027400E83CFC90004312098A90002BA3A3E0FE03
:10028400A3E090EA8F75F0041209C7EE25E025E09B
:100294002583F58312096AE4FFFEED54F0FDE4FCC6
:1002A4007814120930A804A905AA06AB0790002FF8
:1002B400E0FCA3E0FDA3E0FEA3E0FFC312091F706E
:1002C4002D900047E0FCA3E0FDA3E0FEA3E0FF12B5
:1002D40008FC90004712098A900047E0FCA3E0FD67
:1002E400A3E0FEA3E0FFEC4D4E4F7027800090008A
:1002F4002FE0FCA3E0FDA3E0FEA3E0FFE4FAF9F89D
:10030400EF2401FFEA3EFEE93DFDE83CFC90002FAE
:1003140012098A900043A3A3A3E014F9E4FFFE7D2D
:1003240008FCA80112094390002BA3A3E0FAA3E060
:1003340090EA8F75F0041209C7EA25E025E02583C9
:10034400F58312097AEB5FFFEA5EFEE95DFDE85C86
:10035400FCE4FBFAF9F8C312091F90003F700A127B
:1003640009960000001D0202071209960000001EF3
:1003740002020790003BE0FCA3E0FDA3E0FEA3E043
:1003840002061EC201900037E0FCA3E0FDA3E0FEDC
:10039400A3E0FFA3E0F8A3E0F9A3E0FAA3E0FBC322
:1003A400EF9BFFEE9AFEED99FDEC98FC900037125E
:1003B400098A90002BE0FCA3E0FDA3E0FEA3E02467
:1003C400FFFFEE34FFFEED34FFFDEC34FFFC900044
:1003D4002B12098A90002F1209960000000C90003D
:1003E4002BA3A3E0FEA3E090EA8F75F0041209C7E3
:1003F400EE25E025E02583F58312096AE4FFFEED8E
:1004040054F0FDE4FC7814120930E4FBFAF9F8C363
:1004140012091F90004370091209960000000C8015
:10042400071209960000000D90004712099600007B
:100434000000900043A3A3A3E014F9E4FFFE7D08A9
:10044400FCA80112094390002BA3A3E0FAA3E090B7
:10045400EA8F75F0041209C7EA25E025E02583F543
:100464008312097AEB5FFFEA5EFEE95DFDE85CFC5E
:10047400E4FBFAF9F8C312091F90003F7003020568
:10048400E20205EC90003FE0FCA3E0FDA3E0FEA344
:10049400E0FF900037E0F8A3E0F9A3E0FAA3E0FB63
:1004A400D312090950030205F6900037E0FCA3E0DB
:1004B400FDA3E0FEA3E0FF90003FE0F8A3E0F9A372
:1004C400E0FAA3E0FBEF9BFFEE9AFEED99FDEC98BA
:1004D400FC90003712098A900043E0FCA3E0FDA3DE
:1004E400E0FEA3E0FFEF24FFFFEE34FFFEED34FF58
:1004F400FDEC34FFFC90004312098A900047E0FCB5
:10050400A3E0FDA3E0FEA3E0FFEC4D4E4F7024906A
:10051400002FE0FCA3E0FDA3E0FEA3E0FFEF24FF37
:10052400FFEE34FFFEED34FFFDEC34FFFC90002FB2
:1005340012098A90002BA3A3E0FEA3E090EA8F7532
:10054400F0041209C7EE25E025E02583F58312099E
:100554006AE4FFFEED54F0FDE4FC7814120930A8BF
:1005640004A905AA06AB0790002FE0FCA3E0FDA3B5
:10057400E0FEA3E0FFC312091F7017900047E0FCE0
:10058400A3E0FDA3E0FEA3E0FF1208FC90004712E5
:10059400098A900043A3A3A3E014F9E4FFFE7D08B5
:1005A400FCA80112094390002BA3A3E0FAA3E09056
:1005B400EA8F75F0041209C7EA25E025E02583F5E2
:1005C4008312097AEB5FFFEA5EFEE95DFDE85CFCFD
:1005D400E4FBFAF9F8C312091F90003F700A1209EC
:1005E400960000001D0204881209960000001E02F5
:1005F4000488900037E0F8A3E0F9A3E0FAA3E0FB55
:1006040090003FE0FCA3E0FDA3E0FEA3E0C39BFF5A
:10061400EE9AFEED99FDEC98FCEF2401FFE43EFE1A
:10062400E43DFDE43CFC90003312098A90007BE039
:10063400F8A3E0F9A3E0FAA3E0FB900033E0FCA305
:10064400E0FDA3E0FEA3E0FFEB4FFFEA4EFEE94D21
:10065400FDE84CFC90007B12098A90007BE0F8A333
:10066400E0F9A3E0FAA3E0FBC00090002FE0FCA3B4
:10067400E0FDA3E0FEA3E0FF7806120957D000EBEB
:100684004FFFEA4EFEE94DFDE84CFC90007B120959
:100694008A90002BA3A3E0FEA3E090EA8F75F004F8
:1006A4001209C7EE25E025E02583F58312096AE4E3
:1006B400FFFEED54F0FDE4FC7814120930A804A9FF
:1006C40005AA06AB0790002FE0FCA3E0FDA3E0FE23
:0C06D400A3E0FFC312091F7002D322C371
:0106E00022F7
:060C3D0090005D12098A1F
:100C4300E490006CF0900061E0FCA3E0FDA3E0FE03
:100C5300A3E0FF90002F12098A900065E0FCA3E057
:100C6300FDA3E0FEA3E0FF90003312098A90005D2C
:100C7300E0FCA3E0FDA3E0FEA3E0FF12000E50574B
:100C8300900069E0FBA3E0FAA3E0F9A3E0FF04F01E
:100C930075F002EFA4F58285F08374C875F0F21243
:100CA30007B290007BA3A3E0FEA3E054C0FFEE5481
:100CB30003FEE4FDFC7806120930900C0B75F0027C
:100CC300EF1209C7EE25E02583F583E493FE740153
:100CD30093FF90006C803C90007BA3A3E0FEA3E015
:100CE30054C0FFEE5403FEE4FDFC78061209309075
:100CF3000C0B75F002EF1209C7EE25E02583F5838F
:100D0300E493FE740193FF900069E0FBA3E0FAA370
:100D1300E0F9A3E0FD04F075F002EDA4F58285F09F
:100D230083EE8FF01207B2900069E0FBA3E0FAA311
:100D3300E0F9A3E0FF04F075F002EFA4F58285F07B
:100D43008374D475F0C21207B290007BA3A3A3E00F
:100D5300543FFF900B8F75F004EF1209C7E425E0B1
:100D630025E02583F583E493FE740193FF90006CE3
:100D7300E0FD04F075F002EDA4F58285F083EE8FBB
:100D8300F01207B290007BA3A3A3E0543FFF900BA4
:100D93009175F004EF1209C7E425E025E02583F5FA
:100DA30083E493FE740193FF90006CE0FD04F075FF
:100DB300F002EDA4F58285F083EE8FF01207B29076
:100DC300005DE0FCA3E0FDA3E0FEA3E02494FFEEBE
:100DD30034F8FEED34FFFDEC34FFFCE47B0CFAF950
:100DE300F812086AAF033001028008EF70047F0B2A
:100DF30080011FEF25E02425F582E4340CF583E41C
:100E030093FE740193FF900069E0FBA3E0FAA3E073
:100E1300F9A3E0FD04F075F002EDA4F58285F083FB
:0B0E2300EE8FF01207B290006CE0FFB1
:010E2E0022A1
:03000000020F9854
:0C0F9800787FE4F6D8FD758120020FDFA1
:1006E100BB010689828A83E0225002E722BBFE0217
:0906F100E32289828A83E493224A
:1006FA00BB010CE58229F582E5833AF583E02250B5
:10070A0006E92582F8E622BBFE06E92582F8E222FE
:0D071A00E58229F582E5833AF583E4932218
:10072700BB010689828A83F0225002F722BBFE01B1
:02073700F322AB
:10073900F8BB010DE58229F582E5833AF583E8F0F6
:10074900225006E92582C8F622BBFE05E92582C8A2
:02075900F2228A
:10075B00C5F0F8A3E028F0C5F0F8E5821582700229
:06076B001583E038F022C6
:10077100A3F8E0C5F025F0F0E5821582700215833B
:06078100E0C838F0E82298
:10078700BB010A89828A83E0F5F0A3E0225006873D
:10079700F009E71922BBFE07E3F5F009E3192289FF
:0B07A700828A83E493F5F07401932232
:1007B200F8BB0111E58229F582E5833AF583E8F079
:1007C200E5F0A3F0225009E92582C8F608A6F02236
:0D07D200BBFE09E92582C8F2E5F008F2221D
:1007DF00E88FF0A4CC8BF0A42CFCE98EF0A42CFCB9
:1007EF008AF0EDA42CFCEA8EF0A4CDA8F08BF0A437
:1007FF002DCC3825F0FDE98FF0A42CCD35F0FCEB96
:10080F008EF0A4FEA9F0EB8FF0A4CFC5F02ECD395A
:0F081F00FEE43CFCEAA42DCE35F0FDE43CFC22C7
:10082E0075F008758200EF2FFFEE33FECD33CDCC81
:10083E0033CCC58233C5829BED9AEC99E582984004
:10084E000CF582EE9BFEED9AFDEC99FC0FD5F0D6E1
:10085E00E4CEFBE4CDFAE4CCF9A88222B800C1B90B
:10086E000059BA002DEC8BF084CFCECDFCE5F0CB49
:10087E00F97818EF2FFFEE33FEED33FDEC33FCEB82
:10088E0033FB10D703994004EB99FB0FD8E5E4F93D
:10089E00FA227818EF2FFFEE33FEED33FDEC33FC2A
:1008AE00C933C910D7059BE99A4007EC9BFCE99A1E
:1008BE00F90FD8E0E4C9FAE4CCFB2275F010EF2F63
:1008CE00FFEE33FEED33FDCC33CCC833C810D70763
:1008DE009BEC9AE899400AED9BFDEC9AFCE899F89E
:0E08EE000FD5F0DAE4CDFBE4CCFAE4C8F92231
:0D08FC00CFF4CFCEF4CECDF4CDCCF4CC2291
:10090900EB9FF5F0EA9E42F0E99D42F0EC6480C865
:0609190064809845F02205
:10091F00EB9FF5F0EA9E42F0E99D42F0E89C45F02E
:01092F0022A5
:10093000E8600FECC313FCED13FDEE13FEEF13FFA5
:03094000D8F122C9
:10094300E86010ECA2E713FCED13FDEE13FEEF13CA
:04095300FFD8F022B7
:10095700E8600FEFC333FFEE33FEED33FDEC33FCFE
:03096700D8F122A2
:10096A00E493FC740193FD740293FE740393FF22D3
:10097A00E493F8740193F9740293FA740393FB22D3
:0C098A00ECF0A3EDF0A3EEF0A3EFF022E0
:10099600A8828583F0D083D0821209AD1209AD12E8
:1009A60009AD1209ADE473E493A3C583C5F0C5830D
:1009B600C8C582C8F0A3C583C5F0C583C8C582C8AB
:0109C600220E
:0C09C700A42582F582E5F03583F583223B
:100FA400021321E493A3F8E493A34003F68001F22F
:100FB40008DFF48029E493A3F85407240CC8C3334E
:100FC400C4540F4420C8834004F456800146F6DF1D
:100FD400E4800B0102040810204080901338E47E62
:100FE400019360BCA3FF543F30E509541FFEE49312
:100FF400A360010ECF54C025E060A840B8E493A3D9
:10100400FAE493A3F8E493A3C8C582C8CAC583CA03
:10101400F0A3C8C582C8CAC583CADFE9DEE780BEBB
:01134E00009E
:00000001FF
