:0413B400EF12061F0F
:1013B800E4FF7E01EE600F30B4024207D2B5C2B539
:0613C800EE25E0FE80EEC0
:0113CE0022FC
:041397001205E0FF5C
:10139B007E01EE60135F7004C2B48002D2B4D2B58A
:0813AB00C2B5EE25E0FE80EA68
:0113B3002217
:1011EB00D2977FBF12139B1213B89000051213B442
:1011FB009000041213B49000031213B49000021267
:10120B0013B49000011213B49000061213B4EF1232
:10121B00060DC297E92405F9E43AFA1205C7547F83
:03122B0002060DAB
:10122E00D2977FBE12139B90000512139790000465
:10123E0012139790000312139790000212139790B7
:10124E0000011213979000061213971205C7FF1292
:0A125E00139BE4FF12139BC29722BA
:10146C00D297EF25E04481FF12139B1213B8C29759
:01147C00224D
:10144700D297EF25E04480FF12139BAF0512139B41
:03145700C2972217
:10129E00750817750905750A09750B12750C55E455
:1012AE00F50D750E02C2B5C297FF12146CEF30E742
:1012BE0010E4FD7F071214477B007A0079081212A2
:0112CE002EF1
:0112CF0022FC
:100FD90020003C1C7C1EFFFFFFFFFE3FF98F798E2E
:100FE900718671F671F6780E380E3E3C1FFC1FFCB7
:100FF9001C1C0000010041042008139007C00FE0E9
:10100900DFF61FF00FE007C013902008410401002C
:1010190000000000078003C001E001F000F800F8BB
:1010290000F800F800F801F003F007E00FC01F0016
:101039000000A1A0A1A0A1A0A1A0A1A0A1A0A1A0E0
:02104900A1A064
:10145A00C290D291D295E5805480FFC29570F5C2B0
:01146A0095EC
:01146B00225E
:0913E900FF1213F2E5084480FF35
:1013F200AE0712145AC290C291D2958E80C2952223
:06141B0014F91205C7FFE1
:10142100AE0712145AD290C291D2958E80C29522E3
:101379007F301213F27F0C1213F27F011213F27BEA
:0E138900FF7A0F79D9751001E4FDFF021357AA
:101357008B0D8A0E890F12132CAB0D050FE50FAA03
:101367000E7002050E12141B1510E510D3940050D1
:02137700E8226A
:0A1109008F138D148B158A168917B9
:10111300AF181518EFD394004038AD14AF13121362
:101123002C0513E513D394074005E4F5130514AB1D
:1011330015AA16A917120696FDACF0ECFF1214219E
:10114300AF0512142174022517F517E43516F516A9
:0211530080BE5C
:011155002277
:02132C00AE070A
:10132E00E4FFED146010146013146016240370169D
:10133E00EE2480FF8010EE2490FF800AEE2488FFBA
:09134E008004EE2498FF0213F262
:050003007F0F0213F263
:0514A8007F0C0213F2AD
:101402007F301213F27F011213F27BFF7A0F79D928
:09141200751001E4FDFF021357FF
:060E62008B378A38893944
:100E68007F341213F27F341213F2E4FCEC4480FF57
:100E78001213F27F801213F2E4FDAB370539E5391E
:100E8800AA387002053812141BAB370539E539AAA0
:100E9800387002053812141B0DBD08DE0CBC20CCBE
:100EA800E4FCEC4480FF1213F27F881213F2E4FD95
:100EB800AB370539E539AA387002053812141BAB6F
:100EC800370539E539AA387002053812141B0DBDEB
:100ED80008DE0CBC20CC7F361213F27F300213F2EE
:080CB6008F088B098A0A890BE3
:100CBE007F341213F27F341213F2EDC394025030CC
:100CCE00E4FCEDC454F044804C1213E9AB09050B5F
:100CDE00E50BAA0A7002050A12141BAB09050BE5F7
:100CEE000BAA0A7002050A12141B0CBC10D4803712
:100CFE00E4FCEDC454F044804CFF1213F2E50844BA
:100D0E0088FF1213F2AB09050BE50BAA0A70020558
:100D1E000A12141BAB09050BE50BAA0A7002050A91
:100D2E0012141B0CBC10CBEDC454F044801213E90A
:0A0D3E007F361213F27F300213F229
:1010B1007F341213F27F341213F2E4FCEC4480FF0C
:1010C1001213F27F801213F2E4FDE4FF121421E403
:1010D100FF1214210DBD08F20CBC20E0E4FCEC442D
:1010E10080FF1213F27F881213F2E4FDE4FF121461
:1010F10021E4FF1214210DBD08F20CBC20E07F3663
:081101001213F27F300213F219
:020F6600AB07D7
:100F68007F341213F27F341213F2EDC3940250242B
:100F7800E4FCEDC454F044804CFF1213F2EB4480BF
:100F8800FF1213F2E4FF121421E4FF1214210CBC27
:100F980010E08022E4FCEDC454F044804CFF1213AE
:100FA800F2EB4488FF1213F2E4FF121421E4FF125B
:100FB80014210CBC10E0EDC454F04480FF1213F26D
:100FC800EB4480FF1213F27F361213F27F300213C4
:010FD800F226
:0F148D007BFF7A10793BC374089FF51802110991
:03104B00011E0083
:1012D000D2AF12129E1213791210B17F01121300B5
:1012E000E51E700A300014C20012091D800DE51EB3
:1012F000B40108300205C202120EE8120B5780E05A
:101268004F4B210000000000D6DCD2BBD6DCB6FE16
:10127800D6DCC8FDD6DCCBC4D6DCCEE5D6DCC1F9DD
:10128800D6DCC8D5CEC2B6C8A3BACAAAB6C8A3BA4D
:06129800C4D6D6D3A3BAB0
:09104E00013AAA013BAA013CAAE7
:10143100E4F51FE51F04FDE4FF12148D051FE51FF0
:05144100C3940340EE1E
:011446002283
:10091D007B007A00792B1211EBE53A6530700302FA
:10092D0009D185303AE52EC4540F24B07831F2E464
:10093D0034A318F2E52E540F24B07833F2E434A327
:10094D0018F2783474A1F20874C3F2E52FC4540F71
:10095D0024B07837F2E434A318F2E52F540F24B005
:10096D007839F2E434A318F2783A74A1F20874C31A
:10097D00F2E530C4540F24B0783DF2E434A318F2FC
:10098D00E530540F24B0783FF2E434A318F27BFE27
:10099D007A0079307518087D03E4FF121109E53CE2
:1009AD00652E6020852E3CE52EC394084009E52E6A
:1009BD00D39418500280007BFF7A0F79FBE4FD7F02
:1009CD0005120CB6E53B652D7003020A7E852D3BA5
:1009DD0078407420F208F2087432F2087430F2E5AF
:1009ED002BC4540F243008F2E52B540F243008F299
:1009FD00087420F208F2E52CC4540F243008F2E5F7
:100A0D002C540F243008F2087420F208F2E52DC49E
:100A1D00540F243008F2E52D540F243008F278508D
:100A2D0074A1F20874A4F27BFE7A00794075100E61
:100A3D007D01E4FF1213577BFE7A00795075180182
:100A4D007D017F031211097BFE7A00795075180123
:100A5D007D017F05121109E53175F004A4246CF9AF
:100A6D00741235F0FA7BFF7518027D027F031211A7
:010A7D00096F
:010A7E002255
:100EE80075160075170075180B7B007A00790C12BF
:100EF8000C1CE50B75F00A8424B0F50EE434A3F558
:100F08000DE50B75F00A84E5F024B0F510E434A380
:100F1800F50F7511A17512E67B007A00790D751829
:100F2800037D017F03121109E50C75F00A8424B0D2
:100F3800F50EE434A3F50DE50C75F00A84E5F0240C
:100F4800B0F510E434A3F50F7511A37512A57B0055
:0E0F58007A00790D7518037D027F03021109DE
:100D48001214027BFF7A12798C7518037D01E4FF77
:100D58001211097BFF7A1279927518037D02E4FF5C
:100D68001211097BFF7A1279987518037D03E4FF45
:100D7800121109120EE8E52BC4540F75F00AA4FFEE
:100D8800E52B540F2FFF7840F2E52CC4540F75F073
:100D98000AA4FEE52C540F2E08F2FDE52DC4540FCD
:100DA80075F00AA4FEE52D540F2EFE783FF2FB7570
:100DB8000EFE750F007510301207A1783EEFF27B1A
:0E0DC800FE7A007930F518E4FD7F0102110972
:101156008F0AE50A640D701F051E531E01E51E70F9
:101166000D121402753AAA753BAA753CAA22E51E11
:1011760064017026020D48E50A641B601DE50A64D9
:10118600266017E50AB4D0121214027BFF7A127990
:0B11960068751003E4FDFF12135722E0
:10035D00004D4AB8000D4A4C000DA5410025AAB626
:10036D0000056A49007AADBD00025D5200092D47B6
:10037D00005C95BA000A954E000B4A43004B553769
:10038D00000AD54A00955ABF0004BA53000A5B48CB
:10039D0000652BBC00052B50000A934500474AB958
:1003AD000006AA4C000AD5410024DAB60004B64A6C
:1003BD000069573D000A4E51000D2646005E933AE6
:1003CD00000D534D0005AA430036B53700096D4B9E
:1003DD0000B4AEBF0004AD53000A4D48006D25BCFE
:1003ED00000D254F000D5244005DAA38000B5A4CEC
:1003FD0000056D410024ADB600049B4A007A4BBE4A
:10040D00000A4B51000AA546005B52BA0006D24EB7
:10041D00000ADA4200355B370009374B008497C17B
:10042D000004975300064B480066A53C000EA54FEF
:10043D000006B244004AB638000AAE4C00092E42FE
:10044D00003C9735000C9649007D4ABD000D4A5180
:10045D00000DA5450055AABA00056A4E000A6D4368
:10046D0000452EB700052D4B008A95BF000A955308
:10047D00000B4A47006B553B000AD54F00055A4506
:10048D00004A5D38000A5B4C00052B42003A93B6DA
:10049D0000069349007729BD0006AA51000AD546EA
:1004AD000054DABA0004B64E000A57430045273807
:1004BD00000D264A008E933E000D5252000DAA47A4
:1004CD000066B53B00056D4F0004AE45004A4EB9C0
:1004DD00000A4D4C000D1541002D92B50000000095
:1004ED000000001F0000003B0000005A00000078D3
:1004FD0000000097000000B5000000D4000000F3DC
:10050D0000000111000001300000014E000000004C
:10051D00B3F5D2BBB3F5B6FEB3F5C8FDB3F5CBC499
:10052D00B3F5CEE5B3F5C1F9B3F5C6DFB3F5B0CB91
:10053D00B3F5BEC5B3F5CAAECAAED2BBCAAEB6FE32
:10054D00CAAEC8FDCAAECBC4CAAECEE5CAAEC1F9FD
:10055D00CAAEC6DFCAAEB0CBCAAEBEC5B6FECAAE57
:10056D00D8A5D2BBD8A5B6FED8A5C8FDD8A5CBC4F5
:10057D00D8A5CEE5D8A5C1F9D8A5C6DFD8A5B0CBED
:10058D00D8A5BEC5C8FDCAAE0000D5FDB6FEC8FDD6
:10059D00CBC4CEE5C1F9C6DFB0CBBEC5CAAEB6ACD5
:1005AD00C0B0CAF3C5A3BBA2CDC3C1FAC9DFC2EDAA
:0A05BD00D1F2BAEFBCA6B9B7D6ED33
:06000E008F128D138B140C
:1000140075F004EFA42459F582E5F03403F5831256
:100024000775EF5460FFE4FEFDFC780512074EE40B
:100034007B01FAF9F8C312073D75F0047020E5124C
:10004400A42459F582E5F03403F583120775EF54BF
:100054001FFFEF24FFF516E434FFF515801DE512AC
:10006400A42459F582E5F03403F583120775EF549F
:100074001FFFEF241EF516E433F515E51325E025DF
:10008400E024E5F582E43404F5831207757C00EF7F
:100094002514FFEC3ECF24FFF518EF34FFF517E5E8
:1000A400125403700FE513D3940240080518E518A1
:1000B40070020517C3E5189516E517951550030248
:1000C40001C1D205E5189516F518E5179515F5172C
:1000D400751301751901E4F51AFFFE7D08FCE51995
:1000E40014F9F812076175F004E512A42459F58295
:1000F400E5F03403F583120785EB5FFFEA5EFEE962
:100104005DFDE85CFCE4FBFAF9F8C312073D7003FB
:100114000201B00201B6AF1B7E00C3E5189FE517CC
:100124009E50030201BCE5189FF518E5179EF517CC
:10013400051975F004E512A42459F582E5F0340399
:10014400F583120775E4FFFEED54F0FDE4FC78142A
:1001540012074EA804A905AA06AB07AF13E4FCFDD9
:10016400FEC312073D700B631AFFE51A70060513F0
:1001740080020513E4FFFE7D08FCE51914F9F8126A
:10018400076175F004E512A42459F582E5F03403FF
:10019400F583120785EB5FFFEA5EFEE95DFDE85C2F
:1001A400FCE4FBFAF9F8C312073D7006751B1D0247
:1001B400011A751B1E02011AE5180202ECC205C3DE
:1001C400E5169518F516E5159517F5151512751319
:1001D4000C75F004E512A42459F582E5F03403F516
:1001E40083120775E4FFFEED54F0FDE4FC7814126D
:1001F400074EE4FBFAF9F8C312073D700575190CB4
:10020400800375190DE4F51AFFFE7D08FCE5191449
:10021400F9F812076175F004E512A42459F582E592
:10022400F03403F583120785EB5FFFEA5EFEE95DB8
:10023400FDE85CFCE4FBFAF9F8C312073D70030225
:1002440002DB0202E1AF1B7E00D3E5169FE5159E9B
:1002540050030202E7E5169FF516E5159EF5151500
:1002640019E51A7002151375F004E512A42459F562
:1002740082E5F03403F583120775E4FFFEED54F0D4
:10028400FDE4FC781412074EA804A905AA06AB07DE
:10029400AF13E4FCFDFEC312073D7003631AFFE4D1
:1002A400FFFE7D08FCE51914F9F812076175F004E6
:1002B400E512A42459F582E5F03403F58312078589
:1002C400EB5FFFEA5EFEE95DFDE85CFCE4FBFAF946
:1002D400F8C312073D7006751B1D020249751B1EEB
:1002E400020249C3E51B951604F514E5364514F5D9
:1002F40036E535F535E534F534E533F533E5137591
:10030400F040A4FFAEF0EE3395E0FDFCE5364FF58A
:1003140036E5354EF535E5344DF534E5334CF533F6
:1003240075F004E512A42459F582E5F03403F5834D
:10033400120775E4FFFEED54F0FDE4FC7814120797
:100344004EA804A905AA06AB07AF13E4FCFDFEC33F
:0803540012073D7002D322C321
:01035C00227E
:0207A1008F0BBC
:1007A300E4F51112000E5048AB0EAA0FA910AF11B9
:1007B300051175F002EFA4F58285F08374C875F016
:1007C300F21206C1E53654C0FFE5355403FEE4FDDD
:1007D300FC780612074E90059575F002EF12079507
:1007E300EE25E02583F583E493FE740193FF8030C7
:1007F300E53654C0FFE5355403FEE4FDFC780612EC
:10080300074E90059575F002EF120795EE25E0254A
:1008130083F583E493FE740193FFAB0EAA0FA91033
:10082300AD11051175F002EDA4F58285F083EE8F0D
:10083300F01206C1AB0EAA0FA910AF11051175F086
:1008430002EFA4F58285F08374D475F0C21206C159
:10085300E536543FFF90051975F004EF120795E450
:1008630025E025E02583F583E493FE740193FFAD32
:1008730011051175F002EDA4F58285F083EE8FF07A
:100883001206C1E536543FFF90051B75F004EF12C5
:100893000795E425E025E02583F583E493FE7401C1
:1008A30093FFAD11051175F002EDA4F58285F08378
:1008B300EE8FF01206C1AF11051175F002EFA4F52A
:1008C3008285F08374A175F0A01206C1E50B246440
:1008D300FFE433FE7C007D0C120641AF05300502B8
:1008E3008008EF70047F0B80011FEF25E024AFF534
:1008F30082E43405F583E493FE740193FFAB0EAAFF
:100903000FA910AD11051175F002EDA4F58285F064
:0909130083EE8FF01206C1AF1152
:01091C0022B8
:03105700013D0058
:0C149C000000EF1F70011E144E70F522BE
:1013CF00C2B27FD07E0712149CD2B27F047E00126D
:0913DF00149CA2B29204A204B312
:0113E80022E2
:060C1C008B138A148915F8
:100C2200C2AF1213CF9203200303A20322E4F53DC5
:100C320020B20AAF3D053DEFC3941440F3E53DC336
:100C42009414400280227F087E0012149CE4FDE48A
:100C5200FCE4F53D20B20AAF3D053DEFC3941440DC
:100C6200F3E53DC394144005D2B2D2AF227F037E96
:100C72000012149C74192DF8C000E625E0D000F68D
:100C820030B20F74192DF8E64401F67F037E00128C
:100C9200149C0CBC08BB0DBD05B5AB13AA14A91559
:100CA200E51912060DAB16AA17A918E51B12060DB7
:030CB200D2AFD3EB
:010CB500221C
:10147D00313233263435362537383928301B0D2790
:10105A00C100C101C102012900012A009020010139
:10106A000101010101010101010101010101012146
:10107A000090000F0F0F0F0F0F0F0F0F0F0F0F0F13
:10108A000F0F0F901001010101010101010101017E
:10109A00010101010102220000022403E8012600E5
:0610AA00012700012800EF
:100A7F00E52114601014601314601624037016D24D
:100A8F00A0C2A38010D2A3C2A2800AD2A2C2A18008
:100A9F0004D2A1C2A0E52125E025E02400F8E2253B
:100AAF00E0FFA2A4E4334FFFE52125E025E0240079
:100ABF00F8EFF2E52125E025E02401F8E225E0FF3B
:100ACF00A2A5E4334FFFE52125E025E02401F8EF4F
:100ADF00F2E52125E025E02402F8E225E0FFA2A6B9
:100AEF00E4334FFFE52125E025E02402F8EFF2E59E
:100AFF002125E025E02403F8E225E0FFA2A7E43357
:100B0F004FFFE52125E025E02403F8EFF2E4FFE5B0
:100B1F002125E025E024002FF8E2540FFEBE0F0F31
:100B2F00E52125E025E024202FF87401F2800FEE57
:100B3F00700CE52125E025E024202FF8E4F20FBF0B
:070B4F0004CD052153210331
:010B5600227C
:100B5700E4F508E4F509E50825E025E0247DF582BC
:100B6700E43414F583E5822509F582E43583F583BA
:100B7700E493640D702BE50825E025E02410250992
:100B8700F8E270180523E52370020522D39525E5C1
:100B9700229524400C7FD01211568000E4F522F5EF
:100BA70023E50825E025E024202509F8E2FFE508EC
:100BB70025E025E024102509F8E2FE6F603EEEB43B
:100BC7000120E50825E025E0247DF582E43414F5CD
:100BD70083E5822509F582E43583F583E493FF12E3
:100BE7001156E50825E025E024202509F8E2FFE570
:100BF7000825E025E024102509F8EFF20509E509A5
:100C0700C394045003020B5D0508E508C394045020
:040C170003020B5A6F
:010C1B0022B6
:10130000E4FCFDFE7B997A03F9F81206EEC3741231
:101310009FFFE49EF529EF540FF52A5389F0438986
:0B1320000185298C852A8AD28CD2A975
:01132B00229F
:03000B000211A13E
:0D11A100C0E0C0D075D000C000C006C0077F
:1011AE0085298C852A8A0526E526C394C840207594
:1011BE002600D2000527E52794054005752700D2A5
:1011CE00010528E528C394194005752800D202129E
:0211DE000A7F86
:0B11E000D007D006D000D0D0D0E03205
:03000000020DD618
:0C0DD600787FE4F6D8FD75813D020E1D0B
:1005C700BB010689828A83E0225002E722BBFE0232
:0905D700E32289828A83E4932265
:1005E000BB010CE58229F582E5833AF583E02250D0
:1005F00006E92582F8E622BBFE06E92582F8E2221A
:0D060000E58229F582E5833AF583E4932233
:10060D00BB010689828A83F0225002F722BBFE01CC
:02061D00F322C6
:10061F00F8BB010DE58229F582E5833AF583E8F011
:10062F00225006E92582C8F622BBFE05E92582C8BD
:02063F00F222A5
:10064100BC000BBE0029EF8DF084FFADF022E4CC9D
:10065100F875F008EF2FFFEE33FEEC33FCEE9DEC66
:10066100984005FCEE9DFE0FD5F0E9E4CEFD22EDAC
:10067100F8F5F0EE8420D21CFEADF075F008EF2FF6
:10068100FFED33FD4007985006D5F0F222C398FDE7
:050691000FD5F0EA2284
:10069600BB010A89828A83E0F5F0A3E0225006872F
:1006A600F009E71922BBFE07E3F5F009E3192289F1
:0B06B600828A83E493F5F07401932224
:1006C100F8BB0111E58229F582E5833AF583E8F06B
:1006D100E5F0A3F0225009E92582C8F608A6F02228
:0D06E100BBFE09E92582C8F2E5F008F2220F
:1006EE00E88FF0A4CC8BF0A42CFCE98EF0A42CFCAB
:1006FE008AF0EDA42CFCEA8EF0A4CDA8F08BF0A429
:10070E002DCC3825F0FDE98FF0A42CCD35F0FCEB87
:10071E008EF0A4FEA9F0EB8FF0A4CFC5F02ECD394C
:0F072E00FEE43CFCEAA42DCE35F0FDE43CFC22B9
:10073D00EB9FF5F0EA9E42F0E99D42F0E89C45F012
:01074D002289
:10074E00E8600FECC313FCED13FDEE13FEEF13FF89
:03075E00D8F122AD
:10076100E86010ECA2E713FCED13FDEE13FEEF13AE
:04077100FFD8F0229B
:10077500E493FC740193FD740293FE740393FF22CA
:10078500E493F8740193F9740293FA740393FB22CA
:0C079500A42582F582E5F03583F583226F
:100DE2000212D0E493A3F8E493A34003F68001F245
:100DF20008DFF48029E493A3F85407240CC8C33312
:100E0200C4540F4420C8834004F456800146F6DFE0
:100E1200E4800B010204081020408090104BE47E15
:100E2200019360BCA3FF543F30E509541FFEE493D5
:100E3200A360010ECF54C025E060A840B8E493A39C
:100E4200FAE493A3F8E493A3C8C582C8CAC583CAC7
:100E5200F0A3C8C582C8CAC583CADFE9DEE780BE7F
:0110B000003F
:00000001FF
