:04146900EF12061F59
:10146D00E4FF7E01EE600F30B4024207D2B5C2B583
:06147D00EE25E0FE80EE0A
:011483002246
:04144C001205E0FFA6
:101450007E01EE60135F7004C2B48002D2B4D2B5D4
:08146000C2B5EE25E0FE80EAB2
:011468002261
:1012D600D2977FBF12145012146D90000512146934
:1012E600900004121469900003121469900002120F
:1012F6001469900001121469900006121469EF1225
:10130600060DC297E92405F9E43AFA1205C7547F97
:0313160002060DBF
:10131900D2977FBE12145090000512144C9000040D
:1013290012144C90000312144C90000212144C90A9
:10133900000112144C90000612144C1205C7FF123A
:0A1349001450E4FF121450C2972262
:10152100D297EF25E04481FF12145012146DC29737
:011531002297
:1014FC00D297EF25E04480FF121450AF0512145020
:03150C00C2972261
:10135300750817750905750A09750B12750C55E49F
:10136300F50D750E02C2B5C297FF121521EF30E7D6
:1013730010E4FD7F071214FC7B007A007908121336
:011383001950
:011384002246
:1010C10020003C1C7C1EFFFFFFFFFE3FF98F798E45
:1010D100718671F671F6780E380E3E3C1FFC1FFCCE
:1010E1001C1C0000010041042008139007C00FE000
:1010F100DFF61FF00FE007C0139020084104010044
:1011010000000000078003C001E001F000F800F8D2
:1011110000F800F800F801F003F007E00FC01F002D
:101121000000A1A0A1A0A1A0A1A0A1A0A1A0A1A0F7
:02113100A1A07B
:10150F00C290D291D295E5805480FFC29570F5C2FA
:01151F009536
:0115200022A8
:09149E00FF1214A7E50B4480FFC6
:1014A700AE0712150FC290C291D2958E80C29522B7
:0614D00014F91205C7FF2C
:1014D600AE0712150FD290C291D2958E80C2952278
:10142E007F301214A77F0C1214A77F011214A77B12
:0E143E00FF7A1079C1751001E4FDFF02140C55
:10140C008B0D8A0E890F1213E1AB0D050FE50FAA98
:10141C000E7002050E1214D01510E510D394005066
:02142C00E822B4
:0A11F7008F138D148B158A168917CB
:10120100AF181518EFD394004038AD14AF13121373
:10121100E10513E513D394074005E4F5130514AB79
:1012210015AA16A917120696FDACF0ECFF1214D6FA
:10123100AF051214D674022517F517E43516F51605
:0212410080BE6D
:011243002288
:0213E100AE0755
:1013E300E4FFED14601014601314601624037016E8
:1013F300EE2480FF8010EE2490FF800AEE2488FF05
:091403008004EE2498FF0214A7F6
:050003007F0F0214A7AD
:05155D007F0C0214A741
:1014B7007F301214A77F011214A77BFF7A1079C11E
:0914C700751001E4FDFF02140C94
:060F4A008B3C8A3D893E4C
:100F50007F341214A77F341214A7E4FCEC4480FF02
:100F60001214A77F801214A7E4FDAB3C053EE53EBA
:100F7000AA3D7002053D1214D0AB3C053EE53EAAE9
:100F80003D7002053D1214D00DBD08DE0CBC20CC16
:100F9000E4FCEC4480FF1214A77F881214A7E4FD40
:100FA000AB3C053EE53EAA3D7002053D1214D0ABB8
:100FB0003C053EE53EAA3D7002053D1214D00DBD34
:100FC00008DE0CBC20CC7F361214A77F300214A799
:080D9E008F0B8B0C8A0D890EEE
:100DA6007F341214A77F341214A7EDC39402503077
:100DB600E4FCEDC454F044804C12149EAB0C050EBA
:100DC600E50EAA0D7002050D1214D0AB0C050EE54A
:100DD6000EAA0D7002050D1214D00CBC10D480376B
:100DE600E4FCEDC454F044804CFF1214A7E50B4418
:100DF60088FF1214A7AB0C050EE50EAA0D700205AE
:100E06000D1214D0AB0C050EE50EAA0D7002050DE1
:100E16001214D00CBC10CBEDC454F0448012149EB6
:0A0E26007F361214A77F300214A7D4
:10119F007F341214A77F341214A7E4FCEC4480FFB1
:1011AF001214A77F801214A7E4FDE4FF1214D6E4F3
:1011BF00FF1214D60DBD08F20CBC20E0E4FCEC4489
:1011CF0080FF1214A77F881214A7E4FDE4FF121406
:1011DF00D6E4FF1214D60DBD08F20CBC20E07F360A
:0811EF001214A77F300214A7BF
:02104E00AB07EE
:101050007F341214A77F341214A7EDC394025024D6
:10106000E4FCEDC454F044804CFF1214A7EB448020
:10107000FF1214A7E4FF1214D6E4FF1214D60CBC1E
:1010800010E08022E4FCEDC454F044804CFF1214C4
:10109000A7EB4488FF1214A7E4FF1214D6E4FF1252
:1010A00014D60CBC10E0EDC454F04480FF1214A719
:1010B000EB4480FF1214A77F361214A77F3002146E
:0110C000A788
:0F1542007BFF7A117923C374089FF5180211F704
:03113300011E009A
:10138500D2AF12135312142E12119F7F011213B5EF
:10139500E51E700A300014C20012091D800DE51EFD
:1013A500B40108300205C202120FD0120C3480E0DD
:10128E00C4D6D6D3C9E8B6A8A3BA00B5F7D5FBCA5B
:10129E00B1D6D3A3BA0000000000D6DCD2BBD6DC98
:1012AE00B6FED6DCC8FDD6DCCBC4D6DCCEE5D6DCAD
:1012BE00C1F9D6DCC8D5CEC2B6C8A3BACAAAB6C8BA
:0812CE00A3BAC4D6D6D3A3BA1B
:0F1136000135AA0136AA0137AA0133000134009E
:1014E600E4F51FE51F04FDE4FF121542051FE51F85
:0514F600C3940340EE69
:0114FB0022CE
:10091D007B007A00792B1212D6E535653070030213
:10092D0009D1853035E52EC4540F24B0783BF2E45F
:10093D0034A318F2E52E540F24B0783DF2E434A31D
:10094D0018F2783E74A1F20874C3F2E52FC4540F67
:10095D0024B07841F2E434A318F2E52F540F24B0FB
:10096D007843F2E434A318F2784474A1F20874C306
:10097D00F2E530C4540F24B07847F2E434A318F2F2
:10098D00E530540F24B07849F2E434A318F27BFE1D
:10099D007A00793A7518087D03E4FF1211F7E537EF
:1009AD00652E6020852E37E52EC394084009E52E6F
:1009BD00D39418500280007BFF7A1079E3E4FD7F19
:1009CD0005120D9EE536652D7003020A7E852D36C6
:1009DD00784A7420F208F2087432F2087430F2E5A5
:1009ED002BC4540F243008F2E52B540F243008F299
:1009FD00087420F208F2E52CC4540F243008F2E5F7
:100A0D002C540F243008F2087420F208F2E52DC49E
:100A1D00540F243008F2E52D540F243008F2785A83
:100A2D0074A1F20874A4F27BFE7A00794A75100E57
:100A3D007D01E4FF12140C7BFE7A00795A751801C2
:100A4D007D017F031211F77BFE7A00795A7518012B
:100A5D007D017F051211F7E53175F004A424A4F989
:100A6D00741235F0FA7BFF7518027D027F031211A7
:010A7D00F781
:010A7E002255
:100FD00075160075170075180B7B007A00790C12D6
:100FE0000D04E50B75F00A8424B0F50EE434A3F586
:100FF0000DE50B75F00A84E5F024B0F510E434A398
:10100000F50F7511A17512E67B007A00790D751840
:10101000037D017F031211F7E50C75F00A8424B0FB
:10102000F50EE434A3F50DE50C75F00A84E5F02423
:10103000B0F510E434A3F50F7511A37512A57B006C
:0E1040007A00790D7518037D027F030211F707
:100E30001214B77BFF7A1279C47518037D01E4FFA1
:100E40001211F77BFF7A1279CA7518037D02E4FF4D
:100E50001211F77BFF7A1279D07518037D03E4FF36
:100E60001211F7120FD0E52BC4540F75F00AA4FF2E
:100E7000E52B540F2FFF784AF2E52CC4540F75F080
:100E80000AA4FEE52C540F2E08F2FDE52DC4540FE4
:100E900075F00AA4FEE52D540F2EFE7849F2FB757D
:100EA0000EFE750F0075103A1207A17848EFF27B1D
:0E0EB000FE7A00793AF518E4FD7F010211F791
:0B0A7F008F0AE50A640D6003020B24DF
:100A8A00E51E6402706C751E031214B77BFF7A129E
:100A9A00798E751805E4FDFF1211F7E533C4540F7A
:100AAA0024B07831F2E434A318F2E533540F24B0B9
:100ABA007833F2E434A318F2783474A1F20874C3D8
:100ACA00F2E534C4540F24B07837F2E434A318F2B0
:100ADA00E534540F24B07839F2E434A318F27BFEDB
:100AEA007A0079307518057D027F021211F77D03AD
:100AFA008020751E021214B77BFF7A127999751835
:100B0A0005E4FDFF1211F77535AA7536AA12091DFB
:0A0B1A007D017F021213E1020003C7
:100B2400E50A641B6031E50A6426602BE50A642744
:100B34007025E51EC39402501E051E531E01E51EBA
:100B4400700D1214B77535AA7536AA7537AA22E541
:080B54001EB40103120E302251
:10035D00004D4AB8000D4A4C000DA5410025AAB626
:10036D0000056A49007AADBD00025D5200092D47B6
:10037D00005C95BA000A954E000B4A43004B553769
:10038D00000AD54A00955ABF0004BA53000A5B48CB
:10039D0000652BBC00052B50000A934500474AB958
:1003AD000006AA4C000AD5410024DAB60004B64A6C
:1003BD000069573D000A4E51000D2646005E933AE6
:1003CD00000D534D0005AA430036B53700096D4B9E
:1003DD0000B4AEBF0004AD53000A4D48006D25BCFE
:1003ED00000D254F000D5244005DAA38000B5A4CEC
:1003FD0000056D410024ADB600049B4A007A4BBE4A
:10040D00000A4B51000AA546005B52BA0006D24EB7
:10041D00000ADA4200355B370009374B008497C17B
:10042D000004975300064B480066A53C000EA54FEF
:10043D000006B244004AB638000AAE4C00092E42FE
:10044D00003C9735000C9649007D4ABD000D4A5180
:10045D00000DA5450055AABA00056A4E000A6D4368
:10046D0000452EB700052D4B008A95BF000A955308
:10047D00000B4A47006B553B000AD54F00055A4506
:10048D00004A5D38000A5B4C00052B42003A93B6DA
:10049D0000069349007729BD0006AA51000AD546EA
:1004AD000054DABA0004B64E000A57430045273807
:1004BD00000D264A008E933E000D5252000DAA47A4
:1004CD000066B53B00056D4F0004AE45004A4EB9C0
:1004DD00000A4D4C000D1541002D92B50000000095
:1004ED000000001F0000003B0000005A00000078D3
:1004FD0000000097000000B5000000D4000000F3DC
:10050D0000000111000001300000014E000000004C
:10051D00B3F5D2BBB3F5B6FEB3F5C8FDB3F5CBC499
:10052D00B3F5CEE5B3F5C1F9B3F5C6DFB3F5B0CB91
:10053D00B3F5BEC5B3F5CAAECAAED2BBCAAEB6FE32
:10054D00CAAEC8FDCAAECBC4CAAECEE5CAAEC1F9FD
:10055D00CAAEC6DFCAAEB0CBCAAEBEC5B6FECAAE57
:10056D00D8A5D2BBD8A5B6FED8A5C8FDD8A5CBC4F5
:10057D00D8A5CEE5D8A5C1F9D8A5C6DFD8A5B0CBED
:10058D00D8A5BEC5C8FDCAAE0000D5FDB6FEC8FDD6
:10059D00CBC4CEE5C1F9C6DFB0CBBEC5CAAEB6ACD5
:1005AD00C0B0CAF3C5A3BBA2CDC3C1FAC9DFC2EDAA
:0A05BD00D1F2BAEFBCA6B9B7D6ED33
:06000E008F128D138B140C
:1000140075F004EFA42459F582E5F03403F5831256
:100024000775EF5460FFE4FEFDFC780512074EE40B
:100034007B01FAF9F8C312073D75F0047020E5124C
:10004400A42459F582E5F03403F583120775EF54BF
:100054001FFFEF24FFF516E434FFF515801DE512AC
:10006400A42459F582E5F03403F583120775EF549F
:100074001FFFEF241EF516E433F515E51325E025DF
:10008400E024E5F582E43404F5831207757C00EF7F
:100094002514FFEC3ECF24FFF518EF34FFF517E5E8
:1000A400125403700FE513D3940240080518E518A1
:1000B40070020517C3E5189516E517951550030248
:1000C40001C1D205E5189516F518E5179515F5172C
:1000D400751301751901E4F51AFFFE7D08FCE51995
:1000E40014F9F812076175F004E512A42459F58295
:1000F400E5F03403F583120785EB5FFFEA5EFEE962
:100104005DFDE85CFCE4FBFAF9F8C312073D7003FB
:100114000201B00201B6AF1B7E00C3E5189FE517CC
:100124009E50030201BCE5189FF518E5179EF517CC
:10013400051975F004E512A42459F582E5F0340399
:10014400F583120775E4FFFEED54F0FDE4FC78142A
:1001540012074EA804A905AA06AB07AF13E4FCFDD9
:10016400FEC312073D700B631AFFE51A70060513F0
:1001740080020513E4FFFE7D08FCE51914F9F8126A
:10018400076175F004E512A42459F582E5F03403FF
:10019400F583120785EB5FFFEA5EFEE95DFDE85C2F
:1001A400FCE4FBFAF9F8C312073D7006751B1D0247
:1001B400011A751B1E02011AE5180202ECC205C3DE
:1001C400E5169518F516E5159517F5151512751319
:1001D4000C75F004E512A42459F582E5F03403F516
:1001E40083120775E4FFFEED54F0FDE4FC7814126D
:1001F400074EE4FBFAF9F8C312073D700575190CB4
:10020400800375190DE4F51AFFFE7D08FCE5191449
:10021400F9F812076175F004E512A42459F582E592
:10022400F03403F583120785EB5FFFEA5EFEE95DB8
:10023400FDE85CFCE4FBFAF9F8C312073D70030225
:1002440002DB0202E1AF1B7E00D3E5169FE5159E9B
:1002540050030202E7E5169FF516E5159EF5151500
:1002640019E51A7002151375F004E512A42459F562
:1002740082E5F03403F583120775E4FFFEED54F0D4
:10028400FDE4FC781412074EA804A905AA06AB07DE
:10029400AF13E4FCFDFEC312073D7003631AFFE4D1
:1002A400FFFE7D08FCE51914F9F812076175F004E6
:1002B400E512A42459F582E5F03403F58312078589
:1002C400EB5FFFEA5EFEE95DFDE85CFCE4FBFAF946
:1002D400F8C312073D7006751B1D020249751B1EEB
:1002E400020249C3E51B951604F514E53B4514F5D4
:1002F4003BE53AF53AE539F539E538F538E513756E
:10030400F040A4FFAEF0EE3395E0FDFCE53B4FF585
:100314003BE53A4EF53AE5394DF539E5384CF538D3
:1003240075F004E512A42459F582E5F03403F5834D
:10033400120775E4FFFEED54F0FDE4FC7814120797
:100344004EA804A905AA06AB07AF13E4FCFDFEC33F
:0803540012073D7002D322C321
:01035C00227E
:0207A1008F0BBC
:1007A300E4F51112000E5048AB0EAA0FA910AF11B9
:1007B300051175F002EFA4F58285F08374C875F016
:1007C300F21206C1E53B54C0FFE53A5403FEE4FDD3
:1007D300FC780612074E90059575F002EF12079507
:1007E300EE25E02583F583E493FE740193FF8030C7
:1007F300E53B54C0FFE53A5403FEE4FDFC780612E2
:10080300074E90059575F002EF120795EE25E0254A
:1008130083F583E493FE740193FFAB0EAA0FA91033
:10082300AD11051175F002EDA4F58285F083EE8F0D
:10083300F01206C1AB0EAA0FA910AF11051175F086
:1008430002EFA4F58285F08374D475F0C21206C159
:10085300E53B543FFF90051975F004EF120795E44B
:1008630025E025E02583F583E493FE740193FFAD32
:1008730011051175F002EDA4F58285F083EE8FF07A
:100883001206C1E53B543FFF90051B75F004EF12C0
:100893000795E425E025E02583F583E493FE7401C1
:1008A30093FFAD11051175F002EDA4F58285F08378
:1008B300EE8FF01206C1AF11051175F002EFA4F52A
:1008C3008285F08374A175F0A01206C1E50B246440
:1008D300FFE433FE7C007D0C120641AF05300502B8
:1008E3008008EF70047F0B80011FEF25E024AFF534
:1008F30082E43405F583E493FE740193FFAB0EAAFF
:100903000FA910AD11051175F002EDA4F58285F064
:0909130083EE8FF01206C1AF1152
:01091C0022B8
:03114500013F0067
:0C1551000000EF1F70011E144E70F52208
:10148400C2B27FD07E07121551D2B27F047E001201
:091494001551A2B29204A204B3A6
:01149D00222C
:060D04008B138A1489150F
:100D0A00C2AF1214849203200303A20322E4F53F24
:100D1A0020B20AAF3F053FEFC3941440F3E53FC347
:100D2A009414400280227F087E00121551E4FDE4EB
:100D3A00FCE4F53F20B20AAF3F053FEFC3941440ED
:100D4A00F3E53FC394144005D2B2D2AF227F037EAB
:100D5A000012155174192DF8C000E625E0D000F6EE
:100D6A0030B20F74192DF8E64401F67F037E0012A3
:100D7A0015510CBC08BB0DBD05B5AB13AA14A915BA
:100D8A00E51912060DAB16AA17A918E51B12060DCE
:030D9A00D2AFD302
:010D9D002233
:10153200313233263435362537383928301B0D27DA
:10114800C100C101C102012900012A00902001014A
:101158000101010101010101010101010101012157
:101168000090000F0F0F0F0F0F0F0F0F0F0F0F0F24
:101178000F0F0F901001010101010101010101018F
:10118800010101010102220000022403E8012600F6
:0611980001270001280000
:100B5C00E52114601014601314601624037016D26F
:100B6C00A0C2A38010D2A3C2A2800AD2A2C2A1802A
:100B7C0004D2A1C2A0E52125E025E02400F8E2255D
:100B8C00E0FFA2A4E4334FFFE52125E025E024009B
:100B9C00F8EFF2E52125E025E02401F8E225E0FF5D
:100BAC00A2A5E4334FFFE52125E025E02401F8EF71
:100BBC00F2E52125E025E02402F8E225E0FFA2A6DB
:100BCC00E4334FFFE52125E025E02402F8EFF2E5C0
:100BDC002125E025E02403F8E225E0FFA2A7E43379
:100BEC004FFFE52125E025E02403F8EFF2E4FFE5D3
:100BFC002125E025E024002FF8E2540FFEBE0F0F54
:100C0C00E52125E025E024202FF87401F2800FEE79
:100C1C00700CE52125E025E024202FF8E4F20FBF2D
:070C2C0004CD052153210353
:010C3300229E
:100C3400E4F508E4F509E50825E025E02432F58229
:100C4400E43415F583E5822509F582E43583F583DB
:100C5400E49364267036E50825E025E02410250990
:100C6400F8E270230523E52370020522D39525E5D8
:100C740022952440177FD0120A7F74C82525F525B4
:100C8400E43524F5248005E4F522F523E50825E080
:100C940025E024202509F8E2FFE50825E025E024E5
:100CA400102509F8E2FE6F603EEEB40120E5082548
:100CB400E025E02432F582E43415F583E582250944
:100CC400F582E43583F583E493FF120A7FE5082572
:100CD400E025E024202509F8E2FFE50825E025E0E9
:100CE40024102509F8EFF20509E509C3940450031B
:0F0CF400020C3A0508E508C394045003020C37BC
:010D030022CD
:1013B500E4FCFDFE7B997A03F9F81206EEC374127C
:1013C5009FFFE49EF529EF540FF52A5389F04389D1
:0B13D5000185298C852A8AD28CD2A9C0
:0113E00022EA
:03000B000212449A
:0D124400C0E0C0D075D000C000C006C007DB
:1012510085298C852A8A0526E526C394C8402075F0
:101261002600D2000527E52794054005752700D201
:10127100010528E528C394194005752800D20212FA
:021281000B5C04
:0B128300D007D006D000D0D0D0E03261
:03000000020EBE2F
:0C0EBE00787FE4F6D8FD75813F020F0537
:1005C700BB010689828A83E0225002E722BBFE0232
:0905D700E32289828A83E4932265
:1005E000BB010CE58229F582E5833AF583E02250D0
:1005F00006E92582F8E622BBFE06E92582F8E2221A
:0D060000E58229F582E5833AF583E4932233
:10060D00BB010689828A83F0225002F722BBFE01CC
:02061D00F322C6
:10061F00F8BB010DE58229F582E5833AF583E8F011
:10062F00225006E92582C8F622BBFE05E92582C8BD
:02063F00F222A5
:10064100BC000BBE0029EF8DF084FFADF022E4CC9D
:10065100F875F008EF2FFFEE33FEEC33FCEE9DEC66
:10066100984005FCEE9DFE0FD5F0E9E4CEFD22EDAC
:10067100F8F5F0EE8420D21CFEADF075F008EF2FF6
:10068100FFED33FD4007985006D5F0F222C398FDE7
:050691000FD5F0EA2284
:10069600BB010A89828A83E0F5F0A3E0225006872F
:1006A600F009E71922BBFE07E3F5F009E3192289F1
:0B06B600828A83E493F5F07401932224
:1006C100F8BB0111E58229F582E5833AF583E8F06B
:1006D100E5F0A3F0225009E92582C8F608A6F02228
:0D06E100BBFE09E92582C8F2E5F008F2220F
:1006EE00E88FF0A4CC8BF0A42CFCE98EF0A42CFCAB
:1006FE008AF0EDA42CFCEA8EF0A4CDA8F08BF0A429
:10070E002DCC3825F0FDE98FF0A42CCD35F0FCEB87
:10071E008EF0A4FEA9F0EB8FF0A4CFC5F02ECD394C
:0F072E00FEE43CFCEAA42DCE35F0FDE43CFC22B9
:10073D00EB9FF5F0EA9E42F0E99D42F0E89C45F012
:01074D002289
:10074E00E8600FECC313FCED13FDEE13FEEF13FF89
:03075E00D8F122AD
:10076100E86010ECA2E713FCED13FDEE13FEEF13AE
:04077100FFD8F0229B
:10077500E493FC740193FD740293FE740393FF22CA
:10078500E493F8740193F9740293FA740393FB22CA
:0C079500A42582F582E5F03583F583226F
:100ECA00021385E493A3F8E493A34003F68001F2A6
:100EDA0008DFF48029E493A3F85407240CC8C33329
:100EEA00C4540F4420C8834004F456800146F6DFF8
:100EFA00E4800B0102040810204080901133E47E44
:100F0A00019360BCA3FF543F30E509541FFEE493EC
:100F1A00A360010ECF54C025E060A840B8E493A3B3
:100F2A00FAE493A3F8E493A3C8C582C8CAC583CADE
:100F3A00F0A3C8C582C8CAC583CADFE9DEE780BE96
:01119E000050
:00000001FF
