:040FCA00EF1204AB73
:100FCE00E4FF7E01EE600F30B4024207D2B5C2B527
:060FDE00EE25E0FE80EEAE
:010FE40022EA
:040FAD0012046CFFBF
:100FB1007E01EE60135F7004C2B48002D2B4D2B578
:080FC100C2B5EE25E0FE80EA56
:010FC9002205
:100DD600D2977FBF120FB1120FCE900005120FCA25
:100DE600900004120FCA900003120FCA900002125C
:100DF6000FCA900001120FCA900006120FCAEF1216
:100E06000499C297E92405F9E43AFA120453547F87
:030E16000204993A
:100E5C00D2977FBE120FB1900005120FAD90000417
:100E6C00120FAD900003120FAD900002120FAD9057
:100E7C000001120FAD900006120FAD120453FF12B9
:0A0E8C000FB1E4FF120FB1C297226C
:10106A00D297EF25E04481FF120FB1120FCEC2973B
:01107A002253
:10104500D297EF25E04480FF120FB1AF05120FB123
:03105500C297221D
:100E9600752117752205752309752412752555E4E4
:100EA600F526752702C2B5C297FF12106AEF30E722
:100EB60010E4FD7F071210457B007A007921120E9F
:010EC6005CCF
:010EC7002208
:020008002000D6
:10105800C290D291D295E5805480FFC29570F5C2B6
:0110680095F2
:011069002264
:10107B00AE07121058C290C291D2958E80C29522A3
:06102F0014F9120453FF46
:10103500AE07121058D290C291D2958E80C29522D9
:100F8F007F3012107B7F0C12107B7F0112107B7B46
:0E0F9F00FF7A007908754801E4FDFF020F4B50
:100F4B008B458A468947120EF5AB450547E547AAFF
:100F5B00467002054612102F1548E548D3940050F1
:020F6B00E8227A
:0A0D89008F438D448B458A4689474D
:100D9300AF481548EFD394004038AD44AF43120E2B
:100DA300F50543E543D394074005E4F5430544AB18
:100DB30045AA46A947120522FDACF0ECFF121035F7
:100DC300AF0512103574022547F547E43546F5465D
:020DD30080BEE0
:010DD50022FB
:020EF500AE0746
:100EF700E4FFED14601014601314601624037016D9
:100F0700EE2480FF8010EE2490FF800AEE2488FFF5
:090F17008004EE2498FF02107B17
:050003007F0F02107BDD
:0510A2007F0C02107B31
:100FFF007F3012107B7F0112107B7BFF7A00790804
:09100F00754801E4FDFF020F4BDE
:060C91008B188A19891A74
:100C97007F3412107B7F3412107BE4FCEC4480FF1E
:100CA70012107B7F8012107BE4FDAB18051AE51A42
:100CB700AA197002051912102FAB18051AE51AAAFE
:100CC700197002051912102F0DBD08DE0CBC20CCBF
:100CD700E4FCEC4480FF12107B7F8812107BE4FD5C
:100CE700AB18051AE51AAA197002051912102FABCD
:100CF70018051AE51AAA197002051912102F0DBD49
:0B0D070008DE0CBC20CC7F3602107B05
:10101800C100C101011200011300011000011100FB
:100F6D00D2AF120E96120F8F7F0A120EC812109763
:100F7D00300005C200120A263001F5C201120D1211
:020F8D0080EEF4
:100EC800E4FCFDFE7B997A03F9F812057AAD07ACCC
:100ED80006C374129DFDE49CF5128D135389F043EB
:0C0EE800890185128C85138AD28CD2A956
:010EF40022DB
:03000B00020F20C1
:040F2000C0E0C0D09D
:100F240085128C85138A0510E510C3941440057549
:100F34001000D2000511E511C394C84005751100D5
:020F4400D201D8
:050F4600D0D0D0E03224
:100E19002A00D2BB00B6FE00C800CBC400CEE50054
:100E2900C1F900CCEC00C0F1B0DD00FF0E19FF0ED6
:100E39001BFF0E1EFF0E21FF0E23FF0E26FF0E299C
:100E4900FF0E2C2020333020202020343525524815
:030E590020202036
:06102800011BAA011CAA35
:100A26007B007A007908120DD6E51B650D60778587
:100A36000D1B752120E509C4540F2430F522E50964
:100A4600540F2430F52375242DE50AC4540F2430A1
:100A5600F525E50A540F2430F526752720E50BC445
:100A6600540F2430F528E50B540F2430F529752A48
:100A76003AE50CC4540F2430F52BE50C540F243002
:100A8600F52C752D3AE50DC4540F2430F52EE50DE1
:100A9600540F2430F52F7B007A00792175480F7D9D
:100AA60001E4FF120F4BE51C650A7003020B5E851D
:100AB6000A1C752132752230E508C4540F2430F51E
:100AC60023E508540F2430F5247B007A007921753C
:100AD6004804E4FD7F01120F4B7BFF7A0E792F75D8
:100AE6004802E4FD7F04120D89E50E75F003A42487
:100AF60034F582E4340EF583E493FB740193FA74BF
:100B06000293F9754801E4FD7F06120D89E508C4D4
:100B1600540F75F00AA4FFE508540F2FFFE509C42A
:100B2600540F75F00AA4FEE509540F2EFDE50AC41C
:100B3600540F75F00AA4FEE50A540F2EFB75460005
:100B46007547007548351208AA7B007A0079358FFB
:080B5600487D027F01120D89A8
:010B5E002274
:100D120078237C007D007BFF7A0E794C7E007F1069
:100D220012042D7533A17534E675380075390075D6
:100D32003A217B007A007922120B5FE52175F00AD5
:100D4200842430F525E52175F00A84E5F02430F598
:100D520026E52275F00A842430F52BE52275F00A87
:100D620084E5F02430F52C7B007A00792375481055
:100D72007D03E4FF120F4B7B007A00793375480143
:070D82007D037F02020D89D1
:10064000004D4AB8000D4A4C000DA5410025AAB640
:1006500000056A49007AADBD00025D5200092D47D0
:10066000005C95BA000A954E000B4A43004B553783
:10067000000AD54A00955ABF0004BA53000A5B48E5
:1006800000652BBC00052B50000A934500474AB972
:100690000006AA4C000AD5410024DAB60004B64A86
:1006A0000069573D000A4E51000D2646005E933A00
:1006B000000D534D0005AA430036B53700096D4BB8
:1006C00000B4AEBF0004AD53000A4D48006D25BC18
:1006D000000D254F000D5244005DAA38000B5A4C06
:1006E00000056D410024ADB600049B4A007A4BBE64
:1006F000000A4B51000AA546005B52BA0006D24ED2
:10070000000ADA4200355B370009374B008497C195
:100710000004975300064B480066A53C000EA54F09
:100720000006B244004AB638000AAE4C00092E4218
:10073000003C9735000C9649007D4ABD000D4A519A
:10074000000DA5450055AABA00056A4E000A6D4382
:1007500000452EB700052D4B008A95BF000A955322
:10076000000B4A47006B553B000AD54F00055A4520
:10077000004A5D38000A5B4C00052B42003A93B6F4
:1007800000069349007729BD0006AA51000AD54604
:100790000054DABA0004B64E000A57430045273821
:1007A000000D264A008E933E000D5252000DAA47BE
:1007B0000066B53B00056D4F0004AE45004A4EB9DA
:1007C000000A4D4C000D1541002D92B500000000AF
:1007D0000000001F0000003B0000005A00000078ED
:1007E00000000097000000B5000000D4000000F3F6
:1007F00000000111000001300000014E0000000067
:10080000B3F5D2BBB3F5B6FEB3F5C8FDB3F5CBC4B3
:10081000B3F5CEE5B3F5C1F9B3F5C6DFB3F5B0CBAB
:10082000B3F5BEC5B3F5CAAECAAED2BBCAAEB6FE4C
:10083000CAAEC8FDCAAECBC4CAAECEE5CAAEC1F917
:10084000CAAEC6DFCAAEB0CBCAAEBEC5B6FECAAE71
:10085000D8A5D2BBD8A5B6FED8A5C8FDD8A5CBC40F
:10086000D8A5CEE5D8A5C1F9D8A5C6DFD8A5B0CB07
:10087000D8A5BEC5C8FDCAAE0000D5FDB6FEC8FDF0
:10088000CBC4CEE5C1F9C6DFB0CBBEC5CAAEB6ACEF
:10089000C0B0CAF3C5A3BBA2CDC3C1FAC9DFC2EDC4
:0A08A000D1F2BAEFBCA6B9B7D6ED4D
:06000E008F4A8D4B8B4C64
:1000140075F004EFA4243CF582E5F03406F5831270
:100024000614EF5460FFE4FEFDFC78051205DAE4E3
:100034007B01FAF9F8C31205C975F0047020E54A8A
:10004400A4243CF582E5F03406F583120614EF543B
:100054001FFFEF24FFF54EE434FFF54D801DE54A04
:10006400A4243CF582E5F03406F583120614EF541B
:100074001FFFEF241EF54EE433F54DE54B25E02537
:10008400E024C8F582E43407F5831206147C00EFFB
:10009400254CFFEC3ECF24FFF550EF34FFF54FE540
:1000A4004A5403700FE54BD3940240080550E550C1
:1000B4007002054FC3E550954EE54F954D50030230
:1000C40001C1D204E550954EF550E54F954DF54FDD
:1000D400754B01755101E4F552FFFE7D08FCE551B5
:1000E40014F9F81205ED75F004E54AA4243CF582F0
:1000F400E5F03406F583120624EB5FFFEA5EFEE9C1
:100104005DFDE85CFCE4FBFAF9F8C31205C9700371
:100114000201B00201B6AF537E00C3E5509FE54F24
:100124009E50030201BCE5509FF550E54F9EF54FEC
:10013400055175F004E54AA4243CF582E5F0340643
:10014400F583120614E4FFFEED54F0FDE4FC78148C
:100154001205DAA804A905AA06AB07AF4BE4FCFD17
:10016400FEC31205C9700B6352FFE5527006054BBE
:100174008002054BE4FFFE7D08FCE55114F9F812FA
:1001840005ED75F004E54AA4243CF582E5F0340657
:10019400F583120624EB5FFFEA5EFEE95DFDE85C91
:1001A400FCE4FBFAF9F8C31205C9700675531D0285
:1001B400011A75531E02011AE5500202ECC204C36F
:1001C400E54E9550F54EE54D954FF54D154A754B59
:1001D4000C75F004E54AA4243CF582E5F03406F5F8
:1001E40083120614E4FFFEED54F0FDE4FC781412CF
:1001F40005DAE4FBFAF9F8C31205C9700575510C68
:10020400800375510DE4F552FFFE7D08FCE55114A1
:10021400F9F81205ED75F004E54AA4243CF582E5ED
:10022400F03406F583120624EB5FFFEA5EFEE95D17
:10023400FDE85CFCE4FBFAF9F8C31205C97003029B
:1002440002DB0202E1AF537E00D3E54E9FE54D9EF3
:1002540050030202E7E54E9FF54EE54D9EF54D1520
:1002640051E5527002154B75F004E54AA4243CF59F
:1002740082E5F03406F583120614E4FFFEED54F033
:10028400FDE4FC78141205DAA804A905AA06AB0754
:10029400AF4BE4FCFDFEC31205C970036352FFE4D7
:1002A400FFFE7D08FCE55114F9F81205ED75F00424
:1002B400E54AA4243CF582E5F03406F583120624CD
:1002C400EB5FFFEA5EFEE95DFDE85CFCE4FBFAF946
:1002D400F8C31205C9700675531D02024975531EF1
:1002E400020249C3E553954E04F54CE517454CF518
:1002F40017E516F516E515F515E514F514E54B7532
:10030400F040A4FFAEF0EE3395E0FDFCE5174FF5A9
:1003140017E5164EF516E5154DF515E5144CF514CF
:1003240075F004E54AA4243CF582E5F03406F5832F
:10033400120614E4FFFEED54F0FDE4FC78141205FB
:10034400DAA804A905AA06AB07AF4BE4FCFDFEC37B
:080354001205C97002D322C397
:01035C00227E
:0208AA008F437A
:1008AC00E4F54912000E5048AB46AA47A948AF4997
:1008BC00054975F002EFA4F58285F08374C875F0D4
:1008CC00F212054DE51754C0FFE5165403FEE4FD86
:1008DC00FC78061205DA90087875F002EF120634EF
:1008EC00EE25E02583F583E493FE740193FF8030BD
:1008FC00E51754C0FFE5165403FEE4FDFC78061220
:10090C0005DA90087875F002EF120634EE25E02532
:10091C0083F583E493FE740193FFAB46AA47A94881
:10092C00AD49054975F002EDA4F58285F083EE8F93
:10093C00F012054DAB46AA47A948AF49054975F0D9
:10094C0002EFA4F58285F08374D475F0C212054DC4
:10095C00E517543FFF9007FC75F004EF120634E4E2
:10096C0025E025E02583F583E493FE740193FFAD28
:10097C0049054975F002EDA4F58285F083EE8FF000
:10098C0012054DE517543FFF9007FE75F004EF126A
:10099C000634E425E025E02583F583E493FE740119
:1009AC0093FFAD49054975F002EDA4F58285F083FE
:1009BC00EE8FF012054DAF49054975F002EFA4F525
:1009CC008285F08374A175F0A012054DE543246473
:1009DC00FFE433FE7C007D0C1204CDAF0530040225
:1009EC008008EF70047F0B80011FEF25E02492F547
:1009FC0082E43408F583E493FE740193FFAB46AABA
:100A0C0047A948AD49054975F002EDA4F58285F07A
:090A1C0083EE8FF012054DAF4985
:010A250022AE
:0C108B000000EF1F70011E144E70F522D3
:100FE500C2B27FD07E0712108BD2B27F047E001270
:090FF500108BA2B29203A203B317
:010FFE0022D0
:100B5F00753B20E4F53FF53EF53DF53C120FE59270
:100B6F0002200203A2022230B2FD7F087E00121083
:100B7F008BAF3B153BEF605430B2FDE4F58BD28E5B
:100B8F0020B2FDC28EE58BC3941E5017AF3FAE3E11
:100B9F00AD3DAC3C78011206018F3F8E3E8D3D8CF2
:100BAF003C80CEAF3FAE3EAD3DAC3C78011206016E
:100BBF008F3F8E3E8D3D8C3CE53F4401F53FE53E3A
:100BCF00F53EE53DF53DE53CF53C80A5AF3FAE3E3E
:100BDF00AD3DAC3C78181205DAEF120499AF3FAE79
:100BEF003EAD3DAC3C78081205DAAB38AA39A93ACC
:050BFF00EF120499D380
:010C040022CD
:0B10970053890F438910C2ABD2BB226B
:03000000020C05EA
:0C0C0500787FE4F6D8FD758153020C4C9A
:10035D00E709F608DFFA8046E709F208DFFA803E82
:10036D0088828C83E709F0A3DFFA8032E309F6086F
:10037D00DFFA8078E309F208DFFA807088828C83D7
:10038D00E309F0A3DFFA806489828A83E0A3F6088B
:10039D00DFFA805889828A83E0A3F208DFFA804C65
:1003AD0080D280FA80C680D4806980F2803380103C
:1003BD0080A680EA809A80A880DA80E280CA8033A5
:1003CD0089828A83ECFAE493A3C8C582C8CCC5831D
:1003DD00CCF0A3C8C582C8CCC583CCDFE9DEE780ED
:1003ED000D89828A83E493A3F608DFF9ECFAA9F06C
:1003FD00EDFB2289828A83ECFAE0A3C8C582C8CCC2
:10040D00C583CCF0A3C8C582C8CCC583CCDFEADEDA
:10041D00E880DB89828A83E493A3F208DFF980CC3C
:10042D0088F0EF60010E4E60C388F0ED2402B40435
:10043D000050B9F582EB2402B4040050AF232345DC
:06044D0082239003AD7351
:10045300BB010689828A83E0225002E722BBFE02A7
:09046300E32289828A83E49322DA
:10046C00BB010CE58229F582E5833AF583E0225045
:10047C0006E92582F8E622BBFE06E92582F8E2228F
:0D048C00E58229F582E5833AF583E49322A9
:10049900BB010689828A83F0225002F722BBFE0142
:0204A900F3223C
:1004AB00F8BB010DE58229F582E5833AF583E8F087
:1004BB00225006E92582C8F622BBFE05E92582C833
:0204CB00F2221B
:1004CD00BC000BBE0029EF8DF084FFADF022E4CC13
:1004DD00F875F008EF2FFFEE33FEEC33FCEE9DECDC
:1004ED00984005FCEE9DFE0FD5F0E9E4CEFD22ED22
:1004FD00F8F5F0EE8420D21CFEADF075F008EF2F6C
:10050D00FFED33FD4007985006D5F0F222C398FD5C
:05051D000FD5F0EA22F9
:10052200BB010A89828A83E0F5F0A3E022500687A4
:10053200F009E71922BBFE07E3F5F009E319228966
:0B054200828A83E493F5F07401932299
:10054D00F8BB0111E58229F582E5833AF583E8F0E0
:10055D00E5F0A3F0225009E92582C8F608A6F0229D
:0D056D00BBFE09E92582C8F2E5F008F22284
:10057A00E88FF0A4CC8BF0A42CFCE98EF0A42CFC20
:10058A008AF0EDA42CFCEA8EF0A4CDA8F08BF0A49E
:10059A002DCC3825F0FDE98FF0A42CCD35F0FCEBFD
:1005AA008EF0A4FEA9F0EB8FF0A4CFC5F02ECD39C2
:0F05BA00FEE43CFCEAA42DCE35F0FDE43CFC222F
:1005C900EB9FF5F0EA9E42F0E99D42F0E89C45F088
:0105D90022FF
:1005DA00E8600FECC313FCED13FDEE13FEEF13FFFF
:0305EA00D8F12223
:1005ED00E86010ECA2E713FCED13FDEE13FEEF1324
:0405FD00FFD8F02211
:10060100E8600FEFC333FFEE33FEED33FDEC33FC57
:03061100D8F122FB
:10061400E493FC740193FD740293FE740393FF222C
:10062400E493F8740193F9740293FA740393FB222C
:0C063400A42582F582E5F03583F58322D1
:100C1100020F6DE493A3F8E493A34003F68001F27D
:100C210008DFF48029E493A3F85407240CC8C333E4
:100C3100C4540F4420C8834004F456800146F6DFB3
:100C4100E4800B0102040810204080901018E47E1B
:100C5100019360BCA3FF543F30E509541FFEE493A8
:100C6100A360010ECF54C025E060A840B8E493A36F
:100C7100FAE493A3F8E493A3C8C582C8CAC583CA9A
:100C8100F0A3C8C582C8CAC583CADFE9DEE780BE52
:01102E0000C1
:00000001FF
